{
  "_format": "hh-sol-artifact-1",
  "contractName": "Faucet",
  "sourceName": "contracts/Faucet.sol",
  "abi": [
    {
      "inputs": [
        {
          "internalType": "address",
          "name": "_daiAddr",
          "type": "address"
        },
        {
          "internalType": "address",
          "name": "_wethAddr",
          "type": "address"
        },
        {
          "internalType": "address",
          "name": "_wbtcAddr",
          "type": "address"
        },
        {
          "internalType": "address",
          "name": "_plsAddr",
          "type": "address"
        }
      ],
      "stateMutability": "nonpayable",
      "type": "constructor"
    },
    {
      "inputs": [
        {
          "internalType": "address",
          "name": "owner",
          "type": "address"
        }
      ],
      "name": "OwnableInvalidOwner",
      "type": "error"
    },
    {
      "inputs": [
        {
          "internalType": "address",
          "name": "account",
          "type": "address"
        }
      ],
      "name": "OwnableUnauthorizedAccount",
      "type": "error"
    },
    {
      "anonymous": false,
      "inputs": [
        {
          "indexed": true,
          "internalType": "address",
          "name": "previousOwner",
          "type": "address"
        },
        {
          "indexed": true,
          "internalType": "address",
          "name": "newOwner",
          "type": "address"
        }
      ],
      "name": "OwnershipTransferred",
      "type": "event"
    },
    {
      "anonymous": false,
      "inputs": [
        {
          "indexed": true,
          "internalType": "address",
          "name": "user",
          "type": "address"
        }
      ],
      "name": "TokensClaimed",
      "type": "event"
    },
    {
      "inputs": [],
      "name": "DAI_AMOUNT",
      "outputs": [
        {
          "internalType": "uint256",
          "name": "",
          "type": "uint256"
        }
      ],
      "stateMutability": "view",
      "type": "function"
    },
    {
      "inputs": [],
      "name": "PLS_AMOUNT",
      "outputs": [
        {
          "internalType": "uint256",
          "name": "",
          "type": "uint256"
        }
      ],
      "stateMutability": "view",
      "type": "function"
    },
    {
      "inputs": [],
      "name": "WBTC_AMOUNT",
      "outputs": [
        {
          "internalType": "uint256",
          "name": "",
          "type": "uint256"
        }
      ],
      "stateMutability": "view",
      "type": "function"
    },
    {
      "inputs": [],
      "name": "WETH_AMOUNT",
      "outputs": [
        {
          "internalType": "uint256",
          "name": "",
          "type": "uint256"
        }
      ],
      "stateMutability": "view",
      "type": "function"
    },
    {
      "inputs": [
        {
          "internalType": "address",
          "name": "",
          "type": "address"
        }
      ],
      "name": "hasClaimed",
      "outputs": [
        {
          "internalType": "bool",
          "name": "",
          "type": "bool"
        }
      ],
      "stateMutability": "view",
      "type": "function"
    },
    {
      "inputs": [],
      "name": "mockDaiToken",
      "outputs": [
        {
          "internalType": "address",
          "name": "",
          "type": "address"
        }
      ],
      "stateMutability": "view",
      "type": "function"
    },
    {
      "inputs": [],
      "name": "mockPlsToken",
      "outputs": [
        {
          "internalType": "address",
          "name": "",
          "type": "address"
        }
      ],
      "stateMutability": "view",
      "type": "function"
    },
    {
      "inputs": [],
      "name": "mockWbtcToken",
      "outputs": [
        {
          "internalType": "address",
          "name": "",
          "type": "address"
        }
      ],
      "stateMutability": "view",
      "type": "function"
    },
    {
      "inputs": [],
      "name": "mockWethToken",
      "outputs": [
        {
          "internalType": "address",
          "name": "",
          "type": "address"
        }
      ],
      "stateMutability": "view",
      "type": "function"
    },
    {
      "inputs": [],
      "name": "owner",
      "outputs": [
        {
          "internalType": "address",
          "name": "",
          "type": "address"
        }
      ],
      "stateMutability": "view",
      "type": "function"
    },
    {
      "inputs": [],
      "name": "renounceOwnership",
      "outputs": [],
      "stateMutability": "nonpayable",
      "type": "function"
    },
    {
      "inputs": [],
      "name": "requestTokens",
      "outputs": [],
      "stateMutability": "nonpayable",
      "type": "function"
    },
    {
      "inputs": [
        {
          "internalType": "address",
          "name": "newOwner",
          "type": "address"
        }
      ],
      "name": "transferOwnership",
      "outputs": [],
      "stateMutability": "nonpayable",
      "type": "function"
    },
    {
      "inputs": [
        {
          "internalType": "address",
          "name": "_daiAddr",
          "type": "address"
        },
        {
          "internalType": "address",
          "name": "_wethAddr",
          "type": "address"
        },
        {
          "internalType": "address",
          "name": "_wbtcAddr",
          "type": "address"
        },
        {
          "internalType": "address",
          "name": "_plsAddr",
          "type": "address"
        }
      ],
      "name": "updateTokenAddresses",
      "outputs": [],
      "stateMutability": "nonpayable",
      "type": "function"
    }
  ],
  "bytecode": "0x608060405234801561001057600080fd5b5060405161082e38038061082e83398101604081905261002f9161011e565b338061005557604051631e4fbdf760e01b81526000600482015260240160405180910390fd5b61005e816100b2565b50600180546001600160a01b039586166001600160a01b0319918216179091556002805494861694821694909417909355600380549285169284169290921790915560048054919093169116179055610172565b600080546001600160a01b038381166001600160a01b0319831681178455604051919092169283917f8be0079c531659141344cd1fd0a4f28419497f9722a3daafe3b4186f6b6457e09190a35050565b80516001600160a01b038116811461011957600080fd5b919050565b6000806000806080858703121561013457600080fd5b61013d85610102565b935061014b60208601610102565b925061015960408601610102565b915061016760608601610102565b905092959194509250565b6106ad806101816000396000f3fe608060405234801561001057600080fd5b50600436106100ea5760003560e01c8063929398f51161008c578063d512c52211610066578063d512c522146101d2578063e4e5ecfe146101e5578063e7a21b40146101f8578063f2fde38b1461020a57600080fd5b8063929398f51461019c578063bce5e070146101ac578063c507eb9d146101bf57600080fd5b8063715018a6116100c8578063715018a61461014157806373b2e80e1461014957806383464e221461017c5780638da5cb5b1461018b57600080fd5b80632485dacf146100ef578063359cf2b71461010c5780636e59dad314610116575b600080fd5b6100f96203865881565b6040519081526020015b60405180910390f35b61011461021d565b005b600354610129906001600160a01b031681565b6040516001600160a01b039091168152602001610103565b6101146104be565b61016c610157366004610601565b60056020526000908152604090205460ff1681565b6040519015158152602001610103565b6100f9670169aa8f8622800081565b6000546001600160a01b0316610129565b6100f9680d8d726b7177a8000081565b600454610129906001600160a01b031681565b6101146101cd366004610623565b6104d2565b600154610129906001600160a01b031681565b600254610129906001600160a01b031681565b6100f96a0875378ab09fb2f450000081565b610114610218366004610601565b61052a565b3360009081526005602052604090205460ff16156102825760405162461bcd60e51b815260206004820152601e60248201527f4661756365743a20546f6b656e7320616c726561647920636c61696d6564000060448201526064015b60405180910390fd5b336000908152600560205260409020805460ff19166001908117909155546001600160a01b03161561031b576001546040516340c10f1960e01b8152336004820152680d8d726b7177a8000060248201526001600160a01b03909116906340c10f1990604401600060405180830381600087803b15801561030257600080fd5b505af1158015610316573d6000803e3d6000fd5b505050505b6002546001600160a01b031615610398576002546040516340c10f1960e01b8152336004820152670169aa8f8622800060248201526001600160a01b03909116906340c10f1990604401600060405180830381600087803b15801561037f57600080fd5b505af1158015610393573d6000803e3d6000fd5b505050505b6003546001600160a01b031615610410576003546040516340c10f1960e01b81523360048201526203865860248201526001600160a01b03909116906340c10f1990604401600060405180830381600087803b1580156103f757600080fd5b505af115801561040b573d6000803e3d6000fd5b505050505b6004546001600160a01b03161561049157600480546040516340c10f1960e01b815233928101929092526a0875378ab09fb2f450000060248301526001600160a01b0316906340c10f1990604401600060405180830381600087803b15801561047857600080fd5b505af115801561048c573d6000803e3d6000fd5b505050505b60405133907fb638240958296a5b145c2f18c8ec62f72a20911efab2d38fb48c76695373761f90600090a2565b6104c6610568565b6104d06000610595565b565b6104da610568565b600180546001600160a01b039586166001600160a01b0319918216179091556002805494861694821694909417909355600380549285169284169290921790915560048054919093169116179055565b610532610568565b6001600160a01b03811661055c57604051631e4fbdf760e01b815260006004820152602401610279565b61056581610595565b50565b6000546001600160a01b031633146104d05760405163118cdaa760e01b8152336004820152602401610279565b600080546001600160a01b038381166001600160a01b0319831681178455604051919092169283917f8be0079c531659141344cd1fd0a4f28419497f9722a3daafe3b4186f6b6457e09190a35050565b80356001600160a01b03811681146105fc57600080fd5b919050565b60006020828403121561061357600080fd5b61061c826105e5565b9392505050565b6000806000806080858703121561063957600080fd5b610642856105e5565b9350610650602086016105e5565b925061065e604086016105e5565b915061066c606086016105e5565b90509295919450925056fea264697066735822122003c225702e419e207c785acab8e67d4544cb0bb371314418398dd371a0d8b4dc64736f6c63430008140033",
  "linkReferences": {},
  "deployedLinkReferences": {}
}