{
  "_format": "hh-sol-artifact-1",
  "contractName": "Faucet",
  "sourceName": "contracts/Faucet.sol",
  "abi": [
    {
      "inputs": [
        {
          "internalType": "address",
          "name": "_daiAddr",
          "type": "address"
        }
      ],
      "stateMutability": "nonpayable",
      "type": "constructor"
    },
    {
      "inputs": [
        {
          "internalType": "address",
          "name": "owner",
          "type": "address"
        }
      ],
      "name": "OwnableInvalidOwner",
      "type": "error"
    },
    {
      "inputs": [
        {
          "internalType": "address",
          "name": "account",
          "type": "address"
        }
      ],
      "name": "OwnableUnauthorizedAccount",
      "type": "error"
    },
    {
      "anonymous": false,
      "inputs": [
        {
          "indexed": true,
          "internalType": "address",
          "name": "previousOwner",
          "type": "address"
        },
        {
          "indexed": true,
          "internalType": "address",
          "name": "newOwner",
          "type": "address"
        }
      ],
      "name": "OwnershipTransferred",
      "type": "event"
    },
    {
      "anonymous": false,
      "inputs": [
        {
          "indexed": true,
          "internalType": "address",
          "name": "user",
          "type": "address"
        }
      ],
      "name": "TokensClaimed",
      "type": "event"
    },
    {
      "inputs": [],
      "name": "DAI_AMOUNT",
      "outputs": [
        {
          "internalType": "uint256",
          "name": "",
          "type": "uint256"
        }
      ],
      "stateMutability": "view",
      "type": "function"
    },
    {
      "inputs": [
        {
          "internalType": "address",
          "name": "",
          "type": "address"
        }
      ],
      "name": "hasClaimed",
      "outputs": [
        {
          "internalType": "bool",
          "name": "",
          "type": "bool"
        }
      ],
      "stateMutability": "view",
      "type": "function"
    },
    {
      "inputs": [],
      "name": "mockDaiToken",
      "outputs": [
        {
          "internalType": "address",
          "name": "",
          "type": "address"
        }
      ],
      "stateMutability": "view",
      "type": "function"
    },
    {
      "inputs": [],
      "name": "owner",
      "outputs": [
        {
          "internalType": "address",
          "name": "",
          "type": "address"
        }
      ],
      "stateMutability": "view",
      "type": "function"
    },
    {
      "inputs": [],
      "name": "renounceOwnership",
      "outputs": [],
      "stateMutability": "nonpayable",
      "type": "function"
    },
    {
      "inputs": [],
      "name": "requestTokens",
      "outputs": [],
      "stateMutability": "nonpayable",
      "type": "function"
    },
    {
      "inputs": [
        {
          "internalType": "address",
          "name": "newOwner",
          "type": "address"
        }
      ],
      "name": "transferOwnership",
      "outputs": [],
      "stateMutability": "nonpayable",
      "type": "function"
    },
    {
      "inputs": [
        {
          "internalType": "address",
          "name": "_daiAddr",
          "type": "address"
        }
      ],
      "name": "updateTokenAddresses",
      "outputs": [],
      "stateMutability": "nonpayable",
      "type": "function"
    }
  ],
  "bytecode": "0x608060405234801561001057600080fd5b506040516104f03803806104f083398101604081905261002f916100d4565b338061005557604051631e4fbdf760e01b81526000600482015260240160405180910390fd5b61005e81610084565b50600180546001600160a01b0319166001600160a01b0392909216919091179055610104565b600080546001600160a01b038381166001600160a01b0319831681178455604051919092169283917f8be0079c531659141344cd1fd0a4f28419497f9722a3daafe3b4186f6b6457e09190a35050565b6000602082840312156100e657600080fd5b81516001600160a01b03811681146100fd57600080fd5b9392505050565b6103dd806101136000396000f3fe608060405234801561001057600080fd5b50600436106100885760003560e01c80638da5cb5b1161005b5780638da5cb5b146100ea578063929398f51461010f578063d512c5221461012d578063f2fde38b1461014057600080fd5b8063359cf2b71461008d5780633fa2a5f014610097578063715018a6146100aa57806373b2e80e146100b2575b600080fd5b610095610153565b005b6100956100a5366004610377565b61027e565b6100956102a8565b6100d56100c0366004610377565b60026020526000908152604090205460ff1681565b60405190151581526020015b60405180910390f35b6000546001600160a01b03165b6040516001600160a01b0390911681526020016100e1565b61011f680d8d726b7177a8000081565b6040519081526020016100e1565b6001546100f7906001600160a01b031681565b61009561014e366004610377565b6102bc565b3360009081526002602052604090205460ff16156101b85760405162461bcd60e51b815260206004820152601e60248201527f4661756365743a20546f6b656e7320616c726561647920636c61696d6564000060448201526064015b60405180910390fd5b336000908152600260205260409020805460ff19166001908117909155546001600160a01b031615610251576001546040516340c10f1960e01b8152336004820152680d8d726b7177a8000060248201526001600160a01b03909116906340c10f1990604401600060405180830381600087803b15801561023857600080fd5b505af115801561024c573d6000803e3d6000fd5b505050505b60405133907fb638240958296a5b145c2f18c8ec62f72a20911efab2d38fb48c76695373761f90600090a2565b6102866102fa565b600180546001600160a01b0319166001600160a01b0392909216919091179055565b6102b06102fa565b6102ba6000610327565b565b6102c46102fa565b6001600160a01b0381166102ee57604051631e4fbdf760e01b8152600060048201526024016101af565b6102f781610327565b50565b6000546001600160a01b031633146102ba5760405163118cdaa760e01b81523360048201526024016101af565b600080546001600160a01b038381166001600160a01b0319831681178455604051919092169283917f8be0079c531659141344cd1fd0a4f28419497f9722a3daafe3b4186f6b6457e09190a35050565b60006020828403121561038957600080fd5b81356001600160a01b03811681146103a057600080fd5b939250505056fea2646970667358221220a10006848395798bb74d9389c131e067084352b1c9242fc306442e5655199f6b64736f6c63430008160033",
  "linkReferences": {},
  "deployedLinkReferences": {}
}