{
  "_format": "hh-sol-artifact-1",
  "contractName": "Faucet",
  "sourceName": "contracts/Faucet.sol",
  "abi": [
    {
      "inputs": [
        {
          "internalType": "address",
          "name": "_daiAddr",
          "type": "address"
        },
        {
          "internalType": "address",
          "name": "_wethAddr",
          "type": "address"
        },
        {
          "internalType": "address",
          "name": "_wbtcAddr",
          "type": "address"
        }
      ],
      "stateMutability": "nonpayable",
      "type": "constructor"
    },
    {
      "inputs": [
        {
          "internalType": "address",
          "name": "owner",
          "type": "address"
        }
      ],
      "name": "OwnableInvalidOwner",
      "type": "error"
    },
    {
      "inputs": [
        {
          "internalType": "address",
          "name": "account",
          "type": "address"
        }
      ],
      "name": "OwnableUnauthorizedAccount",
      "type": "error"
    },
    {
      "anonymous": false,
      "inputs": [
        {
          "indexed": true,
          "internalType": "address",
          "name": "previousOwner",
          "type": "address"
        },
        {
          "indexed": true,
          "internalType": "address",
          "name": "newOwner",
          "type": "address"
        }
      ],
      "name": "OwnershipTransferred",
      "type": "event"
    },
    {
      "anonymous": false,
      "inputs": [
        {
          "indexed": true,
          "internalType": "address",
          "name": "user",
          "type": "address"
        }
      ],
      "name": "TokensClaimed",
      "type": "event"
    },
    {
      "inputs": [],
      "name": "DAI_AMOUNT",
      "outputs": [
        {
          "internalType": "uint256",
          "name": "",
          "type": "uint256"
        }
      ],
      "stateMutability": "view",
      "type": "function"
    },
    {
      "inputs": [],
      "name": "WBTC_AMOUNT",
      "outputs": [
        {
          "internalType": "uint256",
          "name": "",
          "type": "uint256"
        }
      ],
      "stateMutability": "view",
      "type": "function"
    },
    {
      "inputs": [],
      "name": "WETH_AMOUNT",
      "outputs": [
        {
          "internalType": "uint256",
          "name": "",
          "type": "uint256"
        }
      ],
      "stateMutability": "view",
      "type": "function"
    },
    {
      "inputs": [
        {
          "internalType": "address",
          "name": "",
          "type": "address"
        }
      ],
      "name": "hasClaimed",
      "outputs": [
        {
          "internalType": "bool",
          "name": "",
          "type": "bool"
        }
      ],
      "stateMutability": "view",
      "type": "function"
    },
    {
      "inputs": [],
      "name": "mockDaiToken",
      "outputs": [
        {
          "internalType": "address",
          "name": "",
          "type": "address"
        }
      ],
      "stateMutability": "view",
      "type": "function"
    },
    {
      "inputs": [],
      "name": "mockWbtcToken",
      "outputs": [
        {
          "internalType": "address",
          "name": "",
          "type": "address"
        }
      ],
      "stateMutability": "view",
      "type": "function"
    },
    {
      "inputs": [],
      "name": "mockWethToken",
      "outputs": [
        {
          "internalType": "address",
          "name": "",
          "type": "address"
        }
      ],
      "stateMutability": "view",
      "type": "function"
    },
    {
      "inputs": [],
      "name": "owner",
      "outputs": [
        {
          "internalType": "address",
          "name": "",
          "type": "address"
        }
      ],
      "stateMutability": "view",
      "type": "function"
    },
    {
      "inputs": [],
      "name": "renounceOwnership",
      "outputs": [],
      "stateMutability": "nonpayable",
      "type": "function"
    },
    {
      "inputs": [],
      "name": "requestTokens",
      "outputs": [],
      "stateMutability": "nonpayable",
      "type": "function"
    },
    {
      "inputs": [
        {
          "internalType": "address",
          "name": "newOwner",
          "type": "address"
        }
      ],
      "name": "transferOwnership",
      "outputs": [],
      "stateMutability": "nonpayable",
      "type": "function"
    },
    {
      "inputs": [
        {
          "internalType": "address",
          "name": "_daiAddr",
          "type": "address"
        },
        {
          "internalType": "address",
          "name": "_wethAddr",
          "type": "address"
        },
        {
          "internalType": "address",
          "name": "_wbtcAddr",
          "type": "address"
        }
      ],
      "name": "updateTokenAddresses",
      "outputs": [],
      "stateMutability": "nonpayable",
      "type": "function"
    }
  ],
  "bytecode": "0x608060405234801561001057600080fd5b5060405161070e38038061070e83398101604081905261002f9161010d565b338061005557604051631e4fbdf760e01b81526000600482015260240160405180910390fd5b61005e816100a1565b50600180546001600160a01b039485166001600160a01b031991821617909155600280549385169382169390931790925560038054919093169116179055610150565b600080546001600160a01b038381166001600160a01b0319831681178455604051919092169283917f8be0079c531659141344cd1fd0a4f28419497f9722a3daafe3b4186f6b6457e09190a35050565b80516001600160a01b038116811461010857600080fd5b919050565b60008060006060848603121561012257600080fd5b61012b846100f1565b9250610139602085016100f1565b9150610147604085016100f1565b90509250925092565b6105af8061015f6000396000f3fe608060405234801561001057600080fd5b50600436106100b45760003560e01c806383464e221161007157806383464e22146101595780638da5cb5b14610168578063929398f514610179578063d512c52214610189578063e4e5ecfe1461019c578063f2fde38b146101af57600080fd5b80632485dacf146100b9578063359cf2b7146100d65780634e0e4879146100e05780636e59dad3146100f3578063715018a61461011e57806373b2e80e14610126575b600080fd5b6100c36203865881565b6040519081526020015b60405180910390f35b6100de6101c2565b005b6100de6100ee366004610514565b6103e2565b600354610106906001600160a01b031681565b6040516001600160a01b0390911681526020016100cd565b6100de610429565b610149610134366004610557565b60046020526000908152604090205460ff1681565b60405190151581526020016100cd565b6100c3670169aa8f8622800081565b6000546001600160a01b0316610106565b6100c3680d8d726b7177a8000081565b600154610106906001600160a01b031681565b600254610106906001600160a01b031681565b6100de6101bd366004610557565b61043d565b3360009081526004602052604090205460ff16156102275760405162461bcd60e51b815260206004820152601e60248201527f4661756365743a20546f6b656e7320616c726561647920636c61696d6564000060448201526064015b60405180910390fd5b336000908152600460205260409020805460ff19166001908117909155546001600160a01b0316156102c0576001546040516340c10f1960e01b8152336004820152680d8d726b7177a8000060248201526001600160a01b03909116906340c10f1990604401600060405180830381600087803b1580156102a757600080fd5b505af11580156102bb573d6000803e3d6000fd5b505050505b6002546001600160a01b03161561033d576002546040516340c10f1960e01b8152336004820152670169aa8f8622800060248201526001600160a01b03909116906340c10f1990604401600060405180830381600087803b15801561032457600080fd5b505af1158015610338573d6000803e3d6000fd5b505050505b6003546001600160a01b0316156103b5576003546040516340c10f1960e01b81523360048201526203865860248201526001600160a01b03909116906340c10f1990604401600060405180830381600087803b15801561039c57600080fd5b505af11580156103b0573d6000803e3d6000fd5b505050505b60405133907fb638240958296a5b145c2f18c8ec62f72a20911efab2d38fb48c76695373761f90600090a2565b6103ea61047b565b600180546001600160a01b039485166001600160a01b031991821617909155600280549385169382169390931790925560038054919093169116179055565b61043161047b565b61043b60006104a8565b565b61044561047b565b6001600160a01b03811661046f57604051631e4fbdf760e01b81526000600482015260240161021e565b610478816104a8565b50565b6000546001600160a01b0316331461043b5760405163118cdaa760e01b815233600482015260240161021e565b600080546001600160a01b038381166001600160a01b0319831681178455604051919092169283917f8be0079c531659141344cd1fd0a4f28419497f9722a3daafe3b4186f6b6457e09190a35050565b80356001600160a01b038116811461050f57600080fd5b919050565b60008060006060848603121561052957600080fd5b610532846104f8565b9250610540602085016104f8565b915061054e604085016104f8565b90509250925092565b60006020828403121561056957600080fd5b610572826104f8565b939250505056fea264697066735822122099e33e455840425701a33204bfc9efc8b0d9ff7238c625138c4f8e2a3f3611af64736f6c63430008160033",
  "linkReferences": {},
  "deployedLinkReferences": {}
}