{
  "_format": "hh-sol-artifact-1",
  "contractName": "GenericERC20",
  "sourceName": "contracts/GenericERC20.sol",
  "abi": [
    {
      "inputs": [
        {
          "internalType": "string",
          "name": "name_",
          "type": "string"
        },
        {
          "internalType": "string",
          "name": "symbol_",
          "type": "string"
        },
        {
          "internalType": "uint8",
          "name": "decimals_",
          "type": "uint8"
        }
      ],
      "stateMutability": "nonpayable",
      "type": "constructor"
    },
    {
      "inputs": [
        {
          "internalType": "address",
          "name": "spender",
          "type": "address"
        },
        {
          "internalType": "uint256",
          "name": "allowance",
          "type": "uint256"
        },
        {
          "internalType": "uint256",
          "name": "needed",
          "type": "uint256"
        }
      ],
      "name": "ERC20InsufficientAllowance",
      "type": "error"
    },
    {
      "inputs": [
        {
          "internalType": "address",
          "name": "sender",
          "type": "address"
        },
        {
          "internalType": "uint256",
          "name": "balance",
          "type": "uint256"
        },
        {
          "internalType": "uint256",
          "name": "needed",
          "type": "uint256"
        }
      ],
      "name": "ERC20InsufficientBalance",
      "type": "error"
    },
    {
      "inputs": [
        {
          "internalType": "address",
          "name": "approver",
          "type": "address"
        }
      ],
      "name": "ERC20InvalidApprover",
      "type": "error"
    },
    {
      "inputs": [
        {
          "internalType": "address",
          "name": "receiver",
          "type": "address"
        }
      ],
      "name": "ERC20InvalidReceiver",
      "type": "error"
    },
    {
      "inputs": [
        {
          "internalType": "address",
          "name": "sender",
          "type": "address"
        }
      ],
      "name": "ERC20InvalidSender",
      "type": "error"
    },
    {
      "inputs": [
        {
          "internalType": "address",
          "name": "spender",
          "type": "address"
        }
      ],
      "name": "ERC20InvalidSpender",
      "type": "error"
    },
    {
      "inputs": [
        {
          "internalType": "address",
          "name": "owner",
          "type": "address"
        }
      ],
      "name": "OwnableInvalidOwner",
      "type": "error"
    },
    {
      "inputs": [
        {
          "internalType": "address",
          "name": "account",
          "type": "address"
        }
      ],
      "name": "OwnableUnauthorizedAccount",
      "type": "error"
    },
    {
      "anonymous": false,
      "inputs": [
        {
          "indexed": true,
          "internalType": "address",
          "name": "owner",
          "type": "address"
        },
        {
          "indexed": true,
          "internalType": "address",
          "name": "spender",
          "type": "address"
        },
        {
          "indexed": false,
          "internalType": "uint256",
          "name": "value",
          "type": "uint256"
        }
      ],
      "name": "Approval",
      "type": "event"
    },
    {
      "anonymous": false,
      "inputs": [
        {
          "indexed": true,
          "internalType": "address",
          "name": "previousOwner",
          "type": "address"
        },
        {
          "indexed": true,
          "internalType": "address",
          "name": "newOwner",
          "type": "address"
        }
      ],
      "name": "OwnershipTransferred",
      "type": "event"
    },
    {
      "anonymous": false,
      "inputs": [
        {
          "indexed": true,
          "internalType": "address",
          "name": "from",
          "type": "address"
        },
        {
          "indexed": true,
          "internalType": "address",
          "name": "to",
          "type": "address"
        },
        {
          "indexed": false,
          "internalType": "uint256",
          "name": "value",
          "type": "uint256"
        }
      ],
      "name": "Transfer",
      "type": "event"
    },
    {
      "inputs": [
        {
          "internalType": "address",
          "name": "_minter",
          "type": "address"
        }
      ],
      "name": "addMinter",
      "outputs": [],
      "stateMutability": "nonpayable",
      "type": "function"
    },
    {
      "inputs": [
        {
          "internalType": "address",
          "name": "owner",
          "type": "address"
        },
        {
          "internalType": "address",
          "name": "spender",
          "type": "address"
        }
      ],
      "name": "allowance",
      "outputs": [
        {
          "internalType": "uint256",
          "name": "",
          "type": "uint256"
        }
      ],
      "stateMutability": "view",
      "type": "function"
    },
    {
      "inputs": [
        {
          "internalType": "address",
          "name": "spender",
          "type": "address"
        },
        {
          "internalType": "uint256",
          "name": "value",
          "type": "uint256"
        }
      ],
      "name": "approve",
      "outputs": [
        {
          "internalType": "bool",
          "name": "",
          "type": "bool"
        }
      ],
      "stateMutability": "nonpayable",
      "type": "function"
    },
    {
      "inputs": [
        {
          "internalType": "address",
          "name": "account",
          "type": "address"
        }
      ],
      "name": "balanceOf",
      "outputs": [
        {
          "internalType": "uint256",
          "name": "",
          "type": "uint256"
        }
      ],
      "stateMutability": "view",
      "type": "function"
    },
    {
      "inputs": [],
      "name": "decimals",
      "outputs": [
        {
          "internalType": "uint8",
          "name": "",
          "type": "uint8"
        }
      ],
      "stateMutability": "view",
      "type": "function"
    },
    {
      "inputs": [
        {
          "internalType": "address",
          "name": "",
          "type": "address"
        }
      ],
      "name": "isMinter",
      "outputs": [
        {
          "internalType": "bool",
          "name": "",
          "type": "bool"
        }
      ],
      "stateMutability": "view",
      "type": "function"
    },
    {
      "inputs": [
        {
          "internalType": "address",
          "name": "to",
          "type": "address"
        },
        {
          "internalType": "uint256",
          "name": "amount",
          "type": "uint256"
        }
      ],
      "name": "mint",
      "outputs": [],
      "stateMutability": "nonpayable",
      "type": "function"
    },
    {
      "inputs": [],
      "name": "name",
      "outputs": [
        {
          "internalType": "string",
          "name": "",
          "type": "string"
        }
      ],
      "stateMutability": "view",
      "type": "function"
    },
    {
      "inputs": [],
      "name": "owner",
      "outputs": [
        {
          "internalType": "address",
          "name": "",
          "type": "address"
        }
      ],
      "stateMutability": "view",
      "type": "function"
    },
    {
      "inputs": [],
      "name": "renounceOwnership",
      "outputs": [],
      "stateMutability": "nonpayable",
      "type": "function"
    },
    {
      "inputs": [],
      "name": "symbol",
      "outputs": [
        {
          "internalType": "string",
          "name": "",
          "type": "string"
        }
      ],
      "stateMutability": "view",
      "type": "function"
    },
    {
      "inputs": [],
      "name": "totalSupply",
      "outputs": [
        {
          "internalType": "uint256",
          "name": "",
          "type": "uint256"
        }
      ],
      "stateMutability": "view",
      "type": "function"
    },
    {
      "inputs": [
        {
          "internalType": "address",
          "name": "to",
          "type": "address"
        },
        {
          "internalType": "uint256",
          "name": "value",
          "type": "uint256"
        }
      ],
      "name": "transfer",
      "outputs": [
        {
          "internalType": "bool",
          "name": "",
          "type": "bool"
        }
      ],
      "stateMutability": "nonpayable",
      "type": "function"
    },
    {
      "inputs": [
        {
          "internalType": "address",
          "name": "from",
          "type": "address"
        },
        {
          "internalType": "address",
          "name": "to",
          "type": "address"
        },
        {
          "internalType": "uint256",
          "name": "value",
          "type": "uint256"
        }
      ],
      "name": "transferFrom",
      "outputs": [
        {
          "internalType": "bool",
          "name": "",
          "type": "bool"
        }
      ],
      "stateMutability": "nonpayable",
      "type": "function"
    },
    {
      "inputs": [
        {
          "internalType": "address",
          "name": "newOwner",
          "type": "address"
        }
      ],
      "name": "transferOwnership",
      "outputs": [],
      "stateMutability": "nonpayable",
      "type": "function"
    }
  ],
  "bytecode": "0x60806040523480156200001157600080fd5b5060405162000d9f38038062000d9f8339810160408190526200003491620001ec565b338383600362000045838262000302565b50600462000054828262000302565b5050506001600160a01b0381166200008657604051631e4fbdf760e01b81526000600482015260240160405180910390fd5b6200009181620000d2565b506005805460ff909216600160a01b0260ff60a01b199092169190911790555050336000908152600660205260409020805460ff19166001179055620003ce565b600580546001600160a01b038381166001600160a01b0319831681179093556040519116919082907f8be0079c531659141344cd1fd0a4f28419497f9722a3daafe3b4186f6b6457e090600090a35050565b634e487b7160e01b600052604160045260246000fd5b600082601f8301126200014c57600080fd5b81516001600160401b038082111562000169576200016962000124565b604051601f8301601f19908116603f0116810190828211818310171562000194576200019462000124565b8160405283815260209250866020858801011115620001b257600080fd5b600091505b83821015620001d65785820183015181830184015290820190620001b7565b6000602085830101528094505050505092915050565b6000806000606084860312156200020257600080fd5b83516001600160401b03808211156200021a57600080fd5b62000228878388016200013a565b945060208601519150808211156200023f57600080fd5b506200024e868287016200013a565b925050604084015160ff811681146200026657600080fd5b809150509250925092565b600181811c908216806200028657607f821691505b602082108103620002a757634e487b7160e01b600052602260045260246000fd5b50919050565b601f821115620002fd576000816000526020600020601f850160051c81016020861015620002d85750805b601f850160051c820191505b81811015620002f957828155600101620002e4565b5050505b505050565b81516001600160401b038111156200031e576200031e62000124565b62000336816200032f845462000271565b84620002ad565b602080601f8311600181146200036e5760008415620003555750858301515b600019600386901b1c1916600185901b178555620002f9565b600085815260208120601f198616915b828110156200039f578886015182559484019460019091019084016200037e565b5085821015620003be5787850151600019600388901b60f8161c191681555b5050505050600190811b01905550565b6109c180620003de6000396000f3fe608060405234801561001057600080fd5b50600436106100f55760003560e01c8063715018a611610097578063a9059cbb11610066578063a9059cbb146101fb578063aa271e1a1461020e578063dd62ed3e14610231578063f2fde38b1461026a57600080fd5b8063715018a6146101bd5780638da5cb5b146101c557806395d89b41146101e0578063983b2d56146101e857600080fd5b806323b872dd116100d357806323b872dd1461014d578063313ce5671461016057806340c10f191461017f57806370a082311461019457600080fd5b806306fdde03146100fa578063095ea7b31461011857806318160ddd1461013b575b600080fd5b61010261027d565b60405161010f919061080a565b60405180910390f35b61012b610126366004610875565b61030f565b604051901515815260200161010f565b6002545b60405190815260200161010f565b61012b61015b36600461089f565b610329565b600554600160a01b900460ff1660405160ff909116815260200161010f565b61019261018d366004610875565b61034d565b005b61013f6101a23660046108db565b6001600160a01b031660009081526020819052604090205490565b6101926103cb565b6005546040516001600160a01b03909116815260200161010f565b6101026103df565b6101926101f63660046108db565b6103ee565b61012b610209366004610875565b61041a565b61012b61021c3660046108db565b60066020526000908152604090205460ff1681565b61013f61023f3660046108fd565b6001600160a01b03918216600090815260016020908152604080832093909416825291909152205490565b6101926102783660046108db565b610428565b60606003805461028c90610930565b80601f01602080910402602001604051908101604052809291908181526020018280546102b890610930565b80156103055780601f106102da57610100808354040283529160200191610305565b820191906000526020600020905b8154815290600101906020018083116102e857829003601f168201915b5050505050905090565b60003361031d818585610466565b60019150505b92915050565b600033610337858285610478565b6103428585856104f7565b506001949350505050565b3360009081526006602052604090205460ff166103bd5760405162461bcd60e51b8152602060048201526024808201527f47656e6572696345524332303a2063616c6c6572206973206e6f742061206d69604482015263373a32b960e11b60648201526084015b60405180910390fd5b6103c78282610556565b5050565b6103d361058c565b6103dd60006105b9565b565b60606004805461028c90610930565b6103f661058c565b6001600160a01b03166000908152600660205260409020805460ff19166001179055565b60003361031d8185856104f7565b61043061058c565b6001600160a01b03811661045a57604051631e4fbdf760e01b8152600060048201526024016103b4565b610463816105b9565b50565b610473838383600161060b565b505050565b6001600160a01b038381166000908152600160209081526040808320938616835292905220546000198110156104f157818110156104e257604051637dc7a0d960e11b81526001600160a01b038416600482015260248101829052604481018390526064016103b4565b6104f18484848403600061060b565b50505050565b6001600160a01b03831661052157604051634b637e8f60e11b8152600060048201526024016103b4565b6001600160a01b03821661054b5760405163ec442f0560e01b8152600060048201526024016103b4565b6104738383836106e0565b6001600160a01b0382166105805760405163ec442f0560e01b8152600060048201526024016103b4565b6103c7600083836106e0565b6005546001600160a01b031633146103dd5760405163118cdaa760e01b81523360048201526024016103b4565b600580546001600160a01b038381166001600160a01b0319831681179093556040519116919082907f8be0079c531659141344cd1fd0a4f28419497f9722a3daafe3b4186f6b6457e090600090a35050565b6001600160a01b0384166106355760405163e602df0560e01b8152600060048201526024016103b4565b6001600160a01b03831661065f57604051634a1406b160e11b8152600060048201526024016103b4565b6001600160a01b03808516600090815260016020908152604080832093871683529290522082905580156104f157826001600160a01b0316846001600160a01b03167f8c5be1e5ebec7d5bd14f71427d1e84f3dd0314c0f7b2291e5b200ac8c7c3b925846040516106d291815260200190565b60405180910390a350505050565b6001600160a01b03831661070b578060026000828254610700919061096a565b9091555061077d9050565b6001600160a01b0383166000908152602081905260409020548181101561075e5760405163391434e360e21b81526001600160a01b038516600482015260248101829052604481018390526064016103b4565b6001600160a01b03841660009081526020819052604090209082900390555b6001600160a01b038216610799576002805482900390556107b8565b6001600160a01b03821660009081526020819052604090208054820190555b816001600160a01b0316836001600160a01b03167fddf252ad1be2c89b69c2b068fc378daa952ba7f163c4a11628f55a4df523b3ef836040516107fd91815260200190565b60405180910390a3505050565b60006020808352835180602085015260005b818110156108385785810183015185820160400152820161081c565b506000604082860101526040601f19601f8301168501019250505092915050565b80356001600160a01b038116811461087057600080fd5b919050565b6000806040838503121561088857600080fd5b61089183610859565b946020939093013593505050565b6000806000606084860312156108b457600080fd5b6108bd84610859565b92506108cb60208501610859565b9150604084013590509250925092565b6000602082840312156108ed57600080fd5b6108f682610859565b9392505050565b6000806040838503121561091057600080fd5b61091983610859565b915061092760208401610859565b90509250929050565b600181811c9082168061094457607f821691505b60208210810361096457634e487b7160e01b600052602260045260246000fd5b50919050565b8082018082111561032357634e487b7160e01b600052601160045260246000fdfea2646970667358221220d7e698c119e07e011e210b133eb8b9be66e29f0ecaf164b390fc1391b21b0bd864736f6c63430008160033",
  "linkReferences": {},
  "deployedLinkReferences": {}
}