{
  "_format": "hh-sol-artifact-1",
  "contractName": "ListingManager",
  "sourceName": "contracts/ListingManager.sol",
  "abi": [
    {
      "inputs": [
        {
          "internalType": "address",
          "name": "_treasury",
          "type": "address"
        },
        {
          "internalType": "address",
          "name": "_paymentToken",
          "type": "address"
        },
        {
          "internalType": "address",
          "name": "_trustedSigner",
          "type": "address"
        }
      ],
      "stateMutability": "nonpayable",
      "type": "constructor"
    },
    {
      "inputs": [],
      "name": "InvalidShortString",
      "type": "error"
    },
    {
      "inputs": [
        {
          "internalType": "address",
          "name": "owner",
          "type": "address"
        }
      ],
      "name": "OwnableInvalidOwner",
      "type": "error"
    },
    {
      "inputs": [
        {
          "internalType": "address",
          "name": "account",
          "type": "address"
        }
      ],
      "name": "OwnableUnauthorizedAccount",
      "type": "error"
    },
    {
      "inputs": [
        {
          "internalType": "string",
          "name": "str",
          "type": "string"
        }
      ],
      "name": "StringTooLong",
      "type": "error"
    },
    {
      "anonymous": false,
      "inputs": [],
      "name": "EIP712DomainChanged",
      "type": "event"
    },
    {
      "anonymous": false,
      "inputs": [
        {
          "indexed": true,
          "internalType": "uint256",
          "name": "listingId",
          "type": "uint256"
        },
        {
          "indexed": true,
          "internalType": "address",
          "name": "owner",
          "type": "address"
        },
        {
          "indexed": false,
          "internalType": "enum ListingManager.ListingType",
          "name": "listingType",
          "type": "uint8"
        },
        {
          "indexed": false,
          "internalType": "uint256",
          "name": "feePaid",
          "type": "uint256"
        }
      ],
      "name": "ListingCreated",
      "type": "event"
    },
    {
      "anonymous": false,
      "inputs": [
        {
          "indexed": true,
          "internalType": "uint256",
          "name": "listingId",
          "type": "uint256"
        }
      ],
      "name": "ListingDeleted",
      "type": "event"
    },
    {
      "anonymous": false,
      "inputs": [
        {
          "indexed": true,
          "internalType": "address",
          "name": "previousOwner",
          "type": "address"
        },
        {
          "indexed": true,
          "internalType": "address",
          "name": "newOwner",
          "type": "address"
        }
      ],
      "name": "OwnershipTransferred",
      "type": "event"
    },
    {
      "inputs": [],
      "name": "LISTING_DURATION",
      "outputs": [
        {
          "internalType": "uint256",
          "name": "",
          "type": "uint256"
        }
      ],
      "stateMutability": "view",
      "type": "function"
    },
    {
      "inputs": [
        {
          "internalType": "enum ListingManager.ListingType",
          "name": "_type",
          "type": "uint8"
        },
        {
          "internalType": "string",
          "name": "_dataIdentifier",
          "type": "string"
        },
        {
          "internalType": "uint256",
          "name": "_feeInToken",
          "type": "uint256"
        },
        {
          "internalType": "uint256",
          "name": "_deadline",
          "type": "uint256"
        },
        {
          "internalType": "bytes",
          "name": "_signature",
          "type": "bytes"
        }
      ],
      "name": "createListing",
      "outputs": [],
      "stateMutability": "nonpayable",
      "type": "function"
    },
    {
      "inputs": [
        {
          "internalType": "uint256",
          "name": "_listingId",
          "type": "uint256"
        }
      ],
      "name": "deleteListing",
      "outputs": [],
      "stateMutability": "nonpayable",
      "type": "function"
    },
    {
      "inputs": [],
      "name": "eip712Domain",
      "outputs": [
        {
          "internalType": "bytes1",
          "name": "fields",
          "type": "bytes1"
        },
        {
          "internalType": "string",
          "name": "name",
          "type": "string"
        },
        {
          "internalType": "string",
          "name": "version",
          "type": "string"
        },
        {
          "internalType": "uint256",
          "name": "chainId",
          "type": "uint256"
        },
        {
          "internalType": "address",
          "name": "verifyingContract",
          "type": "address"
        },
        {
          "internalType": "bytes32",
          "name": "salt",
          "type": "bytes32"
        },
        {
          "internalType": "uint256[]",
          "name": "extensions",
          "type": "uint256[]"
        }
      ],
      "stateMutability": "view",
      "type": "function"
    },
    {
      "inputs": [
        {
          "internalType": "enum ListingManager.ListingType",
          "name": "_type",
          "type": "uint8"
        },
        {
          "internalType": "string",
          "name": "_dataIdentifier",
          "type": "string"
        },
        {
          "internalType": "address",
          "name": "_user",
          "type": "address"
        },
        {
          "internalType": "uint256",
          "name": "_feeInToken",
          "type": "uint256"
        },
        {
          "internalType": "uint256",
          "name": "_deadline",
          "type": "uint256"
        }
      ],
      "name": "getListingMessageHash",
      "outputs": [
        {
          "internalType": "bytes32",
          "name": "",
          "type": "bytes32"
        }
      ],
      "stateMutability": "view",
      "type": "function"
    },
    {
      "inputs": [],
      "name": "getMyListingIds",
      "outputs": [
        {
          "internalType": "uint256[]",
          "name": "",
          "type": "uint256[]"
        }
      ],
      "stateMutability": "view",
      "type": "function"
    },
    {
      "inputs": [
        {
          "internalType": "uint256",
          "name": "",
          "type": "uint256"
        }
      ],
      "name": "listings",
      "outputs": [
        {
          "internalType": "uint256",
          "name": "id",
          "type": "uint256"
        },
        {
          "internalType": "address",
          "name": "owner",
          "type": "address"
        },
        {
          "internalType": "uint256",
          "name": "expiresAt",
          "type": "uint256"
        },
        {
          "internalType": "enum ListingManager.ListingType",
          "name": "listingType",
          "type": "uint8"
        },
        {
          "internalType": "string",
          "name": "dataIdentifier",
          "type": "string"
        }
      ],
      "stateMutability": "view",
      "type": "function"
    },
    {
      "inputs": [],
      "name": "owner",
      "outputs": [
        {
          "internalType": "address",
          "name": "",
          "type": "address"
        }
      ],
      "stateMutability": "view",
      "type": "function"
    },
    {
      "inputs": [],
      "name": "paymentToken",
      "outputs": [
        {
          "internalType": "contract IERC20",
          "name": "",
          "type": "address"
        }
      ],
      "stateMutability": "view",
      "type": "function"
    },
    {
      "inputs": [],
      "name": "renounceOwnership",
      "outputs": [],
      "stateMutability": "nonpayable",
      "type": "function"
    },
    {
      "inputs": [
        {
          "internalType": "address",
          "name": "_newSigner",
          "type": "address"
        }
      ],
      "name": "setTrustedSigner",
      "outputs": [],
      "stateMutability": "nonpayable",
      "type": "function"
    },
    {
      "inputs": [
        {
          "internalType": "address",
          "name": "newOwner",
          "type": "address"
        }
      ],
      "name": "transferOwnership",
      "outputs": [],
      "stateMutability": "nonpayable",
      "type": "function"
    },
    {
      "inputs": [],
      "name": "treasury",
      "outputs": [
        {
          "internalType": "contract ITreasury",
          "name": "",
          "type": "address"
        }
      ],
      "stateMutability": "view",
      "type": "function"
    },
    {
      "inputs": [],
      "name": "trustedSigner",
      "outputs": [
        {
          "internalType": "address",
          "name": "",
          "type": "address"
        }
      ],
      "stateMutability": "view",
      "type": "function"
    },
    {
      "inputs": [
        {
          "internalType": "bytes32",
          "name": "",
          "type": "bytes32"
        }
      ],
      "name": "usedHashes",
      "outputs": [
        {
          "internalType": "bool",
          "name": "",
          "type": "bool"
        }
      ],
      "stateMutability": "view",
      "type": "function"
    }
  ],
  "bytecode": "0x6101606040523480156200001257600080fd5b50604051620012d0380380620012d0833981016040819052620000359162000288565b604080518082018252600e81526d2634b9ba34b733a6b0b730b3b2b960911b602080830191909152825180840190935260018352603160f81b908301529033806200009b57604051631e4fbdf760e01b8152600060048201526024015b60405180910390fd5b620000a6816200019f565b50620000b4826001620001ef565b61012052620000c5816002620001ef565b61014052815160208084019190912060e052815190820120610100524660a0526200015360e05161010051604080517f8b73c3c69bb8fe3d512ecc4cf759cc79239f7b179b0ffacaa9a75d522b39400f60208201529081019290925260608201524660808201523060a082015260009060c00160405160208183030381529060405280519060200120905090565b60805250503060c052600380546001600160a01b039485166001600160a01b031991821617909155600480549385169382169390931790925560058054919093169116179055620004b8565b600080546001600160a01b038381166001600160a01b0319831681178455604051919092169283917f8be0079c531659141344cd1fd0a4f28419497f9722a3daafe3b4186f6b6457e09190a35050565b60006020835110156200020f57620002078362000228565b905062000222565b816200021c848262000377565b5060ff90505b92915050565b600080829050601f8151111562000256578260405163305a27a960e01b815260040162000092919062000443565b8051620002638262000493565b179392505050565b80516001600160a01b03811681146200028357600080fd5b919050565b6000806000606084860312156200029e57600080fd5b620002a9846200026b565b9250620002b9602085016200026b565b9150620002c9604085016200026b565b90509250925092565b634e487b7160e01b600052604160045260246000fd5b600181811c90821680620002fd57607f821691505b6020821081036200031e57634e487b7160e01b600052602260045260246000fd5b50919050565b601f8211156200037257600081815260208120601f850160051c810160208610156200034d5750805b601f850160051c820191505b818110156200036e5782815560010162000359565b5050505b505050565b81516001600160401b03811115620003935762000393620002d2565b620003ab81620003a48454620002e8565b8462000324565b602080601f831160018114620003e35760008415620003ca5750858301515b600019600386901b1c1916600185901b1785556200036e565b600085815260208120601f198616915b828110156200041457888601518255948401946001909101908401620003f3565b5085821015620004335787850151600019600388901b60f8161c191681555b5050505050600190811b01905550565b600060208083528351808285015260005b81811015620004725785810183015185820160400152820162000454565b506000604082860101526040601f19601f8301168501019250505092915050565b805160208083015191908110156200031e5760001960209190910360031b1b16919050565b60805160a05160c05160e051610100516101205161014051610dcc6200050460003960006106f8015260006106c601526000505060005050600050506000505060005050610dcc6000f3fe608060405234801561001057600080fd5b50600436106100f55760003560e01c806384b0196e11610097578063de74e57b11610066578063de74e57b14610212578063e6282c6e14610236578063f2fde38b14610247578063f74d54801461025a57600080fd5b806384b0196e146101a95780638da5cb5b146101c4578063aef18bf7146101d5578063c2135cbf1461020857600080fd5b806356a1c701116100d357806356a1c7011461015457806361d027b3146101675780636e0683ec1461017a578063715018a6146101a157600080fd5b80633013ce29146100fa578063315f413b1461012a5780634d8147731461013f575b600080fd5b60045461010d906001600160a01b031681565b6040516001600160a01b0390911681526020015b60405180910390f35b61013d6101383660046108f5565b61026d565b005b610147610473565b60405161012191906109cc565b61013d6101623660046109f6565b6104d4565b60035461010d906001600160a01b031681565b610193610188366004610a11565b600095945050505050565b604051908152602001610121565b61013d6104dc565b6101b16104f0565b6040516101219796959493929190610ac7565b6000546001600160a01b031661010d565b6101f86101e3366004610b37565b60076020526000908152604090205460ff1681565b6040519015158152602001610121565b61019362278d0081565b610225610220366004610b37565b610536565b604051610121959493929190610b88565b61013d610244366004610b37565b50565b61013d6102553660046109f6565b6105fd565b60055461010d906001600160a01b031681565b6000808052600760209081527f6d5257204ebe7d88fd91ae87941cb2dd9d8062b64ae5a2bd2d28ec40b9fbf6df805460ff1916600117905560048054600354604080516323b872dd60e01b815233948101949094526001600160a01b03918216602485015260448401899052519116926323b872dd9260648082019391829003018187875af1158015610304573d6000803e3d6000fd5b505050506040513d601f19601f820116820180604052508101906103289190610bcf565b506006805490600061033983610c07565b90915550506006546040805160a08101825282815233602082015290810161036462278d0042610c20565b815260200188600181111561037b5761037b610b50565b815260209081018890526000838152600882526040908190208351815591830151600180840180546001600160a01b0319166001600160a01b039093169290921790915590830151600283015560608301516003830180549192909160ff19169083818111156103ed576103ed610b50565b0217905550608082015160048201906104069082610cbb565b5050336000818152600960209081526040808320805460018101825590845291909220018490555190915082907f699a5d005a1b3070978198b8ebdef4433bbd9a3009794d984de5817912e816a790610462908b908a90610d7b565b60405180910390a350505050505050565b336000908152600960209081526040918290208054835181840281018401909452808452606093928301828280156104ca57602002820191906000526020600020905b8154815260200190600101908083116104b6575b5050505050905090565b610244610642565b6104e4610642565b6104ee600061066f565b565b6000606080600080600060606105046106bf565b61050c6106f1565b60408051600080825260208201909252600f60f81b9b939a50919850469750309650945092509050565b6008602052600090815260409020805460018201546002830154600384015460048501805494956001600160a01b0390941694929360ff9092169261057a90610c33565b80601f01602080910402602001604051908101604052809291908181526020018280546105a690610c33565b80156105f35780601f106105c8576101008083540402835291602001916105f3565b820191906000526020600020905b8154815290600101906020018083116105d657829003601f168201915b5050505050905085565b610605610642565b6001600160a01b03811661063457604051631e4fbdf760e01b8152600060048201526024015b60405180910390fd5b6102448161066f565b505050565b6000546001600160a01b031633146104ee5760405163118cdaa760e01b815233600482015260240161062b565b600080546001600160a01b038381166001600160a01b0319831681178455604051919092169283917f8be0079c531659141344cd1fd0a4f28419497f9722a3daafe3b4186f6b6457e09190a35050565b60606106ec7f0000000000000000000000000000000000000000000000000000000000000000600161071a565b905090565b60606106ec7f000000000000000000000000000000000000000000000000000000000000000060025b606060ff83146107345761072d836107c7565b90506107c1565b81805461074090610c33565b80601f016020809104026020016040519081016040528092919081815260200182805461076c90610c33565b80156107b95780601f1061078e576101008083540402835291602001916107b9565b820191906000526020600020905b81548152906001019060200180831161079c57829003601f168201915b505050505090505b92915050565b606060006107d483610806565b604080516020808252818301909252919250600091906020820181803683375050509182525060208101929092525090565b600060ff8216601f8111156107c157604051632cd44ac360e21b815260040160405180910390fd5b80356002811061083d57600080fd5b919050565b634e487b7160e01b600052604160045260246000fd5b600067ffffffffffffffff8084111561087357610873610842565b604051601f8501601f19908116603f0116810190828211818310171561089b5761089b610842565b816040528093508581528686860111156108b457600080fd5b858560208301376000602087830101525050509392505050565b600082601f8301126108df57600080fd5b6108ee83833560208501610858565b9392505050565b600080600080600060a0868803121561090d57600080fd5b6109168661082e565b9450602086013567ffffffffffffffff8082111561093357600080fd5b61093f89838a016108ce565b95506040880135945060608801359350608088013591508082111561096357600080fd5b508601601f8101881361097557600080fd5b61098488823560208401610858565b9150509295509295909350565b600081518084526020808501945080840160005b838110156109c1578151875295820195908201906001016109a5565b509495945050505050565b6020815260006108ee6020830184610991565b80356001600160a01b038116811461083d57600080fd5b600060208284031215610a0857600080fd5b6108ee826109df565b600080600080600060a08688031215610a2957600080fd5b610a328661082e565b9450602086013567ffffffffffffffff811115610a4e57600080fd5b610a5a888289016108ce565b945050610a69604087016109df565b94979396509394606081013594506080013592915050565b6000815180845260005b81811015610aa757602081850181015186830182015201610a8b565b506000602082860101526020601f19601f83011685010191505092915050565b60ff60f81b8816815260e060208201526000610ae660e0830189610a81565b8281036040840152610af88189610a81565b606084018890526001600160a01b038716608085015260a0840186905283810360c08501529050610b298185610991565b9a9950505050505050505050565b600060208284031215610b4957600080fd5b5035919050565b634e487b7160e01b600052602160045260246000fd5b60028110610b8457634e487b7160e01b600052602160045260246000fd5b9052565b8581526001600160a01b038516602082015260408101849052610bae6060820184610b66565b60a060808201526000610bc460a0830184610a81565b979650505050505050565b600060208284031215610be157600080fd5b815180151581146108ee57600080fd5b634e487b7160e01b600052601160045260246000fd5b600060018201610c1957610c19610bf1565b5060010190565b808201808211156107c1576107c1610bf1565b600181811c90821680610c4757607f821691505b602082108103610c6757634e487b7160e01b600052602260045260246000fd5b50919050565b601f82111561063d57600081815260208120601f850160051c81016020861015610c945750805b601f850160051c820191505b81811015610cb357828155600101610ca0565b505050505050565b815167ffffffffffffffff811115610cd557610cd5610842565b610ce981610ce38454610c33565b84610c6d565b602080601f831160018114610d1e5760008415610d065750858301515b600019600386901b1c1916600185901b178555610cb3565b600085815260208120601f198616915b82811015610d4d57888601518255948401946001909101908401610d2e565b5085821015610d6b5787850151600019600388901b60f8161c191681555b5050505050600190811b01905550565b60408101610d898285610b66565b826020830152939250505056fea26469706673582212200aa0170cfd61c149b7136c5177115158747038127ad64b5869cdf25550c5343264736f6c63430008140033",
  "linkReferences": {},
  "deployedLinkReferences": {}
}