{
  "_format": "hh-sol-artifact-1",
  "contractName": "ListingManager",
  "sourceName": "contracts/ListingManager.sol",
  "abi": [
    {
      "inputs": [
        {
          "internalType": "address",
          "name": "_treasury",
          "type": "address"
        },
        {
          "internalType": "address",
          "name": "_feeToken",
          "type": "address"
        },
        {
          "internalType": "address",
          "name": "_trustedSigner",
          "type": "address"
        }
      ],
      "stateMutability": "nonpayable",
      "type": "constructor"
    },
    {
      "inputs": [],
      "name": "ECDSAInvalidSignature",
      "type": "error"
    },
    {
      "inputs": [
        {
          "internalType": "uint256",
          "name": "length",
          "type": "uint256"
        }
      ],
      "name": "ECDSAInvalidSignatureLength",
      "type": "error"
    },
    {
      "inputs": [
        {
          "internalType": "bytes32",
          "name": "s",
          "type": "bytes32"
        }
      ],
      "name": "ECDSAInvalidSignatureS",
      "type": "error"
    },
    {
      "inputs": [],
      "name": "InvalidShortString",
      "type": "error"
    },
    {
      "inputs": [
        {
          "internalType": "address",
          "name": "owner",
          "type": "address"
        }
      ],
      "name": "OwnableInvalidOwner",
      "type": "error"
    },
    {
      "inputs": [
        {
          "internalType": "address",
          "name": "account",
          "type": "address"
        }
      ],
      "name": "OwnableUnauthorizedAccount",
      "type": "error"
    },
    {
      "inputs": [
        {
          "internalType": "address",
          "name": "token",
          "type": "address"
        }
      ],
      "name": "SafeERC20FailedOperation",
      "type": "error"
    },
    {
      "inputs": [
        {
          "internalType": "string",
          "name": "str",
          "type": "string"
        }
      ],
      "name": "StringTooLong",
      "type": "error"
    },
    {
      "anonymous": false,
      "inputs": [],
      "name": "EIP712DomainChanged",
      "type": "event"
    },
    {
      "anonymous": false,
      "inputs": [
        {
          "indexed": true,
          "internalType": "uint256",
          "name": "listingId",
          "type": "uint256"
        }
      ],
      "name": "ListingClosed",
      "type": "event"
    },
    {
      "anonymous": false,
      "inputs": [
        {
          "indexed": true,
          "internalType": "uint256",
          "name": "listingId",
          "type": "uint256"
        },
        {
          "indexed": true,
          "internalType": "address",
          "name": "owner",
          "type": "address"
        },
        {
          "indexed": false,
          "internalType": "enum IListingManager.ListingType",
          "name": "listingType",
          "type": "uint8"
        },
        {
          "indexed": false,
          "internalType": "uint256",
          "name": "feePaid",
          "type": "uint256"
        }
      ],
      "name": "ListingCreated",
      "type": "event"
    },
    {
      "anonymous": false,
      "inputs": [
        {
          "indexed": true,
          "internalType": "uint256",
          "name": "listingId",
          "type": "uint256"
        }
      ],
      "name": "ListingDeleted",
      "type": "event"
    },
    {
      "anonymous": false,
      "inputs": [
        {
          "indexed": true,
          "internalType": "uint256",
          "name": "listingId",
          "type": "uint256"
        },
        {
          "indexed": false,
          "internalType": "uint256",
          "name": "newExpiration",
          "type": "uint256"
        }
      ],
      "name": "ListingRenewed",
      "type": "event"
    },
    {
      "anonymous": false,
      "inputs": [
        {
          "indexed": true,
          "internalType": "address",
          "name": "previousOwner",
          "type": "address"
        },
        {
          "indexed": true,
          "internalType": "address",
          "name": "newOwner",
          "type": "address"
        }
      ],
      "name": "OwnershipTransferred",
      "type": "event"
    },
    {
      "inputs": [
        {
          "internalType": "uint256",
          "name": "listingId",
          "type": "uint256"
        }
      ],
      "name": "closeListing",
      "outputs": [],
      "stateMutability": "nonpayable",
      "type": "function"
    },
    {
      "inputs": [
        {
          "internalType": "enum IListingManager.ListingType",
          "name": "_type",
          "type": "uint8"
        },
        {
          "internalType": "uint256",
          "name": "_priceInUsd",
          "type": "uint256"
        },
        {
          "internalType": "string",
          "name": "_dataIdentifier",
          "type": "string"
        },
        {
          "internalType": "uint256",
          "name": "_nonce",
          "type": "uint256"
        },
        {
          "internalType": "uint256",
          "name": "_deadline",
          "type": "uint256"
        },
        {
          "internalType": "bytes",
          "name": "_signature",
          "type": "bytes"
        }
      ],
      "name": "createListing",
      "outputs": [],
      "stateMutability": "nonpayable",
      "type": "function"
    },
    {
      "inputs": [
        {
          "internalType": "uint256",
          "name": "_listingId",
          "type": "uint256"
        }
      ],
      "name": "deleteListing",
      "outputs": [],
      "stateMutability": "nonpayable",
      "type": "function"
    },
    {
      "inputs": [],
      "name": "eip712Domain",
      "outputs": [
        {
          "internalType": "bytes1",
          "name": "fields",
          "type": "bytes1"
        },
        {
          "internalType": "string",
          "name": "name",
          "type": "string"
        },
        {
          "internalType": "string",
          "name": "version",
          "type": "string"
        },
        {
          "internalType": "uint256",
          "name": "chainId",
          "type": "uint256"
        },
        {
          "internalType": "address",
          "name": "verifyingContract",
          "type": "address"
        },
        {
          "internalType": "bytes32",
          "name": "salt",
          "type": "bytes32"
        },
        {
          "internalType": "uint256[]",
          "name": "extensions",
          "type": "uint256[]"
        }
      ],
      "stateMutability": "view",
      "type": "function"
    },
    {
      "inputs": [],
      "name": "feeToken",
      "outputs": [
        {
          "internalType": "contract IERC20",
          "name": "",
          "type": "address"
        }
      ],
      "stateMutability": "view",
      "type": "function"
    },
    {
      "inputs": [],
      "name": "forSaleFee",
      "outputs": [
        {
          "internalType": "uint256",
          "name": "",
          "type": "uint256"
        }
      ],
      "stateMutability": "view",
      "type": "function"
    },
    {
      "inputs": [
        {
          "internalType": "uint256",
          "name": "listingId",
          "type": "uint256"
        }
      ],
      "name": "getListing",
      "outputs": [
        {
          "components": [
            {
              "internalType": "address",
              "name": "owner",
              "type": "address"
            },
            {
              "internalType": "uint256",
              "name": "priceInUsd",
              "type": "uint256"
            },
            {
              "internalType": "enum IListingManager.ListingType",
              "name": "listingType",
              "type": "uint8"
            },
            {
              "internalType": "enum IListingManager.ListingStatus",
              "name": "status",
              "type": "uint8"
            },
            {
              "internalType": "string",
              "name": "dataIdentifier",
              "type": "string"
            },
            {
              "internalType": "uint256",
              "name": "expirationTimestamp",
              "type": "uint256"
            }
          ],
          "internalType": "struct IListingManager.Listing",
          "name": "",
          "type": "tuple"
        }
      ],
      "stateMutability": "view",
      "type": "function"
    },
    {
      "inputs": [],
      "name": "listingCounter",
      "outputs": [
        {
          "internalType": "uint256",
          "name": "",
          "type": "uint256"
        }
      ],
      "stateMutability": "view",
      "type": "function"
    },
    {
      "inputs": [
        {
          "internalType": "uint256",
          "name": "",
          "type": "uint256"
        }
      ],
      "name": "listings",
      "outputs": [
        {
          "internalType": "address",
          "name": "owner",
          "type": "address"
        },
        {
          "internalType": "uint256",
          "name": "priceInUsd",
          "type": "uint256"
        },
        {
          "internalType": "enum IListingManager.ListingType",
          "name": "listingType",
          "type": "uint8"
        },
        {
          "internalType": "enum IListingManager.ListingStatus",
          "name": "status",
          "type": "uint8"
        },
        {
          "internalType": "string",
          "name": "dataIdentifier",
          "type": "string"
        },
        {
          "internalType": "uint256",
          "name": "expirationTimestamp",
          "type": "uint256"
        }
      ],
      "stateMutability": "view",
      "type": "function"
    },
    {
      "inputs": [],
      "name": "owner",
      "outputs": [
        {
          "internalType": "address",
          "name": "",
          "type": "address"
        }
      ],
      "stateMutability": "view",
      "type": "function"
    },
    {
      "inputs": [],
      "name": "paymentProcessor",
      "outputs": [
        {
          "internalType": "address",
          "name": "",
          "type": "address"
        }
      ],
      "stateMutability": "view",
      "type": "function"
    },
    {
      "inputs": [
        {
          "internalType": "uint256",
          "name": "_listingId",
          "type": "uint256"
        }
      ],
      "name": "renewListing",
      "outputs": [],
      "stateMutability": "nonpayable",
      "type": "function"
    },
    {
      "inputs": [],
      "name": "renounceOwnership",
      "outputs": [],
      "stateMutability": "nonpayable",
      "type": "function"
    },
    {
      "inputs": [],
      "name": "serviceFee",
      "outputs": [
        {
          "internalType": "uint256",
          "name": "",
          "type": "uint256"
        }
      ],
      "stateMutability": "view",
      "type": "function"
    },
    {
      "inputs": [
        {
          "internalType": "uint256",
          "name": "_forSaleFee",
          "type": "uint256"
        },
        {
          "internalType": "uint256",
          "name": "_serviceFee",
          "type": "uint256"
        }
      ],
      "name": "setFees",
      "outputs": [],
      "stateMutability": "nonpayable",
      "type": "function"
    },
    {
      "inputs": [
        {
          "internalType": "address",
          "name": "_processor",
          "type": "address"
        }
      ],
      "name": "setPaymentProcessor",
      "outputs": [],
      "stateMutability": "nonpayable",
      "type": "function"
    },
    {
      "inputs": [
        {
          "internalType": "address",
          "name": "_newSigner",
          "type": "address"
        }
      ],
      "name": "setTrustedSigner",
      "outputs": [],
      "stateMutability": "nonpayable",
      "type": "function"
    },
    {
      "inputs": [
        {
          "internalType": "address",
          "name": "newOwner",
          "type": "address"
        }
      ],
      "name": "transferOwnership",
      "outputs": [],
      "stateMutability": "nonpayable",
      "type": "function"
    },
    {
      "inputs": [],
      "name": "treasury",
      "outputs": [
        {
          "internalType": "contract ITreasury",
          "name": "",
          "type": "address"
        }
      ],
      "stateMutability": "view",
      "type": "function"
    },
    {
      "inputs": [],
      "name": "trustedSigner",
      "outputs": [
        {
          "internalType": "address",
          "name": "",
          "type": "address"
        }
      ],
      "stateMutability": "view",
      "type": "function"
    },
    {
      "inputs": [
        {
          "internalType": "bytes32",
          "name": "",
          "type": "bytes32"
        }
      ],
      "name": "usedSignatures",
      "outputs": [
        {
          "internalType": "bool",
          "name": "",
          "type": "bool"
        }
      ],
      "stateMutability": "view",
      "type": "function"
    }
  ],
  "bytecode": "0x6101a0604052631dcd650060085563773594006009553480156200002257600080fd5b506040516200234f3803806200234f833981016040819052620000459162000286565b604080518082018252600e81526d2634b9ba34b733a6b0b730b3b2b960911b602080830191909152825180840190935260018352603160f81b90830152903380620000ab57604051631e4fbdf760e01b8152600060048201526024015b60405180910390fd5b620000b6816200019d565b50620000c4826001620001ed565b61012052620000d5816002620001ed565b61014052815160208084019190912060e052815190820120610100524660a0526200016360e05161010051604080517f8b73c3c69bb8fe3d512ecc4cf759cc79239f7b179b0ffacaa9a75d522b39400f60208201529081019290925260608201524660808201523060a082015260009060c00160405160208183030381529060405280519060200120905090565b60805250503060c0526001600160a01b039283166101605290821661018052600380546001600160a01b03191691909216179055620004b9565b600080546001600160a01b038381166001600160a01b0319831681178455604051919092169283917f8be0079c531659141344cd1fd0a4f28419497f9722a3daafe3b4186f6b6457e09190a35050565b60006020835110156200020d57620002058362000226565b905062000220565b816200021a848262000377565b5060ff90505b92915050565b600080829050601f8151111562000254578260405163305a27a960e01b8152600401620000a2919062000443565b8051620002618262000494565b179392505050565b80516001600160a01b03811681146200028157600080fd5b919050565b6000806000606084860312156200029c57600080fd5b620002a78462000269565b9250620002b76020850162000269565b9150620002c76040850162000269565b90509250925092565b634e487b7160e01b600052604160045260246000fd5b600181811c90821680620002fb57607f821691505b6020821081036200031c57634e487b7160e01b600052602260045260246000fd5b50919050565b601f82111562000372576000816000526020600020601f850160051c810160208610156200034d5750805b601f850160051c820191505b818110156200036e5782815560010162000359565b5050505b505050565b81516001600160401b03811115620003935762000393620002d0565b620003ab81620003a48454620002e6565b8462000322565b602080601f831160018114620003e35760008415620003ca5750858301515b600019600386901b1c1916600185901b1785556200036e565b600085815260208120601f198616915b828110156200041457888601518255948401946001909101908401620003f3565b5085821015620004335787850151600019600388901b60f8161c191681555b5050505050600190811b01905550565b60006020808352835180602085015260005b81811015620004735785810183015185820160400152820162000455565b506000604082860101526040601f19601f8301168501019250505092915050565b805160208083015191908110156200031c5760001960209190910360031b1b16919050565b60805160a05160c05160e0516101005161012051610140516101605161018051611df46200055b600039600081816101f7015281816105dd015281816106100152818161078f01526107c20152600081816101b801528181610633015281816107e50152610d8c01526000610f8a01526000610f580152600061146e01526000611446015260006113a1015260006113cb015260006113f50152611df46000f3fe608060405234801561001057600080fd5b50600436106101375760003560e01c806384b0196e116100b8578063e5a255cb1161007c578063e5a255cb146102ae578063e6282c6e146102c1578063f1c6bdf8146102d4578063f2fde38b146102e7578063f74d5480146102fa578063f978fd611461030d57600080fd5b806384b0196e146102415780638abdf5aa1461025c5780638da5cb5b14610265578063dca5c98b14610276578063de74e57b1461028957600080fd5b806361d027b3116100ff57806361d027b3146101b3578063647846a5146101f25780636c2c9c7d14610219578063715018a614610230578063830173051461023857600080fd5b8063088b0d751461013c5780630b78f9c014610151578063107a274a146101645780632eecf2661461018d57806356a1c701146101a0575b600080fd5b61014f61014a36600461170e565b610340565b005b61014f61015f36600461173e565b61036a565b610177610172366004611760565b61037d565b60405161018491906117f3565b60405180910390f35b61014f61019b366004611760565b6104fd565b61014f6101ae36600461170e565b6106a7565b6101da7f000000000000000000000000000000000000000000000000000000000000000081565b6040516001600160a01b039091168152602001610184565b6101da7f000000000000000000000000000000000000000000000000000000000000000081565b61022260055481565b604051908152602001610184565b61014f6106d1565b61022260085481565b6102496106e5565b604051610184979695949392919061186b565b61022260095481565b6000546001600160a01b03166101da565b61014f61028436600461194d565b61072b565b61029c610297366004611760565b6109a8565b604051610184969594939291906119f0565b61014f6102bc366004611760565b610a78565b61014f6102cf366004611760565b610b6b565b6004546101da906001600160a01b031681565b61014f6102f536600461170e565b610c85565b6003546101da906001600160a01b031681565b61033061031b366004611760565b60076020526000908152604090205460ff1681565b6040519015158152602001610184565b610348610cc3565b600480546001600160a01b0319166001600160a01b0392909216919091179055565b610372610cc3565b600891909155600955565b6103b66040805160c081018252600080825260208201819052909182019081526020016000815260200160608152602001600081525090565b600082815260066020908152604091829020825160c08101845281546001600160a01b03168152600180830154938201939093526002820154909391929184019160ff9091169081111561040c5761040c611779565b600181111561041d5761041d611779565b81526020016002820160019054906101000a900460ff16600181111561044557610445611779565b600181111561045657610456611779565b815260200160038201805461046a90611a4a565b80601f016020809104026020016040519081016040528092919081815260200182805461049690611a4a565b80156104e35780601f106104b8576101008083540402835291602001916104e3565b820191906000526020600020905b8154815290600101906020018083116104c657829003601f168201915b505050505081526020016004820154815250509050919050565b600081815260066020526040902080546001600160a01b031633146105695760405162461bcd60e51b815260206004820181905260248201527f4c697374696e674d616e616765723a204e6f7420796f7572206c697374696e6760448201526064015b60405180910390fd5b60006002820154610100900460ff16600181111561058957610589611779565b146105a65760405162461bcd60e51b815260040161056090611a84565b600080600283015460ff1660018111156105c2576105c2611779565b146105cf576009546105d3565b6008545b90506000610601827f0000000000000000000000000000000000000000000000000000000000000000610cf0565b90506106586001600160a01b037f000000000000000000000000000000000000000000000000000000000000000016337f000000000000000000000000000000000000000000000000000000000000000084610ea1565b6106654262278d00611adc565b6004840181905560405190815284907f60ca048bd2c6af8f161eb185e0387b0714807fadab94c4e9709a3694209956829060200160405180910390a250505050565b6106af610cc3565b600380546001600160a01b0319166001600160a01b0392909216919091179055565b6106d9610cc3565b6106e36000610f01565b565b6000606080600080600060606106f9610f51565b610701610f83565b60408051600080825260208201909252600f60f81b9b939a50919850469750309650945092509050565b600061073a3388888888610fb0565b905061074881848487611053565b6000818152600760205260408120805460ff19166001179055808a600181111561077457610774611779565b1461078157600954610785565b6008545b905060006107b3827f0000000000000000000000000000000000000000000000000000000000000000610cf0565b905061080a6001600160a01b037f000000000000000000000000000000000000000000000000000000000000000016337f000000000000000000000000000000000000000000000000000000000000000084610ea1565b6005805490600061081a83611b05565b90915550506005546040805160c081018252338152602081018d90529081018d600181111561084b5761084b611779565b8152602001600081526020018b8b8080601f0160208091040260200160405190810160405280939291908181526020018383808284376000920191909152505050908252506020016108a04262278d00611adc565b9052600082815260066020908152604091829020835181546001600160a01b0319166001600160a01b03909116178155908301516001808301919091559183015160028201805492939192909160ff1990911690838181111561090557610905611779565b0217905550606082015160028201805461ff00191661010083600181111561092f5761092f611779565b0217905550608082015160038201906109489082611b6f565b5060a08201518160040155905050336001600160a01b0316817f699a5d005a1b3070978198b8ebdef4433bbd9a3009794d984de5817912e816a78e85604051610992929190611c2f565b60405180910390a3505050505050505050505050565b60066020526000908152604090208054600182015460028301546003840180546001600160a01b0390941694929360ff80841694610100909404169291906109ef90611a4a565b80601f0160208091040260200160405190810160405280929190818152602001828054610a1b90611a4a565b8015610a685780601f10610a3d57610100808354040283529160200191610a68565b820191906000526020600020905b815481529060010190602001808311610a4b57829003601f168201915b5050505050908060040154905086565b6004546001600160a01b03163314610ae15760405162461bcd60e51b815260206004820152602660248201527f4c4d3a2043616c6c6572206973206e6f7420746865205061796d656e7450726f60448201526531b2b9b9b7b960d11b6064820152608401610560565b6000818152600660205260408120906002820154610100900460ff166001811115610b0e57610b0e611779565b14610b2b5760405162461bcd60e51b815260040161056090611a84565b60028101805461ff00191661010017905560405182907fe99def7a5a3c84553486ad726f7c64fbeea0bdbcbe46d5ee07958a8bf5d8e2dd90600090a25050565b600081815260066020526040902080546001600160a01b03163314610bd25760405162461bcd60e51b815260206004820181905260248201527f4c697374696e674d616e616765723a204e6f7420796f7572206c697374696e676044820152606401610560565b60006002820154610100900460ff166001811115610bf257610bf2611779565b14610c0f5760405162461bcd60e51b815260040161056090611a84565b600082815260066020526040812080546001600160a01b03191681556001810182905560028101805461ffff1916905590610c4d60038301826116c0565b50600060049190910181905560405183917f8b21015f510e5f42785fad11aa75334f0f622f97504d8c498540b869d36b630891a25050565b610c8d610cc3565b6001600160a01b038116610cb757604051631e4fbdf760e01b815260006004820152602401610560565b610cc081610f01565b50565b6000546001600160a01b031633146106e35760405163118cdaa760e01b8152336004820152602401610560565b600080826001600160a01b031663313ce5676040518163ffffffff1660e01b8152600401602060405180830381865afa158015610d31573d6000803e3d6000fd5b505050506040513d601f19601f82011682018060405250810190610d559190611c46565b610d6090600a611d4d565b6040516304a7e5ff60e11b8152600481018290526001600160a01b0385811660248301529192506000917f0000000000000000000000000000000000000000000000000000000000000000169063094fcbfe90604401602060405180830381865afa158015610dd3573d6000803e3d6000fd5b505050506040513d601f19601f82011682018060405250810190610df79190611d5c565b905060008111610e615760405162461bcd60e51b815260206004820152602f60248201527f4c697374696e674d616e616765723a2054726561737572792063616e6e6f742060448201526e3b30b63ab2903332b2903a37b5b2b760891b6064820152608401610560565b610e6f816305f5e100611d75565b82610e8287670de0b6b3a7640000611d75565b610e8c9190611d75565b610e969190611d8c565b925050505b92915050565b604080516001600160a01b0385811660248301528416604482015260648082018490528251808303909101815260849091019091526020810180516001600160e01b03166323b872dd60e01b179052610efb9085906111e2565b50505050565b600080546001600160a01b038381166001600160a01b0319831681178455604051919092169283917f8be0079c531659141344cd1fd0a4f28419497f9722a3daafe3b4186f6b6457e09190a35050565b6060610f7e7f00000000000000000000000000000000000000000000000000000000000000006001611253565b905090565b6060610f7e7f00000000000000000000000000000000000000000000000000000000000000006002611253565b6000807ff6180053e33ce554a4f2e2148e7f96d29c4107c5765ba86982cf5d189a2569a7878787604051610fe5929190611dae565b604051908190038120611027939291889088906020019485526001600160a01b0393909316602085015260408401919091526060830152608082015260a00190565b604051602081830303815290604052805190602001209050611048816112fe565b979650505050505050565b428110156110ad5760405162461bcd60e51b815260206004820152602160248201527f4c697374696e674d616e616765723a205369676e6174757265206578706972656044820152601960fa1b6064820152608401610560565b60008481526007602052604090205460ff161561111b5760405162461bcd60e51b815260206004820152602660248201527f4c697374696e674d616e616765723a205369676e617475726520616c726561646044820152651e481d5cd95960d21b6064820152608401610560565b600061115d8585858080601f01602080910402602001604051908101604052809392919081815260200183838082843760009201919091525061132b92505050565b6003549091506001600160a01b03808316911614801561118557506001600160a01b03811615155b6111db5760405162461bcd60e51b815260206004820152602160248201527f4c697374696e674d616e616765723a20496e76616c6964207369676e617475726044820152606560f81b6064820152608401610560565b5050505050565b600080602060008451602086016000885af180611205576040513d6000823e3d81fd5b50506000513d9150811561121d57806001141561122a565b6001600160a01b0384163b155b15610efb57604051635274afe760e01b81526001600160a01b0385166004820152602401610560565b606060ff831461126d5761126683611355565b9050610e9b565b81805461127990611a4a565b80601f01602080910402602001604051908101604052809291908181526020018280546112a590611a4a565b80156112f25780601f106112c7576101008083540402835291602001916112f2565b820191906000526020600020905b8154815290600101906020018083116112d557829003601f168201915b50505050509050610e9b565b6000610e9b61130b611394565b8360405161190160f01b8152600281019290925260228201526042902090565b60008060008061133b86866114bf565b92509250925061134b828261150c565b5090949350505050565b60606000611362836115c9565b604080516020808252818301909252919250600091906020820181803683375050509182525060208101929092525090565b6000306001600160a01b037f0000000000000000000000000000000000000000000000000000000000000000161480156113ed57507f000000000000000000000000000000000000000000000000000000000000000046145b1561141757507f000000000000000000000000000000000000000000000000000000000000000090565b610f7e604080517f8b73c3c69bb8fe3d512ecc4cf759cc79239f7b179b0ffacaa9a75d522b39400f60208201527f0000000000000000000000000000000000000000000000000000000000000000918101919091527f000000000000000000000000000000000000000000000000000000000000000060608201524660808201523060a082015260009060c00160405160208183030381529060405280519060200120905090565b600080600083516041036114f95760208401516040850151606086015160001a6114eb888285856115f1565b955095509550505050611505565b50508151600091506002905b9250925092565b600082600381111561152057611520611779565b03611529575050565b600182600381111561153d5761153d611779565b0361155b5760405163f645eedf60e01b815260040160405180910390fd5b600282600381111561156f5761156f611779565b036115905760405163fce698f760e01b815260048101829052602401610560565b60038260038111156115a4576115a4611779565b036115c5576040516335e2f38360e21b815260048101829052602401610560565b5050565b600060ff8216601f811115610e9b57604051632cd44ac360e21b815260040160405180910390fd5b600080807f7fffffffffffffffffffffffffffffff5d576e7357a4501ddfe92f46681b20a084111561162c57506000915060039050826116b6565b604080516000808252602082018084528a905260ff891692820192909252606081018790526080810186905260019060a0016020604051602081039080840390855afa158015611680573d6000803e3d6000fd5b5050604051601f1901519150506001600160a01b0381166116ac575060009250600191508290506116b6565b9250600091508190505b9450945094915050565b5080546116cc90611a4a565b6000825580601f106116dc575050565b601f016020900490600052602060002090810190610cc091905b8082111561170a57600081556001016116f6565b5090565b60006020828403121561172057600080fd5b81356001600160a01b038116811461173757600080fd5b9392505050565b6000806040838503121561175157600080fd5b50508035926020909101359150565b60006020828403121561177257600080fd5b5035919050565b634e487b7160e01b600052602160045260246000fd5b60028110610cc057634e487b7160e01b600052602160045260246000fd5b6000815180845260005b818110156117d3576020818501810151868301820152016117b7565b506000602082860101526020601f19601f83011685010191505092915050565b6020815260018060a01b03825116602082015260208201516040820152600060408301516118208161178f565b8060608401525060608301516118358161178f565b80608084015250608083015160c060a084015261185560e08401826117ad565b905060a084015160c08401528091505092915050565b60ff60f81b881681526000602060e0602084015261188c60e084018a6117ad565b838103604085015261189e818a6117ad565b606085018990526001600160a01b038816608086015260a0850187905284810360c08601528551808252602080880193509091019060005b818110156118f2578351835292840192918401916001016118d6565b50909c9b505050505050505050505050565b60008083601f84011261191657600080fd5b50813567ffffffffffffffff81111561192e57600080fd5b60208301915083602082850101111561194657600080fd5b9250929050565b60008060008060008060008060c0898b03121561196957600080fd5b88356002811061197857600080fd5b975060208901359650604089013567ffffffffffffffff8082111561199c57600080fd5b6119a88c838d01611904565b909850965060608b0135955060808b0135945060a08b01359150808211156119cf57600080fd5b506119dc8b828c01611904565b999c989b5096995094979396929594505050565b6001600160a01b038716815260208101869052611a0c8561178f565b846040820152611a1b8461178f565b83606082015260c060808201526000611a3760c08301856117ad565b90508260a0830152979650505050505050565b600181811c90821680611a5e57607f821691505b602082108103611a7e57634e487b7160e01b600052602260045260246000fd5b50919050565b60208082526022908201527f4c697374696e674d616e616765723a204c697374696e67206e6f742061637469604082015261766560f01b606082015260800190565b634e487b7160e01b600052601160045260246000fd5b80820180821115610e9b57610e9b611ac6565b634e487b7160e01b600052604160045260246000fd5b600060018201611b1757611b17611ac6565b5060010190565b601f821115611b6a576000816000526020600020601f850160051c81016020861015611b475750805b601f850160051c820191505b81811015611b6657828155600101611b53565b5050505b505050565b815167ffffffffffffffff811115611b8957611b89611aef565b611b9d81611b978454611a4a565b84611b1e565b602080601f831160018114611bd25760008415611bba5750858301515b600019600386901b1c1916600185901b178555611b66565b600085815260208120601f198616915b82811015611c0157888601518255948401946001909101908401611be2565b5085821015611c1f5787850151600019600388901b60f8161c191681555b5050505050600190811b01905550565b60408101611c3c8461178f565b9281526020015290565b600060208284031215611c5857600080fd5b815160ff8116811461173757600080fd5b600181815b80851115611ca4578160001904821115611c8a57611c8a611ac6565b80851615611c9757918102915b93841c9390800290611c6e565b509250929050565b600082611cbb57506001610e9b565b81611cc857506000610e9b565b8160018114611cde5760028114611ce857611d04565b6001915050610e9b565b60ff841115611cf957611cf9611ac6565b50506001821b610e9b565b5060208310610133831016604e8410600b8410161715611d27575081810a610e9b565b611d318383611c69565b8060001904821115611d4557611d45611ac6565b029392505050565b600061173760ff841683611cac565b600060208284031215611d6e57600080fd5b5051919050565b8082028115828204841417610e9b57610e9b611ac6565b600082611da957634e487b7160e01b600052601260045260246000fd5b500490565b818382376000910190815291905056fea2646970667358221220455f17a8e06d1411cbf44a8ce448ba0ebdc196f2f294020db21b4b767559a45c64736f6c63430008160033",
  "linkReferences": {},
  "deployedLinkReferences": {}
}