{
  "_format": "hh-sol-artifact-1",
  "contractName": "ListingManager",
  "sourceName": "contracts/ListingManager.sol",
  "abi": [
    {
      "inputs": [
        {
          "internalType": "address",
          "name": "_treasury",
          "type": "address"
        },
        {
          "internalType": "address",
          "name": "_paymentToken",
          "type": "address"
        },
        {
          "internalType": "address",
          "name": "_trustedSigner",
          "type": "address"
        }
      ],
      "stateMutability": "nonpayable",
      "type": "constructor"
    },
    {
      "inputs": [],
      "name": "InvalidShortString",
      "type": "error"
    },
    {
      "inputs": [
        {
          "internalType": "address",
          "name": "owner",
          "type": "address"
        }
      ],
      "name": "OwnableInvalidOwner",
      "type": "error"
    },
    {
      "inputs": [
        {
          "internalType": "address",
          "name": "account",
          "type": "address"
        }
      ],
      "name": "OwnableUnauthorizedAccount",
      "type": "error"
    },
    {
      "inputs": [
        {
          "internalType": "string",
          "name": "str",
          "type": "string"
        }
      ],
      "name": "StringTooLong",
      "type": "error"
    },
    {
      "anonymous": false,
      "inputs": [],
      "name": "EIP712DomainChanged",
      "type": "event"
    },
    {
      "anonymous": false,
      "inputs": [
        {
          "indexed": true,
          "internalType": "uint256",
          "name": "listingId",
          "type": "uint256"
        },
        {
          "indexed": true,
          "internalType": "address",
          "name": "owner",
          "type": "address"
        },
        {
          "indexed": false,
          "internalType": "enum ListingManager.ListingType",
          "name": "listingType",
          "type": "uint8"
        },
        {
          "indexed": false,
          "internalType": "uint256",
          "name": "feePaid",
          "type": "uint256"
        }
      ],
      "name": "ListingCreated",
      "type": "event"
    },
    {
      "anonymous": false,
      "inputs": [
        {
          "indexed": true,
          "internalType": "uint256",
          "name": "listingId",
          "type": "uint256"
        }
      ],
      "name": "ListingDeleted",
      "type": "event"
    },
    {
      "anonymous": false,
      "inputs": [
        {
          "indexed": true,
          "internalType": "address",
          "name": "previousOwner",
          "type": "address"
        },
        {
          "indexed": true,
          "internalType": "address",
          "name": "newOwner",
          "type": "address"
        }
      ],
      "name": "OwnershipTransferred",
      "type": "event"
    },
    {
      "inputs": [],
      "name": "LISTING_DURATION",
      "outputs": [
        {
          "internalType": "uint256",
          "name": "",
          "type": "uint256"
        }
      ],
      "stateMutability": "view",
      "type": "function"
    },
    {
      "inputs": [
        {
          "internalType": "enum ListingManager.ListingType",
          "name": "_type",
          "type": "uint8"
        },
        {
          "internalType": "string",
          "name": "_dataIdentifier",
          "type": "string"
        },
        {
          "internalType": "uint256",
          "name": "_feeInToken",
          "type": "uint256"
        },
        {
          "internalType": "uint256",
          "name": "_deadline",
          "type": "uint256"
        },
        {
          "internalType": "bytes",
          "name": "_signature",
          "type": "bytes"
        }
      ],
      "name": "createListing",
      "outputs": [],
      "stateMutability": "nonpayable",
      "type": "function"
    },
    {
      "inputs": [
        {
          "internalType": "uint256",
          "name": "_listingId",
          "type": "uint256"
        }
      ],
      "name": "deleteListing",
      "outputs": [],
      "stateMutability": "nonpayable",
      "type": "function"
    },
    {
      "inputs": [],
      "name": "eip712Domain",
      "outputs": [
        {
          "internalType": "bytes1",
          "name": "fields",
          "type": "bytes1"
        },
        {
          "internalType": "string",
          "name": "name",
          "type": "string"
        },
        {
          "internalType": "string",
          "name": "version",
          "type": "string"
        },
        {
          "internalType": "uint256",
          "name": "chainId",
          "type": "uint256"
        },
        {
          "internalType": "address",
          "name": "verifyingContract",
          "type": "address"
        },
        {
          "internalType": "bytes32",
          "name": "salt",
          "type": "bytes32"
        },
        {
          "internalType": "uint256[]",
          "name": "extensions",
          "type": "uint256[]"
        }
      ],
      "stateMutability": "view",
      "type": "function"
    },
    {
      "inputs": [
        {
          "internalType": "enum ListingManager.ListingType",
          "name": "_type",
          "type": "uint8"
        },
        {
          "internalType": "string",
          "name": "_dataIdentifier",
          "type": "string"
        },
        {
          "internalType": "address",
          "name": "_user",
          "type": "address"
        },
        {
          "internalType": "uint256",
          "name": "_feeInToken",
          "type": "uint256"
        },
        {
          "internalType": "uint256",
          "name": "_deadline",
          "type": "uint256"
        }
      ],
      "name": "getListingMessageHash",
      "outputs": [
        {
          "internalType": "bytes32",
          "name": "",
          "type": "bytes32"
        }
      ],
      "stateMutability": "view",
      "type": "function"
    },
    {
      "inputs": [
        {
          "internalType": "uint256",
          "name": "",
          "type": "uint256"
        }
      ],
      "name": "listings",
      "outputs": [
        {
          "internalType": "address",
          "name": "owner",
          "type": "address"
        },
        {
          "internalType": "uint256",
          "name": "expiresAt",
          "type": "uint256"
        },
        {
          "internalType": "enum ListingManager.ListingType",
          "name": "listingType",
          "type": "uint8"
        },
        {
          "internalType": "string",
          "name": "dataIdentifier",
          "type": "string"
        }
      ],
      "stateMutability": "view",
      "type": "function"
    },
    {
      "inputs": [],
      "name": "owner",
      "outputs": [
        {
          "internalType": "address",
          "name": "",
          "type": "address"
        }
      ],
      "stateMutability": "view",
      "type": "function"
    },
    {
      "inputs": [],
      "name": "paymentToken",
      "outputs": [
        {
          "internalType": "contract IERC20",
          "name": "",
          "type": "address"
        }
      ],
      "stateMutability": "view",
      "type": "function"
    },
    {
      "inputs": [],
      "name": "renounceOwnership",
      "outputs": [],
      "stateMutability": "nonpayable",
      "type": "function"
    },
    {
      "inputs": [
        {
          "internalType": "address",
          "name": "_newSigner",
          "type": "address"
        }
      ],
      "name": "setTrustedSigner",
      "outputs": [],
      "stateMutability": "nonpayable",
      "type": "function"
    },
    {
      "inputs": [
        {
          "internalType": "address",
          "name": "newOwner",
          "type": "address"
        }
      ],
      "name": "transferOwnership",
      "outputs": [],
      "stateMutability": "nonpayable",
      "type": "function"
    },
    {
      "inputs": [],
      "name": "treasury",
      "outputs": [
        {
          "internalType": "contract ITreasury",
          "name": "",
          "type": "address"
        }
      ],
      "stateMutability": "view",
      "type": "function"
    },
    {
      "inputs": [],
      "name": "trustedSigner",
      "outputs": [
        {
          "internalType": "address",
          "name": "",
          "type": "address"
        }
      ],
      "stateMutability": "view",
      "type": "function"
    },
    {
      "inputs": [
        {
          "internalType": "bytes32",
          "name": "",
          "type": "bytes32"
        }
      ],
      "name": "usedHashes",
      "outputs": [
        {
          "internalType": "bool",
          "name": "",
          "type": "bool"
        }
      ],
      "stateMutability": "view",
      "type": "function"
    }
  ],
  "bytecode": "0x6101606040523480156200001257600080fd5b506040516200153f3803806200153f833981016040819052620000359162000288565b604080518082018252600e81526d2634b9ba34b733a6b0b730b3b2b960911b602080830191909152825180840190935260018352603160f81b908301529033806200009b57604051631e4fbdf760e01b8152600060048201526024015b60405180910390fd5b620000a6816200019f565b50620000b4826001620001ef565b61012052620000c5816002620001ef565b61014052815160208084019190912060e052815190820120610100524660a0526200015360e05161010051604080517f8b73c3c69bb8fe3d512ecc4cf759cc79239f7b179b0ffacaa9a75d522b39400f60208201529081019290925260608201524660808201523060a082015260009060c00160405160208183030381529060405280519060200120905090565b60805250503060c052600380546001600160a01b039485166001600160a01b031991821617909155600480549385169382169390931790925560058054919093169116179055620004bb565b600080546001600160a01b038381166001600160a01b0319831681178455604051919092169283917f8be0079c531659141344cd1fd0a4f28419497f9722a3daafe3b4186f6b6457e09190a35050565b60006020835110156200020f57620002078362000228565b905062000222565b816200021c848262000379565b5060ff90505b92915050565b600080829050601f8151111562000256578260405163305a27a960e01b815260040162000092919062000445565b8051620002638262000496565b179392505050565b80516001600160a01b03811681146200028357600080fd5b919050565b6000806000606084860312156200029e57600080fd5b620002a9846200026b565b9250620002b9602085016200026b565b9150620002c9604085016200026b565b90509250925092565b634e487b7160e01b600052604160045260246000fd5b600181811c90821680620002fd57607f821691505b6020821081036200031e57634e487b7160e01b600052602260045260246000fd5b50919050565b601f82111562000374576000816000526020600020601f850160051c810160208610156200034f5750805b601f850160051c820191505b8181101562000370578281556001016200035b565b5050505b505050565b81516001600160401b03811115620003955762000395620002d2565b620003ad81620003a68454620002e8565b8462000324565b602080601f831160018114620003e55760008415620003cc5750858301515b600019600386901b1c1916600185901b17855562000370565b600085815260208120601f198616915b828110156200041657888601518255948401946001909101908401620003f5565b5085821015620004355787850151600019600388901b60f8161c191681555b5050505050600190811b01905550565b60006020808352835180602085015260005b81811015620004755785810183015185820160400152820162000457565b506000604082860101526040601f19601f8301168501019250505092915050565b805160208083015191908110156200031e5760001960209190910360031b1b16919050565b60805160a05160c05160e051610100516101205161014051611029620005166000396000610802015260006107d001526000610902015260006108da015260006108350152600061085f0152600061088901526110296000f3fe608060405234801561001057600080fd5b50600436106100ea5760003560e01c80638da5cb5b1161008c578063de74e57b11610066578063de74e57b146101ec578063e6282c6e1461020f578063f2fde38b14610222578063f74d54801461023557600080fd5b80638da5cb5b1461019e578063aef18bf7146101af578063c2135cbf146101e257600080fd5b806361d027b3116100c857806361d027b3146101475780636e0683ec1461015a578063715018a61461017b57806384b0196e1461018357600080fd5b80633013ce29146100ef578063315f413b1461011f57806356a1c70114610134575b600080fd5b600454610102906001600160a01b031681565b6040516001600160a01b0390911681526020015b60405180910390f35b61013261012d366004610b7b565b610248565b005b610132610142366004610c2e565b610415565b600354610102906001600160a01b031681565b61016d610168366004610c49565b61043f565b604051908152602001610116565b6101326104e8565b61018b6104fc565b6040516101169796959493929190610cff565b6000546001600160a01b0316610102565b6101d26101bd366004610d98565b60086020526000908152604090205460ff1681565b6040519015158152602001610116565b61016d62278d0081565b6101ff6101fa366004610d98565b610542565b6040516101169493929190610de9565b61013261021d366004610d98565b610603565b610132610230366004610c2e565b6106db565b600554610102906001600160a01b031681565b6000610257868633878761043f565b60008181526008602052604090819020805460ff191660011790556004805460035492516323b872dd60e01b815233928101929092526001600160a01b039283166024830152604482018890529293509116906323b872dd906064016020604051808303816000875af11580156102d2573d6000803e3d6000fd5b505050506040513d601f19601f820116820180604052508101906102f69190610e29565b506006805490600061030783610e61565b909155505060065460408051608081019091523381526020810161032e62278d0042610e7a565b815260200188600181111561034557610345610db1565b81526020908101889052600083815260078252604090819020835181546001600160a01b0319166001600160a01b0390911617815591830151600180840191909155908301516002830180549192909160ff19169083818111156103ab576103ab610db1565b0217905550606082015160038201906103c49082610f18565b50905050336001600160a01b0316817f699a5d005a1b3070978198b8ebdef4433bbd9a3009794d984de5817912e816a78988604051610404929190610fd8565b60405180910390a350505050505050565b61041d610719565b600580546001600160a01b0319166001600160a01b0392909216919091179055565b6000807f81f4fa5e27b43244a2bc8bb860a77a340261d38eda98c4eb4105c4f8a9c2947487600181111561047557610475610db1565b87516020808a0191909120604080519283019490945260ff9092169281019290925260608201526001600160a01b038616608082015260a0810185905260c0810184905260e0016040516020818303038152906040528051906020012090506104dd81610746565b979650505050505050565b6104f0610719565b6104fa6000610779565b565b6000606080600080600060606105106107c9565b6105186107fb565b60408051600080825260208201909252600f60f81b9b939a50919850469750309650945092509050565b60076020526000908152604090208054600182015460028301546003840180546001600160a01b0390941694929360ff909216929161058090610e8d565b80601f01602080910402602001604051908101604052809291908181526020018280546105ac90610e8d565b80156105f95780601f106105ce576101008083540402835291602001916105f9565b820191906000526020600020905b8154815290600101906020018083116105dc57829003601f168201915b5050505050905084565b6000818152600760205260409020546001600160a01b0316331461066e5760405162461bcd60e51b815260206004820181905260248201527f4c697374696e674d616e616765723a204e6f7420796f7572206c697374696e6760448201526064015b60405180910390fd5b600081815260076020526040812080546001600160a01b03191681556001810182905560028101805460ff19169055906106ab6003830182610a66565b505060405181907f8b21015f510e5f42785fad11aa75334f0f622f97504d8c498540b869d36b630890600090a250565b6106e3610719565b6001600160a01b03811661070d57604051631e4fbdf760e01b815260006004820152602401610665565b61071681610779565b50565b6000546001600160a01b031633146104fa5760405163118cdaa760e01b8152336004820152602401610665565b6000610773610753610828565b8360405161190160f01b8152600281019290925260228201526042902090565b92915050565b600080546001600160a01b038381166001600160a01b0319831681178455604051919092169283917f8be0079c531659141344cd1fd0a4f28419497f9722a3daafe3b4186f6b6457e09190a35050565b60606107f67f00000000000000000000000000000000000000000000000000000000000000006001610953565b905090565b60606107f67f00000000000000000000000000000000000000000000000000000000000000006002610953565b6000306001600160a01b037f00000000000000000000000000000000000000000000000000000000000000001614801561088157507f000000000000000000000000000000000000000000000000000000000000000046145b156108ab57507f000000000000000000000000000000000000000000000000000000000000000090565b6107f6604080517f8b73c3c69bb8fe3d512ecc4cf759cc79239f7b179b0ffacaa9a75d522b39400f60208201527f0000000000000000000000000000000000000000000000000000000000000000918101919091527f000000000000000000000000000000000000000000000000000000000000000060608201524660808201523060a082015260009060c00160405160208183030381529060405280519060200120905090565b606060ff831461096d57610966836109ff565b9050610773565b81805461097990610e8d565b80601f01602080910402602001604051908101604052809291908181526020018280546109a590610e8d565b80156109f25780601f106109c7576101008083540402835291602001916109f2565b820191906000526020600020905b8154815290600101906020018083116109d557829003601f168201915b5050505050905092915050565b60606000610a0c83610a3e565b604080516020808252818301909252919250600091906020820181803683375050509182525060208101929092525090565b600060ff8216601f81111561077357604051632cd44ac360e21b815260040160405180910390fd5b508054610a7290610e8d565b6000825580601f10610a82575050565b601f01602090049060005260206000209081019061071691905b80821115610ab05760008155600101610a9c565b5090565b803560028110610ac357600080fd5b919050565b634e487b7160e01b600052604160045260246000fd5b600067ffffffffffffffff80841115610af957610af9610ac8565b604051601f8501601f19908116603f01168101908282118183101715610b2157610b21610ac8565b81604052809350858152868686011115610b3a57600080fd5b858560208301376000602087830101525050509392505050565b600082601f830112610b6557600080fd5b610b7483833560208501610ade565b9392505050565b600080600080600060a08688031215610b9357600080fd5b610b9c86610ab4565b9450602086013567ffffffffffffffff80821115610bb957600080fd5b610bc589838a01610b54565b955060408801359450606088013593506080880135915080821115610be957600080fd5b508601601f81018813610bfb57600080fd5b610c0a88823560208401610ade565b9150509295509295909350565b80356001600160a01b0381168114610ac357600080fd5b600060208284031215610c4057600080fd5b610b7482610c17565b600080600080600060a08688031215610c6157600080fd5b610c6a86610ab4565b9450602086013567ffffffffffffffff811115610c8657600080fd5b610c9288828901610b54565b945050610ca160408701610c17565b94979396509394606081013594506080013592915050565b6000815180845260005b81811015610cdf57602081850181015186830182015201610cc3565b506000602082860101526020601f19601f83011685010191505092915050565b60ff60f81b881681526000602060e06020840152610d2060e084018a610cb9565b8381036040850152610d32818a610cb9565b606085018990526001600160a01b038816608086015260a0850187905284810360c08601528551808252602080880193509091019060005b81811015610d8657835183529284019291840191600101610d6a565b50909c9b505050505050505050505050565b600060208284031215610daa57600080fd5b5035919050565b634e487b7160e01b600052602160045260246000fd5b60028110610de557634e487b7160e01b600052602160045260246000fd5b9052565b6001600160a01b038516815260208101849052610e096040820184610dc7565b608060608201526000610e1f6080830184610cb9565b9695505050505050565b600060208284031215610e3b57600080fd5b81518015158114610b7457600080fd5b634e487b7160e01b600052601160045260246000fd5b600060018201610e7357610e73610e4b565b5060010190565b8082018082111561077357610773610e4b565b600181811c90821680610ea157607f821691505b602082108103610ec157634e487b7160e01b600052602260045260246000fd5b50919050565b601f821115610f13576000816000526020600020601f850160051c81016020861015610ef05750805b601f850160051c820191505b81811015610f0f57828155600101610efc565b5050505b505050565b815167ffffffffffffffff811115610f3257610f32610ac8565b610f4681610f408454610e8d565b84610ec7565b602080601f831160018114610f7b5760008415610f635750858301515b600019600386901b1c1916600185901b178555610f0f565b600085815260208120601f198616915b82811015610faa57888601518255948401946001909101908401610f8b565b5085821015610fc85787850151600019600388901b60f8161c191681555b5050505050600190811b01905550565b60408101610fe68285610dc7565b826020830152939250505056fea26469706673582212208a227e2ce10269d2250e4c4ae3ef2462302b2f8c38ff869e973bf4da61d7717764736f6c63430008160033",
  "linkReferences": {},
  "deployedLinkReferences": {}
}