{
  "_format": "hh-sol-artifact-1",
  "contractName": "ListingManager",
  "sourceName": "contracts/ListingManager.sol",
  "abi": [
    {
      "inputs": [
        {
          "internalType": "address",
          "name": "_treasury",
          "type": "address"
        },
        {
          "internalType": "address",
          "name": "_paymentToken",
          "type": "address"
        },
        {
          "internalType": "address",
          "name": "_trustedSigner",
          "type": "address"
        }
      ],
      "stateMutability": "nonpayable",
      "type": "constructor"
    },
    {
      "inputs": [],
      "name": "InvalidShortString",
      "type": "error"
    },
    {
      "inputs": [
        {
          "internalType": "address",
          "name": "owner",
          "type": "address"
        }
      ],
      "name": "OwnableInvalidOwner",
      "type": "error"
    },
    {
      "inputs": [
        {
          "internalType": "address",
          "name": "account",
          "type": "address"
        }
      ],
      "name": "OwnableUnauthorizedAccount",
      "type": "error"
    },
    {
      "inputs": [
        {
          "internalType": "string",
          "name": "str",
          "type": "string"
        }
      ],
      "name": "StringTooLong",
      "type": "error"
    },
    {
      "anonymous": false,
      "inputs": [],
      "name": "EIP712DomainChanged",
      "type": "event"
    },
    {
      "anonymous": false,
      "inputs": [
        {
          "indexed": true,
          "internalType": "uint256",
          "name": "listingId",
          "type": "uint256"
        },
        {
          "indexed": true,
          "internalType": "address",
          "name": "owner",
          "type": "address"
        },
        {
          "indexed": false,
          "internalType": "enum ListingManager.ListingType",
          "name": "listingType",
          "type": "uint8"
        },
        {
          "indexed": false,
          "internalType": "uint256",
          "name": "feePaid",
          "type": "uint256"
        }
      ],
      "name": "ListingCreated",
      "type": "event"
    },
    {
      "anonymous": false,
      "inputs": [
        {
          "indexed": true,
          "internalType": "uint256",
          "name": "listingId",
          "type": "uint256"
        }
      ],
      "name": "ListingDeleted",
      "type": "event"
    },
    {
      "anonymous": false,
      "inputs": [
        {
          "indexed": true,
          "internalType": "address",
          "name": "previousOwner",
          "type": "address"
        },
        {
          "indexed": true,
          "internalType": "address",
          "name": "newOwner",
          "type": "address"
        }
      ],
      "name": "OwnershipTransferred",
      "type": "event"
    },
    {
      "inputs": [],
      "name": "LISTING_DURATION",
      "outputs": [
        {
          "internalType": "uint256",
          "name": "",
          "type": "uint256"
        }
      ],
      "stateMutability": "view",
      "type": "function"
    },
    {
      "inputs": [
        {
          "internalType": "enum ListingManager.ListingType",
          "name": "_type",
          "type": "uint8"
        },
        {
          "internalType": "string",
          "name": "_dataIdentifier",
          "type": "string"
        },
        {
          "internalType": "uint256",
          "name": "_feeInToken",
          "type": "uint256"
        },
        {
          "internalType": "uint256",
          "name": "_deadline",
          "type": "uint256"
        },
        {
          "internalType": "bytes",
          "name": "_signature",
          "type": "bytes"
        }
      ],
      "name": "createListing",
      "outputs": [],
      "stateMutability": "nonpayable",
      "type": "function"
    },
    {
      "inputs": [
        {
          "internalType": "uint256",
          "name": "_listingId",
          "type": "uint256"
        }
      ],
      "name": "deleteListing",
      "outputs": [],
      "stateMutability": "nonpayable",
      "type": "function"
    },
    {
      "inputs": [],
      "name": "eip712Domain",
      "outputs": [
        {
          "internalType": "bytes1",
          "name": "fields",
          "type": "bytes1"
        },
        {
          "internalType": "string",
          "name": "name",
          "type": "string"
        },
        {
          "internalType": "string",
          "name": "version",
          "type": "string"
        },
        {
          "internalType": "uint256",
          "name": "chainId",
          "type": "uint256"
        },
        {
          "internalType": "address",
          "name": "verifyingContract",
          "type": "address"
        },
        {
          "internalType": "bytes32",
          "name": "salt",
          "type": "bytes32"
        },
        {
          "internalType": "uint256[]",
          "name": "extensions",
          "type": "uint256[]"
        }
      ],
      "stateMutability": "view",
      "type": "function"
    },
    {
      "inputs": [
        {
          "internalType": "enum ListingManager.ListingType",
          "name": "_type",
          "type": "uint8"
        },
        {
          "internalType": "string",
          "name": "_dataIdentifier",
          "type": "string"
        },
        {
          "internalType": "address",
          "name": "_user",
          "type": "address"
        },
        {
          "internalType": "uint256",
          "name": "_feeInToken",
          "type": "uint256"
        },
        {
          "internalType": "uint256",
          "name": "_deadline",
          "type": "uint256"
        }
      ],
      "name": "getListingMessageHash",
      "outputs": [
        {
          "internalType": "bytes32",
          "name": "",
          "type": "bytes32"
        }
      ],
      "stateMutability": "view",
      "type": "function"
    },
    {
      "inputs": [
        {
          "internalType": "uint256",
          "name": "",
          "type": "uint256"
        }
      ],
      "name": "listings",
      "outputs": [
        {
          "internalType": "address",
          "name": "owner",
          "type": "address"
        },
        {
          "internalType": "uint256",
          "name": "expiresAt",
          "type": "uint256"
        },
        {
          "internalType": "enum ListingManager.ListingType",
          "name": "listingType",
          "type": "uint8"
        },
        {
          "internalType": "string",
          "name": "dataIdentifier",
          "type": "string"
        }
      ],
      "stateMutability": "view",
      "type": "function"
    },
    {
      "inputs": [],
      "name": "owner",
      "outputs": [
        {
          "internalType": "address",
          "name": "",
          "type": "address"
        }
      ],
      "stateMutability": "view",
      "type": "function"
    },
    {
      "inputs": [],
      "name": "paymentToken",
      "outputs": [
        {
          "internalType": "contract IERC20",
          "name": "",
          "type": "address"
        }
      ],
      "stateMutability": "view",
      "type": "function"
    },
    {
      "inputs": [],
      "name": "renounceOwnership",
      "outputs": [],
      "stateMutability": "nonpayable",
      "type": "function"
    },
    {
      "inputs": [
        {
          "internalType": "address",
          "name": "_newSigner",
          "type": "address"
        }
      ],
      "name": "setTrustedSigner",
      "outputs": [],
      "stateMutability": "nonpayable",
      "type": "function"
    },
    {
      "inputs": [
        {
          "internalType": "address",
          "name": "newOwner",
          "type": "address"
        }
      ],
      "name": "transferOwnership",
      "outputs": [],
      "stateMutability": "nonpayable",
      "type": "function"
    },
    {
      "inputs": [],
      "name": "treasury",
      "outputs": [
        {
          "internalType": "contract ITreasury",
          "name": "",
          "type": "address"
        }
      ],
      "stateMutability": "view",
      "type": "function"
    },
    {
      "inputs": [],
      "name": "trustedSigner",
      "outputs": [
        {
          "internalType": "address",
          "name": "",
          "type": "address"
        }
      ],
      "stateMutability": "view",
      "type": "function"
    },
    {
      "inputs": [
        {
          "internalType": "bytes32",
          "name": "",
          "type": "bytes32"
        }
      ],
      "name": "usedHashes",
      "outputs": [
        {
          "internalType": "bool",
          "name": "",
          "type": "bool"
        }
      ],
      "stateMutability": "view",
      "type": "function"
    }
  ],
  "bytecode": "0x6101606040523480156200001257600080fd5b506040516200190838038062001908833981016040819052620000359162000288565b604080518082018252600e81526d2634b9ba34b733a6b0b730b3b2b960911b602080830191909152825180840190935260018352603160f81b908301529033806200009b57604051631e4fbdf760e01b8152600060048201526024015b60405180910390fd5b620000a6816200019f565b50620000b4826001620001ef565b61012052620000c5816002620001ef565b61014052815160208084019190912060e052815190820120610100524660a0526200015360e05161010051604080517f8b73c3c69bb8fe3d512ecc4cf759cc79239f7b179b0ffacaa9a75d522b39400f60208201529081019290925260608201524660808201523060a082015260009060c00160405160208183030381529060405280519060200120905090565b60805250503060c052600380546001600160a01b039485166001600160a01b031991821617909155600480549385169382169390931790925560058054919093169116179055620004bb565b600080546001600160a01b038381166001600160a01b0319831681178455604051919092169283917f8be0079c531659141344cd1fd0a4f28419497f9722a3daafe3b4186f6b6457e09190a35050565b60006020835110156200020f57620002078362000228565b905062000222565b816200021c848262000379565b5060ff90505b92915050565b600080829050601f8151111562000256578260405163305a27a960e01b815260040162000092919062000445565b8051620002638262000496565b179392505050565b80516001600160a01b03811681146200028357600080fd5b919050565b6000806000606084860312156200029e57600080fd5b620002a9846200026b565b9250620002b9602085016200026b565b9150620002c9604085016200026b565b90509250925092565b634e487b7160e01b600052604160045260246000fd5b600181811c90821680620002fd57607f821691505b6020821081036200031e57634e487b7160e01b600052602260045260246000fd5b50919050565b601f82111562000374576000816000526020600020601f850160051c810160208610156200034f5750805b601f850160051c820191505b8181101562000370578281556001016200035b565b5050505b505050565b81516001600160401b03811115620003955762000395620002d2565b620003ad81620003a68454620002e8565b8462000324565b602080601f831160018114620003e55760008415620003cc5750858301515b600019600386901b1c1916600185901b17855562000370565b600085815260208120601f198616915b828110156200041657888601518255948401946001909101908401620003f5565b5085821015620004355787850151600019600388901b60f8161c191681555b5050505050600190811b01905550565b60006020808352835180602085015260005b81811015620004755785810183015185820160400152820162000457565b506000604082860101526040601f19601f8301168501019250505092915050565b805160208083015191908110156200031e5760001960209190910360031b1b16919050565b60805160a05160c05160e0516101005161012051610140516113f2620005166000396000610b7901526000610b4701526000610c7901526000610c5101526000610bac01526000610bd601526000610c0001526113f26000f3fe608060405234801561001057600080fd5b50600436106100ea5760003560e01c80638da5cb5b1161008c578063de74e57b11610066578063de74e57b146101ec578063e6282c6e1461020f578063f2fde38b14610222578063f74d54801461023557600080fd5b80638da5cb5b1461019e578063aef18bf7146101af578063c2135cbf146101e257600080fd5b806361d027b3116100c857806361d027b3146101475780636e0683ec1461015a578063715018a61461017b57806384b0196e1461018357600080fd5b80633013ce29146100ef578063315f413b1461011f57806356a1c70114610134575b600080fd5b600454610102906001600160a01b031681565b6040516001600160a01b0390911681526020015b60405180910390f35b61013261012d366004610ef2565b610248565b005b610132610142366004610fa5565b610791565b600354610102906001600160a01b031681565b61016d610168366004610fc0565b6107bb565b604051908152602001610116565b610132610864565b61018b610878565b6040516101169796959493929190611076565b6000546001600160a01b0316610102565b6101d26101bd36600461110f565b60086020526000908152604090205460ff1681565b6040519015158152602001610116565b61016d62278d0081565b6101ff6101fa36600461110f565b6108be565b6040516101169493929190611160565b61013261021d36600461110f565b61097f565b610132610230366004610fa5565b610a52565b600554610102906001600160a01b031681565b600061025786863387876107bb565b6000818152600860209081526040808320805460ff1916600117905560035481516266454d60e21b8152915194955092936001600160a01b03909316926301991534926004808401939192918290030181865afa1580156102bc573d6000803e3d6000fd5b505050506040513d601f19601f820116820180604052508101906102e091906111a0565b90506000816102f3876305f5e1006111cf565b6102fd91906111e6565b90506000821161035f5760405162461bcd60e51b815260206004820152602260248201527f4c697374696e674d616e616765723a20496e76616c6964204c4d4b5420707269604482015261636560f01b60648201526084015b60405180910390fd5b600480546040516370a0823160e01b8152339281019290925282916001600160a01b03909116906370a0823190602401602060405180830381865afa1580156103ac573d6000803e3d6000fd5b505050506040513d601f19601f820116820180604052508101906103d091906111a0565b10156104315760405162461bcd60e51b815260206004820152602a60248201527f4c697374696e674d616e616765723a20496e73756666696369656e7420746f6b604482015269656e2062616c616e636560b01b6064820152608401610356565b60048054604051636eb1769f60e11b8152339281019290925230602483015282916001600160a01b039091169063dd62ed3e90604401602060405180830381865afa158015610484573d6000803e3d6000fd5b505050506040513d601f19601f820116820180604052508101906104a891906111a0565b101561050b5760405162461bcd60e51b815260206004820152602c60248201527f4c697374696e674d616e616765723a20496e73756666696369656e7420746f6b60448201526b656e20616c6c6f77616e636560a01b6064820152608401610356565b600480546040516323b872dd60e01b81523392810192909252306024830152604482018390526001600160a01b0316906323b872dd906064016020604051808303816000875af1158015610563573d6000803e3d6000fd5b505050506040513d601f19601f820116820180604052508101906105879190611208565b506004805460035460405163095ea7b360e01b81526001600160a01b039182169381019390935260248301849052169063095ea7b3906044016020604051808303816000875af11580156105df573d6000803e3d6000fd5b505050506040513d601f19601f820116820180604052508101906106039190611208565b506003546004805460405163d7e6f31760e01b81526001600160a01b0391821692810192909252602482018490529091169063d7e6f31790604401600060405180830381600087803b15801561065857600080fd5b505af115801561066c573d6000803e3d6000fd5b5050600680549250905060006106818361122a565b90915550506006546040805160808101909152338152602081016106a862278d0042611243565b81526020018a60018111156106bf576106bf611128565b815260209081018a9052600083815260078252604090819020835181546001600160a01b0319166001600160a01b0390911617815591830151600180840191909155908301516002830180549192909160ff191690838181111561072557610725611128565b02179055506060820151600382019061073e90826112e1565b50905050336001600160a01b0316817f699a5d005a1b3070978198b8ebdef4433bbd9a3009794d984de5817912e816a78b8560405161077e9291906113a1565b60405180910390a3505050505050505050565b610799610a90565b600580546001600160a01b0319166001600160a01b0392909216919091179055565b6000807f81f4fa5e27b43244a2bc8bb860a77a340261d38eda98c4eb4105c4f8a9c294748760018111156107f1576107f1611128565b87516020808a0191909120604080519283019490945260ff9092169281019290925260608201526001600160a01b038616608082015260a0810185905260c0810184905260e00160405160208183030381529060405280519060200120905061085981610abd565b979650505050505050565b61086c610a90565b6108766000610af0565b565b60006060806000806000606061088c610b40565b610894610b72565b60408051600080825260208201909252600f60f81b9b939a50919850469750309650945092509050565b60076020526000908152604090208054600182015460028301546003840180546001600160a01b0390941694929360ff90921692916108fc90611256565b80601f016020809104026020016040519081016040528092919081815260200182805461092890611256565b80156109755780601f1061094a57610100808354040283529160200191610975565b820191906000526020600020905b81548152906001019060200180831161095857829003601f168201915b5050505050905084565b6000818152600760205260409020546001600160a01b031633146109e55760405162461bcd60e51b815260206004820181905260248201527f4c697374696e674d616e616765723a204e6f7420796f7572206c697374696e676044820152606401610356565b600081815260076020526040812080546001600160a01b03191681556001810182905560028101805460ff1916905590610a226003830182610ddd565b505060405181907f8b21015f510e5f42785fad11aa75334f0f622f97504d8c498540b869d36b630890600090a250565b610a5a610a90565b6001600160a01b038116610a8457604051631e4fbdf760e01b815260006004820152602401610356565b610a8d81610af0565b50565b6000546001600160a01b031633146108765760405163118cdaa760e01b8152336004820152602401610356565b6000610aea610aca610b9f565b8360405161190160f01b8152600281019290925260228201526042902090565b92915050565b600080546001600160a01b038381166001600160a01b0319831681178455604051919092169283917f8be0079c531659141344cd1fd0a4f28419497f9722a3daafe3b4186f6b6457e09190a35050565b6060610b6d7f00000000000000000000000000000000000000000000000000000000000000006001610cca565b905090565b6060610b6d7f00000000000000000000000000000000000000000000000000000000000000006002610cca565b6000306001600160a01b037f000000000000000000000000000000000000000000000000000000000000000016148015610bf857507f000000000000000000000000000000000000000000000000000000000000000046145b15610c2257507f000000000000000000000000000000000000000000000000000000000000000090565b610b6d604080517f8b73c3c69bb8fe3d512ecc4cf759cc79239f7b179b0ffacaa9a75d522b39400f60208201527f0000000000000000000000000000000000000000000000000000000000000000918101919091527f000000000000000000000000000000000000000000000000000000000000000060608201524660808201523060a082015260009060c00160405160208183030381529060405280519060200120905090565b606060ff8314610ce457610cdd83610d76565b9050610aea565b818054610cf090611256565b80601f0160208091040260200160405190810160405280929190818152602001828054610d1c90611256565b8015610d695780601f10610d3e57610100808354040283529160200191610d69565b820191906000526020600020905b815481529060010190602001808311610d4c57829003601f168201915b5050505050905092915050565b60606000610d8383610db5565b604080516020808252818301909252919250600091906020820181803683375050509182525060208101929092525090565b600060ff8216601f811115610aea57604051632cd44ac360e21b815260040160405180910390fd5b508054610de990611256565b6000825580601f10610df9575050565b601f016020900490600052602060002090810190610a8d91905b80821115610e275760008155600101610e13565b5090565b803560028110610e3a57600080fd5b919050565b634e487b7160e01b600052604160045260246000fd5b600067ffffffffffffffff80841115610e7057610e70610e3f565b604051601f8501601f19908116603f01168101908282118183101715610e9857610e98610e3f565b81604052809350858152868686011115610eb157600080fd5b858560208301376000602087830101525050509392505050565b600082601f830112610edc57600080fd5b610eeb83833560208501610e55565b9392505050565b600080600080600060a08688031215610f0a57600080fd5b610f1386610e2b565b9450602086013567ffffffffffffffff80821115610f3057600080fd5b610f3c89838a01610ecb565b955060408801359450606088013593506080880135915080821115610f6057600080fd5b508601601f81018813610f7257600080fd5b610f8188823560208401610e55565b9150509295509295909350565b80356001600160a01b0381168114610e3a57600080fd5b600060208284031215610fb757600080fd5b610eeb82610f8e565b600080600080600060a08688031215610fd857600080fd5b610fe186610e2b565b9450602086013567ffffffffffffffff811115610ffd57600080fd5b61100988828901610ecb565b94505061101860408701610f8e565b94979396509394606081013594506080013592915050565b6000815180845260005b818110156110565760208185018101518683018201520161103a565b506000602082860101526020601f19601f83011685010191505092915050565b60ff60f81b881681526000602060e0602084015261109760e084018a611030565b83810360408501526110a9818a611030565b606085018990526001600160a01b038816608086015260a0850187905284810360c08601528551808252602080880193509091019060005b818110156110fd578351835292840192918401916001016110e1565b50909c9b505050505050505050505050565b60006020828403121561112157600080fd5b5035919050565b634e487b7160e01b600052602160045260246000fd5b6002811061115c57634e487b7160e01b600052602160045260246000fd5b9052565b6001600160a01b038516815260208101849052611180604082018461113e565b6080606082015260006111966080830184611030565b9695505050505050565b6000602082840312156111b257600080fd5b5051919050565b634e487b7160e01b600052601160045260246000fd5b8082028115828204841417610aea57610aea6111b9565b60008261120357634e487b7160e01b600052601260045260246000fd5b500490565b60006020828403121561121a57600080fd5b81518015158114610eeb57600080fd5b60006001820161123c5761123c6111b9565b5060010190565b80820180821115610aea57610aea6111b9565b600181811c9082168061126a57607f821691505b60208210810361128a57634e487b7160e01b600052602260045260246000fd5b50919050565b601f8211156112dc576000816000526020600020601f850160051c810160208610156112b95750805b601f850160051c820191505b818110156112d8578281556001016112c5565b5050505b505050565b815167ffffffffffffffff8111156112fb576112fb610e3f565b61130f816113098454611256565b84611290565b602080601f831160018114611344576000841561132c5750858301515b600019600386901b1c1916600185901b1785556112d8565b600085815260208120601f198616915b8281101561137357888601518255948401946001909101908401611354565b50858210156113915787850151600019600388901b60f8161c191681555b5050505050600190811b01905550565b604081016113af828561113e565b826020830152939250505056fea264697066735822122068584be22abd87229ad89571f9e38d95cced57dfb64849cb72d24edef4d5d80264736f6c63430008160033",
  "linkReferences": {},
  "deployedLinkReferences": {}
}