{
  "_format": "hh-sol-artifact-1",
  "contractName": "ListingManager",
  "sourceName": "contracts/ListingManager.sol",
  "abi": [
    {
      "inputs": [
        {
          "internalType": "address",
          "name": "_treasury",
          "type": "address"
        },
        {
          "internalType": "address",
          "name": "_feeToken",
          "type": "address"
        },
        {
          "internalType": "address",
          "name": "_trustedSigner",
          "type": "address"
        }
      ],
      "stateMutability": "nonpayable",
      "type": "constructor"
    },
    {
      "inputs": [],
      "name": "ECDSAInvalidSignature",
      "type": "error"
    },
    {
      "inputs": [
        {
          "internalType": "uint256",
          "name": "length",
          "type": "uint256"
        }
      ],
      "name": "ECDSAInvalidSignatureLength",
      "type": "error"
    },
    {
      "inputs": [
        {
          "internalType": "bytes32",
          "name": "s",
          "type": "bytes32"
        }
      ],
      "name": "ECDSAInvalidSignatureS",
      "type": "error"
    },
    {
      "inputs": [],
      "name": "InvalidShortString",
      "type": "error"
    },
    {
      "inputs": [
        {
          "internalType": "address",
          "name": "owner",
          "type": "address"
        }
      ],
      "name": "OwnableInvalidOwner",
      "type": "error"
    },
    {
      "inputs": [
        {
          "internalType": "address",
          "name": "account",
          "type": "address"
        }
      ],
      "name": "OwnableUnauthorizedAccount",
      "type": "error"
    },
    {
      "inputs": [
        {
          "internalType": "address",
          "name": "token",
          "type": "address"
        }
      ],
      "name": "SafeERC20FailedOperation",
      "type": "error"
    },
    {
      "inputs": [
        {
          "internalType": "string",
          "name": "str",
          "type": "string"
        }
      ],
      "name": "StringTooLong",
      "type": "error"
    },
    {
      "anonymous": false,
      "inputs": [],
      "name": "EIP712DomainChanged",
      "type": "event"
    },
    {
      "anonymous": false,
      "inputs": [
        {
          "indexed": true,
          "internalType": "uint256",
          "name": "listingId",
          "type": "uint256"
        }
      ],
      "name": "ListingClosed",
      "type": "event"
    },
    {
      "anonymous": false,
      "inputs": [
        {
          "indexed": true,
          "internalType": "uint256",
          "name": "listingId",
          "type": "uint256"
        },
        {
          "indexed": true,
          "internalType": "address",
          "name": "owner",
          "type": "address"
        },
        {
          "indexed": false,
          "internalType": "enum IListingManager.ListingType",
          "name": "listingType",
          "type": "uint8"
        },
        {
          "indexed": false,
          "internalType": "uint256",
          "name": "feePaid",
          "type": "uint256"
        }
      ],
      "name": "ListingCreated",
      "type": "event"
    },
    {
      "anonymous": false,
      "inputs": [
        {
          "indexed": true,
          "internalType": "uint256",
          "name": "listingId",
          "type": "uint256"
        }
      ],
      "name": "ListingDeleted",
      "type": "event"
    },
    {
      "anonymous": false,
      "inputs": [
        {
          "indexed": true,
          "internalType": "address",
          "name": "previousOwner",
          "type": "address"
        },
        {
          "indexed": true,
          "internalType": "address",
          "name": "newOwner",
          "type": "address"
        }
      ],
      "name": "OwnershipTransferred",
      "type": "event"
    },
    {
      "inputs": [
        {
          "internalType": "uint256",
          "name": "listingId",
          "type": "uint256"
        }
      ],
      "name": "closeListing",
      "outputs": [],
      "stateMutability": "nonpayable",
      "type": "function"
    },
    {
      "inputs": [
        {
          "internalType": "enum IListingManager.ListingType",
          "name": "_type",
          "type": "uint8"
        },
        {
          "internalType": "uint256",
          "name": "_priceInUsd",
          "type": "uint256"
        },
        {
          "internalType": "string",
          "name": "_dataIdentifier",
          "type": "string"
        },
        {
          "internalType": "uint256",
          "name": "_nonce",
          "type": "uint256"
        },
        {
          "internalType": "uint256",
          "name": "_deadline",
          "type": "uint256"
        },
        {
          "internalType": "bytes",
          "name": "_signature",
          "type": "bytes"
        }
      ],
      "name": "createListing",
      "outputs": [],
      "stateMutability": "nonpayable",
      "type": "function"
    },
    {
      "inputs": [
        {
          "internalType": "uint256",
          "name": "_listingId",
          "type": "uint256"
        }
      ],
      "name": "deleteListing",
      "outputs": [],
      "stateMutability": "nonpayable",
      "type": "function"
    },
    {
      "inputs": [],
      "name": "eip712Domain",
      "outputs": [
        {
          "internalType": "bytes1",
          "name": "fields",
          "type": "bytes1"
        },
        {
          "internalType": "string",
          "name": "name",
          "type": "string"
        },
        {
          "internalType": "string",
          "name": "version",
          "type": "string"
        },
        {
          "internalType": "uint256",
          "name": "chainId",
          "type": "uint256"
        },
        {
          "internalType": "address",
          "name": "verifyingContract",
          "type": "address"
        },
        {
          "internalType": "bytes32",
          "name": "salt",
          "type": "bytes32"
        },
        {
          "internalType": "uint256[]",
          "name": "extensions",
          "type": "uint256[]"
        }
      ],
      "stateMutability": "view",
      "type": "function"
    },
    {
      "inputs": [],
      "name": "feeToken",
      "outputs": [
        {
          "internalType": "contract IERC20",
          "name": "",
          "type": "address"
        }
      ],
      "stateMutability": "view",
      "type": "function"
    },
    {
      "inputs": [],
      "name": "forSaleFee",
      "outputs": [
        {
          "internalType": "uint256",
          "name": "",
          "type": "uint256"
        }
      ],
      "stateMutability": "view",
      "type": "function"
    },
    {
      "inputs": [
        {
          "internalType": "uint256",
          "name": "listingId",
          "type": "uint256"
        }
      ],
      "name": "getListing",
      "outputs": [
        {
          "components": [
            {
              "internalType": "address",
              "name": "owner",
              "type": "address"
            },
            {
              "internalType": "uint256",
              "name": "priceInUsd",
              "type": "uint256"
            },
            {
              "internalType": "enum IListingManager.ListingType",
              "name": "listingType",
              "type": "uint8"
            },
            {
              "internalType": "enum IListingManager.ListingStatus",
              "name": "status",
              "type": "uint8"
            },
            {
              "internalType": "string",
              "name": "dataIdentifier",
              "type": "string"
            }
          ],
          "internalType": "struct IListingManager.Listing",
          "name": "",
          "type": "tuple"
        }
      ],
      "stateMutability": "view",
      "type": "function"
    },
    {
      "inputs": [
        {
          "internalType": "uint256",
          "name": "",
          "type": "uint256"
        }
      ],
      "name": "listings",
      "outputs": [
        {
          "internalType": "address",
          "name": "owner",
          "type": "address"
        },
        {
          "internalType": "uint256",
          "name": "priceInUsd",
          "type": "uint256"
        },
        {
          "internalType": "enum IListingManager.ListingType",
          "name": "listingType",
          "type": "uint8"
        },
        {
          "internalType": "enum IListingManager.ListingStatus",
          "name": "status",
          "type": "uint8"
        },
        {
          "internalType": "string",
          "name": "dataIdentifier",
          "type": "string"
        }
      ],
      "stateMutability": "view",
      "type": "function"
    },
    {
      "inputs": [],
      "name": "owner",
      "outputs": [
        {
          "internalType": "address",
          "name": "",
          "type": "address"
        }
      ],
      "stateMutability": "view",
      "type": "function"
    },
    {
      "inputs": [],
      "name": "renounceOwnership",
      "outputs": [],
      "stateMutability": "nonpayable",
      "type": "function"
    },
    {
      "inputs": [],
      "name": "serviceFee",
      "outputs": [
        {
          "internalType": "uint256",
          "name": "",
          "type": "uint256"
        }
      ],
      "stateMutability": "view",
      "type": "function"
    },
    {
      "inputs": [
        {
          "internalType": "uint256",
          "name": "_forSaleFee",
          "type": "uint256"
        },
        {
          "internalType": "uint256",
          "name": "_serviceFee",
          "type": "uint256"
        }
      ],
      "name": "setFees",
      "outputs": [],
      "stateMutability": "nonpayable",
      "type": "function"
    },
    {
      "inputs": [
        {
          "internalType": "address",
          "name": "_newSigner",
          "type": "address"
        }
      ],
      "name": "setTrustedSigner",
      "outputs": [],
      "stateMutability": "nonpayable",
      "type": "function"
    },
    {
      "inputs": [
        {
          "internalType": "address",
          "name": "newOwner",
          "type": "address"
        }
      ],
      "name": "transferOwnership",
      "outputs": [],
      "stateMutability": "nonpayable",
      "type": "function"
    },
    {
      "inputs": [],
      "name": "treasury",
      "outputs": [
        {
          "internalType": "contract ITreasury",
          "name": "",
          "type": "address"
        }
      ],
      "stateMutability": "view",
      "type": "function"
    },
    {
      "inputs": [],
      "name": "trustedSigner",
      "outputs": [
        {
          "internalType": "address",
          "name": "",
          "type": "address"
        }
      ],
      "stateMutability": "view",
      "type": "function"
    },
    {
      "inputs": [
        {
          "internalType": "bytes32",
          "name": "",
          "type": "bytes32"
        }
      ],
      "name": "usedSignatures",
      "outputs": [
        {
          "internalType": "bool",
          "name": "",
          "type": "bool"
        }
      ],
      "stateMutability": "view",
      "type": "function"
    }
  ],
  "bytecode": "0x6101a0604052631dcd650060075563773594006008553480156200002257600080fd5b506040516200202438038062002024833981016040819052620000459162000286565b604080518082018252600e81526d2634b9ba34b733a6b0b730b3b2b960911b602080830191909152825180840190935260018352603160f81b90830152903380620000ab57604051631e4fbdf760e01b8152600060048201526024015b60405180910390fd5b620000b6816200019d565b50620000c4826001620001ed565b61012052620000d5816002620001ed565b61014052815160208084019190912060e052815190820120610100524660a0526200016360e05161010051604080517f8b73c3c69bb8fe3d512ecc4cf759cc79239f7b179b0ffacaa9a75d522b39400f60208201529081019290925260608201524660808201523060a082015260009060c00160405160208183030381529060405280519060200120905090565b60805250503060c0526001600160a01b039283166101605290821661018052600380546001600160a01b03191691909216179055620004b9565b600080546001600160a01b038381166001600160a01b0319831681178455604051919092169283917f8be0079c531659141344cd1fd0a4f28419497f9722a3daafe3b4186f6b6457e09190a35050565b60006020835110156200020d57620002058362000226565b905062000220565b816200021a848262000377565b5060ff90505b92915050565b600080829050601f8151111562000254578260405163305a27a960e01b8152600401620000a2919062000443565b8051620002618262000494565b179392505050565b80516001600160a01b03811681146200028157600080fd5b919050565b6000806000606084860312156200029c57600080fd5b620002a78462000269565b9250620002b76020850162000269565b9150620002c76040850162000269565b90509250925092565b634e487b7160e01b600052604160045260246000fd5b600181811c90821680620002fb57607f821691505b6020821081036200031c57634e487b7160e01b600052602260045260246000fd5b50919050565b601f82111562000372576000816000526020600020601f850160051c810160208610156200034d5750805b601f850160051c820191505b818110156200036e5782815560010162000359565b5050505b505050565b81516001600160401b03811115620003935762000393620002d0565b620003ab81620003a48454620002e6565b8462000322565b602080601f831160018114620003e35760008415620003ca5750858301515b600019600386901b1c1916600185901b1785556200036e565b600085815260208120601f198616915b828110156200041457888601518255948401946001909101908401620003f3565b5085821015620004335787850151600019600388901b60f8161c191681555b5050505050600190811b01905550565b60006020808352835180602085015260005b81811015620004735785810183015185820160400152820162000455565b506000604082860101526040601f19601f8301168501019250505092915050565b805160208083015191908110156200031c5760001960209190910360031b1b16919050565b60805160a05160c05160e0516101005161012051610140516101605161018051611ade62000546600039600081816101a50152818161053b015261056e015260008181610166015281816105910152610d8c01526000610a9801526000610a660152600061118d01526000611165015260006110c0015260006110ea015260006111140152611ade6000f3fe608060405234801561001057600080fd5b506004361061010b5760003560e01c80638abdf5aa116100a2578063e5a255cb11610071578063e5a255cb14610252578063e6282c6e14610265578063f2fde38b14610278578063f74d54801461028b578063f978fd611461029e57600080fd5b80638abdf5aa146102015780638da5cb5b1461020a578063dca5c98b1461021b578063de74e57b1461022e57600080fd5b8063647846a5116100de578063647846a5146101a0578063715018a6146101c757806383017305146101cf57806384b0196e146101e657600080fd5b80630b78f9c014610110578063107a274a1461012557806356a1c7011461014e57806361d027b314610161575b600080fd5b61012361011e36600461142d565b6102d1565b005b61013861013336600461144f565b6102e4565b60405161014591906114e2565b60405180910390f35b61012361015c36600461154b565b610453565b6101887f000000000000000000000000000000000000000000000000000000000000000081565b6040516001600160a01b039091168152602001610145565b6101887f000000000000000000000000000000000000000000000000000000000000000081565b61012361047d565b6101d860075481565b604051908152602001610145565b6101ee610491565b604051610145979695949392919061157b565b6101d860085481565b6000546001600160a01b0316610188565b61012361022936600461165d565b6104d7565b61024161023c36600461144f565b610734565b604051610145959493929190611700565b61012361026036600461144f565b6107fe565b61012361027336600461144f565b610891565b61012361028636600461154b565b6109a4565b600354610188906001600160a01b031681565b6102c16102ac36600461144f565b60066020526000908152604090205460ff1681565b6040519015158152602001610145565b6102d96109e2565b600791909155600855565b6103166040805160a0810182526000808252602082018190529091820190815260200160008152602001606081525090565b600082815260056020908152604091829020825160a08101845281546001600160a01b03168152600180830154938201939093526002820154909391929184019160ff9091169081111561036c5761036c611468565b600181111561037d5761037d611468565b81526020016002820160019054906101000a900460ff1660018111156103a5576103a5611468565b60018111156103b6576103b6611468565b81526020016003820180546103ca90611747565b80601f01602080910402602001604051908101604052809291908181526020018280546103f690611747565b80156104435780601f1061041857610100808354040283529160200191610443565b820191906000526020600020905b81548152906001019060200180831161042657829003601f168201915b5050505050815250509050919050565b61045b6109e2565b600380546001600160a01b0319166001600160a01b0392909216919091179055565b6104856109e2565b61048f6000610a0f565b565b6000606080600080600060606104a5610a5f565b6104ad610a91565b60408051600080825260208201909252600f60f81b9b939a50919850469750309650945092509050565b60006104e63388888888610abe565b90506104f481848487610b61565b6000818152600660205260408120805460ff19166001179055808a600181111561052057610520611468565b1461052d57600854610531565b6007545b9050600061055f827f0000000000000000000000000000000000000000000000000000000000000000610cf0565b90506105b66001600160a01b037f000000000000000000000000000000000000000000000000000000000000000016337f000000000000000000000000000000000000000000000000000000000000000084610ea1565b600480549060006105c6836117ad565b90915550506004546040805160a081018252338152602081018d90529081018d60018111156105f7576105f7611468565b8152602001600081526020018b8b8080601f016020809104026020016040519081016040528093929190818152602001838380828437600092018290525093909452505083815260056020908152604091829020845181546001600160a01b0319166001600160a01b0390911617815590840151600180830191909155918401516002820180549294509092909160ff191690838181111561069b5761069b611468565b0217905550606082015160028201805461ff0019166101008360018111156106c5576106c5611468565b0217905550608082015160038201906106de9082611817565b50905050336001600160a01b0316817f699a5d005a1b3070978198b8ebdef4433bbd9a3009794d984de5817912e816a78e8560405161071e9291906118d7565b60405180910390a3505050505050505050505050565b60056020526000908152604090208054600182015460028301546003840180546001600160a01b0390941694929360ff808416946101009094041692919061077b90611747565b80601f01602080910402602001604051908101604052809291908181526020018280546107a790611747565b80156107f45780601f106107c9576101008083540402835291602001916107f4565b820191906000526020600020905b8154815290600101906020018083116107d757829003601f168201915b5050505050905085565b6000818152600560205260408120906002820154610100900460ff16600181111561082b5761082b611468565b146108515760405162461bcd60e51b8152600401610848906118ee565b60405180910390fd5b60028101805461ff00191661010017905560405182907fe99def7a5a3c84553486ad726f7c64fbeea0bdbcbe46d5ee07958a8bf5d8e2dd90600090a25050565b600081815260056020526040902080546001600160a01b031633146108f85760405162461bcd60e51b815260206004820181905260248201527f4c697374696e674d616e616765723a204e6f7420796f7572206c697374696e676044820152606401610848565b60006002820154610100900460ff16600181111561091857610918611468565b146109355760405162461bcd60e51b8152600401610848906118ee565b600082815260056020526040812080546001600160a01b03191681556001810182905560028101805461ffff191690559061097360038301826113df565b505060405182907f8b21015f510e5f42785fad11aa75334f0f622f97504d8c498540b869d36b630890600090a25050565b6109ac6109e2565b6001600160a01b0381166109d657604051631e4fbdf760e01b815260006004820152602401610848565b6109df81610a0f565b50565b6000546001600160a01b0316331461048f5760405163118cdaa760e01b8152336004820152602401610848565b600080546001600160a01b038381166001600160a01b0319831681178455604051919092169283917f8be0079c531659141344cd1fd0a4f28419497f9722a3daafe3b4186f6b6457e09190a35050565b6060610a8c7f00000000000000000000000000000000000000000000000000000000000000006001610f01565b905090565b6060610a8c7f00000000000000000000000000000000000000000000000000000000000000006002610f01565b6000807ff6180053e33ce554a4f2e2148e7f96d29c4107c5765ba86982cf5d189a2569a7878787604051610af3929190611930565b604051908190038120610b35939291889088906020019485526001600160a01b0393909316602085015260408401919091526060830152608082015260a00190565b604051602081830303815290604052805190602001209050610b5681610fac565b979650505050505050565b42811015610bbb5760405162461bcd60e51b815260206004820152602160248201527f4c697374696e674d616e616765723a205369676e6174757265206578706972656044820152601960fa1b6064820152608401610848565b60008481526006602052604090205460ff1615610c295760405162461bcd60e51b815260206004820152602660248201527f4c697374696e674d616e616765723a205369676e617475726520616c726561646044820152651e481d5cd95960d21b6064820152608401610848565b6000610c6b8585858080601f016020809104026020016040519081016040528093929190818152602001838380828437600092019190915250610fd992505050565b6003549091506001600160a01b038083169116148015610c9357506001600160a01b03811615155b610ce95760405162461bcd60e51b815260206004820152602160248201527f4c697374696e674d616e616765723a20496e76616c6964207369676e617475726044820152606560f81b6064820152608401610848565b5050505050565b600080826001600160a01b031663313ce5676040518163ffffffff1660e01b8152600401602060405180830381865afa158015610d31573d6000803e3d6000fd5b505050506040513d601f19601f82011682018060405250810190610d559190611940565b610d6090600a611a47565b6040516304a7e5ff60e11b8152600481018290526001600160a01b0385811660248301529192506000917f0000000000000000000000000000000000000000000000000000000000000000169063094fcbfe90604401602060405180830381865afa158015610dd3573d6000803e3d6000fd5b505050506040513d601f19601f82011682018060405250810190610df79190611a56565b905060008111610e615760405162461bcd60e51b815260206004820152602f60248201527f4c697374696e674d616e616765723a2054726561737572792063616e6e6f742060448201526e3b30b63ab2903332b2903a37b5b2b760891b6064820152608401610848565b610e6f816305f5e100611a6f565b82610e8287670de0b6b3a7640000611a6f565b610e8c9190611a6f565b610e969190611a86565b925050505b92915050565b604080516001600160a01b0385811660248301528416604482015260648082018490528251808303909101815260849091019091526020810180516001600160e01b03166323b872dd60e01b179052610efb908590611003565b50505050565b606060ff8314610f1b57610f1483611074565b9050610e9b565b818054610f2790611747565b80601f0160208091040260200160405190810160405280929190818152602001828054610f5390611747565b8015610fa05780601f10610f7557610100808354040283529160200191610fa0565b820191906000526020600020905b815481529060010190602001808311610f8357829003601f168201915b50505050509050610e9b565b6000610e9b610fb96110b3565b8360405161190160f01b8152600281019290925260228201526042902090565b600080600080610fe986866111de565b925092509250610ff9828261122b565b5090949350505050565b600080602060008451602086016000885af180611026576040513d6000823e3d81fd5b50506000513d9150811561103e57806001141561104b565b6001600160a01b0384163b155b15610efb57604051635274afe760e01b81526001600160a01b0385166004820152602401610848565b60606000611081836112e8565b604080516020808252818301909252919250600091906020820181803683375050509182525060208101929092525090565b6000306001600160a01b037f00000000000000000000000000000000000000000000000000000000000000001614801561110c57507f000000000000000000000000000000000000000000000000000000000000000046145b1561113657507f000000000000000000000000000000000000000000000000000000000000000090565b610a8c604080517f8b73c3c69bb8fe3d512ecc4cf759cc79239f7b179b0ffacaa9a75d522b39400f60208201527f0000000000000000000000000000000000000000000000000000000000000000918101919091527f000000000000000000000000000000000000000000000000000000000000000060608201524660808201523060a082015260009060c00160405160208183030381529060405280519060200120905090565b600080600083516041036112185760208401516040850151606086015160001a61120a88828585611310565b955095509550505050611224565b50508151600091506002905b9250925092565b600082600381111561123f5761123f611468565b03611248575050565b600182600381111561125c5761125c611468565b0361127a5760405163f645eedf60e01b815260040160405180910390fd5b600282600381111561128e5761128e611468565b036112af5760405163fce698f760e01b815260048101829052602401610848565b60038260038111156112c3576112c3611468565b036112e4576040516335e2f38360e21b815260048101829052602401610848565b5050565b600060ff8216601f811115610e9b57604051632cd44ac360e21b815260040160405180910390fd5b600080807f7fffffffffffffffffffffffffffffff5d576e7357a4501ddfe92f46681b20a084111561134b57506000915060039050826113d5565b604080516000808252602082018084528a905260ff891692820192909252606081018790526080810186905260019060a0016020604051602081039080840390855afa15801561139f573d6000803e3d6000fd5b5050604051601f1901519150506001600160a01b0381166113cb575060009250600191508290506113d5565b9250600091508190505b9450945094915050565b5080546113eb90611747565b6000825580601f106113fb575050565b601f0160209004906000526020600020908101906109df91905b808211156114295760008155600101611415565b5090565b6000806040838503121561144057600080fd5b50508035926020909101359150565b60006020828403121561146157600080fd5b5035919050565b634e487b7160e01b600052602160045260246000fd5b600281106109df57634e487b7160e01b600052602160045260246000fd5b6000815180845260005b818110156114c2576020818501810151868301820152016114a6565b506000602082860101526020601f19601f83011685010191505092915050565b6020815260018060a01b038251166020820152602082015160408201526000604083015161150f8161147e565b8060608401525060608301516115248161147e565b80608084015250608083015160a08084015261154360c084018261149c565b949350505050565b60006020828403121561155d57600080fd5b81356001600160a01b038116811461157457600080fd5b9392505050565b60ff60f81b881681526000602060e0602084015261159c60e084018a61149c565b83810360408501526115ae818a61149c565b606085018990526001600160a01b038816608086015260a0850187905284810360c08601528551808252602080880193509091019060005b81811015611602578351835292840192918401916001016115e6565b50909c9b505050505050505050505050565b60008083601f84011261162657600080fd5b50813567ffffffffffffffff81111561163e57600080fd5b60208301915083602082850101111561165657600080fd5b9250929050565b60008060008060008060008060c0898b03121561167957600080fd5b88356002811061168857600080fd5b975060208901359650604089013567ffffffffffffffff808211156116ac57600080fd5b6116b88c838d01611614565b909850965060608b0135955060808b0135945060a08b01359150808211156116df57600080fd5b506116ec8b828c01611614565b999c989b5096995094979396929594505050565b6001600160a01b03861681526020810185905261171c8461147e565b83604082015261172b8361147e565b82606082015260a060808201526000610b5660a083018461149c565b600181811c9082168061175b57607f821691505b60208210810361177b57634e487b7160e01b600052602260045260246000fd5b50919050565b634e487b7160e01b600052604160045260246000fd5b634e487b7160e01b600052601160045260246000fd5b6000600182016117bf576117bf611797565b5060010190565b601f821115611812576000816000526020600020601f850160051c810160208610156117ef5750805b601f850160051c820191505b8181101561180e578281556001016117fb565b5050505b505050565b815167ffffffffffffffff81111561183157611831611781565b6118458161183f8454611747565b846117c6565b602080601f83116001811461187a57600084156118625750858301515b600019600386901b1c1916600185901b17855561180e565b600085815260208120601f198616915b828110156118a95788860151825594840194600190910190840161188a565b50858210156118c75787850151600019600388901b60f8161c191681555b5050505050600190811b01905550565b604081016118e48461147e565b9281526020015290565b60208082526022908201527f4c697374696e674d616e616765723a204c697374696e67206e6f742061637469604082015261766560f01b606082015260800190565b8183823760009101908152919050565b60006020828403121561195257600080fd5b815160ff8116811461157457600080fd5b600181815b8085111561199e57816000190482111561198457611984611797565b8085161561199157918102915b93841c9390800290611968565b509250929050565b6000826119b557506001610e9b565b816119c257506000610e9b565b81600181146119d857600281146119e2576119fe565b6001915050610e9b565b60ff8411156119f3576119f3611797565b50506001821b610e9b565b5060208310610133831016604e8410600b8410161715611a21575081810a610e9b565b611a2b8383611963565b8060001904821115611a3f57611a3f611797565b029392505050565b600061157460ff8416836119a6565b600060208284031215611a6857600080fd5b5051919050565b8082028115828204841417610e9b57610e9b611797565b600082611aa357634e487b7160e01b600052601260045260246000fd5b50049056fea2646970667358221220f503f2cbea0e05ce8d1d7f8291e40ad38803b0fa51ff57a1eba80e4e6efca53e64736f6c63430008160033",
  "linkReferences": {},
  "deployedLinkReferences": {}
}