{
  "_format": "hh-sol-artifact-1",
  "contractName": "ListingManager",
  "sourceName": "contracts/ListingManager.sol",
  "abi": [
    {
      "inputs": [
        {
          "internalType": "address",
          "name": "_treasury",
          "type": "address"
        },
        {
          "internalType": "address",
          "name": "_paymentToken",
          "type": "address"
        },
        {
          "internalType": "address",
          "name": "_trustedSigner",
          "type": "address"
        }
      ],
      "stateMutability": "nonpayable",
      "type": "constructor"
    },
    {
      "inputs": [],
      "name": "InvalidShortString",
      "type": "error"
    },
    {
      "inputs": [
        {
          "internalType": "address",
          "name": "owner",
          "type": "address"
        }
      ],
      "name": "OwnableInvalidOwner",
      "type": "error"
    },
    {
      "inputs": [
        {
          "internalType": "address",
          "name": "account",
          "type": "address"
        }
      ],
      "name": "OwnableUnauthorizedAccount",
      "type": "error"
    },
    {
      "inputs": [
        {
          "internalType": "string",
          "name": "str",
          "type": "string"
        }
      ],
      "name": "StringTooLong",
      "type": "error"
    },
    {
      "anonymous": false,
      "inputs": [],
      "name": "EIP712DomainChanged",
      "type": "event"
    },
    {
      "anonymous": false,
      "inputs": [
        {
          "indexed": true,
          "internalType": "uint256",
          "name": "listingId",
          "type": "uint256"
        },
        {
          "indexed": true,
          "internalType": "address",
          "name": "owner",
          "type": "address"
        },
        {
          "indexed": false,
          "internalType": "enum ListingManager.ListingType",
          "name": "listingType",
          "type": "uint256"
        },
        {
          "indexed": false,
          "internalType": "uint256",
          "name": "feePaid",
          "type": "uint256"
        }
      ],
      "name": "ListingCreated",
      "type": "event"
    },
    {
      "anonymous": false,
      "inputs": [
        {
          "indexed": true,
          "internalType": "uint256",
          "name": "listingId",
          "type": "uint256"
        }
      ],
      "name": "ListingDeleted",
      "type": "event"
    },
    {
      "anonymous": false,
      "inputs": [
        {
          "indexed": true,
          "internalType": "address",
          "name": "previousOwner",
          "type": "address"
        },
        {
          "indexed": true,
          "internalType": "address",
          "name": "newOwner",
          "type": "address"
        }
      ],
      "name": "OwnershipTransferred",
      "type": "event"
    },
    {
      "inputs": [],
      "name": "LISTING_DURATION",
      "outputs": [
        {
          "internalType": "uint256",
          "name": "",
          "type": "uint256"
        }
      ],
      "stateMutability": "view",
      "type": "function"
    },
    {
      "inputs": [
        {
          "internalType": "enum ListingManager.ListingType",
          "name": "_type",
          "type": "uint256"
        },
        {
          "internalType": "string",
          "name": "_dataIdentifier",
          "type": "string"
        },
        {
          "internalType": "uint256",
          "name": "_feeInToken",
          "type": "uint256"
        },
        {
          "internalType": "uint256",
          "name": "_deadline",
          "type": "uint256"
        },
        {
          "internalType": "bytes",
          "name": "_signature",
          "type": "bytes"
        }
      ],
      "name": "createListing",
      "outputs": [],
      "stateMutability": "nonpayable",
      "type": "function"
    },
    {
      "inputs": [
        {
          "internalType": "uint256",
          "name": "_listingId",
          "type": "uint256"
        }
      ],
      "name": "deleteListing",
      "outputs": [],
      "stateMutability": "nonpayable",
      "type": "function"
    },
    {
      "inputs": [],
      "name": "eip712Domain",
      "outputs": [
        {
          "internalType": "bytes1",
          "name": "fields",
          "type": "bytes1"
        },
        {
          "internalType": "string",
          "name": "name",
          "type": "string"
        },
        {
          "internalType": "string",
          "name": "version",
          "type": "string"
        },
        {
          "internalType": "uint256",
          "name": "chainId",
          "type": "uint256"
        },
        {
          "internalType": "address",
          "name": "verifyingContract",
          "type": "address"
        },
        {
          "internalType": "bytes32",
          "name": "salt",
          "type": "bytes32"
        },
        {
          "internalType": "uint256[]",
          "name": "extensions",
          "type": "uint256[]"
        }
      ],
      "stateMutability": "view",
      "type": "function"
    },
    {
      "inputs": [
        {
          "internalType": "enum ListingManager.ListingType",
          "name": "_type",
          "type": "uint256"
        },
        {
          "internalType": "string",
          "name": "_dataIdentifier",
          "type": "string"
        },
        {
          "internalType": "address",
          "name": "_user",
          "type": "address"
        },
        {
          "internalType": "uint256",
          "name": "_feeInToken",
          "type": "uint256"
        },
        {
          "internalType": "uint256",
          "name": "_deadline",
          "type": "uint256"
        }
      ],
      "name": "getListingMessageHash",
      "outputs": [
        {
          "internalType": "bytes32",
          "name": "",
          "type": "bytes32"
        }
      ],
      "stateMutability": "view",
      "type": "function"
    },
    {
      "inputs": [
        {
          "internalType": "uint256",
          "name": "",
          "type": "uint256"
        }
      ],
      "name": "listings",
      "outputs": [
        {
          "internalType": "address",
          "name": "owner",
          "type": "address"
        },
        {
          "internalType": "uint256",
          "name": "expiresAt",
          "type": "uint256"
        },
        {
          "internalType": "enum ListingManager.ListingType",
          "name": "listingType",
          "type": "uint256"
        },
        {
          "internalType": "string",
          "name": "dataIdentifier",
          "type": "string"
        }
      ],
      "stateMutability": "view",
      "type": "function"
    },
    {
      "inputs": [],
      "name": "owner",
      "outputs": [
        {
          "internalType": "address",
          "name": "",
          "type": "address"
        }
      ],
      "stateMutability": "view",
      "type": "function"
    },
    {
      "inputs": [],
      "name": "paymentToken",
      "outputs": [
        {
          "internalType": "contract IERC20",
          "name": "",
          "type": "address"
        }
      ],
      "stateMutability": "view",
      "type": "function"
    },
    {
      "inputs": [],
      "name": "renounceOwnership",
      "outputs": [],
      "stateMutability": "nonpayable",
      "type": "function"
    },
    {
      "inputs": [
        {
          "internalType": "address",
          "name": "_newSigner",
          "type": "address"
        }
      ],
      "name": "setTrustedSigner",
      "outputs": [],
      "stateMutability": "nonpayable",
      "type": "function"
    },
    {
      "inputs": [
        {
          "internalType": "address",
          "name": "newOwner",
          "type": "address"
        }
      ],
      "name": "transferOwnership",
      "outputs": [],
      "stateMutability": "nonpayable",
      "type": "function"
    },
    {
      "inputs": [],
      "name": "treasury",
      "outputs": [
        {
          "internalType": "contract ITreasury",
          "name": "",
          "type": "address"
        }
      ],
      "stateMutability": "view",
      "type": "function"
    },
    {
      "inputs": [],
      "name": "trustedSigner",
      "outputs": [
        {
          "internalType": "address",
          "name": "",
          "type": "address"
        }
      ],
      "stateMutability": "view",
      "type": "function"
    },
    {
      "inputs": [
        {
          "internalType": "bytes32",
          "name": "",
          "type": "bytes32"
        }
      ],
      "name": "usedHashes",
      "outputs": [
        {
          "internalType": "bool",
          "name": "",
          "type": "bool"
        }
      ],
      "stateMutability": "view",
      "type": "function"
    }
  ],
  "bytecode": "0x6101606040523480156200001257600080fd5b506040516200181c3803806200181c833981016040819052620000359162000288565b604080518082018252600e81526d2634b9ba34b733a6b0b730b3b2b960911b602080830191909152825180840190935260018352603160f81b908301529033806200009b57604051631e4fbdf760e01b8152600060048201526024015b60405180910390fd5b620000a6816200019f565b50620000b4826001620001ef565b61012052620000c5816002620001ef565b61014052815160208084019190912060e052815190820120610100524660a0526200015360e05161010051604080517f8b73c3c69bb8fe3d512ecc4cf759cc79239f7b179b0ffacaa9a75d522b39400f60208201529081019290925260608201524660808201523060a082015260009060c00160405160208183030381529060405280519060200120905090565b60805250503060c052600380546001600160a01b039485166001600160a01b031991821617909155600480549385169382169390931790925560058054919093169116179055620004b8565b600080546001600160a01b038381166001600160a01b0319831681178455604051919092169283917f8be0079c531659141344cd1fd0a4f28419497f9722a3daafe3b4186f6b6457e09190a35050565b60006020835110156200020f57620002078362000228565b905062000222565b816200021c848262000377565b5060ff90505b92915050565b600080829050601f8151111562000256578260405163305a27a960e01b815260040162000092919062000443565b8051620002638262000493565b179392505050565b80516001600160a01b03811681146200028357600080fd5b919050565b6000806000606084860312156200029e57600080fd5b620002a9846200026b565b9250620002b9602085016200026b565b9150620002c9604085016200026b565b90509250925092565b634e487b7160e01b600052604160045260246000fd5b600181811c90821680620002fd57607f821691505b6020821081036200031e57634e487b7160e01b600052602260045260246000fd5b50919050565b601f8211156200037257600081815260208120601f850160051c810160208610156200034d5750805b601f850160051c820191505b818110156200036e5782815560010162000359565b5050505b505050565b81516001600160401b03811115620003935762000393620002d2565b620003ab81620003a48454620002e8565b8462000324565b602080601f831160018114620003e35760008415620003ca5750858301515b600019600386901b1c1916600185901b1785556200036e565b600085815260208120601f198616915b828110156200041457888601518255948401946001909101908401620003f3565b5085821015620004335787850151600019600388901b60f8161c191681555b5050505050600190811b01905550565b600060208083528351808285015260005b81811015620004725785810183015185820160400152820162000454565b506000604082860101526040601f19601f8301168501019250505092915050565b805160208083015191908110156200031e5760001960209190910360031b1b16919050565b60805160a05160c05160e051610100516101205161014051611309620005136000396000610a9501526000610a6301526000610b9501526000610b6d01526000610ac801526000610af201526000610b1c01526113096000f3fe608060405234801561001057600080fd5b50600436106100ea5760003560e01c80638da5cb5b1161008c578063de74e57b11610066578063de74e57b146101ec578063e6282c6e1461020f578063f2fde38b14610222578063f74d54801461023557600080fd5b80638da5cb5b1461019e578063aef18bf7146101af578063c2135cbf146101e257600080fd5b806361d027b3116100c857806361d027b3146101475780636e0683ec1461015a578063715018a61461017b57806384b0196e1461018357600080fd5b80633013ce29146100ef578063315f413b1461011f57806356a1c70114610134575b600080fd5b600454610102906001600160a01b031681565b6040516001600160a01b0390911681526020015b60405180910390f35b61013261012d366004610e0e565b610248565b005b610132610142366004610ec1565b6106ad565b600354610102906001600160a01b031681565b61016d610168366004610edc565b6106d7565b604051908152602001610116565b610132610780565b61018b610794565b6040516101169796959493929190610f92565b6000546001600160a01b0316610102565b6101d26101bd366004611028565b60086020526000908152604090205460ff1681565b6040519015158152602001610116565b61016d62278d0081565b6101ff6101fa366004611028565b6107da565b6040516101169493929190611079565b61013261021d366004611028565b61089b565b610132610230366004610ec1565b61096e565b600554610102906001600160a01b031681565b600061025786863387876106d7565b6000818152600860209081526040808320805460ff1916600117905560035481516266454d60e21b8152915194955092936001600160a01b03909316926301991534926004808401939192918290030181865afa1580156102bc573d6000803e3d6000fd5b505050506040513d601f19601f820116820180604052508101906102e091906110b9565b90506000816102f3876305f5e1006110e8565b6102fd91906110ff565b90506000821161035f5760405162461bcd60e51b815260206004820152602260248201527f4c697374696e674d616e616765723a20496e76616c6964204c4d4b5420707269604482015261636560f01b60648201526084015b60405180910390fd5b600480546040516370a0823160e01b8152339281019290925282916001600160a01b03909116906370a0823190602401602060405180830381865afa1580156103ac573d6000803e3d6000fd5b505050506040513d601f19601f820116820180604052508101906103d091906110b9565b10156104315760405162461bcd60e51b815260206004820152602a60248201527f4c697374696e674d616e616765723a20496e73756666696369656e7420746f6b604482015269656e2062616c616e636560b01b6064820152608401610356565b60048054604051636eb1769f60e11b8152339281019290925230602483015282916001600160a01b039091169063dd62ed3e90604401602060405180830381865afa158015610484573d6000803e3d6000fd5b505050506040513d601f19601f820116820180604052508101906104a891906110b9565b101561050b5760405162461bcd60e51b815260206004820152602c60248201527f4c697374696e674d616e616765723a20496e73756666696369656e7420746f6b60448201526b656e20616c6c6f77616e636560a01b6064820152608401610356565b600480546003546040516323b872dd60e01b815233938101939093526001600160a01b0390811660248401526044830184905216906323b872dd906064016020604051808303816000875af1158015610568573d6000803e3d6000fd5b505050506040513d601f19601f8201168201806040525081019061058c9190611121565b506006805490600061059d83611143565b90915550506006546040805160808101909152338152602081016105c462278d004261115c565b81526020018a60018111156105db576105db611041565b815260209081018a9052600083815260078252604090819020835181546001600160a01b0319166001600160a01b0390911617815591830151600180840191909155908301516002830180549192909160ff191690838181111561064157610641611041565b02179055506060820151600382019061065a90826111f8565b50905050336001600160a01b0316817f699a5d005a1b3070978198b8ebdef4433bbd9a3009794d984de5817912e816a78b8560405161069a9291906112b8565b60405180910390a3505050505050505050565b6106b56109ac565b600580546001600160a01b0319166001600160a01b0392909216919091179055565b6000807f81f4fa5e27b43244a2bc8bb860a77a340261d38eda98c4eb4105c4f8a9c2947487600181111561070d5761070d611041565b87516020808a0191909120604080519283019490945260ff9092169281019290925260608201526001600160a01b038616608082015260a0810185905260c0810184905260e001604051602081830303815290604052805190602001209050610775816109d9565b979650505050505050565b6107886109ac565b6107926000610a0c565b565b6000606080600080600060606107a8610a5c565b6107b0610a8e565b60408051600080825260208201909252600f60f81b9b939a50919850469750309650945092509050565b60076020526000908152604090208054600182015460028301546003840180546001600160a01b0390941694929360ff90921692916108189061116f565b80601f01602080910402602001604051908101604052809291908181526020018280546108449061116f565b80156108915780601f1061086657610100808354040283529160200191610891565b820191906000526020600020905b81548152906001019060200180831161087457829003601f168201915b5050505050905084565b6000818152600760205260409020546001600160a01b031633146109015760405162461bcd60e51b815260206004820181905260248201527f4c697374696e674d616e616765723a204e6f7420796f7572206c697374696e676044820152606401610356565b600081815260076020526040812080546001600160a01b03191681556001810182905560028101805460ff191690559061093e6003830182610cf9565b505060405181907f8b21015f510e5f42785fad11aa75334f0f622f97504d8c498540b869d36b630890600090a250565b6109766109ac565b6001600160a01b0381166109a057604051631e4fbdf760e01b815260006004820152602401610356565b6109a981610a0c565b50565b6000546001600160a01b031633146107925760405163118cdaa760e01b8152336004820152602401610356565b6000610a066109e6610abb565b8360405161190160f01b8152600281019290925260228201526042902090565b92915050565b600080546001600160a01b038381166001600160a01b0319831681178455604051919092169283917f8be0079c531659141344cd1fd0a4f28419497f9722a3daafe3b4186f6b6457e09190a35050565b6060610a897f00000000000000000000000000000000000000000000000000000000000000006001610be6565b905090565b6060610a897f00000000000000000000000000000000000000000000000000000000000000006002610be6565b6000306001600160a01b037f000000000000000000000000000000000000000000000000000000000000000016148015610b1457507f000000000000000000000000000000000000000000000000000000000000000046145b15610b3e57507f000000000000000000000000000000000000000000000000000000000000000090565b610a89604080517f8b73c3c69bb8fe3d512ecc4cf759cc79239f7b179b0ffacaa9a75d522b39400f60208201527f0000000000000000000000000000000000000000000000000000000000000000918101919091527f000000000000000000000000000000000000000000000000000000000000000060608201524660808201523060a082015260009060c00160405160208183030381529060405280519060200120905090565b606060ff8314610c0057610bf983610c92565b9050610a06565b818054610c0c9061116f565b80601f0160208091040260200160405190810160405280929190818152602001828054610c389061116f565b8015610c855780601f10610c5a57610100808354040283529160200191610c85565b820191906000526020600020905b815481529060010190602001808311610c6857829003601f168201915b5050505050905092915050565b60606000610c9f83610cd1565b604080516020808252818301909252919250600091906020820181803683375050509182525060208101929092525090565b600060ff8216601f811115610a0657604051632cd44ac360e21b815260040160405180910390fd5b508054610d059061116f565b6000825580601f10610d15575050565b601f0160209004906000526020600020908101906109a991905b80821115610d435760008155600101610d2f565b5090565b803560028110610d5657600080fd5b919050565b634e487b7160e01b600052604160045260246000fd5b600067ffffffffffffffff80841115610d8c57610d8c610d5b565b604051601f8501601f19908116603f01168101908282118183101715610db457610db4610d5b565b81604052809350858152868686011115610dcd57600080fd5b858560208301376000602087830101525050509392505050565b600082601f830112610df857600080fd5b610e0783833560208501610d71565b9392505050565b600080600080600060a08688031215610e2657600080fd5b610e2f86610d47565b9450602086013567ffffffffffffffff80821115610e4c57600080fd5b610e5889838a01610de7565b955060408801359450606088013593506080880135915080821115610e7c57600080fd5b508601601f81018813610e8e57600080fd5b610e9d88823560208401610d71565b9150509295509295909350565b80356001600160a01b0381168114610d5657600080fd5b600060208284031215610ed357600080fd5b610e0782610eaa565b600080600080600060a08688031215610ef457600080fd5b610efd86610d47565b9450602086013567ffffffffffffffff811115610f1957600080fd5b610f2588828901610de7565b945050610f3460408701610eaa565b94979396509394606081013594506080013592915050565b6000815180845260005b81811015610f7257602081850181015186830182015201610f56565b506000602082860101526020601f19601f83011685010191505092915050565b60ff60f81b881681526000602060e081840152610fb260e084018a610f4c565b8381036040850152610fc4818a610f4c565b606085018990526001600160a01b038816608086015260a0850187905284810360c0860152855180825283870192509083019060005b8181101561101657835183529284019291840191600101610ffa565b50909c9b505050505050505050505050565b60006020828403121561103a57600080fd5b5035919050565b634e487b7160e01b600052602160045260246000fd5b6002811061107557634e487b7160e01b600052602160045260246000fd5b9052565b6001600160a01b0385168152602081018490526110996040820184611057565b6080606082015260006110af6080830184610f4c565b9695505050505050565b6000602082840312156110cb57600080fd5b5051919050565b634e487b7160e01b600052601160045260246000fd5b8082028115828204841417610a0657610a066110d2565b60008261111c57634e487b7160e01b600052601260045260246000fd5b500490565b60006020828403121561113357600080fd5b81518015158114610e0757600080fd5b600060018201611155576111556110d2565b5060010190565b80820180821115610a0657610a066110d2565b600181811c9082168061118357607f821691505b6020821081036111a357634e487b7160e01b600052602260045260246000fd5b50919050565b601f8211156111f357600081815260208120601f850160051c810160208610156111d05750805b601f850160051c820191505b818110156111ef578281556001016111dc565b5050505b505050565b815167ffffffffffffffff81111561121257611212610d5b565b61122681611220845461116f565b846111a9565b602080601f83116001811461125b57600084156112435750858301515b600019600386901b1c1916600185901b1785556111ef565b600085815260208120601f198616915b8281101561128a5788860151825594840194600190910190840161126b565b50858210156112a85787850151600019600388901b60f8161c191681555b5050505050600190811b01905550565b604081016112c68285611057565b826020830152939250505056fea2646970667358221220964c833cc96e7169cdd6ab577522cb4d7caedbf9ebc9007f66de9fa64bb5358e64736f6c63430008140033",
  "linkReferences": {},
  "deployedLinkReferences": {}
}