{
  "_format": "hh-sol-artifact-1",
  "contractName": "ListingManager",
  "sourceName": "contracts/ListingManager.sol",
  "abi": [
    {
      "inputs": [
        {
          "internalType": "address",
          "name": "_treasury",
          "type": "address"
        },
        {
          "internalType": "address",
          "name": "_feeToken",
          "type": "address"
        },
        {
          "internalType": "address",
          "name": "_trustedSigner",
          "type": "address"
        }
      ],
      "stateMutability": "nonpayable",
      "type": "constructor"
    },
    {
      "inputs": [],
      "name": "ECDSAInvalidSignature",
      "type": "error"
    },
    {
      "inputs": [
        {
          "internalType": "uint256",
          "name": "length",
          "type": "uint256"
        }
      ],
      "name": "ECDSAInvalidSignatureLength",
      "type": "error"
    },
    {
      "inputs": [
        {
          "internalType": "bytes32",
          "name": "s",
          "type": "bytes32"
        }
      ],
      "name": "ECDSAInvalidSignatureS",
      "type": "error"
    },
    {
      "inputs": [],
      "name": "InvalidShortString",
      "type": "error"
    },
    {
      "inputs": [
        {
          "internalType": "address",
          "name": "owner",
          "type": "address"
        }
      ],
      "name": "OwnableInvalidOwner",
      "type": "error"
    },
    {
      "inputs": [
        {
          "internalType": "address",
          "name": "account",
          "type": "address"
        }
      ],
      "name": "OwnableUnauthorizedAccount",
      "type": "error"
    },
    {
      "inputs": [
        {
          "internalType": "address",
          "name": "token",
          "type": "address"
        }
      ],
      "name": "SafeERC20FailedOperation",
      "type": "error"
    },
    {
      "inputs": [
        {
          "internalType": "string",
          "name": "str",
          "type": "string"
        }
      ],
      "name": "StringTooLong",
      "type": "error"
    },
    {
      "anonymous": false,
      "inputs": [],
      "name": "EIP712DomainChanged",
      "type": "event"
    },
    {
      "anonymous": false,
      "inputs": [
        {
          "indexed": true,
          "internalType": "uint256",
          "name": "listingId",
          "type": "uint256"
        }
      ],
      "name": "ListingClosed",
      "type": "event"
    },
    {
      "anonymous": false,
      "inputs": [
        {
          "indexed": true,
          "internalType": "uint256",
          "name": "listingId",
          "type": "uint256"
        },
        {
          "indexed": true,
          "internalType": "address",
          "name": "owner",
          "type": "address"
        },
        {
          "indexed": false,
          "internalType": "enum IListingManager.ListingType",
          "name": "listingType",
          "type": "uint8"
        },
        {
          "indexed": false,
          "internalType": "uint256",
          "name": "feePaid",
          "type": "uint256"
        }
      ],
      "name": "ListingCreated",
      "type": "event"
    },
    {
      "anonymous": false,
      "inputs": [
        {
          "indexed": true,
          "internalType": "uint256",
          "name": "listingId",
          "type": "uint256"
        }
      ],
      "name": "ListingDeleted",
      "type": "event"
    },
    {
      "anonymous": false,
      "inputs": [
        {
          "indexed": true,
          "internalType": "uint256",
          "name": "listingId",
          "type": "uint256"
        },
        {
          "indexed": false,
          "internalType": "uint256",
          "name": "newExpiration",
          "type": "uint256"
        }
      ],
      "name": "ListingRenewed",
      "type": "event"
    },
    {
      "anonymous": false,
      "inputs": [
        {
          "indexed": true,
          "internalType": "address",
          "name": "previousOwner",
          "type": "address"
        },
        {
          "indexed": true,
          "internalType": "address",
          "name": "newOwner",
          "type": "address"
        }
      ],
      "name": "OwnershipTransferred",
      "type": "event"
    },
    {
      "inputs": [
        {
          "internalType": "uint256",
          "name": "listingId",
          "type": "uint256"
        }
      ],
      "name": "closeListing",
      "outputs": [],
      "stateMutability": "nonpayable",
      "type": "function"
    },
    {
      "inputs": [
        {
          "internalType": "enum IListingManager.ListingType",
          "name": "_type",
          "type": "uint8"
        },
        {
          "internalType": "uint256",
          "name": "_priceInUsd",
          "type": "uint256"
        },
        {
          "internalType": "string",
          "name": "_dataIdentifier",
          "type": "string"
        },
        {
          "internalType": "uint256",
          "name": "_nonce",
          "type": "uint256"
        },
        {
          "internalType": "uint256",
          "name": "_deadline",
          "type": "uint256"
        },
        {
          "internalType": "bytes",
          "name": "_signature",
          "type": "bytes"
        }
      ],
      "name": "createListing",
      "outputs": [],
      "stateMutability": "nonpayable",
      "type": "function"
    },
    {
      "inputs": [
        {
          "internalType": "uint256",
          "name": "_listingId",
          "type": "uint256"
        }
      ],
      "name": "deleteListing",
      "outputs": [],
      "stateMutability": "nonpayable",
      "type": "function"
    },
    {
      "inputs": [],
      "name": "eip712Domain",
      "outputs": [
        {
          "internalType": "bytes1",
          "name": "fields",
          "type": "bytes1"
        },
        {
          "internalType": "string",
          "name": "name",
          "type": "string"
        },
        {
          "internalType": "string",
          "name": "version",
          "type": "string"
        },
        {
          "internalType": "uint256",
          "name": "chainId",
          "type": "uint256"
        },
        {
          "internalType": "address",
          "name": "verifyingContract",
          "type": "address"
        },
        {
          "internalType": "bytes32",
          "name": "salt",
          "type": "bytes32"
        },
        {
          "internalType": "uint256[]",
          "name": "extensions",
          "type": "uint256[]"
        }
      ],
      "stateMutability": "view",
      "type": "function"
    },
    {
      "inputs": [],
      "name": "feeToken",
      "outputs": [
        {
          "internalType": "contract IERC20",
          "name": "",
          "type": "address"
        }
      ],
      "stateMutability": "view",
      "type": "function"
    },
    {
      "inputs": [],
      "name": "forSaleFee",
      "outputs": [
        {
          "internalType": "uint256",
          "name": "",
          "type": "uint256"
        }
      ],
      "stateMutability": "view",
      "type": "function"
    },
    {
      "inputs": [
        {
          "internalType": "uint256",
          "name": "_cursor",
          "type": "uint256"
        },
        {
          "internalType": "uint256",
          "name": "_limit",
          "type": "uint256"
        }
      ],
      "name": "getActiveListings",
      "outputs": [
        {
          "internalType": "uint256[]",
          "name": "listingIds",
          "type": "uint256[]"
        },
        {
          "internalType": "uint256",
          "name": "nextCursor",
          "type": "uint256"
        }
      ],
      "stateMutability": "view",
      "type": "function"
    },
    {
      "inputs": [
        {
          "internalType": "uint256",
          "name": "listingId",
          "type": "uint256"
        }
      ],
      "name": "getListing",
      "outputs": [
        {
          "components": [
            {
              "internalType": "address",
              "name": "owner",
              "type": "address"
            },
            {
              "internalType": "uint256",
              "name": "priceInUsd",
              "type": "uint256"
            },
            {
              "internalType": "enum IListingManager.ListingType",
              "name": "listingType",
              "type": "uint8"
            },
            {
              "internalType": "enum IListingManager.ListingStatus",
              "name": "status",
              "type": "uint8"
            },
            {
              "internalType": "string",
              "name": "dataIdentifier",
              "type": "string"
            },
            {
              "internalType": "uint256",
              "name": "expirationTimestamp",
              "type": "uint256"
            }
          ],
          "internalType": "struct IListingManager.Listing",
          "name": "",
          "type": "tuple"
        }
      ],
      "stateMutability": "view",
      "type": "function"
    },
    {
      "inputs": [
        {
          "internalType": "address",
          "name": "_owner",
          "type": "address"
        }
      ],
      "name": "getListingsByOwner",
      "outputs": [
        {
          "internalType": "uint256[]",
          "name": "",
          "type": "uint256[]"
        }
      ],
      "stateMutability": "view",
      "type": "function"
    },
    {
      "inputs": [],
      "name": "listingCounter",
      "outputs": [
        {
          "internalType": "uint256",
          "name": "",
          "type": "uint256"
        }
      ],
      "stateMutability": "view",
      "type": "function"
    },
    {
      "inputs": [
        {
          "internalType": "uint256",
          "name": "",
          "type": "uint256"
        }
      ],
      "name": "listings",
      "outputs": [
        {
          "internalType": "address",
          "name": "owner",
          "type": "address"
        },
        {
          "internalType": "uint256",
          "name": "priceInUsd",
          "type": "uint256"
        },
        {
          "internalType": "enum IListingManager.ListingType",
          "name": "listingType",
          "type": "uint8"
        },
        {
          "internalType": "enum IListingManager.ListingStatus",
          "name": "status",
          "type": "uint8"
        },
        {
          "internalType": "string",
          "name": "dataIdentifier",
          "type": "string"
        },
        {
          "internalType": "uint256",
          "name": "expirationTimestamp",
          "type": "uint256"
        }
      ],
      "stateMutability": "view",
      "type": "function"
    },
    {
      "inputs": [
        {
          "internalType": "address",
          "name": "",
          "type": "address"
        },
        {
          "internalType": "uint256",
          "name": "",
          "type": "uint256"
        }
      ],
      "name": "listingsByOwner",
      "outputs": [
        {
          "internalType": "uint256",
          "name": "",
          "type": "uint256"
        }
      ],
      "stateMutability": "view",
      "type": "function"
    },
    {
      "inputs": [],
      "name": "owner",
      "outputs": [
        {
          "internalType": "address",
          "name": "",
          "type": "address"
        }
      ],
      "stateMutability": "view",
      "type": "function"
    },
    {
      "inputs": [],
      "name": "paymentProcessor",
      "outputs": [
        {
          "internalType": "address",
          "name": "",
          "type": "address"
        }
      ],
      "stateMutability": "view",
      "type": "function"
    },
    {
      "inputs": [
        {
          "internalType": "uint256",
          "name": "_listingId",
          "type": "uint256"
        }
      ],
      "name": "renewListing",
      "outputs": [],
      "stateMutability": "nonpayable",
      "type": "function"
    },
    {
      "inputs": [],
      "name": "renounceOwnership",
      "outputs": [],
      "stateMutability": "nonpayable",
      "type": "function"
    },
    {
      "inputs": [],
      "name": "serviceFee",
      "outputs": [
        {
          "internalType": "uint256",
          "name": "",
          "type": "uint256"
        }
      ],
      "stateMutability": "view",
      "type": "function"
    },
    {
      "inputs": [
        {
          "internalType": "uint256",
          "name": "_forSaleFee",
          "type": "uint256"
        },
        {
          "internalType": "uint256",
          "name": "_serviceFee",
          "type": "uint256"
        }
      ],
      "name": "setFees",
      "outputs": [],
      "stateMutability": "nonpayable",
      "type": "function"
    },
    {
      "inputs": [
        {
          "internalType": "address",
          "name": "_processor",
          "type": "address"
        }
      ],
      "name": "setPaymentProcessor",
      "outputs": [],
      "stateMutability": "nonpayable",
      "type": "function"
    },
    {
      "inputs": [
        {
          "internalType": "address",
          "name": "_newSigner",
          "type": "address"
        }
      ],
      "name": "setTrustedSigner",
      "outputs": [],
      "stateMutability": "nonpayable",
      "type": "function"
    },
    {
      "inputs": [
        {
          "internalType": "address",
          "name": "newOwner",
          "type": "address"
        }
      ],
      "name": "transferOwnership",
      "outputs": [],
      "stateMutability": "nonpayable",
      "type": "function"
    },
    {
      "inputs": [],
      "name": "treasury",
      "outputs": [
        {
          "internalType": "contract ITreasury",
          "name": "",
          "type": "address"
        }
      ],
      "stateMutability": "view",
      "type": "function"
    },
    {
      "inputs": [],
      "name": "trustedSigner",
      "outputs": [
        {
          "internalType": "address",
          "name": "",
          "type": "address"
        }
      ],
      "stateMutability": "view",
      "type": "function"
    },
    {
      "inputs": [
        {
          "internalType": "bytes32",
          "name": "",
          "type": "bytes32"
        }
      ],
      "name": "usedSignatures",
      "outputs": [
        {
          "internalType": "bool",
          "name": "",
          "type": "bool"
        }
      ],
      "stateMutability": "view",
      "type": "function"
    }
  ],
  "bytecode": "0x6101a0604052631dcd6500600b556377359400600c553480156200002257600080fd5b5060405162002ca238038062002ca2833981016040819052620000459162000286565b604080518082018252600e81526d2634b9ba34b733a6b0b730b3b2b960911b602080830191909152825180840190935260018352603160f81b90830152903380620000ab57604051631e4fbdf760e01b8152600060048201526024015b60405180910390fd5b620000b6816200019d565b50620000c4826001620001ed565b61012052620000d5816002620001ed565b61014052815160208084019190912060e052815190820120610100524660a0526200016360e05161010051604080517f8b73c3c69bb8fe3d512ecc4cf759cc79239f7b179b0ffacaa9a75d522b39400f60208201529081019290925260608201524660808201523060a082015260009060c00160405160208183030381529060405280519060200120905090565b60805250503060c0526001600160a01b039283166101605290821661018052600380546001600160a01b03191691909216179055620004b9565b600080546001600160a01b038381166001600160a01b0319831681178455604051919092169283917f8be0079c531659141344cd1fd0a4f28419497f9722a3daafe3b4186f6b6457e09190a35050565b60006020835110156200020d57620002058362000226565b905062000220565b816200021a848262000377565b5060ff90505b92915050565b600080829050601f8151111562000254578260405163305a27a960e01b8152600401620000a2919062000443565b8051620002618262000494565b179392505050565b80516001600160a01b03811681146200028157600080fd5b919050565b6000806000606084860312156200029c57600080fd5b620002a78462000269565b9250620002b76020850162000269565b9150620002c76040850162000269565b90509250925092565b634e487b7160e01b600052604160045260246000fd5b600181811c90821680620002fb57607f821691505b6020821081036200031c57634e487b7160e01b600052602260045260246000fd5b50919050565b601f82111562000372576000816000526020600020601f850160051c810160208610156200034d5750805b601f850160051c820191505b818110156200036e5782815560010162000359565b5050505b505050565b81516001600160401b03811115620003935762000393620002d0565b620003ab81620003a48454620002e6565b8462000322565b602080601f831160018114620003e35760008415620003ca5750858301515b600019600386901b1c1916600185901b1785556200036e565b600085815260208120601f198616915b828110156200041457888601518255948401946001909101908401620003f3565b5085821015620004335787850151600019600388901b60f8161c191681555b5050505050600190811b01905550565b60006020808352835180602085015260005b81811015620004735785810183015185820160400152820162000455565b506000604082860101526040601f19601f8301168501019250505092915050565b805160208083015191908110156200031c5760001960209190910360031b1b16919050565b60805160a05160c05160e05161010051610120516101405161016051610180516127476200055b60003960008181610238015281816106be015281816106f101528181610c6b0152610c9e0152600081816101f90152818161071401528181610cc1015261141c0152600061161a015260006115e801526000611c3e01526000611c1601526000611b7101526000611b9b01526000611bc501526127476000f3fe608060405234801561001057600080fd5b50600436106101585760003560e01c80638abdf5aa116100c3578063e5a255cb1161007c578063e5a255cb14610323578063e6282c6e14610336578063f1c6bdf814610349578063f2fde38b1461035c578063f74d54801461036f578063f978fd611461038257600080fd5b80638abdf5aa1461029d5780638da5cb5b146102a6578063ae8d76cd146102b7578063c128b231146102ca578063dca5c98b146102eb578063de74e57b146102fe57600080fd5b806361d027b31161011557806361d027b3146101f4578063647846a5146102335780636c2c9c7d1461025a578063715018a614610271578063830173051461027957806384b0196e1461028257600080fd5b8063088b0d751461015d5780630b78f9c014610172578063107a274a1461018557806313292c20146101ae5780632eecf266146101ce57806356a1c701146101e1575b600080fd5b61017061016b366004611ef6565b6103b5565b005b610170610180366004611f18565b6103df565b610198610193366004611f3a565b6103f2565b6040516101a59190611fcd565b60405180910390f35b6101c16101bc366004611ef6565b610572565b6040516101a59190612081565b6101706101dc366004611f3a565b6105de565b6101706101ef366004611ef6565b610788565b61021b7f000000000000000000000000000000000000000000000000000000000000000081565b6040516001600160a01b0390911681526020016101a5565b61021b7f000000000000000000000000000000000000000000000000000000000000000081565b61026360055481565b6040519081526020016101a5565b6101706107b2565b610263600b5481565b61028a6107c6565b6040516101a59796959493929190612094565b610263600c5481565b6000546001600160a01b031661021b565b6102636102c5366004612104565b61080c565b6102dd6102d8366004611f18565b61083d565b6040516101a592919061212e565b6101706102f9366004612192565b610c07565b61031161030c366004611f3a565b610f07565b6040516101a596959493929190612235565b610170610331366004611f3a565b610fd7565b610170610344366004611f3a565b6110ca565b60045461021b906001600160a01b031681565b61017061036a366004611ef6565b611315565b60035461021b906001600160a01b031681565b6103a5610390366004611f3a565b60076020526000908152604090205460ff1681565b60405190151581526020016101a5565b6103bd611353565b600480546001600160a01b0319166001600160a01b0392909216919091179055565b6103e7611353565b600b91909155600c55565b61042b6040805160c081018252600080825260208201819052909182019081526020016000815260200160608152602001600081525090565b600082815260066020908152604091829020825160c08101845281546001600160a01b03168152600180830154938201939093526002820154909391929184019160ff9091169081111561048157610481611f53565b600181111561049257610492611f53565b81526020016002820160019054906101000a900460ff1660018111156104ba576104ba611f53565b60018111156104cb576104cb611f53565b81526020016003820180546104df9061228f565b80601f016020809104026020016040519081016040528092919081815260200182805461050b9061228f565b80156105585780601f1061052d57610100808354040283529160200191610558565b820191906000526020600020905b81548152906001019060200180831161053b57829003601f168201915b505050505081526020016004820154815250509050919050565b6001600160a01b0381166000908152600860209081526040918290208054835181840281018401909452808452606093928301828280156105d257602002820191906000526020600020905b8154815260200190600101908083116105be575b50505050509050919050565b600081815260066020526040902080546001600160a01b0316331461064a5760405162461bcd60e51b815260206004820181905260248201527f4c697374696e674d616e616765723a204e6f7420796f7572206c697374696e6760448201526064015b60405180910390fd5b60006002820154610100900460ff16600181111561066a5761066a611f53565b146106875760405162461bcd60e51b8152600401610641906122c9565b600080600283015460ff1660018111156106a3576106a3611f53565b146106b057600c546106b4565b600b545b905060006106e2827f0000000000000000000000000000000000000000000000000000000000000000611380565b90506107396001600160a01b037f000000000000000000000000000000000000000000000000000000000000000016337f000000000000000000000000000000000000000000000000000000000000000084611531565b6107464262278d00612321565b6004840181905560405190815284907f60ca048bd2c6af8f161eb185e0387b0714807fadab94c4e9709a3694209956829060200160405180910390a250505050565b610790611353565b600380546001600160a01b0319166001600160a01b0392909216919091179055565b6107ba611353565b6107c46000611591565b565b6000606080600080600060606107da6115e1565b6107e2611613565b60408051600080825260208201909252600f60f81b9b939a50919850469750309650945092509050565b6008602052816000526040600020818154811061082857600080fd5b90600052602060002001600091509150505481565b600554606090600090831580610851575080155b1561086f575050604080516000808252602082019092529150610c00565b600085158061087d57508186115b6108875785610889565b815b90508467ffffffffffffffff8111156108a4576108a4612334565b6040519080825280602002602001820160405280156108cd578160200160208202803683370190505b5093506000808290506108f76040518060600160405280602281526020016126ce60229139611640565b6109206040518060400160405280600781526020016621bab939b7b91d60c91b81525089611683565b610948604051806040016040528060068152602001652634b6b4ba1d60d11b81525088611683565b6109736040518060400160405280600981526020016829ba30b93a1024a21d60b91b81525084611683565b60008111801561098257508682105b15610bc45760006006600083815260200190815260200160002090506109d46040518060400160405280601481526020017321b432b1b5b4b733902634b9ba34b7339024a21d60611b81525083611683565b60408051808201909152600a8152691010169027bbb732b91d60b11b60208201528154610a0a91906001600160a01b03166116cc565b6040805180820190915260168152751010169029ba30ba3ab99014181ea0b1ba34bb32949d60511b60208201526002820154610a5f9190610100900460ff166001811115610a5a57610a5a611f53565b611683565b610a946040518060400160405280600f81526020016e1010169022bc3834b930ba34b7b71d60891b8152508260040154611683565b610ac7604051806040016040528060118152602001701010169021bab93932b73a102a34b6b29d60791b81525042611683565b60408051808201909152600e81526d20202d204973204163746976653f60901b60208201528154610b3b91906001600160a01b031615801590610b27575060006002840154610100900460ff166001811115610b2557610b25611f53565b145b8015610b365750428360040154115b611711565b80546001600160a01b031615801590610b71575060006002820154610100900460ff166001811115610b6f57610b6f611f53565b145b8015610b805750428160040154115b15610bb15781878481518110610b9857610b9861234a565b602090810291909101015282610bad81612360565b9350505b81610bbb81612379565b92505050610973565b60008111610bd3576000610bd5565b805b9450818652610bfb6040518060600160405280602281526020016126f060229139611640565b505050505b9250929050565b6000610c163388888888611756565b9050610c24818484876117f9565b6000818152600760205260408120805460ff19166001179055808a6001811115610c5057610c50611f53565b14610c5d57600c54610c61565b600b545b90506000610c8f827f0000000000000000000000000000000000000000000000000000000000000000611380565b9050610ce66001600160a01b037f000000000000000000000000000000000000000000000000000000000000000016337f000000000000000000000000000000000000000000000000000000000000000084611531565b60058054906000610cf683612360565b90915550506005546040805160c081018252338152602081018d90529081018d6001811115610d2757610d27611f53565b8152602001600081526020018b8b8080601f016020809104026020016040519081016040528093929190818152602001838380828437600092019190915250505090825250602001610d7c4262278d00612321565b9052600082815260066020908152604091829020835181546001600160a01b0319166001600160a01b03909116178155908301516001808301919091559183015160028201805492939192909160ff19909116908381811115610de157610de1611f53565b0217905550606082015160028201805461ff001916610100836001811115610e0b57610e0b611f53565b021790555060808201516003820190610e2490826123e1565b5060a09190910151600490910155336000818152600860209081526040822080546001818101835582855292842001859055929091529054610e6691906124a1565b600960008381526020019081526020016000208190555033600a600083815260200190815260200160002060006101000a8154816001600160a01b0302191690836001600160a01b03160217905550336001600160a01b0316817f699a5d005a1b3070978198b8ebdef4433bbd9a3009794d984de5817912e816a78e85604051610ef19291906124b4565b60405180910390a3505050505050505050505050565b60066020526000908152604090208054600182015460028301546003840180546001600160a01b0390941694929360ff8084169461010090940416929190610f4e9061228f565b80601f0160208091040260200160405190810160405280929190818152602001828054610f7a9061228f565b8015610fc75780601f10610f9c57610100808354040283529160200191610fc7565b820191906000526020600020905b815481529060010190602001808311610faa57829003601f168201915b5050505050908060040154905086565b6004546001600160a01b031633146110405760405162461bcd60e51b815260206004820152602660248201527f4c4d3a2043616c6c6572206973206e6f7420746865205061796d656e7450726f60448201526531b2b9b9b7b960d11b6064820152608401610641565b6000818152600660205260408120906002820154610100900460ff16600181111561106d5761106d611f53565b1461108a5760405162461bcd60e51b8152600401610641906122c9565b60028101805461ff00191661010017905560405182907fe99def7a5a3c84553486ad726f7c64fbeea0bdbcbe46d5ee07958a8bf5d8e2dd90600090a25050565b600081815260066020526040902080546001600160a01b031633146111315760405162461bcd60e51b815260206004820181905260248201527f4c697374696e674d616e616765723a204e6f7420796f7572206c697374696e676044820152606401610641565b60006002820154610100900460ff16600181111561115157611151611f53565b1461116e5760405162461bcd60e51b8152600401610641906122c9565b6000828152600a602090815260408083205460098352818420546001600160a01b03909116808552600890935290832054919290916111af906001906124a1565b6001600160a01b038416600090815260086020526040812080549293509091839081106111de576111de61234a565b90600052602060002001549050818314611240576001600160a01b038416600090815260086020526040902080548291908590811061121f5761121f61234a565b60009182526020808320909101929092558281526009909152604090208390555b6001600160a01b0384166000908152600860205260409020805480611267576112676124cb565b600082815260208082208301600019908101839055909201909255878252600981526040808320839055600a825280832080546001600160a01b031990811690915560069092528220805490911681556001810182905560028101805461ffff19169055906112d96003830182611e8c565b50600060049190910181905560405187917f8b21015f510e5f42785fad11aa75334f0f622f97504d8c498540b869d36b630891a2505050505050565b61131d611353565b6001600160a01b03811661134757604051631e4fbdf760e01b815260006004820152602401610641565b61135081611591565b50565b6000546001600160a01b031633146107c45760405163118cdaa760e01b8152336004820152602401610641565b600080826001600160a01b031663313ce5676040518163ffffffff1660e01b8152600401602060405180830381865afa1580156113c1573d6000803e3d6000fd5b505050506040513d601f19601f820116820180604052508101906113e591906124e1565b6113f090600a6125e8565b6040516304a7e5ff60e11b8152600481018290526001600160a01b0385811660248301529192506000917f0000000000000000000000000000000000000000000000000000000000000000169063094fcbfe90604401602060405180830381865afa158015611463573d6000803e3d6000fd5b505050506040513d601f19601f8201168201806040525081019061148791906125f7565b9050600081116114f15760405162461bcd60e51b815260206004820152602f60248201527f4c697374696e674d616e616765723a2054726561737572792063616e6e6f742060448201526e3b30b63ab2903332b2903a37b5b2b760891b6064820152608401610641565b6114ff816305f5e100612610565b8261151287670de0b6b3a7640000612610565b61151c9190612610565b6115269190612627565b925050505b92915050565b604080516001600160a01b0385811660248301528416604482015260648082018490528251808303909101815260849091019091526020810180516001600160e01b03166323b872dd60e01b17905261158b908590611988565b50505050565b600080546001600160a01b038381166001600160a01b0319831681178455604051919092169283917f8be0079c531659141344cd1fd0a4f28419497f9722a3daafe3b4186f6b6457e09190a35050565b606061160e7f000000000000000000000000000000000000000000000000000000000000000060016119f9565b905090565b606061160e7f000000000000000000000000000000000000000000000000000000000000000060026119f9565b611350816040516024016116549190612649565b60408051601f198184030181529190526020810180516001600160e01b031663104c13eb60e21b179052611aa4565b6116c8828260405160240161169992919061265c565b60408051601f198184030181529190526020810180516001600160e01b0316632d839cb360e21b179052611aa4565b5050565b6116c882826040516024016116e292919061266f565b60408051601f198184030181529190526020810180516001600160e01b031663319af33360e01b179052611aa4565b6116c88282604051602401611727929190612699565b60408051601f198184030181529190526020810180516001600160e01b031663c3b5563560e01b179052611aa4565b6000807ff6180053e33ce554a4f2e2148e7f96d29c4107c5765ba86982cf5d189a2569a787878760405161178b9291906126bd565b6040519081900381206117cd939291889088906020019485526001600160a01b0393909316602085015260408401919091526060830152608082015260a00190565b6040516020818303038152906040528051906020012090506117ee81611aad565b979650505050505050565b428110156118535760405162461bcd60e51b815260206004820152602160248201527f4c697374696e674d616e616765723a205369676e6174757265206578706972656044820152601960fa1b6064820152608401610641565b60008481526007602052604090205460ff16156118c15760405162461bcd60e51b815260206004820152602660248201527f4c697374696e674d616e616765723a205369676e617475726520616c726561646044820152651e481d5cd95960d21b6064820152608401610641565b60006119038585858080601f016020809104026020016040519081016040528093929190818152602001838380828437600092019190915250611ada92505050565b6003549091506001600160a01b03808316911614801561192b57506001600160a01b03811615155b6119815760405162461bcd60e51b815260206004820152602160248201527f4c697374696e674d616e616765723a20496e76616c6964207369676e617475726044820152606560f81b6064820152608401610641565b5050505050565b600080602060008451602086016000885af1806119ab576040513d6000823e3d81fd5b50506000513d915081156119c35780600114156119d0565b6001600160a01b0384163b155b1561158b57604051635274afe760e01b81526001600160a01b0385166004820152602401610641565b606060ff8314611a1357611a0c83611b04565b905061152b565b818054611a1f9061228f565b80601f0160208091040260200160405190810160405280929190818152602001828054611a4b9061228f565b8015611a985780601f10611a6d57610100808354040283529160200191611a98565b820191906000526020600020905b815481529060010190602001808311611a7b57829003601f168201915b5050505050905061152b565b61135081611b43565b600061152b611aba611b64565b8360405161190160f01b8152600281019290925260228201526042902090565b600080600080611aea8686611c8f565b925092509250611afa8282611cdc565b5090949350505050565b60606000611b1183611d95565b604080516020808252818301909252919250600091906020820181803683375050509182525060208101929092525090565b60006a636f6e736f6c652e6c6f679050600080835160208501845afa505050565b6000306001600160a01b037f000000000000000000000000000000000000000000000000000000000000000016148015611bbd57507f000000000000000000000000000000000000000000000000000000000000000046145b15611be757507f000000000000000000000000000000000000000000000000000000000000000090565b61160e604080517f8b73c3c69bb8fe3d512ecc4cf759cc79239f7b179b0ffacaa9a75d522b39400f60208201527f0000000000000000000000000000000000000000000000000000000000000000918101919091527f000000000000000000000000000000000000000000000000000000000000000060608201524660808201523060a082015260009060c00160405160208183030381529060405280519060200120905090565b60008060008351604103611cc95760208401516040850151606086015160001a611cbb88828585611dbd565b955095509550505050611cd5565b50508151600091506002905b9250925092565b6000826003811115611cf057611cf0611f53565b03611cf9575050565b6001826003811115611d0d57611d0d611f53565b03611d2b5760405163f645eedf60e01b815260040160405180910390fd5b6002826003811115611d3f57611d3f611f53565b03611d605760405163fce698f760e01b815260048101829052602401610641565b6003826003811115611d7457611d74611f53565b036116c8576040516335e2f38360e21b815260048101829052602401610641565b600060ff8216601f81111561152b57604051632cd44ac360e21b815260040160405180910390fd5b600080807f7fffffffffffffffffffffffffffffff5d576e7357a4501ddfe92f46681b20a0841115611df85750600091506003905082611e82565b604080516000808252602082018084528a905260ff891692820192909252606081018790526080810186905260019060a0016020604051602081039080840390855afa158015611e4c573d6000803e3d6000fd5b5050604051601f1901519150506001600160a01b038116611e7857506000925060019150829050611e82565b9250600091508190505b9450945094915050565b508054611e989061228f565b6000825580601f10611ea8575050565b601f01602090049060005260206000209081019061135091905b80821115611ed65760008155600101611ec2565b5090565b80356001600160a01b0381168114611ef157600080fd5b919050565b600060208284031215611f0857600080fd5b611f1182611eda565b9392505050565b60008060408385031215611f2b57600080fd5b50508035926020909101359150565b600060208284031215611f4c57600080fd5b5035919050565b634e487b7160e01b600052602160045260246000fd5b6002811061135057634e487b7160e01b600052602160045260246000fd5b6000815180845260005b81811015611fad57602081850181015186830182015201611f91565b506000602082860101526020601f19601f83011685010191505092915050565b6020815260018060a01b0382511660208201526020820151604082015260006040830151611ffa81611f69565b80606084015250606083015161200f81611f69565b80608084015250608083015160c060a084015261202f60e0840182611f87565b905060a084015160c08401528091505092915050565b60008151808452602080850194506020840160005b838110156120765781518752958201959082019060010161205a565b509495945050505050565b602081526000611f116020830184612045565b60ff60f81b8816815260e0602082015260006120b360e0830189611f87565b82810360408401526120c58189611f87565b606084018890526001600160a01b038716608085015260a0840186905283810360c085015290506120f68185612045565b9a9950505050505050505050565b6000806040838503121561211757600080fd5b61212083611eda565b946020939093013593505050565b6040815260006121416040830185612045565b90508260208301529392505050565b60008083601f84011261216257600080fd5b50813567ffffffffffffffff81111561217a57600080fd5b602083019150836020828501011115610c0057600080fd5b60008060008060008060008060c0898b0312156121ae57600080fd5b8835600281106121bd57600080fd5b975060208901359650604089013567ffffffffffffffff808211156121e157600080fd5b6121ed8c838d01612150565b909850965060608b0135955060808b0135945060a08b013591508082111561221457600080fd5b506122218b828c01612150565b999c989b5096995094979396929594505050565b6001600160a01b03871681526020810186905261225185611f69565b84604082015261226084611f69565b83606082015260c06080820152600061227c60c0830185611f87565b90508260a0830152979650505050505050565b600181811c908216806122a357607f821691505b6020821081036122c357634e487b7160e01b600052602260045260246000fd5b50919050565b60208082526022908201527f4c697374696e674d616e616765723a204c697374696e67206e6f742061637469604082015261766560f01b606082015260800190565b634e487b7160e01b600052601160045260246000fd5b8082018082111561152b5761152b61230b565b634e487b7160e01b600052604160045260246000fd5b634e487b7160e01b600052603260045260246000fd5b6000600182016123725761237261230b565b5060010190565b6000816123885761238861230b565b506000190190565b601f8211156123dc576000816000526020600020601f850160051c810160208610156123b95750805b601f850160051c820191505b818110156123d8578281556001016123c5565b5050505b505050565b815167ffffffffffffffff8111156123fb576123fb612334565b61240f81612409845461228f565b84612390565b602080601f831160018114612444576000841561242c5750858301515b600019600386901b1c1916600185901b1785556123d8565b600085815260208120601f198616915b8281101561247357888601518255948401946001909101908401612454565b50858210156124915787850151600019600388901b60f8161c191681555b5050505050600190811b01905550565b8181038181111561152b5761152b61230b565b604081016124c184611f69565b9281526020015290565b634e487b7160e01b600052603160045260246000fd5b6000602082840312156124f357600080fd5b815160ff81168114611f1157600080fd5b600181815b8085111561253f5781600019048211156125255761252561230b565b8085161561253257918102915b93841c9390800290612509565b509250929050565b6000826125565750600161152b565b816125635750600061152b565b816001811461257957600281146125835761259f565b600191505061152b565b60ff8411156125945761259461230b565b50506001821b61152b565b5060208310610133831016604e8410600b84101617156125c2575081810a61152b565b6125cc8383612504565b80600019048211156125e0576125e061230b565b029392505050565b6000611f1160ff841683612547565b60006020828403121561260957600080fd5b5051919050565b808202811582820484141761152b5761152b61230b565b60008261264457634e487b7160e01b600052601260045260246000fd5b500490565b602081526000611f116020830184611f87565b6040815260006121416040830185611f87565b6040815260006126826040830185611f87565b905060018060a01b03831660208301529392505050565b6040815260006126ac6040830185611f87565b905082151560208301529392505050565b818382376000910190815291905056fe2d2d2d205374617274696e67206765744163746976654c697374696e6773202d2d2d2d2d2d2046696e6973686564206765744163746976654c697374696e6773202d2d2da264697066735822122025f6b90299f6b006c670ef9405562e3c2844598219c0bd555cd2988804a19b3964736f6c63430008160033",
  "linkReferences": {},
  "deployedLinkReferences": {}
}