{
  "_format": "hh-sol-artifact-1",
  "contractName": "PaymentProcessor",
  "sourceName": "contracts/PaymentProcessor.sol",
  "abi": [
    {
      "inputs": [
        {
          "internalType": "address",
          "name": "_treasury",
          "type": "address"
        },
        {
          "internalType": "address",
          "name": "_listingManager",
          "type": "address"
        },
        {
          "internalType": "address",
          "name": "_lmktToken",
          "type": "address"
        }
      ],
      "stateMutability": "nonpayable",
      "type": "constructor"
    },
    {
      "inputs": [
        {
          "internalType": "address",
          "name": "owner",
          "type": "address"
        }
      ],
      "name": "OwnableInvalidOwner",
      "type": "error"
    },
    {
      "inputs": [
        {
          "internalType": "address",
          "name": "account",
          "type": "address"
        }
      ],
      "name": "OwnableUnauthorizedAccount",
      "type": "error"
    },
    {
      "inputs": [],
      "name": "ReentrancyGuardReentrantCall",
      "type": "error"
    },
    {
      "inputs": [
        {
          "internalType": "address",
          "name": "token",
          "type": "address"
        }
      ],
      "name": "SafeERC20FailedOperation",
      "type": "error"
    },
    {
      "anonymous": false,
      "inputs": [
        {
          "indexed": true,
          "internalType": "address",
          "name": "previousOwner",
          "type": "address"
        },
        {
          "indexed": true,
          "internalType": "address",
          "name": "newOwner",
          "type": "address"
        }
      ],
      "name": "OwnershipTransferred",
      "type": "event"
    },
    {
      "anonymous": false,
      "inputs": [
        {
          "indexed": true,
          "internalType": "uint256",
          "name": "listingId",
          "type": "uint256"
        },
        {
          "indexed": true,
          "internalType": "address",
          "name": "buyer",
          "type": "address"
        },
        {
          "indexed": true,
          "internalType": "address",
          "name": "seller",
          "type": "address"
        },
        {
          "indexed": false,
          "internalType": "uint256",
          "name": "lmktAmount",
          "type": "uint256"
        }
      ],
      "name": "PurchaseMade",
      "type": "event"
    },
    {
      "inputs": [],
      "name": "COMMERCE_FEE",
      "outputs": [
        {
          "internalType": "uint256",
          "name": "",
          "type": "uint256"
        }
      ],
      "stateMutability": "view",
      "type": "function"
    },
    {
      "inputs": [],
      "name": "FEE_BASE",
      "outputs": [
        {
          "internalType": "uint256",
          "name": "",
          "type": "uint256"
        }
      ],
      "stateMutability": "view",
      "type": "function"
    },
    {
      "inputs": [
        {
          "internalType": "uint256",
          "name": "listingId",
          "type": "uint256"
        }
      ],
      "name": "executePayment",
      "outputs": [],
      "stateMutability": "nonpayable",
      "type": "function"
    },
    {
      "inputs": [],
      "name": "listingManager",
      "outputs": [
        {
          "internalType": "contract IListingManager",
          "name": "",
          "type": "address"
        }
      ],
      "stateMutability": "view",
      "type": "function"
    },
    {
      "inputs": [],
      "name": "lmktToken",
      "outputs": [
        {
          "internalType": "contract ILMKT",
          "name": "",
          "type": "address"
        }
      ],
      "stateMutability": "view",
      "type": "function"
    },
    {
      "inputs": [],
      "name": "owner",
      "outputs": [
        {
          "internalType": "address",
          "name": "",
          "type": "address"
        }
      ],
      "stateMutability": "view",
      "type": "function"
    },
    {
      "inputs": [],
      "name": "renounceOwnership",
      "outputs": [],
      "stateMutability": "nonpayable",
      "type": "function"
    },
    {
      "inputs": [
        {
          "internalType": "address",
          "name": "newOwner",
          "type": "address"
        }
      ],
      "name": "transferOwnership",
      "outputs": [],
      "stateMutability": "nonpayable",
      "type": "function"
    },
    {
      "inputs": [],
      "name": "treasury",
      "outputs": [
        {
          "internalType": "contract ITreasury",
          "name": "",
          "type": "address"
        }
      ],
      "stateMutability": "view",
      "type": "function"
    }
  ],
  "bytecode": "0x60e060405234801561001057600080fd5b50604051610e0d380380610e0d83398101604081905261002f916100ef565b6001600055338061005a57604051631e4fbdf760e01b81526000600482015260240160405180910390fd5b61006381610081565b506001600160a01b0392831660805290821660a0521660c052610132565b600180546001600160a01b038381166001600160a01b0319831681179093556040519116919082907f8be0079c531659141344cd1fd0a4f28419497f9722a3daafe3b4186f6b6457e090600090a35050565b80516001600160a01b03811681146100ea57600080fd5b919050565b60008060006060848603121561010457600080fd5b61010d846100d3565b925061011b602085016100d3565b9150610129604085016100d3565b90509250925092565b60805160a05160c051610c766101976000396000818160b2015281816103f2015281816104fa015281816105320152610566015260008181610168015281816101ab01526105c301526000818160f60152818161030f01526105880152610c766000f3fe608060405234801561001057600080fd5b50600436106100935760003560e01c8063715018a611610066578063715018a61461012e5780638da5cb5b14610136578063ecefc70514610147578063f2fde38b14610150578063fdbddd561461016357600080fd5b8063162a0cf8146100985780635014c45c146100ad57806361d027b3146100f15780636be7681514610118575b600080fd5b6100ab6100a636600461089a565b61018a565b005b6100d47f000000000000000000000000000000000000000000000000000000000000000081565b6040516001600160a01b0390911681526020015b60405180910390f35b6100d47f000000000000000000000000000000000000000000000000000000000000000081565b610120603281565b6040519081526020016100e8565b6100ab61068e565b6001546001600160a01b03166100d4565b61012061271081565b6100ab61015e3660046108c8565b6106a2565b6100d47f000000000000000000000000000000000000000000000000000000000000000081565b6101926106dd565b60405163083d13a560e11b8152600481018290526000907f00000000000000000000000000000000000000000000000000000000000000006001600160a01b03169063107a274a90602401600060405180830381865afa1580156101fa573d6000803e3d6000fd5b505050506040513d6000823e601f3d908101601f191682016040526102229190810190610969565b905060008160600151600181111561023c5761023c610a84565b1461029a5760405162461bcd60e51b8152602060048201526024808201527f5061796d656e7450726f636573736f723a204c697374696e67206e6f742061636044820152637469766560e01b60648201526084015b60405180910390fd5b8051336001600160a01b039091160361030b5760405162461bcd60e51b815260206004820152602d60248201527f5061796d656e7450726f636573736f723a2043616e6e6f742062757920796f7560448201526c72206f776e206c697374696e6760981b6064820152608401610291565b60007f00000000000000000000000000000000000000000000000000000000000000006001600160a01b03166377ab491d6040518163ffffffff1660e01b8152600401602060405180830381865afa15801561036b573d6000803e3d6000fd5b505050506040513d601f19601f8201168201806040525081019061038f9190610a9a565b9050600081116103ed5760405162461bcd60e51b8152602060048201526024808201527f5061796d656e7450726f636573736f723a20496e76616c6964204c4d4b5420706044820152637269636560e01b6064820152608401610291565b6000817f00000000000000000000000000000000000000000000000000000000000000006001600160a01b031663313ce5676040518163ffffffff1660e01b8152600401602060405180830381865afa15801561044e573d6000803e3d6000fd5b505050506040513d601f19601f820116820180604052508101906104729190610ab3565b61047d90600a610bd2565b846020015161048c9190610be1565b6104969190610bf8565b905060006127106104a8603284610be1565b6104b29190610bf8565b905060006104c1600283610bf8565b905060006104cf8284610c1a565b905060006104dd8286610c2d565b905060006104eb8483610c2d565b90506105226001600160a01b037f000000000000000000000000000000000000000000000000000000000000000016333084610707565b8751610559906001600160a01b037f0000000000000000000000000000000000000000000000000000000000000000169084610774565b6105ad6001600160a01b037f0000000000000000000000000000000000000000000000000000000000000000167f000000000000000000000000000000000000000000000000000000000000000086610774565b60405163e5a255cb60e01b8152600481018a90527f00000000000000000000000000000000000000000000000000000000000000006001600160a01b03169063e5a255cb90602401600060405180830381600087803b15801561060f57600080fd5b505af1158015610623573d6000803e3d6000fd5b5050505087600001516001600160a01b0316336001600160a01b03168a7fc5f792551dd433f375bbeaf380268005c2e9aa6adbfdb9a2e099a1b9af3cd9de8460405161067191815260200190565b60405180910390a4505050505050505061068b6001600055565b50565b6106966107aa565b6106a060006107d7565b565b6106aa6107aa565b6001600160a01b0381166106d457604051631e4fbdf760e01b815260006004820152602401610291565b61068b816107d7565b60026000540361070057604051633ee5aeb560e01b815260040160405180910390fd5b6002600055565b6040516001600160a01b03848116602483015283811660448301526064820183905261076e9186918216906323b872dd906084015b604051602081830303815290604052915060e01b6020820180516001600160e01b038381831617835250505050610829565b50505050565b6040516001600160a01b038381166024830152604482018390526107a591859182169063a9059cbb9060640161073c565b505050565b6001546001600160a01b031633146106a05760405163118cdaa760e01b8152336004820152602401610291565b600180546001600160a01b038381166001600160a01b0319831681179093556040519116919082907f8be0079c531659141344cd1fd0a4f28419497f9722a3daafe3b4186f6b6457e090600090a35050565b600080602060008451602086016000885af18061084c576040513d6000823e3d81fd5b50506000513d91508115610864578060011415610871565b6001600160a01b0384163b155b1561076e57604051635274afe760e01b81526001600160a01b0385166004820152602401610291565b6000602082840312156108ac57600080fd5b5035919050565b6001600160a01b038116811461068b57600080fd5b6000602082840312156108da57600080fd5b81356108e5816108b3565b9392505050565b634e487b7160e01b600052604160045260246000fd5b60405160a0810167ffffffffffffffff81118282101715610925576109256108ec565b60405290565b604051601f8201601f1916810167ffffffffffffffff81118282101715610954576109546108ec565b604052919050565b6002811061068b57600080fd5b6000602080838503121561097c57600080fd5b825167ffffffffffffffff8082111561099457600080fd5b9084019060a082870312156109a857600080fd5b6109b0610902565b82516109bb816108b3565b8152828401518482015260408301516109d38161095c565b604082015260608301516109e68161095c565b60608201526080830151828111156109fd57600080fd5b80840193505086601f840112610a1257600080fd5b825182811115610a2457610a246108ec565b610a36601f8201601f1916860161092b565b92508083528785828601011115610a4c57600080fd5b60005b81811015610a6a578481018601518482018701528501610a4f565b506000908301909401939093526080830152509392505050565b634e487b7160e01b600052602160045260246000fd5b600060208284031215610aac57600080fd5b5051919050565b600060208284031215610ac557600080fd5b815160ff811681146108e557600080fd5b634e487b7160e01b600052601160045260246000fd5b600181815b80851115610b27578160001904821115610b0d57610b0d610ad6565b80851615610b1a57918102915b93841c9390800290610af1565b509250929050565b600082610b3e57506001610bcc565b81610b4b57506000610bcc565b8160018114610b615760028114610b6b57610b87565b6001915050610bcc565b60ff841115610b7c57610b7c610ad6565b50506001821b610bcc565b5060208310610133831016604e8410600b8410161715610baa575081810a610bcc565b610bb48383610aec565b8060001904821115610bc857610bc8610ad6565b0290505b92915050565b60006108e560ff841683610b2f565b8082028115828204841417610bcc57610bcc610ad6565b600082610c1557634e487b7160e01b600052601260045260246000fd5b500490565b81810381811115610bcc57610bcc610ad6565b80820180821115610bcc57610bcc610ad656fea26469706673582212207e6f2be71c51d8f369974f4add4583917206ba6a9614a877fed3adfa279be18764736f6c63430008160033",
  "linkReferences": {},
  "deployedLinkReferences": {}
}