{
  "_format": "hh-sol-artifact-1",
  "contractName": "PaymentProcessor",
  "sourceName": "contracts/PaymentProcessor.sol",
  "abi": [
    {
      "inputs": [
        {
          "internalType": "address",
          "name": "_treasury",
          "type": "address"
        },
        {
          "internalType": "address",
          "name": "_listingManager",
          "type": "address"
        },
        {
          "internalType": "address",
          "name": "_lmktToken",
          "type": "address"
        }
      ],
      "stateMutability": "nonpayable",
      "type": "constructor"
    },
    {
      "inputs": [
        {
          "internalType": "address",
          "name": "owner",
          "type": "address"
        }
      ],
      "name": "OwnableInvalidOwner",
      "type": "error"
    },
    {
      "inputs": [
        {
          "internalType": "address",
          "name": "account",
          "type": "address"
        }
      ],
      "name": "OwnableUnauthorizedAccount",
      "type": "error"
    },
    {
      "inputs": [],
      "name": "ReentrancyGuardReentrantCall",
      "type": "error"
    },
    {
      "inputs": [
        {
          "internalType": "address",
          "name": "token",
          "type": "address"
        }
      ],
      "name": "SafeERC20FailedOperation",
      "type": "error"
    },
    {
      "anonymous": false,
      "inputs": [
        {
          "indexed": true,
          "internalType": "address",
          "name": "previousOwner",
          "type": "address"
        },
        {
          "indexed": true,
          "internalType": "address",
          "name": "newOwner",
          "type": "address"
        }
      ],
      "name": "OwnershipTransferred",
      "type": "event"
    },
    {
      "anonymous": false,
      "inputs": [
        {
          "indexed": true,
          "internalType": "uint256",
          "name": "listingId",
          "type": "uint256"
        },
        {
          "indexed": true,
          "internalType": "address",
          "name": "buyer",
          "type": "address"
        },
        {
          "indexed": true,
          "internalType": "address",
          "name": "seller",
          "type": "address"
        },
        {
          "indexed": false,
          "internalType": "uint256",
          "name": "lmktAmount",
          "type": "uint256"
        }
      ],
      "name": "PurchaseMade",
      "type": "event"
    },
    {
      "inputs": [],
      "name": "COMMERCE_FEE",
      "outputs": [
        {
          "internalType": "uint256",
          "name": "",
          "type": "uint256"
        }
      ],
      "stateMutability": "view",
      "type": "function"
    },
    {
      "inputs": [],
      "name": "FEE_BASE",
      "outputs": [
        {
          "internalType": "uint256",
          "name": "",
          "type": "uint256"
        }
      ],
      "stateMutability": "view",
      "type": "function"
    },
    {
      "inputs": [
        {
          "internalType": "uint256",
          "name": "listingId",
          "type": "uint256"
        },
        {
          "internalType": "uint256",
          "name": "maxLmktToPay",
          "type": "uint256"
        }
      ],
      "name": "executePayment",
      "outputs": [],
      "stateMutability": "nonpayable",
      "type": "function"
    },
    {
      "inputs": [],
      "name": "listingManager",
      "outputs": [
        {
          "internalType": "contract IListingManager",
          "name": "",
          "type": "address"
        }
      ],
      "stateMutability": "view",
      "type": "function"
    },
    {
      "inputs": [],
      "name": "lmktToken",
      "outputs": [
        {
          "internalType": "contract ILMKT",
          "name": "",
          "type": "address"
        }
      ],
      "stateMutability": "view",
      "type": "function"
    },
    {
      "inputs": [],
      "name": "owner",
      "outputs": [
        {
          "internalType": "address",
          "name": "",
          "type": "address"
        }
      ],
      "stateMutability": "view",
      "type": "function"
    },
    {
      "inputs": [],
      "name": "renounceOwnership",
      "outputs": [],
      "stateMutability": "nonpayable",
      "type": "function"
    },
    {
      "inputs": [
        {
          "internalType": "address",
          "name": "newOwner",
          "type": "address"
        }
      ],
      "name": "transferOwnership",
      "outputs": [],
      "stateMutability": "nonpayable",
      "type": "function"
    },
    {
      "inputs": [],
      "name": "treasury",
      "outputs": [
        {
          "internalType": "contract ITreasury",
          "name": "",
          "type": "address"
        }
      ],
      "stateMutability": "view",
      "type": "function"
    }
  ],
  "bytecode": "0x60e060405234801561001057600080fd5b50604051610f26380380610f2683398101604081905261002f916100ef565b6001600055338061005a57604051631e4fbdf760e01b81526000600482015260240160405180910390fd5b61006381610081565b506001600160a01b0392831660805290821660a0521660c052610132565b600180546001600160a01b038381166001600160a01b0319831681179093556040519116919082907f8be0079c531659141344cd1fd0a4f28419497f9722a3daafe3b4186f6b6457e090600090a35050565b80516001600160a01b03811681146100ea57600080fd5b919050565b60008060006060848603121561010457600080fd5b61010d846100d3565b925061011b602085016100d3565b9150610129604085016100d3565b90509250925092565b60805160a05160c051610d8f6101976000396000818160b201528181610453015281816105c1015281816105f9015261062d015260008181610168015281816101ab01526106a701526000818160f601528181610370015261064f0152610d8f6000f3fe608060405234801561001057600080fd5b50600436106100935760003560e01c8063715018a611610066578063715018a61461012e5780638da5cb5b14610136578063ecefc70514610147578063f2fde38b14610150578063fdbddd561461016357600080fd5b806302e17c6a146100985780635014c45c146100ad57806361d027b3146100f15780636be7681514610118575b600080fd5b6100ab6100a6366004610983565b61018a565b005b6100d47f000000000000000000000000000000000000000000000000000000000000000081565b6040516001600160a01b0390911681526020015b60405180910390f35b6100d47f000000000000000000000000000000000000000000000000000000000000000081565b610120603281565b6040519081526020016100e8565b6100ab610774565b6001546001600160a01b03166100d4565b61012061271081565b6100ab61015e3660046109ba565b610788565b6100d47f000000000000000000000000000000000000000000000000000000000000000081565b6101926107c6565b60405163083d13a560e11b8152600481018390526000907f00000000000000000000000000000000000000000000000000000000000000006001600160a01b03169063107a274a90602401600060405180830381865afa1580156101fa573d6000803e3d6000fd5b505050506040513d6000823e601f3d908101601f191682016040526102229190810190610ae0565b9050428160a001511161028a5760405162461bcd60e51b815260206004820152602560248201527f5061796d656e7450726f636573736f723a204c697374696e67206861732065786044820152641c1a5c995960da1b60648201526084015b60405180910390fd5b6000816060015160018111156102a2576102a2610b9d565b146102fb5760405162461bcd60e51b8152602060048201526024808201527f5061796d656e7450726f636573736f723a204c697374696e67206e6f742061636044820152637469766560e01b6064820152608401610281565b8051336001600160a01b039091160361036c5760405162461bcd60e51b815260206004820152602d60248201527f5061796d656e7450726f636573736f723a2043616e6e6f742062757920796f7560448201526c72206f776e206c697374696e6760981b6064820152608401610281565b60007f00000000000000000000000000000000000000000000000000000000000000006001600160a01b03166377ab491d6040518163ffffffff1660e01b8152600401602060405180830381865afa1580156103cc573d6000803e3d6000fd5b505050506040513d601f19601f820116820180604052508101906103f09190610bb3565b90506000811161044e5760405162461bcd60e51b8152602060048201526024808201527f5061796d656e7450726f636573736f723a20496e76616c6964204c4d4b5420706044820152637269636560e01b6064820152608401610281565b6000817f00000000000000000000000000000000000000000000000000000000000000006001600160a01b031663313ce5676040518163ffffffff1660e01b8152600401602060405180830381865afa1580156104af573d6000803e3d6000fd5b505050506040513d601f19601f820116820180604052508101906104d39190610bcc565b6104de90600a610ceb565b84602001516104ed9190610cfa565b6104f79190610d11565b90506000612710610509603284610cfa565b6105139190610d11565b90506000610522600283610d11565b905060006105308284610d33565b9050600061053e8286610d46565b9050600061054c8483610d46565b9050888111156105b45760405162461bcd60e51b815260206004820152602d60248201527f5061796d656e7450726f636573736f723a20536c69707061676520746f6c657260448201526c185b98d948195e18d959591959609a1b6064820152608401610281565b6105e96001600160a01b037f0000000000000000000000000000000000000000000000000000000000000000163330846107f0565b8751610620906001600160a01b037f000000000000000000000000000000000000000000000000000000000000000016908461085d565b6106746001600160a01b037f0000000000000000000000000000000000000000000000000000000000000000167f00000000000000000000000000000000000000000000000000000000000000008661085d565b60008860400151600181111561068c5761068c610b9d565b0361070c5760405163e5a255cb60e01b8152600481018b90527f00000000000000000000000000000000000000000000000000000000000000006001600160a01b03169063e5a255cb90602401600060405180830381600087803b1580156106f357600080fd5b505af1158015610707573d6000803e3d6000fd5b505050505b87600001516001600160a01b0316336001600160a01b03168b7fc5f792551dd433f375bbeaf380268005c2e9aa6adbfdb9a2e099a1b9af3cd9de8460405161075691815260200190565b60405180910390a450505050505050506107706001600055565b5050565b61077c610893565b61078660006108c0565b565b610790610893565b6001600160a01b0381166107ba57604051631e4fbdf760e01b815260006004820152602401610281565b6107c3816108c0565b50565b6002600054036107e957604051633ee5aeb560e01b815260040160405180910390fd5b6002600055565b6040516001600160a01b0384811660248301528381166044830152606482018390526108579186918216906323b872dd906084015b604051602081830303815290604052915060e01b6020820180516001600160e01b038381831617835250505050610912565b50505050565b6040516001600160a01b0383811660248301526044820183905261088e91859182169063a9059cbb90606401610825565b505050565b6001546001600160a01b031633146107865760405163118cdaa760e01b8152336004820152602401610281565b600180546001600160a01b038381166001600160a01b0319831681179093556040519116919082907f8be0079c531659141344cd1fd0a4f28419497f9722a3daafe3b4186f6b6457e090600090a35050565b600080602060008451602086016000885af180610935576040513d6000823e3d81fd5b50506000513d9150811561094d57806001141561095a565b6001600160a01b0384163b155b1561085757604051635274afe760e01b81526001600160a01b0385166004820152602401610281565b6000806040838503121561099657600080fd5b50508035926020909101359150565b6001600160a01b03811681146107c357600080fd5b6000602082840312156109cc57600080fd5b81356109d7816109a5565b9392505050565b634e487b7160e01b600052604160045260246000fd5b60405160c0810167ffffffffffffffff81118282101715610a1757610a176109de565b60405290565b604051601f8201601f1916810167ffffffffffffffff81118282101715610a4657610a466109de565b604052919050565b600281106107c357600080fd5b600082601f830112610a6c57600080fd5b815167ffffffffffffffff811115610a8657610a866109de565b6020610a9a601f8301601f19168201610a1d565b8281528582848701011115610aae57600080fd5b60005b83811015610acc578581018301518282018401528201610ab1565b506000928101909101919091529392505050565b600060208284031215610af257600080fd5b815167ffffffffffffffff80821115610b0a57600080fd5b9083019060c08286031215610b1e57600080fd5b610b266109f4565b8251610b31816109a5565b8152602083810151908201526040830151610b4b81610a4e565b60408201526060830151610b5e81610a4e565b6060820152608083015182811115610b7557600080fd5b610b8187828601610a5b565b60808301525060a083015160a082015280935050505092915050565b634e487b7160e01b600052602160045260246000fd5b600060208284031215610bc557600080fd5b5051919050565b600060208284031215610bde57600080fd5b815160ff811681146109d757600080fd5b634e487b7160e01b600052601160045260246000fd5b600181815b80851115610c40578160001904821115610c2657610c26610bef565b80851615610c3357918102915b93841c9390800290610c0a565b509250929050565b600082610c5757506001610ce5565b81610c6457506000610ce5565b8160018114610c7a5760028114610c8457610ca0565b6001915050610ce5565b60ff841115610c9557610c95610bef565b50506001821b610ce5565b5060208310610133831016604e8410600b8410161715610cc3575081810a610ce5565b610ccd8383610c05565b8060001904821115610ce157610ce1610bef565b0290505b92915050565b60006109d760ff841683610c48565b8082028115828204841417610ce557610ce5610bef565b600082610d2e57634e487b7160e01b600052601260045260246000fd5b500490565b81810381811115610ce557610ce5610bef565b80820180821115610ce557610ce5610bef56fea26469706673582212206e08f7d2ca675c112179ed8bdc367bc7bcd1b3d17e6bb17dbf2175e39c87aee664736f6c63430008160033",
  "linkReferences": {},
  "deployedLinkReferences": {}
}