{
  "_format": "hh-sol-artifact-1",
  "contractName": "PaymentProcessor",
  "sourceName": "contracts/PaymentProcessor.sol",
  "abi": [
    {
      "inputs": [
        {
          "internalType": "address",
          "name": "_treasury",
          "type": "address"
        },
        {
          "internalType": "address",
          "name": "_lmktToken",
          "type": "address"
        }
      ],
      "stateMutability": "nonpayable",
      "type": "constructor"
    },
    {
      "inputs": [
        {
          "internalType": "address",
          "name": "owner",
          "type": "address"
        }
      ],
      "name": "OwnableInvalidOwner",
      "type": "error"
    },
    {
      "inputs": [
        {
          "internalType": "address",
          "name": "account",
          "type": "address"
        }
      ],
      "name": "OwnableUnauthorizedAccount",
      "type": "error"
    },
    {
      "inputs": [],
      "name": "ReentrancyGuardReentrantCall",
      "type": "error"
    },
    {
      "anonymous": false,
      "inputs": [
        {
          "indexed": true,
          "internalType": "uint256",
          "name": "listingId",
          "type": "uint256"
        },
        {
          "indexed": true,
          "internalType": "address",
          "name": "seller",
          "type": "address"
        },
        {
          "indexed": false,
          "internalType": "uint256",
          "name": "sellerAmount",
          "type": "uint256"
        }
      ],
      "name": "FundsReleased",
      "type": "event"
    },
    {
      "anonymous": false,
      "inputs": [
        {
          "indexed": true,
          "internalType": "address",
          "name": "previousOwner",
          "type": "address"
        },
        {
          "indexed": true,
          "internalType": "address",
          "name": "newOwner",
          "type": "address"
        }
      ],
      "name": "OwnershipTransferred",
      "type": "event"
    },
    {
      "anonymous": false,
      "inputs": [
        {
          "indexed": true,
          "internalType": "uint256",
          "name": "listingId",
          "type": "uint256"
        },
        {
          "indexed": true,
          "internalType": "address",
          "name": "buyer",
          "type": "address"
        },
        {
          "indexed": false,
          "internalType": "uint256",
          "name": "totalAmount",
          "type": "uint256"
        }
      ],
      "name": "PurchaseMade",
      "type": "event"
    },
    {
      "inputs": [],
      "name": "COMMERCE_FEE",
      "outputs": [
        {
          "internalType": "uint256",
          "name": "",
          "type": "uint256"
        }
      ],
      "stateMutability": "view",
      "type": "function"
    },
    {
      "inputs": [],
      "name": "FEE_BASE",
      "outputs": [
        {
          "internalType": "uint256",
          "name": "",
          "type": "uint256"
        }
      ],
      "stateMutability": "view",
      "type": "function"
    },
    {
      "inputs": [
        {
          "internalType": "uint256",
          "name": "",
          "type": "uint256"
        }
      ],
      "name": "escrows",
      "outputs": [
        {
          "internalType": "address",
          "name": "buyer",
          "type": "address"
        },
        {
          "internalType": "address",
          "name": "seller",
          "type": "address"
        },
        {
          "internalType": "uint256",
          "name": "totalAmount",
          "type": "uint256"
        },
        {
          "internalType": "bool",
          "name": "fundsReleased",
          "type": "bool"
        }
      ],
      "stateMutability": "view",
      "type": "function"
    },
    {
      "inputs": [],
      "name": "lmktToken",
      "outputs": [
        {
          "internalType": "address",
          "name": "",
          "type": "address"
        }
      ],
      "stateMutability": "view",
      "type": "function"
    },
    {
      "inputs": [
        {
          "internalType": "uint256",
          "name": "listingId",
          "type": "uint256"
        },
        {
          "internalType": "uint256",
          "name": "price",
          "type": "uint256"
        },
        {
          "internalType": "address",
          "name": "seller",
          "type": "address"
        }
      ],
      "name": "makePurchase",
      "outputs": [],
      "stateMutability": "nonpayable",
      "type": "function"
    },
    {
      "inputs": [],
      "name": "owner",
      "outputs": [
        {
          "internalType": "address",
          "name": "",
          "type": "address"
        }
      ],
      "stateMutability": "view",
      "type": "function"
    },
    {
      "inputs": [
        {
          "internalType": "uint256",
          "name": "listingId",
          "type": "uint256"
        }
      ],
      "name": "releaseFunds",
      "outputs": [],
      "stateMutability": "nonpayable",
      "type": "function"
    },
    {
      "inputs": [],
      "name": "renounceOwnership",
      "outputs": [],
      "stateMutability": "nonpayable",
      "type": "function"
    },
    {
      "inputs": [
        {
          "internalType": "address",
          "name": "newOwner",
          "type": "address"
        }
      ],
      "name": "transferOwnership",
      "outputs": [],
      "stateMutability": "nonpayable",
      "type": "function"
    },
    {
      "inputs": [],
      "name": "treasury",
      "outputs": [
        {
          "internalType": "address",
          "name": "",
          "type": "address"
        }
      ],
      "stateMutability": "view",
      "type": "function"
    }
  ],
  "bytecode": "0x60c060405234801561001057600080fd5b50604051610de2380380610de283398101604081905261002f9161015c565b6001600055338061005a57604051631e4fbdf760e01b81526000600482015260240160405180910390fd5b610063816100ee565b506001600160a01b03828116608081905290821660a081905260405163095ea7b360e01b8152600481019290925260001960248301529063095ea7b3906044016020604051808303816000875af11580156100c2573d6000803e3d6000fd5b505050506040513d601f19601f820116820180604052508101906100e6919061018f565b5050506101b8565b600180546001600160a01b038381166001600160a01b0319831681179093556040519116919082907f8be0079c531659141344cd1fd0a4f28419497f9722a3daafe3b4186f6b6457e090600090a35050565b80516001600160a01b038116811461015757600080fd5b919050565b6000806040838503121561016f57600080fd5b61017883610140565b915061018660208401610140565b90509250929050565b6000602082840312156101a157600080fd5b815180151581146101b157600080fd5b9392505050565b60805160a051610bd461020e600039600081816101360152818161036f0152818161042a015281816106590152818161074301526108c0015260008181610175015281816103a101526105140152610bd46000f3fe608060405234801561001057600080fd5b506004361061009e5760003560e01c8063715018a611610066578063715018a6146101ad5780638da5cb5b146101b5578063bc057917146101c6578063ecefc705146101d9578063f2fde38b146101e257600080fd5b8063012f52ee146100a35780634d68282f1461011c5780635014c45c1461013157806361d027b3146101705780636be7681514610197575b600080fd5b6100ea6100b1366004610a5c565b600260208190526000918252604090912080546001820154928201546003909201546001600160a01b0391821693909116919060ff1684565b604080516001600160a01b03958616815294909316602085015291830152151560608201526080015b60405180910390f35b61012f61012a366004610a5c565b6101f5565b005b6101587f000000000000000000000000000000000000000000000000000000000000000081565b6040516001600160a01b039091168152602001610113565b6101587f000000000000000000000000000000000000000000000000000000000000000081565b61019f603281565b604051908152602001610113565b61012f6104f4565b6001546001600160a01b0316610158565b61012f6101d4366004610a91565b610508565b61019f61271081565b61012f6101f0366004610ac6565b610978565b6101fd6109b3565b600081815260026020526040902080546001600160a01b031633146102805760405162461bcd60e51b815260206004820152602e60248201527f5061796d656e7450726f636573736f723a204f6e6c792062757965722063616e60448201526d2072656c656173652066756e647360901b60648201526084015b60405180910390fd5b600381015460ff16156102e65760405162461bcd60e51b815260206004820152602860248201527f5061796d656e7450726f636573736f723a2046756e647320616c7265616479206044820152671c995b19585cd95960c21b6064820152608401610277565b60038101805460ff19166001179055600281015460006103096032612710610afe565b61031561271084610b17565b61031f9190610b2e565b9050600061032d8284610b50565b9050600061033c600283610b2e565b9050600061034a8284610b50565b905060006103588286610afe565b6040516353f00a7b60e11b81526001600160a01b037f000000000000000000000000000000000000000000000000000000000000000081166004830152602482018690529192507f00000000000000000000000000000000000000000000000000000000000000009091169063a7e014f690604401600060405180830381600087803b1580156103e757600080fd5b505af11580156103fb573d6000803e3d6000fd5b50505050600187015460405163a9059cbb60e01b81526001600160a01b039182166004820152602481018390527f00000000000000000000000000000000000000000000000000000000000000009091169063a9059cbb906044016020604051808303816000875af1158015610475573d6000803e3d6000fd5b505050506040513d601f19601f820116820180604052508101906104999190610b63565b5060018701546040518281526001600160a01b039091169089907f6e3c6096795c8298a218b2cfb8bde42726ff7c9a3d27b4d3ba41ab7f74feb5fb9060200160405180910390a3505050505050506104f16001600055565b50565b6104fc6109dd565b6105066000610a0a565b565b6105106109b3565b60007f00000000000000000000000000000000000000000000000000000000000000006001600160a01b031663019915346040518163ffffffff1660e01b8152600401602060405180830381865afa158015610570573d6000803e3d6000fd5b505050506040513d601f19601f820116820180604052508101906105949190610b85565b9050600081116105f25760405162461bcd60e51b8152602060048201526024808201527f5061796d656e7450726f636573736f723a20496e76616c6964204c4d4b5420706044820152637269636560e01b6064820152608401610277565b6000612710610602603286610b17565b61060c9190610b2e565b9050600061061a8286610afe565b905060008361062d836305f5e100610b17565b6106379190610b2e565b6040516370a0823160e01b815233600482015290915081906001600160a01b037f000000000000000000000000000000000000000000000000000000000000000016906370a0823190602401602060405180830381865afa1580156106a0573d6000803e3d6000fd5b505050506040513d601f19601f820116820180604052508101906106c49190610b85565b10156107265760405162461bcd60e51b815260206004820152602b60248201527f5061796d656e7450726f636573736f723a20496e73756666696369656e74204c60448201526a4d4b542062616c616e636560a81b6064820152608401610277565b604051636eb1769f60e11b815233600482015230602482015281907f00000000000000000000000000000000000000000000000000000000000000006001600160a01b03169063dd62ed3e90604401602060405180830381865afa158015610792573d6000803e3d6000fd5b505050506040513d601f19601f820116820180604052508101906107b69190610b85565b101561081a5760405162461bcd60e51b815260206004820152602d60248201527f5061796d656e7450726f636573736f723a20496e73756666696369656e74204c60448201526c4d4b5420616c6c6f77616e636560981b6064820152608401610277565b60408051608081018252338082526001600160a01b0388811660208085019182528486018781526000606087018181528f825260029384905290889020965187546001600160a01b03199081169187169190911788559351600188018054909516908616179093555190850155516003909301805460ff19169315159390931790925591516323b872dd60e01b81526004810192909252306024830152604482018390527f000000000000000000000000000000000000000000000000000000000000000016906323b872dd906064016020604051808303816000875af1158015610909573d6000803e3d6000fd5b505050506040513d601f19601f8201168201806040525081019061092d9190610b63565b50604051828152339088907fc67dda0e4492655637fd5a612f71194cbdfda4372b88edc38d595bd2733a3f2d9060200160405180910390a3505050506109736001600055565b505050565b6109806109dd565b6001600160a01b0381166109aa57604051631e4fbdf760e01b815260006004820152602401610277565b6104f181610a0a565b6002600054036109d657604051633ee5aeb560e01b815260040160405180910390fd5b6002600055565b6001546001600160a01b031633146105065760405163118cdaa760e01b8152336004820152602401610277565b600180546001600160a01b038381166001600160a01b0319831681179093556040519116919082907f8be0079c531659141344cd1fd0a4f28419497f9722a3daafe3b4186f6b6457e090600090a35050565b600060208284031215610a6e57600080fd5b5035919050565b80356001600160a01b0381168114610a8c57600080fd5b919050565b600080600060608486031215610aa657600080fd5b8335925060208401359150610abd60408501610a75565b90509250925092565b600060208284031215610ad857600080fd5b610ae182610a75565b9392505050565b634e487b7160e01b600052601160045260246000fd5b80820180821115610b1157610b11610ae8565b92915050565b8082028115828204841417610b1157610b11610ae8565b600082610b4b57634e487b7160e01b600052601260045260246000fd5b500490565b81810381811115610b1157610b11610ae8565b600060208284031215610b7557600080fd5b81518015158114610ae157600080fd5b600060208284031215610b9757600080fd5b505191905056fea264697066735822122088c4881e7c0f1e32803c9c6060bd49a9ca3a1e80f534e0d16f5b2b2a49cc13fe64736f6c63430008140033",
  "linkReferences": {},
  "deployedLinkReferences": {}
}