{
  "_format": "hh-sol-artifact-1",
  "contractName": "PaymentProcessor",
  "sourceName": "contracts/PaymentProcessor.sol",
  "abi": [
    {
      "inputs": [
        {
          "internalType": "address",
          "name": "_treasury",
          "type": "address"
        },
        {
          "internalType": "address",
          "name": "_lmktToken",
          "type": "address"
        }
      ],
      "stateMutability": "nonpayable",
      "type": "constructor"
    },
    {
      "inputs": [
        {
          "internalType": "address",
          "name": "owner",
          "type": "address"
        }
      ],
      "name": "OwnableInvalidOwner",
      "type": "error"
    },
    {
      "inputs": [
        {
          "internalType": "address",
          "name": "account",
          "type": "address"
        }
      ],
      "name": "OwnableUnauthorizedAccount",
      "type": "error"
    },
    {
      "anonymous": false,
      "inputs": [
        {
          "indexed": true,
          "internalType": "uint256",
          "name": "listingId",
          "type": "uint256"
        },
        {
          "indexed": true,
          "internalType": "address",
          "name": "seller",
          "type": "address"
        },
        {
          "indexed": false,
          "internalType": "uint256",
          "name": "sellerAmount",
          "type": "uint256"
        }
      ],
      "name": "FundsReleased",
      "type": "event"
    },
    {
      "anonymous": false,
      "inputs": [
        {
          "indexed": true,
          "internalType": "address",
          "name": "previousOwner",
          "type": "address"
        },
        {
          "indexed": true,
          "internalType": "address",
          "name": "newOwner",
          "type": "address"
        }
      ],
      "name": "OwnershipTransferred",
      "type": "event"
    },
    {
      "anonymous": false,
      "inputs": [
        {
          "indexed": true,
          "internalType": "uint256",
          "name": "listingId",
          "type": "uint256"
        },
        {
          "indexed": true,
          "internalType": "address",
          "name": "buyer",
          "type": "address"
        },
        {
          "indexed": false,
          "internalType": "uint256",
          "name": "totalAmount",
          "type": "uint256"
        }
      ],
      "name": "PurchaseMade",
      "type": "event"
    },
    {
      "inputs": [],
      "name": "COMMERCE_FEE",
      "outputs": [
        {
          "internalType": "uint256",
          "name": "",
          "type": "uint256"
        }
      ],
      "stateMutability": "view",
      "type": "function"
    },
    {
      "inputs": [],
      "name": "FEE_BASE",
      "outputs": [
        {
          "internalType": "uint256",
          "name": "",
          "type": "uint256"
        }
      ],
      "stateMutability": "view",
      "type": "function"
    },
    {
      "inputs": [
        {
          "internalType": "uint256",
          "name": "",
          "type": "uint256"
        }
      ],
      "name": "escrows",
      "outputs": [
        {
          "internalType": "address",
          "name": "buyer",
          "type": "address"
        },
        {
          "internalType": "address",
          "name": "seller",
          "type": "address"
        },
        {
          "internalType": "uint256",
          "name": "totalAmount",
          "type": "uint256"
        },
        {
          "internalType": "bool",
          "name": "fundsReleased",
          "type": "bool"
        }
      ],
      "stateMutability": "view",
      "type": "function"
    },
    {
      "inputs": [],
      "name": "lmktToken",
      "outputs": [
        {
          "internalType": "address",
          "name": "",
          "type": "address"
        }
      ],
      "stateMutability": "view",
      "type": "function"
    },
    {
      "inputs": [
        {
          "internalType": "uint256",
          "name": "listingId",
          "type": "uint256"
        },
        {
          "internalType": "uint256",
          "name": "price",
          "type": "uint256"
        },
        {
          "internalType": "address",
          "name": "seller",
          "type": "address"
        }
      ],
      "name": "makePurchase",
      "outputs": [],
      "stateMutability": "nonpayable",
      "type": "function"
    },
    {
      "inputs": [],
      "name": "owner",
      "outputs": [
        {
          "internalType": "address",
          "name": "",
          "type": "address"
        }
      ],
      "stateMutability": "view",
      "type": "function"
    },
    {
      "inputs": [
        {
          "internalType": "uint256",
          "name": "listingId",
          "type": "uint256"
        }
      ],
      "name": "releaseFunds",
      "outputs": [],
      "stateMutability": "nonpayable",
      "type": "function"
    },
    {
      "inputs": [],
      "name": "renounceOwnership",
      "outputs": [],
      "stateMutability": "nonpayable",
      "type": "function"
    },
    {
      "inputs": [
        {
          "internalType": "address",
          "name": "newOwner",
          "type": "address"
        }
      ],
      "name": "transferOwnership",
      "outputs": [],
      "stateMutability": "nonpayable",
      "type": "function"
    },
    {
      "inputs": [],
      "name": "treasury",
      "outputs": [
        {
          "internalType": "address",
          "name": "",
          "type": "address"
        }
      ],
      "stateMutability": "view",
      "type": "function"
    }
  ],
  "bytecode": "0x60c060405234801561001057600080fd5b50604051610b43380380610b4383398101604081905261002f9161015c565b6001600055338061005a57604051631e4fbdf760e01b81526000600482015260240160405180910390fd5b610063816100ee565b506001600160a01b03828116608081905290821660a081905260405163095ea7b360e01b8152600481019290925260001960248301529063095ea7b3906044016020604051808303816000875af11580156100c2573d6000803e3d6000fd5b505050506040513d601f19601f820116820180604052508101906100e6919061018f565b5050506101b8565b600180546001600160a01b038381166001600160a01b0319831681179093556040519116919082907f8be0079c531659141344cd1fd0a4f28419497f9722a3daafe3b4186f6b6457e090600090a35050565b80516001600160a01b038116811461015757600080fd5b919050565b6000806040838503121561016f57600080fd5b61017883610140565b915061018660208401610140565b90509250929050565b6000602082840312156101a157600080fd5b815180151581146101b157600080fd5b9392505050565b60805160a05161094a6101f960003960008181610136015281816103bf0152818161047a015261067b01526000818161017501526103f1015261094a6000f3fe608060405234801561001057600080fd5b506004361061009e5760003560e01c8063715018a611610066578063715018a6146101ad5780638da5cb5b146101b5578063bc057917146101c6578063ecefc705146101d9578063f2fde38b146101e257600080fd5b8063012f52ee146100a35780634d68282f1461011c5780635014c45c1461013157806361d027b3146101705780636be7681514610197575b600080fd5b6100ea6100b13660046107eb565b600260208190526000918252604090912080546001820154928201546003909201546001600160a01b0391821693909116919060ff1684565b604080516001600160a01b03958616815294909316602085015291830152151560608201526080015b60405180910390f35b61012f61012a3660046107eb565b6101f5565b005b6101587f000000000000000000000000000000000000000000000000000000000000000081565b6040516001600160a01b039091168152602001610113565b6101587f000000000000000000000000000000000000000000000000000000000000000081565b61019f603281565b604051908152602001610113565b61012f61053f565b6001546001600160a01b0316610158565b61012f6101d4366004610820565b610553565b61019f61271081565b61012f6101f0366004610855565b61072e565b60026000540361024c5760405162461bcd60e51b815260206004820152601f60248201527f5265656e7472616e637947756172643a207265656e7472616e742063616c6c0060448201526064015b60405180910390fd5b600260008181558281526020919091526040902080546001600160a01b031633146102d05760405162461bcd60e51b815260206004820152602e60248201527f5061796d656e7450726f636573736f723a204f6e6c792062757965722063616e60448201526d2072656c656173652066756e647360901b6064820152608401610243565b600381015460ff16156103365760405162461bcd60e51b815260206004820152602860248201527f5061796d656e7450726f636573736f723a2046756e647320616c7265616479206044820152671c995b19585cd95960c21b6064820152608401610243565b60038101805460ff1916600117905560028101546000610359603261271061088d565b610365612710846108a6565b61036f91906108bd565b9050600061037d82846108df565b9050600061038c6002836108bd565b9050600061039a82846108df565b905060006103a8828661088d565b6040516353f00a7b60e11b81526001600160a01b037f000000000000000000000000000000000000000000000000000000000000000081166004830152602482018690529192507f00000000000000000000000000000000000000000000000000000000000000009091169063a7e014f690604401600060405180830381600087803b15801561043757600080fd5b505af115801561044b573d6000803e3d6000fd5b50505050600187015460405163a9059cbb60e01b81526001600160a01b039182166004820152602481018390527f00000000000000000000000000000000000000000000000000000000000000009091169063a9059cbb906044016020604051808303816000875af11580156104c5573d6000803e3d6000fd5b505050506040513d601f19601f820116820180604052508101906104e991906108f2565b5060018701546040518281526001600160a01b039091169089907f6e3c6096795c8298a218b2cfb8bde42726ff7c9a3d27b4d3ba41ab7f74feb5fb9060200160405180910390a350506001600055505050505050565b61054761076c565b6105516000610799565b565b6002600054036105a55760405162461bcd60e51b815260206004820152601f60248201527f5265656e7472616e637947756172643a207265656e7472616e742063616c6c006044820152606401610243565b600260009081556127106105ba6032856108a6565b6105c491906108bd565b905060006105d2828561088d565b60408051608081018252338082526001600160a01b0387811660208085019182528486018781526000606087018181528e825260029384905290889020965187546001600160a01b03199081169187169190911788559351600188018054909516908616179093555190850155516003909301805460ff19169315159390931790925591516323b872dd60e01b81526004810192909252306024830152604482018390529192507f0000000000000000000000000000000000000000000000000000000000000000909116906323b872dd906064016020604051808303816000875af11580156106c6573d6000803e3d6000fd5b505050506040513d601f19601f820116820180604052508101906106ea91906108f2565b50604051818152339086907fc67dda0e4492655637fd5a612f71194cbdfda4372b88edc38d595bd2733a3f2d9060200160405180910390a350506001600055505050565b61073661076c565b6001600160a01b03811661076057604051631e4fbdf760e01b815260006004820152602401610243565b61076981610799565b50565b6001546001600160a01b031633146105515760405163118cdaa760e01b8152336004820152602401610243565b600180546001600160a01b038381166001600160a01b0319831681179093556040519116919082907f8be0079c531659141344cd1fd0a4f28419497f9722a3daafe3b4186f6b6457e090600090a35050565b6000602082840312156107fd57600080fd5b5035919050565b80356001600160a01b038116811461081b57600080fd5b919050565b60008060006060848603121561083557600080fd5b833592506020840135915061084c60408501610804565b90509250925092565b60006020828403121561086757600080fd5b61087082610804565b9392505050565b634e487b7160e01b600052601160045260246000fd5b808201808211156108a0576108a0610877565b92915050565b80820281158282048414176108a0576108a0610877565b6000826108da57634e487b7160e01b600052601260045260246000fd5b500490565b818103818111156108a0576108a0610877565b60006020828403121561090457600080fd5b8151801515811461087057600080fdfea26469706673582212208685689864ba80aaf3cb80817dc38ce6805ffefeb3c7ecffd884c488e17d430964736f6c63430008140033",
  "linkReferences": {},
  "deployedLinkReferences": {}
}