{
  "_format": "hh-sol-artifact-1",
  "contractName": "PriceOracleConsumer",
  "sourceName": "contracts/PriceOracleConsumer.sol",
  "abi": [
    {
      "inputs": [
        {
          "internalType": "address payable",
          "name": "_fetchAddress",
          "type": "address"
        }
      ],
      "stateMutability": "nonpayable",
      "type": "constructor"
    },
    {
      "anonymous": false,
      "inputs": [
        {
          "indexed": true,
          "internalType": "bytes32",
          "name": "queryId",
          "type": "bytes32"
        },
        {
          "indexed": false,
          "internalType": "uint256",
          "name": "price",
          "type": "uint256"
        },
        {
          "indexed": false,
          "internalType": "uint256",
          "name": "timestamp",
          "type": "uint256"
        }
      ],
      "name": "PriceFetched",
      "type": "event"
    },
    {
      "inputs": [],
      "name": "fetchAddress",
      "outputs": [
        {
          "internalType": "address payable",
          "name": "",
          "type": "address"
        }
      ],
      "stateMutability": "view",
      "type": "function"
    },
    {
      "inputs": [
        {
          "internalType": "bytes32",
          "name": "_queryId",
          "type": "bytes32"
        }
      ],
      "name": "fetchLatestPrice",
      "outputs": [],
      "stateMutability": "nonpayable",
      "type": "function"
    },
    {
      "inputs": [
        {
          "internalType": "bytes32",
          "name": "_queryId",
          "type": "bytes32"
        },
        {
          "internalType": "uint256",
          "name": "_timestamp",
          "type": "uint256"
        }
      ],
      "name": "getDataAfter",
      "outputs": [
        {
          "internalType": "uint256",
          "name": "_value",
          "type": "uint256"
        },
        {
          "internalType": "uint256",
          "name": "_timestampRetrieved",
          "type": "uint256"
        }
      ],
      "stateMutability": "view",
      "type": "function"
    },
    {
      "inputs": [
        {
          "internalType": "bytes32",
          "name": "_queryId",
          "type": "bytes32"
        }
      ],
      "name": "getLastUpdatedTimestamp",
      "outputs": [
        {
          "internalType": "uint256",
          "name": "",
          "type": "uint256"
        }
      ],
      "stateMutability": "view",
      "type": "function"
    },
    {
      "inputs": [
        {
          "internalType": "bytes32",
          "name": "_queryId",
          "type": "bytes32"
        }
      ],
      "name": "getPrice",
      "outputs": [
        {
          "internalType": "uint256",
          "name": "",
          "type": "uint256"
        }
      ],
      "stateMutability": "view",
      "type": "function"
    },
    {
      "inputs": [
        {
          "internalType": "bytes32",
          "name": "",
          "type": "bytes32"
        }
      ],
      "name": "prices",
      "outputs": [
        {
          "internalType": "uint256",
          "name": "",
          "type": "uint256"
        }
      ],
      "stateMutability": "view",
      "type": "function"
    },
    {
      "inputs": [
        {
          "internalType": "bytes32",
          "name": "",
          "type": "bytes32"
        }
      ],
      "name": "timestamps",
      "outputs": [
        {
          "internalType": "uint256",
          "name": "",
          "type": "uint256"
        }
      ],
      "stateMutability": "view",
      "type": "function"
    }
  ],
  "bytecode": "0x608060405234801561001057600080fd5b506040516102ee3803806102ee83398101604081905261002f91610054565b600080546001600160a01b0319166001600160a01b0392909216919091179055610084565b60006020828403121561006657600080fd5b81516001600160a01b038116811461007d57600080fd5b9392505050565b61025b806100936000396000f3fe608060405234801561001057600080fd5b506004361061007d5760003560e01c8063816a7e011161005b578063816a7e011461010457806399c7478914610124578063b587295814610139578063b7d4342f1461015957600080fd5b806331d98b3f1461008257806360846bc6146100b557806364ee3c6d146100d5575b600080fd5b6100a26100903660046101ea565b60009081526001602052604090205490565b6040519081526020015b60405180910390f35b6100a26100c33660046101ea565b60016020526000908152604090205481565b6100ef6100e3366004610203565b506305f5e10091429150565b604080519283526020830191909152016100ac565b6100a26101123660046101ea565b60009081526002602052604090205490565b6101376101323660046101ea565b610184565b005b6100a26101473660046101ea565b60026020526000908152604090205481565b60005461016c906001600160a01b031681565b6040516001600160a01b0390911681526020016100ac565b60008181526001602090815260408083206305f5e100908190556002835292819020429081905581518481529283018190528151909285927fe8cdd82b3877e89e22814fd10c84163e94868f5bbe8f2f3bbb0a6bf443f541bc92918290030190a2505050565b6000602082840312156101fc57600080fd5b5035919050565b6000806040838503121561021657600080fd5b5050803592602090910135915056fea264697066735822122064c8a780d502297170dbfd3db7ac6d75650b652e36c7b310c73ab2370ebe349764736f6c63430008160033",
  "linkReferences": {},
  "deployedLinkReferences": {}
}