{
  "_format": "hh-sol-artifact-1",
  "contractName": "Treasury",
  "sourceName": "contracts/Treasury.sol",
  "abi": [
    {
      "inputs": [],
      "stateMutability": "nonpayable",
      "type": "constructor"
    },
    {
      "inputs": [
        {
          "internalType": "address",
          "name": "owner",
          "type": "address"
        }
      ],
      "name": "OwnableInvalidOwner",
      "type": "error"
    },
    {
      "inputs": [
        {
          "internalType": "address",
          "name": "account",
          "type": "address"
        }
      ],
      "name": "OwnableUnauthorizedAccount",
      "type": "error"
    },
    {
      "inputs": [],
      "name": "ReentrancyGuardReentrantCall",
      "type": "error"
    },
    {
      "inputs": [
        {
          "internalType": "address",
          "name": "token",
          "type": "address"
        }
      ],
      "name": "SafeERC20FailedOperation",
      "type": "error"
    },
    {
      "anonymous": false,
      "inputs": [
        {
          "indexed": true,
          "internalType": "address",
          "name": "token",
          "type": "address"
        },
        {
          "indexed": false,
          "internalType": "bool",
          "name": "isWhitelisted",
          "type": "bool"
        }
      ],
      "name": "CollateralWhitelisted",
      "type": "event"
    },
    {
      "anonymous": false,
      "inputs": [
        {
          "indexed": true,
          "internalType": "address",
          "name": "token",
          "type": "address"
        },
        {
          "indexed": false,
          "internalType": "uint256",
          "name": "amount",
          "type": "uint256"
        }
      ],
      "name": "CommerceFeeReceived",
      "type": "event"
    },
    {
      "anonymous": false,
      "inputs": [
        {
          "indexed": false,
          "internalType": "uint256",
          "name": "sellPremium",
          "type": "uint256"
        },
        {
          "indexed": false,
          "internalType": "uint256",
          "name": "buyDiscount",
          "type": "uint256"
        }
      ],
      "name": "FeeRateSet",
      "type": "event"
    },
    {
      "anonymous": false,
      "inputs": [
        {
          "indexed": true,
          "internalType": "address",
          "name": "sender",
          "type": "address"
        },
        {
          "indexed": true,
          "internalType": "address",
          "name": "collateralToken",
          "type": "address"
        },
        {
          "indexed": false,
          "internalType": "uint256",
          "name": "collateralAmount",
          "type": "uint256"
        },
        {
          "indexed": false,
          "internalType": "uint256",
          "name": "lmktAmount",
          "type": "uint256"
        },
        {
          "indexed": false,
          "internalType": "uint256",
          "name": "totalCollateral",
          "type": "uint256"
        },
        {
          "indexed": false,
          "internalType": "uint256",
          "name": "circulatingSupply",
          "type": "uint256"
        },
        {
          "indexed": false,
          "internalType": "bool",
          "name": "isBuy",
          "type": "bool"
        }
      ],
      "name": "MKTSwap",
      "type": "event"
    },
    {
      "anonymous": false,
      "inputs": [
        {
          "indexed": true,
          "internalType": "address",
          "name": "previousOwner",
          "type": "address"
        },
        {
          "indexed": true,
          "internalType": "address",
          "name": "newOwner",
          "type": "address"
        }
      ],
      "name": "OwnershipTransferred",
      "type": "event"
    },
    {
      "anonymous": false,
      "inputs": [
        {
          "indexed": true,
          "internalType": "address",
          "name": "token",
          "type": "address"
        },
        {
          "indexed": true,
          "internalType": "address",
          "name": "feed",
          "type": "address"
        }
      ],
      "name": "PriceFeedSet",
      "type": "event"
    },
    {
      "anonymous": false,
      "inputs": [
        {
          "indexed": true,
          "internalType": "address",
          "name": "token",
          "type": "address"
        },
        {
          "indexed": true,
          "internalType": "bytes32",
          "name": "queryId",
          "type": "bytes32"
        }
      ],
      "name": "TokenQueryIdSet",
      "type": "event"
    },
    {
      "inputs": [],
      "name": "BUY_DISCOUNT",
      "outputs": [
        {
          "internalType": "uint256",
          "name": "",
          "type": "uint256"
        }
      ],
      "stateMutability": "view",
      "type": "function"
    },
    {
      "inputs": [],
      "name": "LMKT_PRICE_DECIMALS",
      "outputs": [
        {
          "internalType": "uint8",
          "name": "",
          "type": "uint8"
        }
      ],
      "stateMutability": "view",
      "type": "function"
    },
    {
      "inputs": [],
      "name": "ORACLE_PRICE_DECIMALS",
      "outputs": [
        {
          "internalType": "uint8",
          "name": "",
          "type": "uint8"
        }
      ],
      "stateMutability": "view",
      "type": "function"
    },
    {
      "inputs": [],
      "name": "SELL_PREMIUM",
      "outputs": [
        {
          "internalType": "uint256",
          "name": "",
          "type": "uint256"
        }
      ],
      "stateMutability": "view",
      "type": "function"
    },
    {
      "inputs": [],
      "name": "SPREAD_BASE",
      "outputs": [
        {
          "internalType": "uint256",
          "name": "",
          "type": "uint256"
        }
      ],
      "stateMutability": "view",
      "type": "function"
    },
    {
      "inputs": [
        {
          "internalType": "uint256",
          "name": "collateralAmount",
          "type": "uint256"
        },
        {
          "internalType": "address",
          "name": "collateralToken",
          "type": "address"
        },
        {
          "internalType": "uint256",
          "name": "minLmktOut",
          "type": "uint256"
        }
      ],
      "name": "buyMkt",
      "outputs": [],
      "stateMutability": "nonpayable",
      "type": "function"
    },
    {
      "inputs": [
        {
          "internalType": "address",
          "name": "token",
          "type": "address"
        },
        {
          "internalType": "uint256",
          "name": "amount",
          "type": "uint256"
        }
      ],
      "name": "depositCommerceFee",
      "outputs": [],
      "stateMutability": "nonpayable",
      "type": "function"
    },
    {
      "inputs": [
        {
          "internalType": "uint256",
          "name": "lmktAmount",
          "type": "uint256"
        },
        {
          "internalType": "address",
          "name": "collateralToken",
          "type": "address"
        }
      ],
      "name": "getCollateralAmountForLmkt",
      "outputs": [
        {
          "internalType": "uint256",
          "name": "",
          "type": "uint256"
        }
      ],
      "stateMutability": "view",
      "type": "function"
    },
    {
      "inputs": [
        {
          "internalType": "uint256",
          "name": "amount",
          "type": "uint256"
        },
        {
          "internalType": "address",
          "name": "token",
          "type": "address"
        }
      ],
      "name": "getCollateralTokenValue",
      "outputs": [
        {
          "internalType": "uint256",
          "name": "",
          "type": "uint256"
        }
      ],
      "stateMutability": "view",
      "type": "function"
    },
    {
      "inputs": [
        {
          "internalType": "uint256",
          "name": "collateralAmount",
          "type": "uint256"
        },
        {
          "internalType": "address",
          "name": "collateralToken",
          "type": "address"
        }
      ],
      "name": "getLmktAmountForCollateral",
      "outputs": [
        {
          "internalType": "uint256",
          "name": "",
          "type": "uint256"
        }
      ],
      "stateMutability": "view",
      "type": "function"
    },
    {
      "inputs": [],
      "name": "getLmktPriceInUsd",
      "outputs": [
        {
          "internalType": "uint256",
          "name": "",
          "type": "uint256"
        }
      ],
      "stateMutability": "view",
      "type": "function"
    },
    {
      "inputs": [],
      "name": "getTotalCollateralValue",
      "outputs": [
        {
          "internalType": "uint256",
          "name": "",
          "type": "uint256"
        }
      ],
      "stateMutability": "view",
      "type": "function"
    },
    {
      "inputs": [
        {
          "internalType": "address",
          "name": "",
          "type": "address"
        }
      ],
      "name": "isWhitelistedCollateral",
      "outputs": [
        {
          "internalType": "bool",
          "name": "",
          "type": "bool"
        }
      ],
      "stateMutability": "view",
      "type": "function"
    },
    {
      "inputs": [],
      "name": "lmktToken",
      "outputs": [
        {
          "internalType": "contract ILMKT",
          "name": "",
          "type": "address"
        }
      ],
      "stateMutability": "view",
      "type": "function"
    },
    {
      "inputs": [],
      "name": "owner",
      "outputs": [
        {
          "internalType": "address",
          "name": "",
          "type": "address"
        }
      ],
      "stateMutability": "view",
      "type": "function"
    },
    {
      "inputs": [],
      "name": "renounceOwnership",
      "outputs": [],
      "stateMutability": "nonpayable",
      "type": "function"
    },
    {
      "inputs": [
        {
          "internalType": "uint256",
          "name": "lmktAmount",
          "type": "uint256"
        },
        {
          "internalType": "address",
          "name": "collateralToken",
          "type": "address"
        },
        {
          "internalType": "uint256",
          "name": "minCollateralOut",
          "type": "uint256"
        }
      ],
      "name": "sellMkt",
      "outputs": [],
      "stateMutability": "nonpayable",
      "type": "function"
    },
    {
      "inputs": [
        {
          "internalType": "uint256",
          "name": "_sellPremium",
          "type": "uint256"
        },
        {
          "internalType": "uint256",
          "name": "_buyDiscount",
          "type": "uint256"
        }
      ],
      "name": "setFeeRate",
      "outputs": [],
      "stateMutability": "nonpayable",
      "type": "function"
    },
    {
      "inputs": [
        {
          "internalType": "address",
          "name": "_lmktTokenAddress",
          "type": "address"
        }
      ],
      "name": "setLmktAddress",
      "outputs": [],
      "stateMutability": "nonpayable",
      "type": "function"
    },
    {
      "inputs": [
        {
          "internalType": "address",
          "name": "_token",
          "type": "address"
        },
        {
          "internalType": "address",
          "name": "_feedAddress",
          "type": "address"
        }
      ],
      "name": "setPriceFeed",
      "outputs": [],
      "stateMutability": "nonpayable",
      "type": "function"
    },
    {
      "inputs": [
        {
          "internalType": "address",
          "name": "_token",
          "type": "address"
        },
        {
          "internalType": "bytes32",
          "name": "_queryId",
          "type": "bytes32"
        }
      ],
      "name": "setTokenQueryId",
      "outputs": [],
      "stateMutability": "nonpayable",
      "type": "function"
    },
    {
      "inputs": [
        {
          "internalType": "address",
          "name": "token",
          "type": "address"
        },
        {
          "internalType": "bool",
          "name": "isWhitelisted",
          "type": "bool"
        }
      ],
      "name": "setWhitelistedCollateral",
      "outputs": [],
      "stateMutability": "nonpayable",
      "type": "function"
    },
    {
      "inputs": [
        {
          "internalType": "address",
          "name": "",
          "type": "address"
        }
      ],
      "name": "tokenPriceFeeds",
      "outputs": [
        {
          "internalType": "contract MockPriceOracle",
          "name": "",
          "type": "address"
        }
      ],
      "stateMutability": "view",
      "type": "function"
    },
    {
      "inputs": [
        {
          "internalType": "address",
          "name": "",
          "type": "address"
        }
      ],
      "name": "tokenQueryIds",
      "outputs": [
        {
          "internalType": "bytes32",
          "name": "",
          "type": "bytes32"
        }
      ],
      "stateMutability": "view",
      "type": "function"
    },
    {
      "inputs": [
        {
          "internalType": "address",
          "name": "newOwner",
          "type": "address"
        }
      ],
      "name": "transferOwnership",
      "outputs": [],
      "stateMutability": "nonpayable",
      "type": "function"
    },
    {
      "inputs": [
        {
          "internalType": "uint256",
          "name": "",
          "type": "uint256"
        }
      ],
      "name": "whitelistedCollateralTokens",
      "outputs": [
        {
          "internalType": "address",
          "name": "",
          "type": "address"
        }
      ],
      "stateMutability": "view",
      "type": "function"
    }
  ],
  "bytecode": "0x60806040526064600755606460085534801561001a57600080fd5b50338061004157604051631e4fbdf760e01b81526000600482015260240160405180910390fd5b61004a81610054565b50600180556100a4565b600080546001600160a01b038381166001600160a01b0319831681178455604051919092169283917f8be0079c531659141344cd1fd0a4f28419497f9722a3daafe3b4186f6b6457e09190a35050565b611a8e806100b36000396000f3fe608060405234801561001057600080fd5b506004361061018e5760003560e01c806376e11286116100de578063bd9c47e311610097578063f2d2a75111610071578063f2d2a75114610338578063f2fde38b1461034b578063f9839d891461035e578063fcff6a7e1461039157600080fd5b8063bd9c47e3146102f4578063e3889a3f1461031d578063ed6493af1461033057600080fd5b806376e11286146102ac57806377ab491d146102bf5780638da5cb5b146102c75780639d568da3146102d8578063a7e014f6146102e1578063b0f2b04b146101d957600080fd5b806333fc07501161014b5780635014c45c116101255780635014c45c1461027557806360192281146102885780636fb4bb4c1461029b578063715018a6146102a457600080fd5b806333fc07501461022e5780633e7565a7146102415780634850b2171461024a57600080fd5b8063094fcbfe146101935780630cca7bf5146101b95780631a070739146101d95780631c9b9f03146101f3578063253bcadc146102085780632ae6a2641461021b575b600080fd5b6101a66101a13660046116a5565b6103a4565b6040519081526020015b60405180910390f35b6101a66101c73660046116d1565b60066020526000908152604090205481565b6101e1600881565b60405160ff90911681526020016101b0565b6102066102013660046116d1565b6105ea565b005b6102066102163660046116f3565b610614565b61020661022936600461172f565b610834565b6101a661023c3660046116a5565b610a5b565b6101a660085481565b61025d610258366004611764565b610b43565b6040516001600160a01b0390911681526020016101b0565b60025461025d906001600160a01b031681565b6101a66102963660046116a5565b610b6d565b6101a660075481565b610206610e8e565b6102066102ba36600461177d565b610ea2565b6101a6610f39565b6000546001600160a01b031661025d565b6101a661271081565b6102066102ef3660046117a7565b610ffa565b61025d6103023660046116d1565b6005602052600090815260409020546001600160a01b031681565b61020661032b3660046117a7565b6110ca565b6101a6611151565b6102066103463660046117d1565b61121b565b6102066103593660046116d1565b61126a565b61038161036c3660046116d1565b60036020526000908152604090205460ff1681565b60405190151581526020016101b0565b61020661039f36600461172f565b6112a8565b6001600160a01b03808216600090815260056020526040812054909116806104135760405162461bcd60e51b815260206004820152601c60248201527f54726561737572793a2050726963652066656564206e6f74207365740000000060448201526064015b60405180910390fd5b6001600160a01b038316600090815260066020526040902054806104795760405162461bcd60e51b815260206004820152601a60248201527f54726561737572793a205175657279204944206e6f7420736574000000000000604482015260640161040a565b6040516331d98b3f60e01b8152600481018290526000906001600160a01b038416906331d98b3f90602401602060405180830381865afa1580156104c1573d6000803e3d6000fd5b505050506040513d601f19601f820116820180604052508101906104e591906117f3565b9050600081116105375760405162461bcd60e51b815260206004820152601e60248201527f54726561737572793a204f7261636c65207072696365206973207a65726f0000604482015260640161040a565b6000856001600160a01b031663313ce5676040518163ffffffff1660e01b8152600401602060405180830381865afa158015610577573d6000803e3d6000fd5b505050506040513d601f19601f8201168201806040525081019061059b919061180c565b90506105a881600a611929565b6105b460086012611938565b6105bf90600a611929565b6105c9848a611951565b6105d39190611951565b6105dd9190611968565b9450505050505b92915050565b6105f26114d3565b600280546001600160a01b0319166001600160a01b0392909216919091179055565b61061c6114d3565b6001600160a01b0382166000908152600360205260409020805460ff191682158015919091179091556106eb5760005b60045481101561069a57826001600160a01b0316600482815481106106735761067361198a565b6000918252602090912001546001600160a01b03160361069257505050565b60010161064c565b50600480546001810182556000919091527f8a35acfbc15ff81a39ae7d344fd709f28e8600b4aa8c65c6b64bfe7fe36bd19b0180546001600160a01b0319166001600160a01b0384161790556107eb565b60005b6004548110156107e957826001600160a01b0316600482815481106107155761071561198a565b6000918252602090912001546001600160a01b0316036107e1576004805461073f906001906119a0565b8154811061074f5761074f61198a565b600091825260209091200154600480546001600160a01b03909216918390811061077b5761077b61198a565b9060005260206000200160006101000a8154816001600160a01b0302191690836001600160a01b0316021790555060048054806107ba576107ba6119b3565b600082815260209020810160001990810180546001600160a01b03191690550190556107e9565b6001016106ee565b505b816001600160a01b03167f3cd44c9ffcc58ef85c0b1cb3e60f01382feb190f42795e92a10ceb2d757a938c82604051610828911515815260200190565b60405180910390a25050565b61083c611500565b6000831161088c5760405162461bcd60e51b815260206004820152601c60248201527f54726561737572793a20416d6f756e74206d757374206265203e203000000000604482015260640161040a565b6001600160a01b03821660009081526003602052604090205460ff166108c45760405162461bcd60e51b815260040161040a906119c9565b60006108d08484610a5b565b9050818110156108f25760405162461bcd60e51b815260040161040a90611a00565b6109076001600160a01b03841633308761152a565b6002546040516340c10f1960e01b8152336004820152602481018390526001600160a01b03909116906340c10f1990604401600060405180830381600087803b15801561095357600080fd5b505af1158015610967573d6000803e3d6000fd5b50505050826001600160a01b0316336001600160a01b03167f2e590d112dad4aaf19559922b6d9e0562a5dfb6ef2ac97c201e889743530405c86846109aa611151565b600260009054906101000a90046001600160a01b03166001600160a01b03166318160ddd6040518163ffffffff1660e01b8152600401602060405180830381865afa1580156109fd573d6000803e3d6000fd5b505050506040513d601f19601f82011682018060405250810190610a2191906117f3565b6040805194855260208501939093529183015260608201526001608082015260a0015b60405180910390a350610a5660018055565b505050565b600080610a6884846103a4565b90506000610a74611151565b90506000600260009054906101000a90046001600160a01b03166001600160a01b03166318160ddd6040518163ffffffff1660e01b8152600401602060405180830381865afa158015610acb573d6000803e3d6000fd5b505050506040513d601f19601f82011682018060405250810190610aef91906117f3565b9050811580610afc575080155b15610b0d57600093505050506105e4565b600082610b1a8386611951565b610b249190611968565b9050612710600854612710610b3991906119a0565b6105d39083611951565b60048181548110610b5357600080fd5b6000918252602090912001546001600160a01b0316905081565b600080610b78611151565b90506000600260009054906101000a90046001600160a01b03166001600160a01b03166318160ddd6040518163ffffffff1660e01b8152600401602060405180830381865afa158015610bcf573d6000803e3d6000fd5b505050506040513d601f19601f82011682018060405250810190610bf391906117f3565b905080600003610c08576000925050506105e4565b600081610c158488611951565b610c1f9190611968565b90506000612710600754612710610c3691906119a0565b610c409084611951565b610c4a9190611968565b6001600160a01b038088166000908152600560205260409020549192501680610cb55760405162461bcd60e51b815260206004820152601c60248201527f54726561737572793a2050726963652066656564206e6f742073657400000000604482015260640161040a565b6001600160a01b03871660009081526006602052604090205480610d1b5760405162461bcd60e51b815260206004820152601a60248201527f54726561737572793a205175657279204944206e6f7420736574000000000000604482015260640161040a565b6040516331d98b3f60e01b8152600481018290526000906001600160a01b038416906331d98b3f90602401602060405180830381865afa158015610d63573d6000803e3d6000fd5b505050506040513d601f19601f82011682018060405250810190610d8791906117f3565b905060008111610dd95760405162461bcd60e51b815260206004820152601e60248201527f54726561737572793a204f7261636c65207072696365206973207a65726f0000604482015260640161040a565b6000896001600160a01b031663313ce5676040518163ffffffff1660e01b8152600401602060405180830381865afa158015610e19573d6000803e3d6000fd5b505050506040513d601f19601f82011682018060405250810190610e3d919061180c565b9050610e4b60086012611938565b610e5690600a611929565b610e609083611951565b610e6b82600a611929565b610e759087611951565b610e7f9190611968565b9b9a5050505050505050505050565b610e966114d3565b610ea06000611597565b565b610eaa6114d3565b6001600160a01b03821660009081526003602052604090205460ff16610ee25760405162461bcd60e51b815260040161040a906119c9565b6001600160a01b0382811660008181526005602052604080822080546001600160a01b0319169486169485179055517fd2d8394cf7549a5ddbc2ba3dd7b2de8d53c891472d1f2907008ed6a10045fdae9190a35050565b600080610f44611151565b90506000600260009054906101000a90046001600160a01b03166001600160a01b03166318160ddd6040518163ffffffff1660e01b8152600401602060405180830381865afa158015610f9b573d6000803e3d6000fd5b505050506040513d601f19601f82011682018060405250810190610fbf91906117f3565b905080600003610fd25760009250505090565b80610fdf6008600a611929565b610fe99084611951565b610ff39190611968565b9250505090565b6002546001600160a01b038381169116148061102e57506001600160a01b03821660009081526003602052604090205460ff165b61107a5760405162461bcd60e51b815260206004820152601760248201527f54726561737572793a20496e76616c696420746f6b656e000000000000000000604482015260640161040a565b61108f6001600160a01b03831633308461152a565b816001600160a01b03167f549340764ea97c24d00be84b5402a70f793c845a1578490632afba2b65e5b1378260405161082891815260200190565b6110d26114d3565b6001600160a01b03821660009081526003602052604090205460ff1661110a5760405162461bcd60e51b815260040161040a906119c9565b6001600160a01b038216600081815260066020526040808220849055518392917f7be46b5a1a89af40bc828b3ef14146891d36d93b67f082389d5fd24f031d31fa91a35050565b600080805b600454811015611215576000600482815481106111755761117561198a565b60009182526020822001546040516370a0823160e01b81523060048201526001600160a01b03909116925082906370a0823190602401602060405180830381865afa1580156111c8573d6000803e3d6000fd5b505050506040513d601f19601f820116820180604052508101906111ec91906117f3565b9050801561120b576111fe81836103a4565b6112089085611a45565b93505b5050600101611156565b50919050565b6112236114d3565b6007829055600881905560408051838152602081018390527f959ec4191db1bd972bfbc60dc7d735d4cfb897ca3fd297f4ebd6ee918feb84d4910160405180910390a15050565b6112726114d3565b6001600160a01b03811661129c57604051631e4fbdf760e01b81526000600482015260240161040a565b6112a581611597565b50565b6112b0611500565b600083116113005760405162461bcd60e51b815260206004820152601c60248201527f54726561737572793a20416d6f756e74206d757374206265203e203000000000604482015260640161040a565b6001600160a01b03821660009081526003602052604090205460ff166113385760405162461bcd60e51b815260040161040a906119c9565b600254611350906001600160a01b031633308661152a565b600061135c8484610b6d565b90508181101561137e5760405162461bcd60e51b815260040161040a90611a00565b8015611398576113986001600160a01b03841633836115e7565b600254604051630852cd8d60e31b8152600481018690526001600160a01b03909116906342966c6890602401600060405180830381600087803b1580156113de57600080fd5b505af11580156113f2573d6000803e3d6000fd5b50505050826001600160a01b0316336001600160a01b03167f2e590d112dad4aaf19559922b6d9e0562a5dfb6ef2ac97c201e889743530405c8387611435611151565b600260009054906101000a90046001600160a01b03166001600160a01b03166318160ddd6040518163ffffffff1660e01b8152600401602060405180830381865afa158015611488573d6000803e3d6000fd5b505050506040513d601f19601f820116820180604052508101906114ac91906117f3565b6040805194855260208501939093529183015260608201526000608082015260a001610a44565b6000546001600160a01b03163314610ea05760405163118cdaa760e01b815233600482015260240161040a565b60026001540361152357604051633ee5aeb560e01b815260040160405180910390fd5b6002600155565b6040516001600160a01b0384811660248301528381166044830152606482018390526115919186918216906323b872dd906084015b604051602081830303815290604052915060e01b6020820180516001600160e01b038381831617835250505050611618565b50505050565b600080546001600160a01b038381166001600160a01b0319831681178455604051919092169283917f8be0079c531659141344cd1fd0a4f28419497f9722a3daafe3b4186f6b6457e09190a35050565b6040516001600160a01b03838116602483015260448201839052610a5691859182169063a9059cbb9060640161155f565b600080602060008451602086016000885af18061163b576040513d6000823e3d81fd5b50506000513d91508115611653578060011415611660565b6001600160a01b0384163b155b1561159157604051635274afe760e01b81526001600160a01b038516600482015260240161040a565b80356001600160a01b03811681146116a057600080fd5b919050565b600080604083850312156116b857600080fd5b823591506116c860208401611689565b90509250929050565b6000602082840312156116e357600080fd5b6116ec82611689565b9392505050565b6000806040838503121561170657600080fd5b61170f83611689565b91506020830135801515811461172457600080fd5b809150509250929050565b60008060006060848603121561174457600080fd5b8335925061175460208501611689565b9150604084013590509250925092565b60006020828403121561177657600080fd5b5035919050565b6000806040838503121561179057600080fd5b61179983611689565b91506116c860208401611689565b600080604083850312156117ba57600080fd5b6117c383611689565b946020939093013593505050565b600080604083850312156117e457600080fd5b50508035926020909101359150565b60006020828403121561180557600080fd5b5051919050565b60006020828403121561181e57600080fd5b815160ff811681146116ec57600080fd5b634e487b7160e01b600052601160045260246000fd5b600181815b808511156118805781600019048211156118665761186661182f565b8085161561187357918102915b93841c939080029061184a565b509250929050565b600082611897575060016105e4565b816118a4575060006105e4565b81600181146118ba57600281146118c4576118e0565b60019150506105e4565b60ff8411156118d5576118d561182f565b50506001821b6105e4565b5060208310610133831016604e8410600b8410161715611903575081810a6105e4565b61190d8383611845565b80600019048211156119215761192161182f565b029392505050565b60006116ec60ff841683611888565b60ff82811682821603908111156105e4576105e461182f565b80820281158282048414176105e4576105e461182f565b60008261198557634e487b7160e01b600052601260045260246000fd5b500490565b634e487b7160e01b600052603260045260246000fd5b818103818111156105e4576105e461182f565b634e487b7160e01b600052603160045260246000fd5b6020808252601f908201527f54726561737572793a20546f6b656e206e6f742077686974656c697374656400604082015260600190565b60208082526025908201527f54726561737572793a20536c69707061676520746f6c6572616e636520657863604082015264195959195960da1b606082015260800190565b808201808211156105e4576105e461182f56fea2646970667358221220f8cc6c2769bd35a62252064b289434762b8d59e8dd3a8db5399d4366a9cfca0c64736f6c63430008160033",
  "linkReferences": {},
  "deployedLinkReferences": {}
}