{
  "_format": "hh-sol-artifact-1",
  "contractName": "Treasury",
  "sourceName": "contracts/Treasury.sol",
  "abi": [
    {
      "inputs": [],
      "stateMutability": "nonpayable",
      "type": "constructor"
    },
    {
      "inputs": [
        {
          "internalType": "address",
          "name": "owner",
          "type": "address"
        }
      ],
      "name": "OwnableInvalidOwner",
      "type": "error"
    },
    {
      "inputs": [
        {
          "internalType": "address",
          "name": "account",
          "type": "address"
        }
      ],
      "name": "OwnableUnauthorizedAccount",
      "type": "error"
    },
    {
      "inputs": [],
      "name": "ReentrancyGuardReentrantCall",
      "type": "error"
    },
    {
      "anonymous": false,
      "inputs": [
        {
          "indexed": true,
          "internalType": "address",
          "name": "token",
          "type": "address"
        },
        {
          "indexed": false,
          "internalType": "bool",
          "name": "isWhitelisted",
          "type": "bool"
        }
      ],
      "name": "CollateralWhitelisted",
      "type": "event"
    },
    {
      "anonymous": false,
      "inputs": [
        {
          "indexed": true,
          "internalType": "address",
          "name": "token",
          "type": "address"
        },
        {
          "indexed": false,
          "internalType": "uint256",
          "name": "amount",
          "type": "uint256"
        }
      ],
      "name": "CommerceFeeReceived",
      "type": "event"
    },
    {
      "anonymous": false,
      "inputs": [
        {
          "indexed": true,
          "internalType": "address",
          "name": "buyer",
          "type": "address"
        },
        {
          "indexed": true,
          "internalType": "address",
          "name": "collateralToken",
          "type": "address"
        },
        {
          "indexed": false,
          "internalType": "uint256",
          "name": "collateralAmount",
          "type": "uint256"
        },
        {
          "indexed": false,
          "internalType": "uint256",
          "name": "lmktAmount",
          "type": "uint256"
        }
      ],
      "name": "MktPurchased",
      "type": "event"
    },
    {
      "anonymous": false,
      "inputs": [
        {
          "indexed": true,
          "internalType": "address",
          "name": "seller",
          "type": "address"
        },
        {
          "indexed": false,
          "internalType": "uint256",
          "name": "lmktAmount",
          "type": "uint256"
        },
        {
          "indexed": false,
          "internalType": "uint256",
          "name": "collateralAmount",
          "type": "uint256"
        },
        {
          "indexed": true,
          "internalType": "address",
          "name": "collateralToken",
          "type": "address"
        }
      ],
      "name": "MktSold",
      "type": "event"
    },
    {
      "anonymous": false,
      "inputs": [
        {
          "indexed": true,
          "internalType": "address",
          "name": "previousOwner",
          "type": "address"
        },
        {
          "indexed": true,
          "internalType": "address",
          "name": "newOwner",
          "type": "address"
        }
      ],
      "name": "OwnershipTransferred",
      "type": "event"
    },
    {
      "anonymous": false,
      "inputs": [
        {
          "indexed": true,
          "internalType": "address",
          "name": "token",
          "type": "address"
        },
        {
          "indexed": true,
          "internalType": "address",
          "name": "feed",
          "type": "address"
        }
      ],
      "name": "PriceFeedSet",
      "type": "event"
    },
    {
      "anonymous": false,
      "inputs": [
        {
          "indexed": true,
          "internalType": "address",
          "name": "token",
          "type": "address"
        },
        {
          "indexed": true,
          "internalType": "bytes32",
          "name": "queryId",
          "type": "bytes32"
        }
      ],
      "name": "TokenQueryIdSet",
      "type": "event"
    },
    {
      "inputs": [],
      "name": "BURN_RATE",
      "outputs": [
        {
          "internalType": "uint256",
          "name": "",
          "type": "uint256"
        }
      ],
      "stateMutability": "view",
      "type": "function"
    },
    {
      "inputs": [],
      "name": "BUY_DISCOUNT",
      "outputs": [
        {
          "internalType": "uint256",
          "name": "",
          "type": "uint256"
        }
      ],
      "stateMutability": "view",
      "type": "function"
    },
    {
      "inputs": [],
      "name": "HOLDING_CAP_BASE",
      "outputs": [
        {
          "internalType": "uint256",
          "name": "",
          "type": "uint256"
        }
      ],
      "stateMutability": "view",
      "type": "function"
    },
    {
      "inputs": [],
      "name": "HOLDING_CAP_PERCENT",
      "outputs": [
        {
          "internalType": "uint256",
          "name": "",
          "type": "uint256"
        }
      ],
      "stateMutability": "view",
      "type": "function"
    },
    {
      "inputs": [],
      "name": "ORACLE_PRICE_DECIMALS",
      "outputs": [
        {
          "internalType": "uint8",
          "name": "",
          "type": "uint8"
        }
      ],
      "stateMutability": "view",
      "type": "function"
    },
    {
      "inputs": [],
      "name": "SELL_PREMIUM",
      "outputs": [
        {
          "internalType": "uint256",
          "name": "",
          "type": "uint256"
        }
      ],
      "stateMutability": "view",
      "type": "function"
    },
    {
      "inputs": [],
      "name": "SPREAD_BASE",
      "outputs": [
        {
          "internalType": "uint256",
          "name": "",
          "type": "uint256"
        }
      ],
      "stateMutability": "view",
      "type": "function"
    },
    {
      "inputs": [
        {
          "internalType": "uint256",
          "name": "collateralAmount",
          "type": "uint256"
        },
        {
          "internalType": "address",
          "name": "collateralToken",
          "type": "address"
        }
      ],
      "name": "buyMkt",
      "outputs": [],
      "stateMutability": "nonpayable",
      "type": "function"
    },
    {
      "inputs": [
        {
          "internalType": "address",
          "name": "",
          "type": "address"
        },
        {
          "internalType": "uint256",
          "name": "",
          "type": "uint256"
        }
      ],
      "name": "buyPath",
      "outputs": [
        {
          "internalType": "address",
          "name": "",
          "type": "address"
        }
      ],
      "stateMutability": "view",
      "type": "function"
    },
    {
      "inputs": [
        {
          "internalType": "address",
          "name": "token",
          "type": "address"
        },
        {
          "internalType": "uint256",
          "name": "amount",
          "type": "uint256"
        }
      ],
      "name": "depositCommerceFee",
      "outputs": [],
      "stateMutability": "nonpayable",
      "type": "function"
    },
    {
      "inputs": [
        {
          "internalType": "uint256",
          "name": "lmktAmount",
          "type": "uint256"
        },
        {
          "internalType": "address",
          "name": "collateralToken",
          "type": "address"
        }
      ],
      "name": "getCollateralAmountForLmkt",
      "outputs": [
        {
          "internalType": "uint256",
          "name": "",
          "type": "uint256"
        }
      ],
      "stateMutability": "view",
      "type": "function"
    },
    {
      "inputs": [
        {
          "internalType": "uint256",
          "name": "amount",
          "type": "uint256"
        },
        {
          "internalType": "address",
          "name": "token",
          "type": "address"
        }
      ],
      "name": "getCollateralTokenValue",
      "outputs": [
        {
          "internalType": "uint256",
          "name": "",
          "type": "uint256"
        }
      ],
      "stateMutability": "view",
      "type": "function"
    },
    {
      "inputs": [
        {
          "internalType": "uint256",
          "name": "collateralAmount",
          "type": "uint256"
        },
        {
          "internalType": "address",
          "name": "collateralToken",
          "type": "address"
        }
      ],
      "name": "getLmktAmountForCollateral",
      "outputs": [
        {
          "internalType": "uint256",
          "name": "",
          "type": "uint256"
        }
      ],
      "stateMutability": "view",
      "type": "function"
    },
    {
      "inputs": [],
      "name": "getTotalCollateralValue",
      "outputs": [
        {
          "internalType": "uint256",
          "name": "",
          "type": "uint256"
        }
      ],
      "stateMutability": "view",
      "type": "function"
    },
    {
      "inputs": [
        {
          "internalType": "address",
          "name": "",
          "type": "address"
        }
      ],
      "name": "isWhitelistedCollateral",
      "outputs": [
        {
          "internalType": "bool",
          "name": "",
          "type": "bool"
        }
      ],
      "stateMutability": "view",
      "type": "function"
    },
    {
      "inputs": [],
      "name": "lmktToken",
      "outputs": [
        {
          "internalType": "contract ILMKT",
          "name": "",
          "type": "address"
        }
      ],
      "stateMutability": "view",
      "type": "function"
    },
    {
      "inputs": [],
      "name": "owner",
      "outputs": [
        {
          "internalType": "address",
          "name": "",
          "type": "address"
        }
      ],
      "stateMutability": "view",
      "type": "function"
    },
    {
      "inputs": [],
      "name": "priceFeed",
      "outputs": [
        {
          "internalType": "contract IPriceFeed",
          "name": "",
          "type": "address"
        }
      ],
      "stateMutability": "view",
      "type": "function"
    },
    {
      "inputs": [],
      "name": "renounceOwnership",
      "outputs": [],
      "stateMutability": "nonpayable",
      "type": "function"
    },
    {
      "inputs": [],
      "name": "router",
      "outputs": [
        {
          "internalType": "contract IUniV2Router",
          "name": "",
          "type": "address"
        }
      ],
      "stateMutability": "view",
      "type": "function"
    },
    {
      "inputs": [
        {
          "internalType": "uint256",
          "name": "lmktAmount",
          "type": "uint256"
        },
        {
          "internalType": "address",
          "name": "collateralToken",
          "type": "address"
        }
      ],
      "name": "sellMkt",
      "outputs": [],
      "stateMutability": "nonpayable",
      "type": "function"
    },
    {
      "inputs": [
        {
          "internalType": "address",
          "name": "",
          "type": "address"
        },
        {
          "internalType": "uint256",
          "name": "",
          "type": "uint256"
        }
      ],
      "name": "sellPath",
      "outputs": [
        {
          "internalType": "address",
          "name": "",
          "type": "address"
        }
      ],
      "stateMutability": "view",
      "type": "function"
    },
    {
      "inputs": [
        {
          "internalType": "address",
          "name": "_lmktTokenAddress",
          "type": "address"
        }
      ],
      "name": "setLmktAddress",
      "outputs": [],
      "stateMutability": "nonpayable",
      "type": "function"
    },
    {
      "inputs": [
        {
          "internalType": "address",
          "name": "collateral",
          "type": "address"
        },
        {
          "internalType": "address[]",
          "name": "_buyPath",
          "type": "address[]"
        },
        {
          "internalType": "address[]",
          "name": "_sellPath",
          "type": "address[]"
        }
      ],
      "name": "setPaths",
      "outputs": [],
      "stateMutability": "nonpayable",
      "type": "function"
    },
    {
      "inputs": [
        {
          "internalType": "address",
          "name": "_priceFeed",
          "type": "address"
        }
      ],
      "name": "setPriceFeed",
      "outputs": [],
      "stateMutability": "nonpayable",
      "type": "function"
    },
    {
      "inputs": [
        {
          "internalType": "address",
          "name": "_token",
          "type": "address"
        },
        {
          "internalType": "address",
          "name": "_feedAddress",
          "type": "address"
        }
      ],
      "name": "setPriceFeed",
      "outputs": [],
      "stateMutability": "nonpayable",
      "type": "function"
    },
    {
      "inputs": [
        {
          "internalType": "address",
          "name": "_router",
          "type": "address"
        }
      ],
      "name": "setRouter",
      "outputs": [],
      "stateMutability": "nonpayable",
      "type": "function"
    },
    {
      "inputs": [
        {
          "internalType": "address",
          "name": "_token",
          "type": "address"
        },
        {
          "internalType": "bytes32",
          "name": "_queryId",
          "type": "bytes32"
        }
      ],
      "name": "setTokenQueryId",
      "outputs": [],
      "stateMutability": "nonpayable",
      "type": "function"
    },
    {
      "inputs": [
        {
          "internalType": "address",
          "name": "token",
          "type": "address"
        },
        {
          "internalType": "bool",
          "name": "isWhitelisted",
          "type": "bool"
        }
      ],
      "name": "setWhitelistedCollateral",
      "outputs": [],
      "stateMutability": "nonpayable",
      "type": "function"
    },
    {
      "inputs": [
        {
          "internalType": "address",
          "name": "",
          "type": "address"
        }
      ],
      "name": "tokenPriceFeeds",
      "outputs": [
        {
          "internalType": "address",
          "name": "",
          "type": "address"
        }
      ],
      "stateMutability": "view",
      "type": "function"
    },
    {
      "inputs": [
        {
          "internalType": "address",
          "name": "",
          "type": "address"
        }
      ],
      "name": "tokenQueryIds",
      "outputs": [
        {
          "internalType": "bytes32",
          "name": "",
          "type": "bytes32"
        }
      ],
      "stateMutability": "view",
      "type": "function"
    },
    {
      "inputs": [
        {
          "internalType": "address",
          "name": "newOwner",
          "type": "address"
        }
      ],
      "name": "transferOwnership",
      "outputs": [],
      "stateMutability": "nonpayable",
      "type": "function"
    },
    {
      "inputs": [
        {
          "internalType": "uint256",
          "name": "",
          "type": "uint256"
        }
      ],
      "name": "whitelistedCollateralTokens",
      "outputs": [
        {
          "internalType": "address",
          "name": "",
          "type": "address"
        }
      ],
      "stateMutability": "view",
      "type": "function"
    },
    {
      "stateMutability": "payable",
      "type": "receive"
    }
  ],
  "bytecode": "0x608060405234801561001057600080fd5b50338061003757604051631e4fbdf760e01b81526000600482015260240160405180910390fd5b6100408161004a565b506001805561009a565b600080546001600160a01b038381166001600160a01b0319831681178455604051919092169283917f8be0079c531659141344cd1fd0a4f28419497f9722a3daafe3b4186f6b6457e09190a35050565b61258c80620000aa6000396000f3fe6080604052600436106101f25760003560e01c806374c5d7c21161010d578063cf56e5aa116100a0578063f2fde38b1161006f578063f2fde38b14610573578063f333634514610593578063f846a8851461055e578063f887ea40146105b3578063f9839d89146105d357600080fd5b8063cf56e5aa14610509578063e3889a3f14610529578063ed6493af14610549578063f2dc73971461055e57600080fd5b8063a7e014f6116100dc578063a7e014f614610473578063bd9c47e314610493578063c0d78655146104c9578063c5a58c00146104e957600080fd5b806374c5d7c2146103ff57806376e112861461041f5780638da5cb5b1461043f5780639d568da31461045d57600080fd5b80634850b217116101855780636fb4bb4c116101545780636fb4bb4c14610307578063715018a6146103aa578063724e78da146103bf578063741bef1a146103df57600080fd5b80634850b2171461031c5780635014c45c146103545780635886418f14610374578063601922811461038a57600080fd5b80631c9b9f03116101c15780631c9b9f03146102a7578063253bcadc146102c757806333fc0750146102e75780633e7565a71461030757600080fd5b8063094fcbfe146101fe5780630ac32045146102315780630cca7bf5146102535780631a0707391461028057600080fd5b366101f957005b600080fd5b34801561020a57600080fd5b5061021e610219366004611fef565b610613565b6040519081526020015b60405180910390f35b34801561023d57600080fd5b5061025161024c366004612067565b61086c565b005b34801561025f57600080fd5b5061021e61026e3660046120e8565b60086020526000908152604090205481565b34801561028c57600080fd5b50610295600881565b60405160ff9091168152602001610228565b3480156102b357600080fd5b506102516102c23660046120e8565b610c00565b3480156102d357600080fd5b506102516102e2366004612118565b610c2a565b3480156102f357600080fd5b5061021e610302366004611fef565b610e4b565b34801561031357600080fd5b5061021e606481565b34801561032857600080fd5b5061033c61033736600461214f565b610ff0565b6040516001600160a01b039091168152602001610228565b34801561036057600080fd5b5060025461033c906001600160a01b031681565b34801561038057600080fd5b5061021e6103e881565b34801561039657600080fd5b5061021e6103a5366004611fef565b61101a565b3480156103b657600080fd5b5061025161117c565b3480156103cb57600080fd5b506102516103da3660046120e8565b611190565b3480156103eb57600080fd5b5060045461033c906001600160a01b031681565b34801561040b57600080fd5b5061025161041a366004611fef565b611210565b34801561042b57600080fd5b5061025161043a366004612168565b611623565b34801561044b57600080fd5b506000546001600160a01b031661033c565b34801561046957600080fd5b5061021e61271081565b34801561047f57600080fd5b5061025161048e366004612192565b611710565b34801561049f57600080fd5b5061033c6104ae3660046120e8565b6007602052600090815260409020546001600160a01b031681565b3480156104d557600080fd5b506102516104e43660046120e8565b611859565b3480156104f557600080fd5b5061033c610504366004612192565b6118d0565b34801561051557600080fd5b50610251610524366004611fef565b611908565b34801561053557600080fd5b50610251610544366004612192565b611d09565b34801561055557600080fd5b5061021e611d90565b34801561056a57600080fd5b5061021e600581565b34801561057f57600080fd5b5061025161058e3660046120e8565b611e5a565b34801561059f57600080fd5b5061033c6105ae366004612192565b611e98565b3480156105bf57600080fd5b5060035461033c906001600160a01b031681565b3480156105df57600080fd5b506106036105ee3660046120e8565b60056020526000908152604090205460ff1681565b6040519015158152602001610228565b6001600160a01b03808216600090815260076020526040812054909116806106915760405162461bcd60e51b815260206004820152602660248201527f54726561737572793a2050726963652066656564206e6f742073657420666f72604482015265103a37b5b2b760d11b60648201526084015b60405180910390fd5b6001600160a01b038316600090815260086020526040902054806107035760405162461bcd60e51b8152602060048201526024808201527f54726561737572793a205175657279204944206e6f742073657420666f72207460448201526337b5b2b760e11b6064820152608401610688565b6040516331d98b3f60e01b81526004810182905282906000906001600160a01b038316906331d98b3f90602401602060405180830381865afa15801561074d573d6000803e3d6000fd5b505050506040513d601f19601f8201168201806040525081019061077191906121bc565b9050600081116107d95760405162461bcd60e51b815260206004820152602d60248201527f54726561737572793a204f7261636c65207072696365206973207a65726f206f60448201526c1c881b9bdd081d5c19185d1959609a1b6064820152608401610688565b6000866001600160a01b031663313ce5676040518163ffffffff1660e01b8152600401602060405180830381865afa158015610819573d6000803e3d6000fd5b505050506040513d601f19601f8201168201806040525081019061083d91906121d5565b905061084a81600a6122f2565b610854838a612301565b61085e9190612318565b955050505050505b92915050565b610874611eb4565b6001600160a01b03851660009081526005602052604090205460ff166108dc5760405162461bcd60e51b815260206004820152601960248201527f54726561737572793a206e6f742077686974656c6973746564000000000000006044820152606401610688565b600283108015906108ee575060028110155b6109335760405162461bcd60e51b81526020600482015260166024820152752a3932b0b9bab93c9d103130b2103830ba34103632b760511b6044820152606401610688565b846001600160a01b0316848460008181106109505761095061233a565b905060200201602081019061096591906120e8565b6001600160a01b0316146109d15760405162461bcd60e51b815260206004820152602d60248201527f54726561737572793a206275792070617468206d75737420737461727420776960448201526c1d1a0818dbdb1b185d195c985b609a1b6064820152608401610688565b6002546001600160a01b031684846109ea600182612350565b8181106109f9576109f961233a565b9050602002016020810190610a0e91906120e8565b6001600160a01b031614610a725760405162461bcd60e51b815260206004820152602560248201527f54726561737572793a206275792070617468206d75737420656e64207769746860448201526408131352d560da1b6064820152608401610688565b6002546001600160a01b03168282600081610a8f57610a8f61233a565b9050602002016020810190610aa491906120e8565b6001600160a01b031614610b0b5760405162461bcd60e51b815260206004820152602860248201527f54726561737572793a2073656c6c2070617468206d75737420737461727420776044820152671a5d1a08131352d560c21b6064820152608401610688565b6001600160a01b0385168282610b22600182612350565b818110610b3157610b3161233a565b9050602002016020810190610b4691906120e8565b6001600160a01b031614610bb15760405162461bcd60e51b815260206004820152602c60248201527f54726561737572793a2073656c6c2070617468206d75737420656e642077697460448201526b1a0818dbdb1b185d195c985b60a21b6064820152608401610688565b6001600160a01b0385166000908152600960205260409020610bd4908585611f5b565b506001600160a01b0385166000908152600a60205260409020610bf8908383611f5b565b505050505050565b610c08611eb4565b600280546001600160a01b0319166001600160a01b0392909216919091179055565b610c32611eb4565b6001600160a01b0382166000908152600560205260409020805460ff19168215801591909117909155610d015760005b600654811015610cb057826001600160a01b031660068281548110610c8957610c8961233a565b6000918252602090912001546001600160a01b031603610ca857505050565b600101610c62565b50600680546001810182556000919091527ff652222313e28459528d920b65115c16c04f3efc82aaedc97be59f3f377c0d3f0180546001600160a01b0319166001600160a01b038416179055610e01565b60005b600654811015610dff57826001600160a01b031660068281548110610d2b57610d2b61233a565b6000918252602090912001546001600160a01b031603610df75760068054610d5590600190612350565b81548110610d6557610d6561233a565b600091825260209091200154600680546001600160a01b039092169183908110610d9157610d9161233a565b9060005260206000200160006101000a8154816001600160a01b0302191690836001600160a01b031602179055506006805480610dd057610dd0612363565b600082815260209020810160001990810180546001600160a01b0319169055019055610dff565b600101610d04565b505b816001600160a01b03167f3cd44c9ffcc58ef85c0b1cb3e60f01382feb190f42795e92a10ceb2d757a938c82604051610e3e911515815260200190565b60405180910390a25b5050565b6001600160a01b038116600090815260096020908152604080832080548251818502810185019093528083528493830182828015610eb257602002820191906000526020600020905b81546001600160a01b03168152600190910190602001808311610e94575b505060035460405163d06ca61f60e01b81529495506000946001600160a01b03909116935063d06ca61f9250610eef9150889086906004016123be565b600060405180830381865afa158015610f0c573d6000803e3d6000fd5b505050506040513d6000823e601f3d908101601f19168201604052610f3491908101906123f5565b90506001815111610fa25760405162461bcd60e51b815260206004820152603260248201527f54726561737572793a20496e76616c6964207061746820666f72204c4d4b542060448201527130b6b7bab73a1031b0b631bab630ba34b7b760711b6064820152608401610688565b6002815111610fcb5780600181518110610fbe57610fbe61233a565b6020026020010151610fe7565b80600281518110610fde57610fde61233a565b60200260200101515b95945050505050565b6006818154811061100057600080fd5b6000918252602090912001546001600160a01b0316905081565b6001600160a01b0381166000908152600a602090815260408083208054825181850281018501909352808352849383018282801561108157602002820191906000526020600020905b81546001600160a01b03168152600190910190602001808311611063575b505060035460405163d06ca61f60e01b81529495506000946001600160a01b03909116935063d06ca61f92506110be9150889086906004016123be565b600060405180830381865afa1580156110db573d6000803e3d6000fd5b505050506040513d6000823e601f3d908101601f1916820160405261110391908101906123f5565b90506001815111610fa25760405162461bcd60e51b815260206004820152603860248201527f54726561737572793a20496e76616c6964207061746820666f7220636f6c6c6160448201527f746572616c20616d6f756e742063616c63756c6174696f6e00000000000000006064820152608401610688565b611184611eb4565b61118e6000611ee1565b565b611198611eb4565b6001600160a01b0381166111ee5760405162461bcd60e51b815260206004820152601760248201527f54726561737572793a20626164207072696365466565640000000000000000006044820152606401610688565b600480546001600160a01b0319166001600160a01b0392909216919091179055565b611218611f31565b6001600160a01b03811660009081526005602052604090205460ff166112505760405162461bcd60e51b8152600401610688906124b3565b6040516323b872dd60e01b8152336004820152306024820152604481018390526001600160a01b038216906323b872dd906064016020604051808303816000875af11580156112a3573d6000803e3d6000fd5b505050506040513d601f19601f820116820180604052508101906112c791906124ea565b5060035460405163095ea7b360e01b81526001600160a01b039182166004820152602481018490529082169063095ea7b3906044016020604051808303816000875af115801561131b573d6000803e3d6000fd5b505050506040513d601f19601f8201168201806040525081019061133f91906124ea565b506002546040516370a0823160e01b81523060048201526000916001600160a01b0316906370a0823190602401602060405180830381865afa158015611389573d6000803e3d6000fd5b505050506040513d601f19601f820116820180604052508101906113ad91906121bc565b6001600160a01b03831660009081526009602090815260408083208054825181850281018501909352808352949550929390929183018282801561141a57602002820191906000526020600020905b81546001600160a01b031681526001909101906020018083116113fc575b505050505090506002815110156114735760405162461bcd60e51b815260206004820152601a60248201527f54726561737572793a206275792070617468206e6f74207365740000000000006044820152606401610688565b600354604051635c11d79560e01b81526001600160a01b0390911690635c11d795906114ac908790600090869030904290600401612507565b600060405180830381600087803b1580156114c657600080fd5b505af11580156114da573d6000803e3d6000fd5b50506002546040516370a0823160e01b8152306004820152600093508592506001600160a01b03909116906370a0823190602401602060405180830381865afa15801561152b573d6000803e3d6000fd5b505050506040513d601f19601f8201168201806040525081019061154f91906121bc565b6115599190612350565b60025460405163a9059cbb60e01b8152336004820152602481018390529192506001600160a01b03169063a9059cbb906044016020604051808303816000875af11580156115ab573d6000803e3d6000fd5b505050506040513d601f19601f820116820180604052508101906115cf91906124ea565b5060408051868152602081018390526001600160a01b0386169133917f37b5f51a361bef39ebb0de443aabf27ced718a6240798866b4ffc6c1ed1344ba91015b60405180910390a3505050610e4760018055565b61162b611eb4565b6001600160a01b03821660009081526005602052604090205460ff166116635760405162461bcd60e51b8152600401610688906124b3565b6001600160a01b0381166116b95760405162461bcd60e51b815260206004820152601e60248201527f54726561737572793a20496e76616c69642066656564206164647265737300006044820152606401610688565b6001600160a01b0382811660008181526007602052604080822080546001600160a01b0319169486169485179055517fd2d8394cf7549a5ddbc2ba3dd7b2de8d53c891472d1f2907008ed6a10045fdae9190a35050565b6002546001600160a01b038381169116148061174457506001600160a01b03821660009081526005602052604090205460ff165b6117a65760405162461bcd60e51b815260206004820152602d60248201527f54726561737572793a2043616e206f6e6c79207265636569766520776869746560448201526c6c697374656420746f6b656e7360981b6064820152608401610688565b6040516323b872dd60e01b8152336004820152306024820152604481018290526001600160a01b038316906323b872dd906064016020604051808303816000875af11580156117f9573d6000803e3d6000fd5b505050506040513d601f19601f8201168201806040525081019061181d91906124ea565b50816001600160a01b03167f549340764ea97c24d00be84b5402a70f793c845a1578490632afba2b65e5b13782604051610e3e91815260200190565b611861611eb4565b6001600160a01b0381166118ae5760405162461bcd60e51b81526020600482015260146024820152732a3932b0b9bab93c9d103130b2103937baba32b960611b6044820152606401610688565b600380546001600160a01b0319166001600160a01b0392909216919091179055565b600a60205281600052604060002081815481106118ec57600080fd5b6000918252602090912001546001600160a01b03169150829050565b611910611f31565b6001600160a01b03811660009081526005602052604090205460ff166119485760405162461bcd60e51b8152600401610688906124b3565b6002546040516323b872dd60e01b8152336004820152306024820152604481018490526001600160a01b03909116906323b872dd906064016020604051808303816000875af115801561199f573d6000803e3d6000fd5b505050506040513d601f19601f820116820180604052508101906119c391906124ea565b5060025460035460405163095ea7b360e01b81526001600160a01b0391821660048201526024810185905291169063095ea7b3906044016020604051808303816000875af1158015611a19573d6000803e3d6000fd5b505050506040513d601f19601f82011682018060405250810190611a3d91906124ea565b506040516370a0823160e01b81523060048201526000906001600160a01b038316906370a0823190602401602060405180830381865afa158015611a85573d6000803e3d6000fd5b505050506040513d601f19601f82011682018060405250810190611aa991906121bc565b6001600160a01b0383166000908152600a6020908152604080832080548251818502810185019093528083529495509293909291830182828015611b1657602002820191906000526020600020905b81546001600160a01b03168152600190910190602001808311611af8575b50505050509050600281511015611b6f5760405162461bcd60e51b815260206004820152601b60248201527f54726561737572793a2073656c6c2070617468206e6f742073657400000000006044820152606401610688565b600354604051635c11d79560e01b81526001600160a01b0390911690635c11d79590611ba8908790600090869030904290600401612507565b600060405180830381600087803b158015611bc257600080fd5b505af1158015611bd6573d6000803e3d6000fd5b50506040516370a0823160e01b8152306004820152600092508491506001600160a01b038616906370a0823190602401602060405180830381865afa158015611c23573d6000803e3d6000fd5b505050506040513d601f19601f82011682018060405250810190611c4791906121bc565b611c519190612350565b60405163a9059cbb60e01b8152336004820152602481018290529091506001600160a01b0385169063a9059cbb906044016020604051808303816000875af1158015611ca1573d6000803e3d6000fd5b505050506040513d601f19601f82011682018060405250810190611cc591906124ea565b5060408051868152602081018390526001600160a01b0386169133917fffb30956da63e1ed1617182a525ae26848d4ab884c0cad04828ca872f6da3838910161160f565b611d11611eb4565b6001600160a01b03821660009081526005602052604090205460ff16611d495760405162461bcd60e51b8152600401610688906124b3565b6001600160a01b038216600081815260086020526040808220849055518392917f7be46b5a1a89af40bc828b3ef14146891d36d93b67f082389d5fd24f031d31fa91a35050565b600080805b600654811015611e5457600060068281548110611db457611db461233a565b60009182526020822001546040516370a0823160e01b81523060048201526001600160a01b03909116925082906370a0823190602401602060405180830381865afa158015611e07573d6000803e3d6000fd5b505050506040513d601f19601f82011682018060405250810190611e2b91906121bc565b90508015611e4a57611e3d8183610613565b611e479085612543565b93505b5050600101611d95565b50919050565b611e62611eb4565b6001600160a01b038116611e8c57604051631e4fbdf760e01b815260006004820152602401610688565b611e9581611ee1565b50565b600960205281600052604060002081815481106118ec57600080fd5b6000546001600160a01b0316331461118e5760405163118cdaa760e01b8152336004820152602401610688565b600080546001600160a01b038381166001600160a01b0319831681178455604051919092169283917f8be0079c531659141344cd1fd0a4f28419497f9722a3daafe3b4186f6b6457e09190a35050565b600260015403611f5457604051633ee5aeb560e01b815260040160405180910390fd5b6002600155565b828054828255906000526020600020908101928215611fae579160200282015b82811115611fae5781546001600160a01b0319166001600160a01b03843516178255602090920191600190910190611f7b565b50611fba929150611fbe565b5090565b5b80821115611fba5760008155600101611fbf565b80356001600160a01b0381168114611fea57600080fd5b919050565b6000806040838503121561200257600080fd5b8235915061201260208401611fd3565b90509250929050565b60008083601f84011261202d57600080fd5b50813567ffffffffffffffff81111561204557600080fd5b6020830191508360208260051b850101111561206057600080fd5b9250929050565b60008060008060006060868803121561207f57600080fd5b61208886611fd3565b9450602086013567ffffffffffffffff808211156120a557600080fd5b6120b189838a0161201b565b909650945060408801359150808211156120ca57600080fd5b506120d78882890161201b565b969995985093965092949392505050565b6000602082840312156120fa57600080fd5b61210382611fd3565b9392505050565b8015158114611e9557600080fd5b6000806040838503121561212b57600080fd5b61213483611fd3565b915060208301356121448161210a565b809150509250929050565b60006020828403121561216157600080fd5b5035919050565b6000806040838503121561217b57600080fd5b61218483611fd3565b915061201260208401611fd3565b600080604083850312156121a557600080fd5b6121ae83611fd3565b946020939093013593505050565b6000602082840312156121ce57600080fd5b5051919050565b6000602082840312156121e757600080fd5b815160ff8116811461210357600080fd5b634e487b7160e01b600052601160045260246000fd5b600181815b8085111561224957816000190482111561222f5761222f6121f8565b8085161561223c57918102915b93841c9390800290612213565b509250929050565b60008261226057506001610866565b8161226d57506000610866565b8160018114612283576002811461228d576122a9565b6001915050610866565b60ff84111561229e5761229e6121f8565b50506001821b610866565b5060208310610133831016604e8410600b84101617156122cc575081810a610866565b6122d6838361220e565b80600019048211156122ea576122ea6121f8565b029392505050565b600061210360ff841683612251565b8082028115828204841417610866576108666121f8565b60008261233557634e487b7160e01b600052601260045260246000fd5b500490565b634e487b7160e01b600052603260045260246000fd5b81810381811115610866576108666121f8565b634e487b7160e01b600052603160045260246000fd5b60008151808452602080850194506020840160005b838110156123b35781516001600160a01b03168752958201959082019060010161238e565b509495945050505050565b8281526040602082015260006123d76040830184612379565b949350505050565b634e487b7160e01b600052604160045260246000fd5b6000602080838503121561240857600080fd5b825167ffffffffffffffff8082111561242057600080fd5b818501915085601f83011261243457600080fd5b815181811115612446576124466123df565b8060051b604051601f19603f8301168101818110858211171561246b5761246b6123df565b60405291825284820192508381018501918883111561248957600080fd5b938501935b828510156124a75784518452938501939285019261248e565b98975050505050505050565b6020808252601f908201527f54726561737572793a20546f6b656e206e6f742077686974656c697374656400604082015260600190565b6000602082840312156124fc57600080fd5b81516121038161210a565b85815284602082015260a06040820152600061252660a0830186612379565b6001600160a01b0394909416606083015250608001529392505050565b80820180821115610866576108666121f856fea2646970667358221220cf6e7f05583a4c7726563da4130e2b53d673ba6d5808be5242bb483c988b009164736f6c63430008160033",
  "linkReferences": {},
  "deployedLinkReferences": {}
}