{
  "_format": "hh-sol-artifact-1",
  "contractName": "Treasury",
  "sourceName": "contracts/Treasury.sol",
  "abi": [
    {
      "inputs": [],
      "stateMutability": "nonpayable",
      "type": "constructor"
    },
    {
      "inputs": [
        {
          "internalType": "address",
          "name": "owner",
          "type": "address"
        }
      ],
      "name": "OwnableInvalidOwner",
      "type": "error"
    },
    {
      "inputs": [
        {
          "internalType": "address",
          "name": "account",
          "type": "address"
        }
      ],
      "name": "OwnableUnauthorizedAccount",
      "type": "error"
    },
    {
      "inputs": [],
      "name": "ReentrancyGuardReentrantCall",
      "type": "error"
    },
    {
      "anonymous": false,
      "inputs": [
        {
          "indexed": true,
          "internalType": "address",
          "name": "token",
          "type": "address"
        },
        {
          "indexed": false,
          "internalType": "bool",
          "name": "isWhitelisted",
          "type": "bool"
        }
      ],
      "name": "CollateralWhitelisted",
      "type": "event"
    },
    {
      "anonymous": false,
      "inputs": [
        {
          "indexed": true,
          "internalType": "address",
          "name": "token",
          "type": "address"
        },
        {
          "indexed": false,
          "internalType": "uint256",
          "name": "amount",
          "type": "uint256"
        }
      ],
      "name": "CommerceFeeReceived",
      "type": "event"
    },
    {
      "anonymous": false,
      "inputs": [
        {
          "indexed": true,
          "internalType": "address",
          "name": "buyer",
          "type": "address"
        },
        {
          "indexed": true,
          "internalType": "address",
          "name": "collateralToken",
          "type": "address"
        },
        {
          "indexed": false,
          "internalType": "uint256",
          "name": "collateralAmount",
          "type": "uint256"
        },
        {
          "indexed": false,
          "internalType": "uint256",
          "name": "lmktAmount",
          "type": "uint256"
        }
      ],
      "name": "MktPurchased",
      "type": "event"
    },
    {
      "anonymous": false,
      "inputs": [
        {
          "indexed": true,
          "internalType": "address",
          "name": "seller",
          "type": "address"
        },
        {
          "indexed": false,
          "internalType": "uint256",
          "name": "lmktAmount",
          "type": "uint256"
        },
        {
          "indexed": false,
          "internalType": "uint256",
          "name": "collateralAmount",
          "type": "uint256"
        },
        {
          "indexed": true,
          "internalType": "address",
          "name": "collateralToken",
          "type": "address"
        }
      ],
      "name": "MktSold",
      "type": "event"
    },
    {
      "anonymous": false,
      "inputs": [
        {
          "indexed": true,
          "internalType": "address",
          "name": "previousOwner",
          "type": "address"
        },
        {
          "indexed": true,
          "internalType": "address",
          "name": "newOwner",
          "type": "address"
        }
      ],
      "name": "OwnershipTransferred",
      "type": "event"
    },
    {
      "anonymous": false,
      "inputs": [
        {
          "indexed": true,
          "internalType": "address",
          "name": "token",
          "type": "address"
        },
        {
          "indexed": true,
          "internalType": "address",
          "name": "feed",
          "type": "address"
        }
      ],
      "name": "PriceFeedSet",
      "type": "event"
    },
    {
      "anonymous": false,
      "inputs": [
        {
          "indexed": true,
          "internalType": "address",
          "name": "token",
          "type": "address"
        },
        {
          "indexed": true,
          "internalType": "bytes32",
          "name": "queryId",
          "type": "bytes32"
        }
      ],
      "name": "TokenQueryIdSet",
      "type": "event"
    },
    {
      "inputs": [],
      "name": "BURN_RATE",
      "outputs": [
        {
          "internalType": "uint256",
          "name": "",
          "type": "uint256"
        }
      ],
      "stateMutability": "view",
      "type": "function"
    },
    {
      "inputs": [],
      "name": "BUY_DISCOUNT",
      "outputs": [
        {
          "internalType": "uint256",
          "name": "",
          "type": "uint256"
        }
      ],
      "stateMutability": "view",
      "type": "function"
    },
    {
      "inputs": [],
      "name": "HOLDING_CAP_BASE",
      "outputs": [
        {
          "internalType": "uint256",
          "name": "",
          "type": "uint256"
        }
      ],
      "stateMutability": "view",
      "type": "function"
    },
    {
      "inputs": [],
      "name": "HOLDING_CAP_PERCENT",
      "outputs": [
        {
          "internalType": "uint256",
          "name": "",
          "type": "uint256"
        }
      ],
      "stateMutability": "view",
      "type": "function"
    },
    {
      "inputs": [],
      "name": "ORACLE_PRICE_DECIMALS",
      "outputs": [
        {
          "internalType": "uint8",
          "name": "",
          "type": "uint8"
        }
      ],
      "stateMutability": "view",
      "type": "function"
    },
    {
      "inputs": [],
      "name": "SELL_PREMIUM",
      "outputs": [
        {
          "internalType": "uint256",
          "name": "",
          "type": "uint256"
        }
      ],
      "stateMutability": "view",
      "type": "function"
    },
    {
      "inputs": [],
      "name": "SPREAD_BASE",
      "outputs": [
        {
          "internalType": "uint256",
          "name": "",
          "type": "uint256"
        }
      ],
      "stateMutability": "view",
      "type": "function"
    },
    {
      "inputs": [
        {
          "internalType": "uint256",
          "name": "collateralAmount",
          "type": "uint256"
        },
        {
          "internalType": "address",
          "name": "collateralToken",
          "type": "address"
        }
      ],
      "name": "buyMkt",
      "outputs": [],
      "stateMutability": "nonpayable",
      "type": "function"
    },
    {
      "inputs": [
        {
          "internalType": "address",
          "name": "token",
          "type": "address"
        },
        {
          "internalType": "uint256",
          "name": "amount",
          "type": "uint256"
        }
      ],
      "name": "depositCommerceFee",
      "outputs": [],
      "stateMutability": "nonpayable",
      "type": "function"
    },
    {
      "inputs": [
        {
          "internalType": "uint256",
          "name": "lmktAmount",
          "type": "uint256"
        },
        {
          "internalType": "address",
          "name": "collateralToken",
          "type": "address"
        }
      ],
      "name": "getCollateralAmountForLmkt",
      "outputs": [
        {
          "internalType": "uint256",
          "name": "",
          "type": "uint256"
        }
      ],
      "stateMutability": "view",
      "type": "function"
    },
    {
      "inputs": [
        {
          "internalType": "uint256",
          "name": "amount",
          "type": "uint256"
        },
        {
          "internalType": "address",
          "name": "token",
          "type": "address"
        }
      ],
      "name": "getCollateralTokenValue",
      "outputs": [
        {
          "internalType": "uint256",
          "name": "",
          "type": "uint256"
        }
      ],
      "stateMutability": "view",
      "type": "function"
    },
    {
      "inputs": [
        {
          "internalType": "uint256",
          "name": "collateralAmount",
          "type": "uint256"
        },
        {
          "internalType": "address",
          "name": "collateralToken",
          "type": "address"
        }
      ],
      "name": "getLmktAmountForCollateral",
      "outputs": [
        {
          "internalType": "uint256",
          "name": "",
          "type": "uint256"
        }
      ],
      "stateMutability": "view",
      "type": "function"
    },
    {
      "inputs": [],
      "name": "getTotalCollateralValue",
      "outputs": [
        {
          "internalType": "uint256",
          "name": "",
          "type": "uint256"
        }
      ],
      "stateMutability": "view",
      "type": "function"
    },
    {
      "inputs": [
        {
          "internalType": "address",
          "name": "",
          "type": "address"
        }
      ],
      "name": "isWhitelistedCollateral",
      "outputs": [
        {
          "internalType": "bool",
          "name": "",
          "type": "bool"
        }
      ],
      "stateMutability": "view",
      "type": "function"
    },
    {
      "inputs": [],
      "name": "lmktToken",
      "outputs": [
        {
          "internalType": "contract ILMKT",
          "name": "",
          "type": "address"
        }
      ],
      "stateMutability": "view",
      "type": "function"
    },
    {
      "inputs": [],
      "name": "owner",
      "outputs": [
        {
          "internalType": "address",
          "name": "",
          "type": "address"
        }
      ],
      "stateMutability": "view",
      "type": "function"
    },
    {
      "inputs": [],
      "name": "renounceOwnership",
      "outputs": [],
      "stateMutability": "nonpayable",
      "type": "function"
    },
    {
      "inputs": [
        {
          "internalType": "uint256",
          "name": "lmktAmount",
          "type": "uint256"
        },
        {
          "internalType": "address",
          "name": "collateralToken",
          "type": "address"
        }
      ],
      "name": "sellMkt",
      "outputs": [],
      "stateMutability": "nonpayable",
      "type": "function"
    },
    {
      "inputs": [
        {
          "internalType": "address",
          "name": "_lmktTokenAddress",
          "type": "address"
        }
      ],
      "name": "setLmktAddress",
      "outputs": [],
      "stateMutability": "nonpayable",
      "type": "function"
    },
    {
      "inputs": [
        {
          "internalType": "address",
          "name": "_token",
          "type": "address"
        },
        {
          "internalType": "address",
          "name": "_feedAddress",
          "type": "address"
        }
      ],
      "name": "setPriceFeed",
      "outputs": [],
      "stateMutability": "nonpayable",
      "type": "function"
    },
    {
      "inputs": [
        {
          "internalType": "address",
          "name": "_token",
          "type": "address"
        },
        {
          "internalType": "bytes32",
          "name": "_queryId",
          "type": "bytes32"
        }
      ],
      "name": "setTokenQueryId",
      "outputs": [],
      "stateMutability": "nonpayable",
      "type": "function"
    },
    {
      "inputs": [
        {
          "internalType": "address",
          "name": "token",
          "type": "address"
        },
        {
          "internalType": "bool",
          "name": "isWhitelisted",
          "type": "bool"
        }
      ],
      "name": "setWhitelistedCollateral",
      "outputs": [],
      "stateMutability": "nonpayable",
      "type": "function"
    },
    {
      "inputs": [
        {
          "internalType": "address",
          "name": "",
          "type": "address"
        }
      ],
      "name": "tokenPriceFeeds",
      "outputs": [
        {
          "internalType": "address",
          "name": "",
          "type": "address"
        }
      ],
      "stateMutability": "view",
      "type": "function"
    },
    {
      "inputs": [
        {
          "internalType": "address",
          "name": "",
          "type": "address"
        }
      ],
      "name": "tokenQueryIds",
      "outputs": [
        {
          "internalType": "bytes32",
          "name": "",
          "type": "bytes32"
        }
      ],
      "stateMutability": "view",
      "type": "function"
    },
    {
      "inputs": [
        {
          "internalType": "address",
          "name": "newOwner",
          "type": "address"
        }
      ],
      "name": "transferOwnership",
      "outputs": [],
      "stateMutability": "nonpayable",
      "type": "function"
    },
    {
      "inputs": [
        {
          "internalType": "uint256",
          "name": "",
          "type": "uint256"
        }
      ],
      "name": "whitelistedCollateralTokens",
      "outputs": [
        {
          "internalType": "address",
          "name": "",
          "type": "address"
        }
      ],
      "stateMutability": "view",
      "type": "function"
    },
    {
      "stateMutability": "payable",
      "type": "receive"
    }
  ],
  "bytecode": "0x608060405234801561001057600080fd5b50338061003757604051631e4fbdf760e01b81526000600482015260240160405180910390fd5b6100408161004a565b506001805561009a565b600080546001600160a01b038381166001600160a01b0319831681178455604051919092169283917f8be0079c531659141344cd1fd0a4f28419497f9722a3daafe3b4186f6b6457e09190a35050565b6119f4806100a96000396000f3fe6080604052600436106101855760003560e01c806374c5d7c2116100d1578063cf56e5aa1161008a578063f2dc739711610064578063f2dc739714610451578063f2fde38b14610466578063f846a88514610451578063f9839d891461048657600080fd5b8063cf56e5aa146103fc578063e3889a3f1461041c578063ed6493af1461043c57600080fd5b806374c5d7c21461033257806376e11286146103525780638da5cb5b146103725780639d568da314610390578063a7e014f6146103a6578063bd9c47e3146103c657600080fd5b80633e7565a71161013e5780635886418f116101185780635886418f146102e757806360192281146102fd5780636fb4bb4c1461027a578063715018a61461031d57600080fd5b80633e7565a71461027a5780634850b2171461028f5780635014c45c146102c757600080fd5b8063094fcbfe146101915780630cca7bf5146101c45780631a070739146101f15780631c9b9f0314610218578063253bcadc1461023a57806333fc07501461025a57600080fd5b3661018c57005b600080fd5b34801561019d57600080fd5b506101b16101ac36600461168e565b6104c6565b6040519081526020015b60405180910390f35b3480156101d057600080fd5b506101b16101df3660046116ba565b60066020526000908152604090205481565b3480156101fd57600080fd5b50610206600881565b60405160ff90911681526020016101bb565b34801561022457600080fd5b506102386102333660046116ba565b61071f565b005b34801561024657600080fd5b506102386102553660046116ea565b610749565b34801561026657600080fd5b506101b161027536600461168e565b61096a565b34801561028657600080fd5b506101b1606481565b34801561029b57600080fd5b506102af6102aa366004611721565b610a51565b6040516001600160a01b0390911681526020016101bb565b3480156102d357600080fd5b506002546102af906001600160a01b031681565b3480156102f357600080fd5b506101b16103e881565b34801561030957600080fd5b506101b161031836600461168e565b610a7b565b34801561032957600080fd5b50610238610c10565b34801561033e57600080fd5b5061023861034d36600461168e565b610c24565b34801561035e57600080fd5b5061023861036d36600461173a565b610f1b565b34801561037e57600080fd5b506000546001600160a01b03166102af565b34801561039c57600080fd5b506101b161271081565b3480156103b257600080fd5b506102386103c1366004611764565b611008565b3480156103d257600080fd5b506102af6103e13660046116ba565b6005602052600090815260409020546001600160a01b031681565b34801561040857600080fd5b5061023861041736600461168e565b611151565b34801561042857600080fd5b50610238610437366004611764565b61143c565b34801561044857600080fd5b506101b16114c3565b34801561045d57600080fd5b506101b1600581565b34801561047257600080fd5b506102386104813660046116ba565b61158d565b34801561049257600080fd5b506104b66104a13660046116ba565b60036020526000908152604090205460ff1681565b60405190151581526020016101bb565b6001600160a01b03808216600090815260056020526040812054909116806105445760405162461bcd60e51b815260206004820152602660248201527f54726561737572793a2050726963652066656564206e6f742073657420666f72604482015265103a37b5b2b760d11b60648201526084015b60405180910390fd5b6001600160a01b038316600090815260066020526040902054806105b65760405162461bcd60e51b8152602060048201526024808201527f54726561737572793a205175657279204944206e6f742073657420666f72207460448201526337b5b2b760e11b606482015260840161053b565b6040516331d98b3f60e01b81526004810182905282906000906001600160a01b038316906331d98b3f90602401602060405180830381865afa158015610600573d6000803e3d6000fd5b505050506040513d601f19601f82011682018060405250810190610624919061178e565b90506000811161068c5760405162461bcd60e51b815260206004820152602d60248201527f54726561737572793a204f7261636c65207072696365206973207a65726f206f60448201526c1c881b9bdd081d5c19185d1959609a1b606482015260840161053b565b6000866001600160a01b031663313ce5676040518163ffffffff1660e01b8152600401602060405180830381865afa1580156106cc573d6000803e3d6000fd5b505050506040513d601f19601f820116820180604052508101906106f091906117a7565b90506106fd81600a6118c4565b610707838a6118d3565b61071191906118ea565b955050505050505b92915050565b6107276115cb565b600280546001600160a01b0319166001600160a01b0392909216919091179055565b6107516115cb565b6001600160a01b0382166000908152600360205260409020805460ff191682158015919091179091556108205760005b6004548110156107cf57826001600160a01b0316600482815481106107a8576107a861190c565b6000918252602090912001546001600160a01b0316036107c757505050565b600101610781565b50600480546001810182556000919091527f8a35acfbc15ff81a39ae7d344fd709f28e8600b4aa8c65c6b64bfe7fe36bd19b0180546001600160a01b0319166001600160a01b038416179055610920565b60005b60045481101561091e57826001600160a01b03166004828154811061084a5761084a61190c565b6000918252602090912001546001600160a01b031603610916576004805461087490600190611922565b815481106108845761088461190c565b600091825260209091200154600480546001600160a01b0390921691839081106108b0576108b061190c565b9060005260206000200160006101000a8154816001600160a01b0302191690836001600160a01b0316021790555060048054806108ef576108ef611935565b600082815260209020810160001990810180546001600160a01b031916905501905561091e565b600101610823565b505b816001600160a01b03167f3cd44c9ffcc58ef85c0b1cb3e60f01382feb190f42795e92a10ceb2d757a938c8260405161095d911515815260200190565b60405180910390a25b5050565b60008061097784846104c6565b905060006109836114c3565b6002546040516370a0823160e01b81523060048201529192506000916001600160a01b03909116906370a0823190602401602060405180830381865afa1580156109d1573d6000803e3d6000fd5b505050506040513d601f19601f820116820180604052508101906109f5919061178e565b905081600003610a0b5760009350505050610719565b600082610a1883866118d3565b610a2291906118ea565b9050612710610a32606482611922565b610a3c90836118d3565b610a4691906118ea565b979650505050505050565b60048181548110610a6157600080fd5b6000918252602090912001546001600160a01b0316905081565b600080610a866114c3565b6002546040516370a0823160e01b81523060048201529192506000916001600160a01b03909116906370a0823190602401602060405180830381865afa158015610ad4573d6000803e3d6000fd5b505050506040513d601f19601f82011682018060405250810190610af8919061178e565b905080600003610b0d57600092505050610719565b600081610b1a84886118d3565b610b2491906118ea565b90506000612710610b36606482611922565b610b4090846118d3565b610b4a91906118ea565b90506000866001600160a01b031663313ce5676040518163ffffffff1660e01b8152600401602060405180830381865afa158015610b8c573d6000803e3d6000fd5b505050506040513d601f19601f82011682018060405250810190610bb091906117a7565b9050600860ff82161115610bed57610bcc600860ff8316611922565b610bd790600a61194b565b610be190836118d3565b95505050505050610719565b610bfb60ff82166008611922565b610c0690600a61194b565b610be190836118ea565b610c186115cb565b610c2260006115f8565b565b610c2c611648565b6001600160a01b03811660009081526003602052604090205460ff16610c645760405162461bcd60e51b815260040161053b90611957565b6000610c70838361096a565b905060006103e86005600260009054906101000a90046001600160a01b03166001600160a01b03166318160ddd6040518163ffffffff1660e01b8152600401602060405180830381865afa158015610ccc573d6000803e3d6000fd5b505050506040513d601f19601f82011682018060405250810190610cf0919061178e565b610cfa91906118d3565b610d0491906118ea565b6002546040516370a0823160e01b8152336004820152919250829184916001600160a01b0316906370a0823190602401602060405180830381865afa158015610d51573d6000803e3d6000fd5b505050506040513d601f19601f82011682018060405250810190610d75919061178e565b610d7f919061198e565b1115610ddc5760405162461bcd60e51b815260206004820152602660248201527f54726561737572793a205075726368617365206578636565647320686f6c646960448201526506e67206361760d41b606482015260840161053b565b6040516323b872dd60e01b8152336004820152306024820152604481018590526001600160a01b038416906323b872dd906064016020604051808303816000875af1158015610e2f573d6000803e3d6000fd5b505050506040513d601f19601f82011682018060405250810190610e5391906119a1565b5060025460405163a9059cbb60e01b8152336004820152602481018490526001600160a01b039091169063a9059cbb906044016020604051808303816000875af1158015610ea5573d6000803e3d6000fd5b505050506040513d601f19601f82011682018060405250810190610ec991906119a1565b5060408051858152602081018490526001600160a01b0385169133917f37b5f51a361bef39ebb0de443aabf27ced718a6240798866b4ffc6c1ed1344ba910160405180910390a3505061096660018055565b610f236115cb565b6001600160a01b03821660009081526003602052604090205460ff16610f5b5760405162461bcd60e51b815260040161053b90611957565b6001600160a01b038116610fb15760405162461bcd60e51b815260206004820152601e60248201527f54726561737572793a20496e76616c6964206665656420616464726573730000604482015260640161053b565b6001600160a01b0382811660008181526005602052604080822080546001600160a01b0319169486169485179055517fd2d8394cf7549a5ddbc2ba3dd7b2de8d53c891472d1f2907008ed6a10045fdae9190a35050565b6002546001600160a01b038381169116148061103c57506001600160a01b03821660009081526003602052604090205460ff165b61109e5760405162461bcd60e51b815260206004820152602d60248201527f54726561737572793a2043616e206f6e6c79207265636569766520776869746560448201526c6c697374656420746f6b656e7360981b606482015260840161053b565b6040516323b872dd60e01b8152336004820152306024820152604481018290526001600160a01b038316906323b872dd906064016020604051808303816000875af11580156110f1573d6000803e3d6000fd5b505050506040513d601f19601f8201168201806040525081019061111591906119a1565b50816001600160a01b03167f549340764ea97c24d00be84b5402a70f793c845a1578490632afba2b65e5b1378260405161095d91815260200190565b611159611648565b6001600160a01b03811660009081526003602052604090205460ff166111915760405162461bcd60e51b815260040161053b90611957565b60006127106111a16005856118d3565b6111ab91906118ea565b905060006111b98285611922565b905060006111c78285610a7b565b6040516370a0823160e01b815230600482015290915081906001600160a01b038616906370a0823190602401602060405180830381865afa158015611210573d6000803e3d6000fd5b505050506040513d601f19601f82011682018060405250810190611234919061178e565b101561129e5760405162461bcd60e51b815260206004820152603360248201527f54726561737572793a20496e73756666696369656e7420726573657276657320604482015272199bdc881d1a1a5cc818dbdb1b185d195c985b606a1b606482015260840161053b565b6002546040516323b872dd60e01b8152336004820152306024820152604481018790526001600160a01b03909116906323b872dd906064016020604051808303816000875af11580156112f5573d6000803e3d6000fd5b505050506040513d601f19601f8201168201806040525081019061131991906119a1565b50600254604051630852cd8d60e31b8152600481018590526001600160a01b03909116906342966c6890602401600060405180830381600087803b15801561136057600080fd5b505af1158015611374573d6000803e3d6000fd5b505060405163a9059cbb60e01b8152336004820152602481018490526001600160a01b038716925063a9059cbb91506044016020604051808303816000875af11580156113c5573d6000803e3d6000fd5b505050506040513d601f19601f820116820180604052508101906113e991906119a1565b5060408051868152602081018390526001600160a01b0386169133917fffb30956da63e1ed1617182a525ae26848d4ab884c0cad04828ca872f6da3838910160405180910390a350505061096660018055565b6114446115cb565b6001600160a01b03821660009081526003602052604090205460ff1661147c5760405162461bcd60e51b815260040161053b90611957565b6001600160a01b038216600081815260066020526040808220849055518392917f7be46b5a1a89af40bc828b3ef14146891d36d93b67f082389d5fd24f031d31fa91a35050565b600080805b600454811015611587576000600482815481106114e7576114e761190c565b60009182526020822001546040516370a0823160e01b81523060048201526001600160a01b03909116925082906370a0823190602401602060405180830381865afa15801561153a573d6000803e3d6000fd5b505050506040513d601f19601f8201168201806040525081019061155e919061178e565b9050801561157d5761157081836104c6565b61157a908561198e565b93505b50506001016114c8565b50919050565b6115956115cb565b6001600160a01b0381166115bf57604051631e4fbdf760e01b81526000600482015260240161053b565b6115c8816115f8565b50565b6000546001600160a01b03163314610c225760405163118cdaa760e01b815233600482015260240161053b565b600080546001600160a01b038381166001600160a01b0319831681178455604051919092169283917f8be0079c531659141344cd1fd0a4f28419497f9722a3daafe3b4186f6b6457e09190a35050565b60026001540361166b57604051633ee5aeb560e01b815260040160405180910390fd5b6002600155565b80356001600160a01b038116811461168957600080fd5b919050565b600080604083850312156116a157600080fd5b823591506116b160208401611672565b90509250929050565b6000602082840312156116cc57600080fd5b6116d582611672565b9392505050565b80151581146115c857600080fd5b600080604083850312156116fd57600080fd5b61170683611672565b91506020830135611716816116dc565b809150509250929050565b60006020828403121561173357600080fd5b5035919050565b6000806040838503121561174d57600080fd5b61175683611672565b91506116b160208401611672565b6000806040838503121561177757600080fd5b61178083611672565b946020939093013593505050565b6000602082840312156117a057600080fd5b5051919050565b6000602082840312156117b957600080fd5b815160ff811681146116d557600080fd5b634e487b7160e01b600052601160045260246000fd5b600181815b8085111561181b578160001904821115611801576118016117ca565b8085161561180e57918102915b93841c93908002906117e5565b509250929050565b60008261183257506001610719565b8161183f57506000610719565b8160018114611855576002811461185f5761187b565b6001915050610719565b60ff841115611870576118706117ca565b50506001821b610719565b5060208310610133831016604e8410600b841016171561189e575081810a610719565b6118a883836117e0565b80600019048211156118bc576118bc6117ca565b029392505050565b60006116d560ff841683611823565b8082028115828204841417610719576107196117ca565b60008261190757634e487b7160e01b600052601260045260246000fd5b500490565b634e487b7160e01b600052603260045260246000fd5b81810381811115610719576107196117ca565b634e487b7160e01b600052603160045260246000fd5b60006116d58383611823565b6020808252601f908201527f54726561737572793a20546f6b656e206e6f742077686974656c697374656400604082015260600190565b80820180821115610719576107196117ca565b6000602082840312156119b357600080fd5b81516116d5816116dc56fea26469706673582212207fe2f6c7660a4fea5e920be0db44482b8c47157ac312c7577663348b3c3bd19d64736f6c63430008160033",
  "linkReferences": {},
  "deployedLinkReferences": {}
}