{
  "_format": "hh-sol-artifact-1",
  "contractName": "Treasury",
  "sourceName": "contracts/Treasury.sol",
  "abi": [
    {
      "inputs": [],
      "stateMutability": "nonpayable",
      "type": "constructor"
    },
    {
      "inputs": [
        {
          "internalType": "address",
          "name": "owner",
          "type": "address"
        }
      ],
      "name": "OwnableInvalidOwner",
      "type": "error"
    },
    {
      "inputs": [
        {
          "internalType": "address",
          "name": "account",
          "type": "address"
        }
      ],
      "name": "OwnableUnauthorizedAccount",
      "type": "error"
    },
    {
      "inputs": [],
      "name": "ReentrancyGuardReentrantCall",
      "type": "error"
    },
    {
      "anonymous": false,
      "inputs": [
        {
          "indexed": true,
          "internalType": "address",
          "name": "token",
          "type": "address"
        },
        {
          "indexed": false,
          "internalType": "bool",
          "name": "isWhitelisted",
          "type": "bool"
        }
      ],
      "name": "CollateralWhitelisted",
      "type": "event"
    },
    {
      "anonymous": false,
      "inputs": [
        {
          "indexed": true,
          "internalType": "address",
          "name": "token",
          "type": "address"
        },
        {
          "indexed": false,
          "internalType": "uint256",
          "name": "amount",
          "type": "uint256"
        }
      ],
      "name": "CommerceFeeReceived",
      "type": "event"
    },
    {
      "anonymous": false,
      "inputs": [
        {
          "indexed": true,
          "internalType": "address",
          "name": "sender",
          "type": "address"
        },
        {
          "indexed": true,
          "internalType": "address",
          "name": "collateralToken",
          "type": "address"
        },
        {
          "indexed": false,
          "internalType": "uint256",
          "name": "collateralAmount",
          "type": "uint256"
        },
        {
          "indexed": false,
          "internalType": "uint256",
          "name": "lmktAmount",
          "type": "uint256"
        },
        {
          "indexed": false,
          "internalType": "uint256",
          "name": "totalCollateral",
          "type": "uint256"
        },
        {
          "indexed": false,
          "internalType": "uint256",
          "name": "circulatingSupply",
          "type": "uint256"
        },
        {
          "indexed": false,
          "internalType": "bool",
          "name": "isBuy",
          "type": "bool"
        }
      ],
      "name": "MKTSwap",
      "type": "event"
    },
    {
      "anonymous": false,
      "inputs": [
        {
          "indexed": true,
          "internalType": "address",
          "name": "previousOwner",
          "type": "address"
        },
        {
          "indexed": true,
          "internalType": "address",
          "name": "newOwner",
          "type": "address"
        }
      ],
      "name": "OwnershipTransferred",
      "type": "event"
    },
    {
      "anonymous": false,
      "inputs": [
        {
          "indexed": true,
          "internalType": "address",
          "name": "token",
          "type": "address"
        },
        {
          "indexed": true,
          "internalType": "address",
          "name": "feed",
          "type": "address"
        }
      ],
      "name": "PriceFeedSet",
      "type": "event"
    },
    {
      "anonymous": false,
      "inputs": [
        {
          "indexed": true,
          "internalType": "address",
          "name": "token",
          "type": "address"
        },
        {
          "indexed": true,
          "internalType": "bytes32",
          "name": "queryId",
          "type": "bytes32"
        }
      ],
      "name": "TokenQueryIdSet",
      "type": "event"
    },
    {
      "inputs": [],
      "name": "BURN_RATE",
      "outputs": [
        {
          "internalType": "uint256",
          "name": "",
          "type": "uint256"
        }
      ],
      "stateMutability": "view",
      "type": "function"
    },
    {
      "inputs": [],
      "name": "BUY_DISCOUNT",
      "outputs": [
        {
          "internalType": "uint256",
          "name": "",
          "type": "uint256"
        }
      ],
      "stateMutability": "view",
      "type": "function"
    },
    {
      "inputs": [],
      "name": "ORACLE_PRICE_DECIMALS",
      "outputs": [
        {
          "internalType": "uint8",
          "name": "",
          "type": "uint8"
        }
      ],
      "stateMutability": "view",
      "type": "function"
    },
    {
      "inputs": [],
      "name": "SELL_PREMIUM",
      "outputs": [
        {
          "internalType": "uint256",
          "name": "",
          "type": "uint256"
        }
      ],
      "stateMutability": "view",
      "type": "function"
    },
    {
      "inputs": [],
      "name": "SPREAD_BASE",
      "outputs": [
        {
          "internalType": "uint256",
          "name": "",
          "type": "uint256"
        }
      ],
      "stateMutability": "view",
      "type": "function"
    },
    {
      "inputs": [
        {
          "internalType": "uint256",
          "name": "collateralAmount",
          "type": "uint256"
        },
        {
          "internalType": "address",
          "name": "collateralToken",
          "type": "address"
        }
      ],
      "name": "buyMkt",
      "outputs": [],
      "stateMutability": "nonpayable",
      "type": "function"
    },
    {
      "inputs": [
        {
          "internalType": "address",
          "name": "token",
          "type": "address"
        },
        {
          "internalType": "uint256",
          "name": "amount",
          "type": "uint256"
        }
      ],
      "name": "depositCommerceFee",
      "outputs": [],
      "stateMutability": "nonpayable",
      "type": "function"
    },
    {
      "inputs": [
        {
          "internalType": "address",
          "name": "token",
          "type": "address"
        },
        {
          "internalType": "uint256",
          "name": "amount",
          "type": "uint256"
        }
      ],
      "name": "depositTreasury",
      "outputs": [],
      "stateMutability": "nonpayable",
      "type": "function"
    },
    {
      "inputs": [
        {
          "internalType": "uint256",
          "name": "lmktAmount",
          "type": "uint256"
        },
        {
          "internalType": "address",
          "name": "collateralToken",
          "type": "address"
        }
      ],
      "name": "getCollateralAmountForLmkt",
      "outputs": [
        {
          "internalType": "uint256",
          "name": "",
          "type": "uint256"
        }
      ],
      "stateMutability": "view",
      "type": "function"
    },
    {
      "inputs": [
        {
          "internalType": "uint256",
          "name": "amount",
          "type": "uint256"
        },
        {
          "internalType": "address",
          "name": "token",
          "type": "address"
        }
      ],
      "name": "getCollateralTokenValue",
      "outputs": [
        {
          "internalType": "uint256",
          "name": "",
          "type": "uint256"
        }
      ],
      "stateMutability": "view",
      "type": "function"
    },
    {
      "inputs": [
        {
          "internalType": "uint256",
          "name": "collateralAmount",
          "type": "uint256"
        },
        {
          "internalType": "address",
          "name": "collateralToken",
          "type": "address"
        }
      ],
      "name": "getLmktAmountForCollateral",
      "outputs": [
        {
          "internalType": "uint256",
          "name": "",
          "type": "uint256"
        }
      ],
      "stateMutability": "view",
      "type": "function"
    },
    {
      "inputs": [],
      "name": "getLmktMarketCap",
      "outputs": [
        {
          "internalType": "uint256",
          "name": "",
          "type": "uint256"
        }
      ],
      "stateMutability": "view",
      "type": "function"
    },
    {
      "inputs": [
        {
          "internalType": "uint256",
          "name": "lmktAmount",
          "type": "uint256"
        }
      ],
      "name": "getLmktUsdValue",
      "outputs": [
        {
          "internalType": "uint256",
          "name": "",
          "type": "uint256"
        }
      ],
      "stateMutability": "view",
      "type": "function"
    },
    {
      "inputs": [],
      "name": "getTotalCollateralValue",
      "outputs": [
        {
          "internalType": "uint256",
          "name": "",
          "type": "uint256"
        }
      ],
      "stateMutability": "view",
      "type": "function"
    },
    {
      "inputs": [
        {
          "internalType": "address",
          "name": "",
          "type": "address"
        }
      ],
      "name": "isWhitelistedCollateral",
      "outputs": [
        {
          "internalType": "bool",
          "name": "",
          "type": "bool"
        }
      ],
      "stateMutability": "view",
      "type": "function"
    },
    {
      "inputs": [],
      "name": "lmktToken",
      "outputs": [
        {
          "internalType": "contract ILMKT",
          "name": "",
          "type": "address"
        }
      ],
      "stateMutability": "view",
      "type": "function"
    },
    {
      "inputs": [],
      "name": "owner",
      "outputs": [
        {
          "internalType": "address",
          "name": "",
          "type": "address"
        }
      ],
      "stateMutability": "view",
      "type": "function"
    },
    {
      "inputs": [],
      "name": "renounceOwnership",
      "outputs": [],
      "stateMutability": "nonpayable",
      "type": "function"
    },
    {
      "inputs": [
        {
          "internalType": "uint256",
          "name": "lmktAmount",
          "type": "uint256"
        },
        {
          "internalType": "address",
          "name": "collateralToken",
          "type": "address"
        }
      ],
      "name": "sellMkt",
      "outputs": [],
      "stateMutability": "nonpayable",
      "type": "function"
    },
    {
      "inputs": [
        {
          "internalType": "uint256",
          "name": "_sellFee",
          "type": "uint256"
        },
        {
          "internalType": "uint256",
          "name": "_buyFee",
          "type": "uint256"
        },
        {
          "internalType": "uint256",
          "name": "_burnFee",
          "type": "uint256"
        }
      ],
      "name": "setFeeRate",
      "outputs": [],
      "stateMutability": "nonpayable",
      "type": "function"
    },
    {
      "inputs": [
        {
          "internalType": "address",
          "name": "_lmktTokenAddress",
          "type": "address"
        }
      ],
      "name": "setLmktAddress",
      "outputs": [],
      "stateMutability": "nonpayable",
      "type": "function"
    },
    {
      "inputs": [
        {
          "internalType": "address",
          "name": "_token",
          "type": "address"
        },
        {
          "internalType": "address",
          "name": "_feedAddress",
          "type": "address"
        }
      ],
      "name": "setPriceFeed",
      "outputs": [],
      "stateMutability": "nonpayable",
      "type": "function"
    },
    {
      "inputs": [
        {
          "internalType": "address",
          "name": "_token",
          "type": "address"
        },
        {
          "internalType": "bytes32",
          "name": "_queryId",
          "type": "bytes32"
        }
      ],
      "name": "setTokenQueryId",
      "outputs": [],
      "stateMutability": "nonpayable",
      "type": "function"
    },
    {
      "inputs": [
        {
          "internalType": "address",
          "name": "token",
          "type": "address"
        },
        {
          "internalType": "bool",
          "name": "isWhitelisted",
          "type": "bool"
        }
      ],
      "name": "setWhitelistedCollateral",
      "outputs": [],
      "stateMutability": "nonpayable",
      "type": "function"
    },
    {
      "inputs": [
        {
          "internalType": "address",
          "name": "",
          "type": "address"
        }
      ],
      "name": "tokenPriceFeeds",
      "outputs": [
        {
          "internalType": "address",
          "name": "",
          "type": "address"
        }
      ],
      "stateMutability": "view",
      "type": "function"
    },
    {
      "inputs": [
        {
          "internalType": "address",
          "name": "",
          "type": "address"
        }
      ],
      "name": "tokenQueryIds",
      "outputs": [
        {
          "internalType": "bytes32",
          "name": "",
          "type": "bytes32"
        }
      ],
      "stateMutability": "view",
      "type": "function"
    },
    {
      "inputs": [
        {
          "internalType": "address",
          "name": "newOwner",
          "type": "address"
        }
      ],
      "name": "transferOwnership",
      "outputs": [],
      "stateMutability": "nonpayable",
      "type": "function"
    },
    {
      "inputs": [
        {
          "internalType": "uint256",
          "name": "",
          "type": "uint256"
        }
      ],
      "name": "whitelistedCollateralTokens",
      "outputs": [
        {
          "internalType": "address",
          "name": "",
          "type": "address"
        }
      ],
      "stateMutability": "view",
      "type": "function"
    },
    {
      "stateMutability": "payable",
      "type": "receive"
    }
  ],
  "bytecode": "0x60806040526064600755606460085561271060095534801561002057600080fd5b50338061004757604051631e4fbdf760e01b81526000600482015260240160405180910390fd5b6100508161005a565b50600180556100aa565b600080546001600160a01b038381166001600160a01b0319831681178455604051919092169283917f8be0079c531659141344cd1fd0a4f28419497f9722a3daafe3b4186f6b6457e09190a35050565b611d6e806100b96000396000f3fe6080604052600436106101bb5760003560e01c806376e11286116100ec578063d4bec1ce1161008a578063ed6493af11610064578063ed6493af146104e8578063f2fde38b146104fd578063f846a8851461051d578063f9839d891461053357600080fd5b8063d4bec1ce14610493578063d7e6f317146104a8578063e3889a3f146104c857600080fd5b80639d568da3116100c65780639d568da314610407578063a7e014f61461041d578063bd9c47e31461043d578063cf56e5aa1461047357600080fd5b806376e11286146103a957806379c532cb146103c95780638da5cb5b146103e957600080fd5b80633f38cb10116101595780636019228111610133578063601922811461033e5780636fb4bb4c1461035e578063715018a61461037457806374c5d7c21461038957600080fd5b80633f38cb10146102c65780634850b217146102e65780635014c45c1461031e57600080fd5b80631c9b9f03116101955780631c9b9f031461024e578063253bcadc1461027057806333fc0750146102905780633e7565a7146102b057600080fd5b8063094fcbfe146101c75780630cca7bf5146101fa5780631a0707391461022757600080fd5b366101c257005b600080fd5b3480156101d357600080fd5b506101e76101e23660046119ab565b610573565b6040519081526020015b60405180910390f35b34801561020657600080fd5b506101e76102153660046119d7565b60066020526000908152604090205481565b34801561023357600080fd5b5061023c600881565b60405160ff90911681526020016101f1565b34801561025a57600080fd5b5061026e6102693660046119d7565b6107bc565b005b34801561027c57600080fd5b5061026e61028b366004611a07565b6107e6565b34801561029c57600080fd5b506101e76102ab3660046119ab565b610a07565b3480156102bc57600080fd5b506101e760085481565b3480156102d257600080fd5b5061026e6102e1366004611a3e565b610a8d565b3480156102f257600080fd5b50610306610301366004611a6a565b610aa3565b6040516001600160a01b0390911681526020016101f1565b34801561032a57600080fd5b50600254610306906001600160a01b031681565b34801561034a57600080fd5b506101e76103593660046119ab565b610acd565b34801561036a57600080fd5b506101e760075481565b34801561038057600080fd5b5061026e610d89565b34801561039557600080fd5b5061026e6103a43660046119ab565b610d9d565b3480156103b557600080fd5b5061026e6103c4366004611a83565b610f55565b3480156103d557600080fd5b506101e76103e4366004611a6a565b610fec565b3480156103f557600080fd5b506000546001600160a01b0316610306565b34801561041357600080fd5b506101e761271081565b34801561042957600080fd5b5061026e610438366004611aad565b611034565b34801561044957600080fd5b506103066104583660046119d7565b6005602052600090815260409020546001600160a01b031681565b34801561047f57600080fd5b5061026e61048e3660046119ab565b611163565b34801561049f57600080fd5b506101e7611476565b3480156104b457600080fd5b5061026e6104c3366004611aad565b611485565b3480156104d457600080fd5b5061026e6104e3366004611aad565b61163f565b3480156104f457600080fd5b506101e76116c6565b34801561050957600080fd5b5061026e6105183660046119d7565b611790565b34801561052957600080fd5b506101e760095481565b34801561053f57600080fd5b5061056361054e3660046119d7565b60036020526000908152604090205460ff1681565b60405190151581526020016101f1565b6001600160a01b03808216600090815260056020526040812054909116806105e25760405162461bcd60e51b815260206004820152601c60248201527f54726561737572793a2050726963652066656564206e6f74207365740000000060448201526064015b60405180910390fd5b6001600160a01b038316600090815260066020526040902054806106485760405162461bcd60e51b815260206004820152601a60248201527f54726561737572793a205175657279204944206e6f742073657400000000000060448201526064016105d9565b6040516331d98b3f60e01b81526004810182905282906000906001600160a01b038316906331d98b3f90602401602060405180830381865afa158015610692573d6000803e3d6000fd5b505050506040513d601f19601f820116820180604052508101906106b69190611ad7565b9050600081116107085760405162461bcd60e51b815260206004820152601e60248201527f54726561737572793a204f7261636c65207072696365206973207a65726f000060448201526064016105d9565b6000866001600160a01b031663313ce5676040518163ffffffff1660e01b8152600401602060405180830381865afa158015610748573d6000803e3d6000fd5b505050506040513d601f19601f8201168201806040525081019061076c9190611af0565b905061077981600a611c0d565b61078560086012611c1c565b61079090600a611c0d565b61079a848b611c35565b6107a49190611c35565b6107ae9190611c4c565b955050505050505b92915050565b6107c46117ce565b600280546001600160a01b0319166001600160a01b0392909216919091179055565b6107ee6117ce565b6001600160a01b0382166000908152600360205260409020805460ff191682158015919091179091556108bd5760005b60045481101561086c57826001600160a01b03166004828154811061084557610845611c6e565b6000918252602090912001546001600160a01b03160361086457505050565b60010161081e565b50600480546001810182556000919091527f8a35acfbc15ff81a39ae7d344fd709f28e8600b4aa8c65c6b64bfe7fe36bd19b0180546001600160a01b0319166001600160a01b0384161790556109bd565b60005b6004548110156109bb57826001600160a01b0316600482815481106108e7576108e7611c6e565b6000918252602090912001546001600160a01b0316036109b3576004805461091190600190611c84565b8154811061092157610921611c6e565b600091825260209091200154600480546001600160a01b03909216918390811061094d5761094d611c6e565b9060005260206000200160006101000a8154816001600160a01b0302191690836001600160a01b03160217905550600480548061098c5761098c611c97565b600082815260209020810160001990810180546001600160a01b03191690550190556109bb565b6001016108c0565b505b816001600160a01b03167f3cd44c9ffcc58ef85c0b1cb3e60f01382feb190f42795e92a10ceb2d757a938c826040516109fa911515815260200190565b60405180910390a25b5050565b600080610a148484610573565b90506000610a206116c6565b90506000610a2c6117fb565b905081600003610a4257600093505050506107b6565b600082610a4f8386611c35565b610a599190611c4c565b9050612710600854612710610a6e9190611c84565b610a789083611c35565b610a829190611c4c565b979650505050505050565b610a956117ce565b600792909255600855600955565b60048181548110610ab357600080fd5b6000918252602090912001546001600160a01b0316905081565b600080610ad86116c6565b90506000610ae46117fb565b905080600003610af9576000925050506107b6565b600081610b068488611c35565b610b109190611c4c565b90506000612710600754612710610b279190611c84565b610b319084611c35565b610b3b9190611c4c565b6001600160a01b038088166000908152600560205260409020549192501680610ba65760405162461bcd60e51b815260206004820152601c60248201527f54726561737572793a2050726963652066656564206e6f74207365740000000060448201526064016105d9565b6001600160a01b03871660009081526006602052604090205480610c0c5760405162461bcd60e51b815260206004820152601a60248201527f54726561737572793a205175657279204944206e6f742073657400000000000060448201526064016105d9565b6040516331d98b3f60e01b81526004810182905282906000906001600160a01b038316906331d98b3f90602401602060405180830381865afa158015610c56573d6000803e3d6000fd5b505050506040513d601f19601f82011682018060405250810190610c7a9190611ad7565b905060008111610ccc5760405162461bcd60e51b815260206004820152601e60248201527f54726561737572793a204f7261636c65207072696365206973207a65726f000060448201526064016105d9565b60008a6001600160a01b031663313ce5676040518163ffffffff1660e01b8152600401602060405180830381865afa158015610d0c573d6000803e3d6000fd5b505050506040513d601f19601f82011682018060405250810190610d309190611af0565b9050610d4482670de0b6b3a7640000611c35565b610d506008600a611c0d565b610d5b83600a611c0d565b610d659089611c35565b610d6f9190611c35565b610d799190611c4c565b9c9b505050505050505050505050565b610d916117ce565b610d9b6000611915565b565b610da5611965565b6001600160a01b03811660009081526003602052604090205460ff16610ddd5760405162461bcd60e51b81526004016105d990611cad565b6040516323b872dd60e01b81526001600160a01b038216906323b872dd90610e0d90339030908790600401611ce4565b6020604051808303816000875af1158015610e2c573d6000803e3d6000fd5b505050506040513d601f19601f82011682018060405250810190610e509190611d08565b506000610e5d8383610a07565b60025460405163a9059cbb60e01b8152336004820152602481018390529192506001600160a01b03169063a9059cbb906044016020604051808303816000875af1158015610eaf573d6000803e3d6000fd5b505050506040513d601f19601f82011682018060405250810190610ed39190611d08565b506000610ede6116c6565b90506000610eea6117fb565b604080518781526020810186905290810184905260608101829052600160808201529091506001600160a01b0385169033907f2e590d112dad4aaf19559922b6d9e0562a5dfb6ef2ac97c201e889743530405c9060a00160405180910390a3505050610a0360018055565b610f5d6117ce565b6001600160a01b03821660009081526003602052604090205460ff16610f955760405162461bcd60e51b81526004016105d990611cad565b6001600160a01b0382811660008181526005602052604080822080546001600160a01b0319169486169485179055517fd2d8394cf7549a5ddbc2ba3dd7b2de8d53c891472d1f2907008ed6a10045fdae9190a35050565b600080610ff76116c6565b905060006110036117fb565b905080600003611017575060009392505050565b806110228386611c35565b61102c9190611c4c565b949350505050565b6002546001600160a01b038381169116148061106857506001600160a01b03821660009081526003602052604090205460ff165b6110b45760405162461bcd60e51b815260206004820152601760248201527f54726561737572793a20496e76616c696420746f6b656e00000000000000000060448201526064016105d9565b6040516323b872dd60e01b81526001600160a01b038316906323b872dd906110e490339030908690600401611ce4565b6020604051808303816000875af1158015611103573d6000803e3d6000fd5b505050506040513d601f19601f820116820180604052508101906111279190611d08565b50816001600160a01b03167f549340764ea97c24d00be84b5402a70f793c845a1578490632afba2b65e5b137826040516109fa91815260200190565b61116b611965565b6001600160a01b03811660009081526003602052604090205460ff166111a35760405162461bcd60e51b81526004016105d990611cad565b6002546040516323b872dd60e01b81526001600160a01b03909116906323b872dd906111d790339030908790600401611ce4565b6020604051808303816000875af11580156111f6573d6000803e3d6000fd5b505050506040513d601f19601f8201168201806040525081019061121a9190611d08565b5060006127106009548461122e9190611c35565b6112389190611c4c565b905060006112468285611c84565b905081156112ad57600254604051630852cd8d60e31b8152600481018490526001600160a01b03909116906342966c6890602401600060405180830381600087803b15801561129457600080fd5b505af11580156112a8573d6000803e3d6000fd5b505050505b600081156112c2576112bf8285610acd565b90505b6040516370a0823160e01b815230600482015281906001600160a01b038616906370a0823190602401602060405180830381865afa158015611308573d6000803e3d6000fd5b505050506040513d601f19601f8201168201806040525081019061132c9190611ad7565b101561137a5760405162461bcd60e51b815260206004820152601f60248201527f54726561737572793a20496e73756666696369656e742072657365727665730060448201526064016105d9565b80156113f35760405163a9059cbb60e01b8152336004820152602481018290526001600160a01b0385169063a9059cbb906044016020604051808303816000875af11580156113cd573d6000803e3d6000fd5b505050506040513d601f19601f820116820180604052508101906113f19190611d08565b505b60006113fd6116c6565b905060006114096117fb565b60408051858152602081018a905290810184905260608101829052600060808201529091506001600160a01b0387169033907f2e590d112dad4aaf19559922b6d9e0562a5dfb6ef2ac97c201e889743530405c9060a00160405180910390a35050505050610a0360018055565b60006114806116c6565b905090565b6002546001600160a01b03838116911614806114b957506001600160a01b03821660009081526003602052604090205460ff165b61151b5760405162461bcd60e51b815260206004820152602d60248201527f54726561737572793a2043616e206f6e6c79207265636569766520776869746560448201526c6c697374656420746f6b656e7360981b60648201526084016105d9565b6040516323b872dd60e01b81526001600160a01b038316906323b872dd9061154b90339030908690600401611ce4565b6020604051808303816000875af115801561156a573d6000803e3d6000fd5b505050506040513d601f19601f8201168201806040525081019061158e9190611d08565b506002546001600160a01b039081169083160361160457600254604051630852cd8d60e31b8152600481018390526001600160a01b03909116906342966c6890602401600060405180830381600087803b1580156115eb57600080fd5b505af11580156115ff573d6000803e3d6000fd5b505050505b816001600160a01b03167f549340764ea97c24d00be84b5402a70f793c845a1578490632afba2b65e5b137826040516109fa91815260200190565b6116476117ce565b6001600160a01b03821660009081526003602052604090205460ff1661167f5760405162461bcd60e51b81526004016105d990611cad565b6001600160a01b038216600081815260066020526040808220849055518392917f7be46b5a1a89af40bc828b3ef14146891d36d93b67f082389d5fd24f031d31fa91a35050565b600080805b60045481101561178a576000600482815481106116ea576116ea611c6e565b60009182526020822001546040516370a0823160e01b81523060048201526001600160a01b03909116925082906370a0823190602401602060405180830381865afa15801561173d573d6000803e3d6000fd5b505050506040513d601f19601f820116820180604052508101906117619190611ad7565b90508015611780576117738183610573565b61177d9085611d25565b93505b50506001016116cb565b50919050565b6117986117ce565b6001600160a01b0381166117c257604051631e4fbdf760e01b8152600060048201526024016105d9565b6117cb81611915565b50565b6000546001600160a01b03163314610d9b5760405163118cdaa760e01b81523360048201526024016105d9565b6002546000906001600160a01b03166118145750600090565b600254604080516318160ddd60e01b815290516000926001600160a01b0316916318160ddd9160048083019260209291908290030181865afa15801561185e573d6000803e3d6000fd5b505050506040513d601f19601f820116820180604052508101906118829190611ad7565b6002546040516370a0823160e01b81526000600482018190529293506001600160a01b03909116906370a0823190602401602060405180830381865afa1580156118d0573d6000803e3d6000fd5b505050506040513d601f19601f820116820180604052508101906118f49190611ad7565b905080821161190457600061190e565b61190e8183611c84565b9250505090565b600080546001600160a01b038381166001600160a01b0319831681178455604051919092169283917f8be0079c531659141344cd1fd0a4f28419497f9722a3daafe3b4186f6b6457e09190a35050565b60026001540361198857604051633ee5aeb560e01b815260040160405180910390fd5b6002600155565b80356001600160a01b03811681146119a657600080fd5b919050565b600080604083850312156119be57600080fd5b823591506119ce6020840161198f565b90509250929050565b6000602082840312156119e957600080fd5b6119f28261198f565b9392505050565b80151581146117cb57600080fd5b60008060408385031215611a1a57600080fd5b611a238361198f565b91506020830135611a33816119f9565b809150509250929050565b600080600060608486031215611a5357600080fd5b505081359360208301359350604090920135919050565b600060208284031215611a7c57600080fd5b5035919050565b60008060408385031215611a9657600080fd5b611a9f8361198f565b91506119ce6020840161198f565b60008060408385031215611ac057600080fd5b611ac98361198f565b946020939093013593505050565b600060208284031215611ae957600080fd5b5051919050565b600060208284031215611b0257600080fd5b815160ff811681146119f257600080fd5b634e487b7160e01b600052601160045260246000fd5b600181815b80851115611b64578160001904821115611b4a57611b4a611b13565b80851615611b5757918102915b93841c9390800290611b2e565b509250929050565b600082611b7b575060016107b6565b81611b88575060006107b6565b8160018114611b9e5760028114611ba857611bc4565b60019150506107b6565b60ff841115611bb957611bb9611b13565b50506001821b6107b6565b5060208310610133831016604e8410600b8410161715611be7575081810a6107b6565b611bf18383611b29565b8060001904821115611c0557611c05611b13565b029392505050565b60006119f260ff841683611b6c565b60ff82811682821603908111156107b6576107b6611b13565b80820281158282048414176107b6576107b6611b13565b600082611c6957634e487b7160e01b600052601260045260246000fd5b500490565b634e487b7160e01b600052603260045260246000fd5b818103818111156107b6576107b6611b13565b634e487b7160e01b600052603160045260246000fd5b6020808252601f908201527f54726561737572793a20546f6b656e206e6f742077686974656c697374656400604082015260600190565b6001600160a01b039384168152919092166020820152604081019190915260600190565b600060208284031215611d1a57600080fd5b81516119f2816119f9565b808201808211156107b6576107b6611b1356fea2646970667358221220cfcfdb4353e2da9ce17eb2d3910e3f1e9cd260b8b95921926e5e9214e3d4f13964736f6c63430008160033",
  "linkReferences": {},
  "deployedLinkReferences": {}
}