{
  "_format": "hh-sol-artifact-1",
  "contractName": "Treasury",
  "sourceName": "contracts/Treasury.sol",
  "abi": [
    {
      "inputs": [],
      "stateMutability": "nonpayable",
      "type": "constructor"
    },
    {
      "inputs": [
        {
          "internalType": "address",
          "name": "owner",
          "type": "address"
        }
      ],
      "name": "OwnableInvalidOwner",
      "type": "error"
    },
    {
      "inputs": [
        {
          "internalType": "address",
          "name": "account",
          "type": "address"
        }
      ],
      "name": "OwnableUnauthorizedAccount",
      "type": "error"
    },
    {
      "inputs": [],
      "name": "ReentrancyGuardReentrantCall",
      "type": "error"
    },
    {
      "anonymous": false,
      "inputs": [
        {
          "indexed": true,
          "internalType": "address",
          "name": "token",
          "type": "address"
        },
        {
          "indexed": false,
          "internalType": "bool",
          "name": "isWhitelisted",
          "type": "bool"
        }
      ],
      "name": "CollateralWhitelisted",
      "type": "event"
    },
    {
      "anonymous": false,
      "inputs": [
        {
          "indexed": true,
          "internalType": "address",
          "name": "token",
          "type": "address"
        },
        {
          "indexed": false,
          "internalType": "uint256",
          "name": "amount",
          "type": "uint256"
        }
      ],
      "name": "CommerceFeeReceived",
      "type": "event"
    },
    {
      "anonymous": false,
      "inputs": [
        {
          "indexed": true,
          "internalType": "address",
          "name": "sender",
          "type": "address"
        },
        {
          "indexed": true,
          "internalType": "address",
          "name": "collateralToken",
          "type": "address"
        },
        {
          "indexed": false,
          "internalType": "uint256",
          "name": "collateralAmount",
          "type": "uint256"
        },
        {
          "indexed": false,
          "internalType": "uint256",
          "name": "lmktAmount",
          "type": "uint256"
        },
        {
          "indexed": false,
          "internalType": "uint256",
          "name": "totalCollateral",
          "type": "uint256"
        },
        {
          "indexed": false,
          "internalType": "uint256",
          "name": "circulatingSupply",
          "type": "uint256"
        },
        {
          "indexed": false,
          "internalType": "bool",
          "name": "isBuy",
          "type": "bool"
        }
      ],
      "name": "MKTSwap",
      "type": "event"
    },
    {
      "anonymous": false,
      "inputs": [
        {
          "indexed": true,
          "internalType": "address",
          "name": "previousOwner",
          "type": "address"
        },
        {
          "indexed": true,
          "internalType": "address",
          "name": "newOwner",
          "type": "address"
        }
      ],
      "name": "OwnershipTransferred",
      "type": "event"
    },
    {
      "anonymous": false,
      "inputs": [
        {
          "indexed": true,
          "internalType": "address",
          "name": "token",
          "type": "address"
        },
        {
          "indexed": true,
          "internalType": "address",
          "name": "feed",
          "type": "address"
        }
      ],
      "name": "PriceFeedSet",
      "type": "event"
    },
    {
      "anonymous": false,
      "inputs": [
        {
          "indexed": true,
          "internalType": "address",
          "name": "token",
          "type": "address"
        },
        {
          "indexed": true,
          "internalType": "bytes32",
          "name": "queryId",
          "type": "bytes32"
        }
      ],
      "name": "TokenQueryIdSet",
      "type": "event"
    },
    {
      "inputs": [],
      "name": "BURN_RATE",
      "outputs": [
        {
          "internalType": "uint256",
          "name": "",
          "type": "uint256"
        }
      ],
      "stateMutability": "view",
      "type": "function"
    },
    {
      "inputs": [],
      "name": "BUY_DISCOUNT",
      "outputs": [
        {
          "internalType": "uint256",
          "name": "",
          "type": "uint256"
        }
      ],
      "stateMutability": "view",
      "type": "function"
    },
    {
      "inputs": [],
      "name": "ORACLE_PRICE_DECIMALS",
      "outputs": [
        {
          "internalType": "uint256",
          "name": "",
          "type": "uint256"
        }
      ],
      "stateMutability": "view",
      "type": "function"
    },
    {
      "inputs": [],
      "name": "SELL_PREMIUM",
      "outputs": [
        {
          "internalType": "uint256",
          "name": "",
          "type": "uint256"
        }
      ],
      "stateMutability": "view",
      "type": "function"
    },
    {
      "inputs": [],
      "name": "SPREAD_BASE",
      "outputs": [
        {
          "internalType": "uint256",
          "name": "",
          "type": "uint256"
        }
      ],
      "stateMutability": "view",
      "type": "function"
    },
    {
      "inputs": [
        {
          "internalType": "uint256",
          "name": "collateralAmount",
          "type": "uint256"
        },
        {
          "internalType": "address",
          "name": "collateralToken",
          "type": "address"
        }
      ],
      "name": "buyMkt",
      "outputs": [],
      "stateMutability": "nonpayable",
      "type": "function"
    },
    {
      "inputs": [
        {
          "internalType": "address",
          "name": "token",
          "type": "address"
        },
        {
          "internalType": "uint256",
          "name": "amount",
          "type": "uint256"
        }
      ],
      "name": "depositCommerceFee",
      "outputs": [],
      "stateMutability": "nonpayable",
      "type": "function"
    },
    {
      "inputs": [
        {
          "internalType": "uint256",
          "name": "lmktAmount",
          "type": "uint256"
        },
        {
          "internalType": "address",
          "name": "collateralToken",
          "type": "address"
        }
      ],
      "name": "getCollateralAmountForLmkt",
      "outputs": [
        {
          "internalType": "uint256",
          "name": "",
          "type": "uint256"
        }
      ],
      "stateMutability": "view",
      "type": "function"
    },
    {
      "inputs": [
        {
          "internalType": "uint256",
          "name": "amount",
          "type": "uint256"
        },
        {
          "internalType": "address",
          "name": "token",
          "type": "address"
        }
      ],
      "name": "getCollateralTokenValue",
      "outputs": [
        {
          "internalType": "uint256",
          "name": "",
          "type": "uint256"
        }
      ],
      "stateMutability": "view",
      "type": "function"
    },
    {
      "inputs": [
        {
          "internalType": "uint256",
          "name": "collateralAmount",
          "type": "uint256"
        },
        {
          "internalType": "address",
          "name": "collateralToken",
          "type": "address"
        }
      ],
      "name": "getLmktAmountForCollateral",
      "outputs": [
        {
          "internalType": "uint256",
          "name": "",
          "type": "uint256"
        }
      ],
      "stateMutability": "view",
      "type": "function"
    },
    {
      "inputs": [],
      "name": "getLmktMarketCap",
      "outputs": [
        {
          "internalType": "uint256",
          "name": "",
          "type": "uint256"
        }
      ],
      "stateMutability": "view",
      "type": "function"
    },
    {
      "inputs": [
        {
          "internalType": "uint256",
          "name": "lmktAmount",
          "type": "uint256"
        }
      ],
      "name": "getLmktUsdValue",
      "outputs": [
        {
          "internalType": "uint256",
          "name": "",
          "type": "uint256"
        }
      ],
      "stateMutability": "view",
      "type": "function"
    },
    {
      "inputs": [],
      "name": "getTotalCollateralValue",
      "outputs": [
        {
          "internalType": "uint256",
          "name": "",
          "type": "uint256"
        }
      ],
      "stateMutability": "view",
      "type": "function"
    },
    {
      "inputs": [
        {
          "internalType": "address",
          "name": "",
          "type": "address"
        }
      ],
      "name": "isWhitelistedCollateral",
      "outputs": [
        {
          "internalType": "bool",
          "name": "",
          "type": "bool"
        }
      ],
      "stateMutability": "view",
      "type": "function"
    },
    {
      "inputs": [],
      "name": "lmktToken",
      "outputs": [
        {
          "internalType": "contract ILMKT",
          "name": "",
          "type": "address"
        }
      ],
      "stateMutability": "view",
      "type": "function"
    },
    {
      "inputs": [],
      "name": "owner",
      "outputs": [
        {
          "internalType": "address",
          "name": "",
          "type": "address"
        }
      ],
      "stateMutability": "view",
      "type": "function"
    },
    {
      "inputs": [],
      "name": "renounceOwnership",
      "outputs": [],
      "stateMutability": "nonpayable",
      "type": "function"
    },
    {
      "inputs": [
        {
          "internalType": "uint256",
          "name": "lmktAmount",
          "type": "uint256"
        },
        {
          "internalType": "address",
          "name": "collateralToken",
          "type": "address"
        }
      ],
      "name": "sellMkt",
      "outputs": [],
      "stateMutability": "nonpayable",
      "type": "function"
    },
    {
      "inputs": [
        {
          "internalType": "uint256",
          "name": "_sellFee",
          "type": "uint256"
        },
        {
          "internalType": "uint256",
          "name": "_buyFee",
          "type": "uint256"
        },
        {
          "internalType": "uint256",
          "name": "_burnFee",
          "type": "uint256"
        }
      ],
      "name": "setFeeRate",
      "outputs": [],
      "stateMutability": "nonpayable",
      "type": "function"
    },
    {
      "inputs": [
        {
          "internalType": "address",
          "name": "_lmktTokenAddress",
          "type": "address"
        }
      ],
      "name": "setLmktAddress",
      "outputs": [],
      "stateMutability": "nonpayable",
      "type": "function"
    },
    {
      "inputs": [
        {
          "internalType": "address",
          "name": "_token",
          "type": "address"
        },
        {
          "internalType": "address",
          "name": "_feedAddress",
          "type": "address"
        }
      ],
      "name": "setPriceFeed",
      "outputs": [],
      "stateMutability": "nonpayable",
      "type": "function"
    },
    {
      "inputs": [
        {
          "internalType": "address",
          "name": "_token",
          "type": "address"
        },
        {
          "internalType": "bytes32",
          "name": "_queryId",
          "type": "bytes32"
        }
      ],
      "name": "setTokenQueryId",
      "outputs": [],
      "stateMutability": "nonpayable",
      "type": "function"
    },
    {
      "inputs": [
        {
          "internalType": "address",
          "name": "token",
          "type": "address"
        },
        {
          "internalType": "bool",
          "name": "isWhitelisted",
          "type": "bool"
        }
      ],
      "name": "setWhitelistedCollateral",
      "outputs": [],
      "stateMutability": "nonpayable",
      "type": "function"
    },
    {
      "inputs": [
        {
          "internalType": "address",
          "name": "",
          "type": "address"
        }
      ],
      "name": "tokenPriceFeeds",
      "outputs": [
        {
          "internalType": "address",
          "name": "",
          "type": "address"
        }
      ],
      "stateMutability": "view",
      "type": "function"
    },
    {
      "inputs": [
        {
          "internalType": "address",
          "name": "",
          "type": "address"
        }
      ],
      "name": "tokenQueryIds",
      "outputs": [
        {
          "internalType": "bytes32",
          "name": "",
          "type": "bytes32"
        }
      ],
      "stateMutability": "view",
      "type": "function"
    },
    {
      "inputs": [
        {
          "internalType": "address",
          "name": "newOwner",
          "type": "address"
        }
      ],
      "name": "transferOwnership",
      "outputs": [],
      "stateMutability": "nonpayable",
      "type": "function"
    },
    {
      "inputs": [
        {
          "internalType": "uint256",
          "name": "",
          "type": "uint256"
        }
      ],
      "name": "whitelistedCollateralTokens",
      "outputs": [
        {
          "internalType": "address",
          "name": "",
          "type": "address"
        }
      ],
      "stateMutability": "view",
      "type": "function"
    },
    {
      "stateMutability": "payable",
      "type": "receive"
    }
  ],
  "bytecode": "0x60806040526064600755606460085561271060095534801561002057600080fd5b50338061004757604051631e4fbdf760e01b81526000600482015260240160405180910390fd5b6100508161005a565b50600180556100aa565b600080546001600160a01b038381166001600160a01b0319831681178455604051919092169283917f8be0079c531659141344cd1fd0a4f28419497f9722a3daafe3b4186f6b6457e09190a35050565b611b99806100b96000396000f3fe6080604052600436106101a05760003560e01c806374c5d7c2116100ec578063cf56e5aa1161008a578063ed6493af11610064578063ed6493af146104ad578063f2fde38b146104c2578063f846a885146104e2578063f9839d89146104f857600080fd5b8063cf56e5aa14610458578063d4bec1ce14610478578063e3889a3f1461048d57600080fd5b80638da5cb5b116100c65780638da5cb5b146103ce5780639d568da3146103ec578063a7e014f614610402578063bd9c47e31461042257600080fd5b806374c5d7c21461036e57806376e112861461038e57806379c532cb146103ae57600080fd5b80633e7565a7116101595780635014c45c116101335780635014c45c1461030357806360192281146103235780636fb4bb4c14610343578063715018a61461035957600080fd5b80633e7565a7146102955780633f38cb10146102ab5780634850b217146102cb57600080fd5b8063094fcbfe146101ac5780630cca7bf5146101df5780631a0707391461020c5780631c9b9f0314610233578063253bcadc1461025557806333fc07501461027557600080fd5b366101a757005b600080fd5b3480156101b857600080fd5b506101cc6101c73660046117e1565b610538565b6040519081526020015b60405180910390f35b3480156101eb57600080fd5b506101cc6101fa36600461180d565b60066020526000908152604090205481565b34801561021857600080fd5b50610221600881565b60405160ff90911681526020016101d6565b34801561023f57600080fd5b5061025361024e36600461180d565b610781565b005b34801561026157600080fd5b5061025361027036600461183d565b6107ab565b34801561028157600080fd5b506101cc6102903660046117e1565b6109e0565b3480156102a157600080fd5b506101cc60085481565b3480156102b757600080fd5b506102536102c6366004611874565b610a66565b3480156102d757600080fd5b506102eb6102e63660046118a0565b610a7c565b6040516001600160a01b0390911681526020016101d6565b34801561030f57600080fd5b506002546102eb906001600160a01b031681565b34801561032f57600080fd5b506101cc61033e3660046117e1565b610aa6565b34801561034f57600080fd5b506101cc60075481565b34801561036557600080fd5b50610253610d62565b34801561037a57600080fd5b506102536103893660046117e1565b610d76565b34801561039a57600080fd5b506102536103a93660046118b9565b610f32565b3480156103ba57600080fd5b506101cc6103c93660046118a0565b610fc9565b3480156103da57600080fd5b506000546001600160a01b03166102eb565b3480156103f857600080fd5b506101cc61271081565b34801561040e57600080fd5b5061025361041d3660046118e3565b611011565b34801561042e57600080fd5b506102eb61043d36600461180d565b6005602052600090815260409020546001600160a01b031681565b34801561046457600080fd5b506102536104733660046117e1565b611144565b34801561048457600080fd5b506101cc61145b565b34801561049957600080fd5b506102536104a83660046118e3565b61146a565b3480156104b957600080fd5b506101cc6114f1565b3480156104ce57600080fd5b506102536104dd36600461180d565b6115c6565b3480156104ee57600080fd5b506101cc60095481565b34801561050457600080fd5b5061052861051336600461180d565b60036020526000908152604090205460ff1681565b60405190151581526020016101d6565b6001600160a01b03808216600090815260056020526040812054909116806105a75760405162461bcd60e51b815260206004820152601c60248201527f54726561737572793a2050726963652066656564206e6f74207365740000000060448201526064015b60405180910390fd5b6001600160a01b0383166000908152600660205260409020548061060d5760405162461bcd60e51b815260206004820152601a60248201527f54726561737572793a205175657279204944206e6f7420736574000000000000604482015260640161059e565b6040516331d98b3f60e01b81526004810182905282906000906001600160a01b038316906331d98b3f90602401602060405180830381865afa158015610657573d6000803e3d6000fd5b505050506040513d601f19601f8201168201806040525081019061067b919061190d565b9050600081116106cd5760405162461bcd60e51b815260206004820152601e60248201527f54726561737572793a204f7261636c65207072696365206973207a65726f0000604482015260640161059e565b6000866001600160a01b031663313ce5676040518163ffffffff1660e01b8152600401602060405180830381865afa15801561070d573d6000803e3d6000fd5b505050506040513d601f19601f820116820180604052508101906107319190611926565b905061073e81600a611a43565b61074a60086012611a52565b61075590600a611a43565b61075f848b611a6b565b6107699190611a6b565b6107739190611a82565b955050505050505b92915050565b610789611604565b600280546001600160a01b0319166001600160a01b0392909216919091179055565b6107b3611604565b6001600160a01b0382166000908152600360205260409020805460ff1916821580159190911790915561088c5760005b60045481101561083b57826001600160a01b03166004828154811061080a5761080a611aa4565b6000918252602090912001546001600160a01b03160361082957505050565b8061083381611aba565b9150506107e3565b50600480546001810182556000919091527f8a35acfbc15ff81a39ae7d344fd709f28e8600b4aa8c65c6b64bfe7fe36bd19b0180546001600160a01b0319166001600160a01b038416179055610996565b60005b60045481101561099457826001600160a01b0316600482815481106108b6576108b6611aa4565b6000918252602090912001546001600160a01b03160361098257600480546108e090600190611ad3565b815481106108f0576108f0611aa4565b600091825260209091200154600480546001600160a01b03909216918390811061091c5761091c611aa4565b9060005260206000200160006101000a8154816001600160a01b0302191690836001600160a01b03160217905550600480548061095b5761095b611ae6565b600082815260209020810160001990810180546001600160a01b0319169055019055610994565b8061098c81611aba565b91505061088f565b505b816001600160a01b03167f3cd44c9ffcc58ef85c0b1cb3e60f01382feb190f42795e92a10ceb2d757a938c826040516109d3911515815260200190565b60405180910390a25b5050565b6000806109ed8484610538565b905060006109f96114f1565b90506000610a05611631565b905081600003610a1b576000935050505061077b565b600082610a288386611a6b565b610a329190611a82565b9050612710600854612710610a479190611ad3565b610a519083611a6b565b610a5b9190611a82565b979650505050505050565b610a6e611604565b600792909255600855600955565b60048181548110610a8c57600080fd5b6000918252602090912001546001600160a01b0316905081565b600080610ab16114f1565b90506000610abd611631565b905080600003610ad25760009250505061077b565b600081610adf8488611a6b565b610ae99190611a82565b90506000612710600754612710610b009190611ad3565b610b0a9084611a6b565b610b149190611a82565b6001600160a01b038088166000908152600560205260409020549192501680610b7f5760405162461bcd60e51b815260206004820152601c60248201527f54726561737572793a2050726963652066656564206e6f742073657400000000604482015260640161059e565b6001600160a01b03871660009081526006602052604090205480610be55760405162461bcd60e51b815260206004820152601a60248201527f54726561737572793a205175657279204944206e6f7420736574000000000000604482015260640161059e565b6040516331d98b3f60e01b81526004810182905282906000906001600160a01b038316906331d98b3f90602401602060405180830381865afa158015610c2f573d6000803e3d6000fd5b505050506040513d601f19601f82011682018060405250810190610c53919061190d565b905060008111610ca55760405162461bcd60e51b815260206004820152601e60248201527f54726561737572793a204f7261636c65207072696365206973207a65726f0000604482015260640161059e565b60008a6001600160a01b031663313ce5676040518163ffffffff1660e01b8152600401602060405180830381865afa158015610ce5573d6000803e3d6000fd5b505050506040513d601f19601f82011682018060405250810190610d099190611926565b9050610d1d82670de0b6b3a7640000611a6b565b610d296008600a611a43565b610d3483600a611a43565b610d3e9089611a6b565b610d489190611a6b565b610d529190611a82565b9c9b505050505050505050505050565b610d6a611604565b610d74600061174b565b565b610d7e61179b565b6001600160a01b03811660009081526003602052604090205460ff16610db65760405162461bcd60e51b815260040161059e90611afc565b6040516323b872dd60e01b8152336004820152306024820152604481018390526001600160a01b038216906323b872dd906064016020604051808303816000875af1158015610e09573d6000803e3d6000fd5b505050506040513d601f19601f82011682018060405250810190610e2d9190611b33565b506000610e3a83836109e0565b60025460405163a9059cbb60e01b8152336004820152602481018390529192506001600160a01b03169063a9059cbb906044016020604051808303816000875af1158015610e8c573d6000803e3d6000fd5b505050506040513d601f19601f82011682018060405250810190610eb09190611b33565b506000610ebb6114f1565b90506000610ec7611631565b604080518781526020810186905290810184905260608101829052600160808201529091506001600160a01b0385169033907f2e590d112dad4aaf19559922b6d9e0562a5dfb6ef2ac97c201e889743530405c9060a00160405180910390a35050506109dc60018055565b610f3a611604565b6001600160a01b03821660009081526003602052604090205460ff16610f725760405162461bcd60e51b815260040161059e90611afc565b6001600160a01b0382811660008181526005602052604080822080546001600160a01b0319169486169485179055517fd2d8394cf7549a5ddbc2ba3dd7b2de8d53c891472d1f2907008ed6a10045fdae9190a35050565b600080610fd46114f1565b90506000610fe0611631565b905080600003610ff4575060009392505050565b80610fff8386611a6b565b6110099190611a82565b949350505050565b6002546001600160a01b038381169116148061104557506001600160a01b03821660009081526003602052604090205460ff165b6110915760405162461bcd60e51b815260206004820152601760248201527f54726561737572793a20496e76616c696420746f6b656e000000000000000000604482015260640161059e565b6040516323b872dd60e01b8152336004820152306024820152604481018290526001600160a01b038316906323b872dd906064016020604051808303816000875af11580156110e4573d6000803e3d6000fd5b505050506040513d601f19601f820116820180604052508101906111089190611b33565b50816001600160a01b03167f549340764ea97c24d00be84b5402a70f793c845a1578490632afba2b65e5b137826040516109d391815260200190565b61114c61179b565b6001600160a01b03811660009081526003602052604090205460ff166111845760405162461bcd60e51b815260040161059e90611afc565b6002546040516323b872dd60e01b8152336004820152306024820152604481018490526001600160a01b03909116906323b872dd906064016020604051808303816000875af11580156111db573d6000803e3d6000fd5b505050506040513d601f19601f820116820180604052508101906111ff9190611b33565b506000612710600954846112139190611a6b565b61121d9190611a82565b9050600061122b8285611ad3565b9050811561129257600254604051630852cd8d60e31b8152600481018490526001600160a01b03909116906342966c6890602401600060405180830381600087803b15801561127957600080fd5b505af115801561128d573d6000803e3d6000fd5b505050505b600081156112a7576112a48285610aa6565b90505b6040516370a0823160e01b815230600482015281906001600160a01b038616906370a0823190602401602060405180830381865afa1580156112ed573d6000803e3d6000fd5b505050506040513d601f19601f82011682018060405250810190611311919061190d565b101561135f5760405162461bcd60e51b815260206004820152601f60248201527f54726561737572793a20496e73756666696369656e7420726573657276657300604482015260640161059e565b80156113d85760405163a9059cbb60e01b8152336004820152602481018290526001600160a01b0385169063a9059cbb906044016020604051808303816000875af11580156113b2573d6000803e3d6000fd5b505050506040513d601f19601f820116820180604052508101906113d69190611b33565b505b60006113e26114f1565b905060006113ee611631565b60408051858152602081018a905290810184905260608101829052600060808201529091506001600160a01b0387169033907f2e590d112dad4aaf19559922b6d9e0562a5dfb6ef2ac97c201e889743530405c9060a00160405180910390a350505050506109dc60018055565b60006114656114f1565b905090565b611472611604565b6001600160a01b03821660009081526003602052604090205460ff166114aa5760405162461bcd60e51b815260040161059e90611afc565b6001600160a01b038216600081815260066020526040808220849055518392917f7be46b5a1a89af40bc828b3ef14146891d36d93b67f082389d5fd24f031d31fa91a35050565b600080805b6004548110156115c05760006004828154811061151557611515611aa4565b60009182526020822001546040516370a0823160e01b81523060048201526001600160a01b03909116925082906370a0823190602401602060405180830381865afa158015611568573d6000803e3d6000fd5b505050506040513d601f19601f8201168201806040525081019061158c919061190d565b905080156115ab5761159e8183610538565b6115a89085611b50565b93505b505080806115b890611aba565b9150506114f6565b50919050565b6115ce611604565b6001600160a01b0381166115f857604051631e4fbdf760e01b81526000600482015260240161059e565b6116018161174b565b50565b6000546001600160a01b03163314610d745760405163118cdaa760e01b815233600482015260240161059e565b6002546000906001600160a01b031661164a5750600090565b600254604080516318160ddd60e01b815290516000926001600160a01b0316916318160ddd9160048083019260209291908290030181865afa158015611694573d6000803e3d6000fd5b505050506040513d601f19601f820116820180604052508101906116b8919061190d565b6002546040516370a0823160e01b81526000600482018190529293506001600160a01b03909116906370a0823190602401602060405180830381865afa158015611706573d6000803e3d6000fd5b505050506040513d601f19601f8201168201806040525081019061172a919061190d565b905080821161173a576000611744565b6117448183611ad3565b9250505090565b600080546001600160a01b038381166001600160a01b0319831681178455604051919092169283917f8be0079c531659141344cd1fd0a4f28419497f9722a3daafe3b4186f6b6457e09190a35050565b6002600154036117be57604051633ee5aeb560e01b815260040160405180910390fd5b6002600155565b80356001600160a01b03811681146117dc57600080fd5b919050565b600080604083850312156117f457600080fd5b82359150611804602084016117c5565b90509250929050565b60006020828403121561181f57600080fd5b611828826117c5565b9392505050565b801515811461160157600080fd5b6000806040838503121561185057600080fd5b611859836117c5565b915060208301356118698161182f565b809150509250929050565b60008060006060848603121561188957600080fd5b505081359360208301359350604090920135919050565b6000602082840312156118b257600080fd5b5035919050565b600080604083850312156118cc57600080fd5b6118d5836117c5565b9150611804602084016117c5565b600080604083850312156118f657600080fd5b6118ff836117c5565b946020939093013593505050565b60006020828403121561191f57600080fd5b5051919050565b60006020828403121561193857600080fd5b815160ff8116811461182857600080fd5b634e487b7160e01b600052601160045260246000fd5b600181815b8085111561199a57816000190482111561198057611980611949565b8085161561198d57918102915b93841c9390800290611964565b509250929050565b6000826119b15750600161077b565b816119be5750600061077b565b81600181146119d457600281146119de576119fa565b600191505061077b565b60ff8411156119ef576119ef611949565b50506001821b61077b565b5060208310610133831016604e8410600b8410161715611a1d575081810a61077b565b611a27838361195f565b8060001904821115611a3b57611a3b611949565b029392505050565b600061182860ff8416836119a2565b60ff828116828216039081111561077b5761077b611949565b808202811582820484141761077b5761077b611949565b600082611a9f57634e487b7160e01b600052601260045260246000fd5b500490565b634e487b7160e01b600052603260045260246000fd5b600060018201611acc57611acc611949565b5060010190565b8181038181111561077b5761077b611949565b634e487b7160e01b600052603160045260246000fd5b6020808252601f908201527f54726561737572793a20546f6b656e206e6f742077686974656c697374656400604082015260600190565b600060208284031215611b4557600080fd5b81516118288161182f565b8082018082111561077b5761077b61194956fea26469706673582212208c126638e1fd84b70c530b281172a9a2132fdcdfcab97acda920a4f66a58caff64736f6c63430008140033",
  "linkReferences": {},
  "deployedLinkReferences": {}
}