{
  "_format": "hh-sol-artifact-1",
  "contractName": "Treasury",
  "sourceName": "contracts/Treasury.sol",
  "abi": [
    {
      "inputs": [],
      "stateMutability": "nonpayable",
      "type": "constructor"
    },
    {
      "inputs": [
        {
          "internalType": "address",
          "name": "owner",
          "type": "address"
        }
      ],
      "name": "OwnableInvalidOwner",
      "type": "error"
    },
    {
      "inputs": [
        {
          "internalType": "address",
          "name": "account",
          "type": "address"
        }
      ],
      "name": "OwnableUnauthorizedAccount",
      "type": "error"
    },
    {
      "inputs": [],
      "name": "ReentrancyGuardReentrantCall",
      "type": "error"
    },
    {
      "anonymous": false,
      "inputs": [
        {
          "indexed": true,
          "internalType": "address",
          "name": "token",
          "type": "address"
        },
        {
          "indexed": false,
          "internalType": "bool",
          "name": "isWhitelisted",
          "type": "bool"
        }
      ],
      "name": "CollateralWhitelisted",
      "type": "event"
    },
    {
      "anonymous": false,
      "inputs": [
        {
          "indexed": true,
          "internalType": "address",
          "name": "token",
          "type": "address"
        },
        {
          "indexed": false,
          "internalType": "uint256",
          "name": "amount",
          "type": "uint256"
        }
      ],
      "name": "CommerceFeeReceived",
      "type": "event"
    },
    {
      "anonymous": false,
      "inputs": [
        {
          "indexed": true,
          "internalType": "address",
          "name": "sender",
          "type": "address"
        },
        {
          "indexed": true,
          "internalType": "address",
          "name": "collateralToken",
          "type": "address"
        },
        {
          "indexed": false,
          "internalType": "uint256",
          "name": "collateralAmount",
          "type": "uint256"
        },
        {
          "indexed": false,
          "internalType": "uint256",
          "name": "lmktAmount",
          "type": "uint256"
        },
        {
          "indexed": false,
          "internalType": "uint256",
          "name": "totalCollateral",
          "type": "uint256"
        },
        {
          "indexed": false,
          "internalType": "uint256",
          "name": "totalLmktValue",
          "type": "uint256"
        },
        {
          "indexed": false,
          "internalType": "bool",
          "name": "isBuy",
          "type": "bool"
        }
      ],
      "name": "MKTSwap",
      "type": "event"
    },
    {
      "anonymous": false,
      "inputs": [
        {
          "indexed": true,
          "internalType": "address",
          "name": "previousOwner",
          "type": "address"
        },
        {
          "indexed": true,
          "internalType": "address",
          "name": "newOwner",
          "type": "address"
        }
      ],
      "name": "OwnershipTransferred",
      "type": "event"
    },
    {
      "anonymous": false,
      "inputs": [
        {
          "indexed": true,
          "internalType": "address",
          "name": "token",
          "type": "address"
        },
        {
          "indexed": true,
          "internalType": "address",
          "name": "feed",
          "type": "address"
        }
      ],
      "name": "PriceFeedSet",
      "type": "event"
    },
    {
      "anonymous": false,
      "inputs": [
        {
          "indexed": true,
          "internalType": "address",
          "name": "token",
          "type": "address"
        },
        {
          "indexed": true,
          "internalType": "bytes32",
          "name": "queryId",
          "type": "bytes32"
        }
      ],
      "name": "TokenQueryIdSet",
      "type": "event"
    },
    {
      "inputs": [],
      "name": "BURN_RATE",
      "outputs": [
        {
          "internalType": "uint256",
          "name": "",
          "type": "uint256"
        }
      ],
      "stateMutability": "view",
      "type": "function"
    },
    {
      "inputs": [],
      "name": "BUY_DISCOUNT",
      "outputs": [
        {
          "internalType": "uint256",
          "name": "",
          "type": "uint256"
        }
      ],
      "stateMutability": "view",
      "type": "function"
    },
    {
      "inputs": [],
      "name": "HOLDING_CAP_BASE",
      "outputs": [
        {
          "internalType": "uint256",
          "name": "",
          "type": "uint256"
        }
      ],
      "stateMutability": "view",
      "type": "function"
    },
    {
      "inputs": [],
      "name": "HOLDING_CAP_PERCENT",
      "outputs": [
        {
          "internalType": "uint256",
          "name": "",
          "type": "uint256"
        }
      ],
      "stateMutability": "view",
      "type": "function"
    },
    {
      "inputs": [],
      "name": "ORACLE_PRICE_DECIMALS",
      "outputs": [
        {
          "internalType": "uint8",
          "name": "",
          "type": "uint8"
        }
      ],
      "stateMutability": "view",
      "type": "function"
    },
    {
      "inputs": [],
      "name": "SELL_PREMIUM",
      "outputs": [
        {
          "internalType": "uint256",
          "name": "",
          "type": "uint256"
        }
      ],
      "stateMutability": "view",
      "type": "function"
    },
    {
      "inputs": [],
      "name": "SPREAD_BASE",
      "outputs": [
        {
          "internalType": "uint256",
          "name": "",
          "type": "uint256"
        }
      ],
      "stateMutability": "view",
      "type": "function"
    },
    {
      "inputs": [
        {
          "internalType": "uint256",
          "name": "collateralAmount",
          "type": "uint256"
        },
        {
          "internalType": "address",
          "name": "collateralToken",
          "type": "address"
        }
      ],
      "name": "buyMkt",
      "outputs": [],
      "stateMutability": "nonpayable",
      "type": "function"
    },
    {
      "inputs": [
        {
          "internalType": "address",
          "name": "token",
          "type": "address"
        },
        {
          "internalType": "uint256",
          "name": "amount",
          "type": "uint256"
        }
      ],
      "name": "depositCommerceFee",
      "outputs": [],
      "stateMutability": "nonpayable",
      "type": "function"
    },
    {
      "inputs": [
        {
          "internalType": "uint256",
          "name": "lmktAmount",
          "type": "uint256"
        },
        {
          "internalType": "address",
          "name": "collateralToken",
          "type": "address"
        }
      ],
      "name": "getCollateralAmountForLmkt",
      "outputs": [
        {
          "internalType": "uint256",
          "name": "",
          "type": "uint256"
        }
      ],
      "stateMutability": "view",
      "type": "function"
    },
    {
      "inputs": [
        {
          "internalType": "uint256",
          "name": "amount",
          "type": "uint256"
        },
        {
          "internalType": "address",
          "name": "token",
          "type": "address"
        }
      ],
      "name": "getCollateralTokenValue",
      "outputs": [
        {
          "internalType": "uint256",
          "name": "",
          "type": "uint256"
        }
      ],
      "stateMutability": "view",
      "type": "function"
    },
    {
      "inputs": [
        {
          "internalType": "uint256",
          "name": "collateralAmount",
          "type": "uint256"
        },
        {
          "internalType": "address",
          "name": "collateralToken",
          "type": "address"
        }
      ],
      "name": "getLmktAmountForCollateral",
      "outputs": [
        {
          "internalType": "uint256",
          "name": "",
          "type": "uint256"
        }
      ],
      "stateMutability": "view",
      "type": "function"
    },
    {
      "inputs": [],
      "name": "getTotalCollateralValue",
      "outputs": [
        {
          "internalType": "uint256",
          "name": "",
          "type": "uint256"
        }
      ],
      "stateMutability": "view",
      "type": "function"
    },
    {
      "inputs": [
        {
          "internalType": "address",
          "name": "",
          "type": "address"
        }
      ],
      "name": "isWhitelistedCollateral",
      "outputs": [
        {
          "internalType": "bool",
          "name": "",
          "type": "bool"
        }
      ],
      "stateMutability": "view",
      "type": "function"
    },
    {
      "inputs": [],
      "name": "lmktToken",
      "outputs": [
        {
          "internalType": "contract ILMKT",
          "name": "",
          "type": "address"
        }
      ],
      "stateMutability": "view",
      "type": "function"
    },
    {
      "inputs": [],
      "name": "owner",
      "outputs": [
        {
          "internalType": "address",
          "name": "",
          "type": "address"
        }
      ],
      "stateMutability": "view",
      "type": "function"
    },
    {
      "inputs": [],
      "name": "renounceOwnership",
      "outputs": [],
      "stateMutability": "nonpayable",
      "type": "function"
    },
    {
      "inputs": [
        {
          "internalType": "uint256",
          "name": "lmktAmount",
          "type": "uint256"
        },
        {
          "internalType": "address",
          "name": "collateralToken",
          "type": "address"
        }
      ],
      "name": "sellMkt",
      "outputs": [],
      "stateMutability": "nonpayable",
      "type": "function"
    },
    {
      "inputs": [
        {
          "internalType": "uint256",
          "name": "_sellFee",
          "type": "uint256"
        },
        {
          "internalType": "uint256",
          "name": "_buyFee",
          "type": "uint256"
        },
        {
          "internalType": "uint256",
          "name": "_burnFee",
          "type": "uint256"
        }
      ],
      "name": "setFeeRate",
      "outputs": [],
      "stateMutability": "nonpayable",
      "type": "function"
    },
    {
      "inputs": [
        {
          "internalType": "address",
          "name": "_lmktTokenAddress",
          "type": "address"
        }
      ],
      "name": "setLmktAddress",
      "outputs": [],
      "stateMutability": "nonpayable",
      "type": "function"
    },
    {
      "inputs": [
        {
          "internalType": "address",
          "name": "_token",
          "type": "address"
        },
        {
          "internalType": "address",
          "name": "_feedAddress",
          "type": "address"
        }
      ],
      "name": "setPriceFeed",
      "outputs": [],
      "stateMutability": "nonpayable",
      "type": "function"
    },
    {
      "inputs": [
        {
          "internalType": "address",
          "name": "_token",
          "type": "address"
        },
        {
          "internalType": "bytes32",
          "name": "_queryId",
          "type": "bytes32"
        }
      ],
      "name": "setTokenQueryId",
      "outputs": [],
      "stateMutability": "nonpayable",
      "type": "function"
    },
    {
      "inputs": [
        {
          "internalType": "address",
          "name": "token",
          "type": "address"
        },
        {
          "internalType": "bool",
          "name": "isWhitelisted",
          "type": "bool"
        }
      ],
      "name": "setWhitelistedCollateral",
      "outputs": [],
      "stateMutability": "nonpayable",
      "type": "function"
    },
    {
      "inputs": [
        {
          "internalType": "address",
          "name": "",
          "type": "address"
        }
      ],
      "name": "tokenPriceFeeds",
      "outputs": [
        {
          "internalType": "address",
          "name": "",
          "type": "address"
        }
      ],
      "stateMutability": "view",
      "type": "function"
    },
    {
      "inputs": [
        {
          "internalType": "address",
          "name": "",
          "type": "address"
        }
      ],
      "name": "tokenQueryIds",
      "outputs": [
        {
          "internalType": "bytes32",
          "name": "",
          "type": "bytes32"
        }
      ],
      "stateMutability": "view",
      "type": "function"
    },
    {
      "inputs": [
        {
          "internalType": "address",
          "name": "newOwner",
          "type": "address"
        }
      ],
      "name": "transferOwnership",
      "outputs": [],
      "stateMutability": "nonpayable",
      "type": "function"
    },
    {
      "inputs": [
        {
          "internalType": "uint256",
          "name": "",
          "type": "uint256"
        }
      ],
      "name": "whitelistedCollateralTokens",
      "outputs": [
        {
          "internalType": "address",
          "name": "",
          "type": "address"
        }
      ],
      "stateMutability": "view",
      "type": "function"
    },
    {
      "stateMutability": "payable",
      "type": "receive"
    }
  ],
  "bytecode": "0x60806040526064600755606460085561271060095534801561002057600080fd5b50338061004757604051631e4fbdf760e01b81526000600482015260240160405180910390fd5b6100508161005a565b50600180556100aa565b600080546001600160a01b038381166001600160a01b0319831681178455604051919092169283917f8be0079c531659141344cd1fd0a4f28419497f9722a3daafe3b4186f6b6457e09190a35050565b611b7b806100b96000396000f3fe6080604052600436106101a05760003560e01c8063715018a6116100ec578063cf56e5aa1161008a578063f2dc739711610064578063f2dc7397146104a3578063f2fde38b146104b8578063f846a885146104d8578063f9839d89146104ee57600080fd5b8063cf56e5aa1461044e578063e3889a3f1461046e578063ed6493af1461048e57600080fd5b80638da5cb5b116100c65780638da5cb5b146103c45780639d568da3146103e2578063a7e014f6146103f8578063bd9c47e31461041857600080fd5b8063715018a61461036f57806374c5d7c21461038457806376e11286146103a457600080fd5b80633e7565a7116101595780635014c45c116101335780635014c45c146103035780635886418f1461032357806360192281146103395780636fb4bb4c1461035957600080fd5b80633e7565a7146102955780633f38cb10146102ab5780634850b217146102cb57600080fd5b8063094fcbfe146101ac5780630cca7bf5146101df5780631a0707391461020c5780631c9b9f0314610233578063253bcadc1461025557806333fc07501461027557600080fd5b366101a757005b600080fd5b3480156101b857600080fd5b506101cc6101c73660046117f5565b61052e565b6040519081526020015b60405180910390f35b3480156101eb57600080fd5b506101cc6101fa366004611821565b60066020526000908152604090205481565b34801561021857600080fd5b50610221600881565b60405160ff90911681526020016101d6565b34801561023f57600080fd5b5061025361024e366004611821565b610788565b005b34801561026157600080fd5b50610253610270366004611851565b6107b2565b34801561028157600080fd5b506101cc6102903660046117f5565b6109d3565b3480156102a157600080fd5b506101cc60085481565b3480156102b757600080fd5b506102536102c6366004611888565b610abf565b3480156102d757600080fd5b506102eb6102e63660046118b4565b610ad5565b6040516001600160a01b0390911681526020016101d6565b34801561030f57600080fd5b506002546102eb906001600160a01b031681565b34801561032f57600080fd5b506101cc6103e881565b34801561034557600080fd5b506101cc6103543660046117f5565b610aff565b34801561036557600080fd5b506101cc60075481565b34801561037b57600080fd5b50610253610c46565b34801561039057600080fd5b5061025361039f3660046117f5565b610c5a565b3480156103b057600080fd5b506102536103bf3660046118cd565b610fe8565b3480156103d057600080fd5b506000546001600160a01b03166102eb565b3480156103ee57600080fd5b506101cc61271081565b34801561040457600080fd5b506102536104133660046118f7565b6110d5565b34801561042457600080fd5b506102eb610433366004611821565b6005602052600090815260409020546001600160a01b031681565b34801561045a57600080fd5b506102536104693660046117f5565b61121e565b34801561047a57600080fd5b506102536104893660046118f7565b6115a3565b34801561049a57600080fd5b506101cc61162a565b3480156104af57600080fd5b506101cc600581565b3480156104c457600080fd5b506102536104d3366004611821565b6116f4565b3480156104e457600080fd5b506101cc60095481565b3480156104fa57600080fd5b5061051e610509366004611821565b60036020526000908152604090205460ff1681565b60405190151581526020016101d6565b6001600160a01b03808216600090815260056020526040812054909116806105ac5760405162461bcd60e51b815260206004820152602660248201527f54726561737572793a2050726963652066656564206e6f742073657420666f72604482015265103a37b5b2b760d11b60648201526084015b60405180910390fd5b6001600160a01b0383166000908152600660205260409020548061061e5760405162461bcd60e51b8152602060048201526024808201527f54726561737572793a205175657279204944206e6f742073657420666f72207460448201526337b5b2b760e11b60648201526084016105a3565b6040516331d98b3f60e01b81526004810182905282906000906001600160a01b038316906331d98b3f90602401602060405180830381865afa158015610668573d6000803e3d6000fd5b505050506040513d601f19601f8201168201806040525081019061068c9190611921565b9050600081116106f45760405162461bcd60e51b815260206004820152602d60248201527f54726561737572793a204f7261636c65207072696365206973207a65726f206f60448201526c1c881b9bdd081d5c19185d1959609a1b60648201526084016105a3565b6000866001600160a01b031663313ce5676040518163ffffffff1660e01b8152600401602060405180830381865afa158015610734573d6000803e3d6000fd5b505050506040513d601f19601f82011682018060405250810190610758919061193a565b90506107666008600a611a57565b610770838a611a66565b61077a9190611a7d565b955050505050505b92915050565b610790611732565b600280546001600160a01b0319166001600160a01b0392909216919091179055565b6107ba611732565b6001600160a01b0382166000908152600360205260409020805460ff191682158015919091179091556108895760005b60045481101561083857826001600160a01b03166004828154811061081157610811611a9f565b6000918252602090912001546001600160a01b03160361083057505050565b6001016107ea565b50600480546001810182556000919091527f8a35acfbc15ff81a39ae7d344fd709f28e8600b4aa8c65c6b64bfe7fe36bd19b0180546001600160a01b0319166001600160a01b038416179055610989565b60005b60045481101561098757826001600160a01b0316600482815481106108b3576108b3611a9f565b6000918252602090912001546001600160a01b03160361097f57600480546108dd90600190611ab5565b815481106108ed576108ed611a9f565b600091825260209091200154600480546001600160a01b03909216918390811061091957610919611a9f565b9060005260206000200160006101000a8154816001600160a01b0302191690836001600160a01b03160217905550600480548061095857610958611ac8565b600082815260209020810160001990810180546001600160a01b0319169055019055610987565b60010161088c565b505b816001600160a01b03167f3cd44c9ffcc58ef85c0b1cb3e60f01382feb190f42795e92a10ceb2d757a938c826040516109c6911515815260200190565b60405180910390a25b5050565b6000806109e0848461052e565b905060006109ec61162a565b6002546040516370a0823160e01b81523060048201529192506000916001600160a01b03909116906370a0823190602401602060405180830381865afa158015610a3a573d6000803e3d6000fd5b505050506040513d601f19601f82011682018060405250810190610a5e9190611921565b905081600003610a745760009350505050610782565b600082610a818386611a66565b610a8b9190611a7d565b9050612710600854612710610aa09190611ab5565b610aaa9083611a66565b610ab49190611a7d565b979650505050505050565b610ac7611732565b600792909255600855600955565b60048181548110610ae557600080fd5b6000918252602090912001546001600160a01b0316905081565b600080610b0a61162a565b6002546040516370a0823160e01b81523060048201529192506000916001600160a01b03909116906370a0823190602401602060405180830381865afa158015610b58573d6000803e3d6000fd5b505050506040513d601f19601f82011682018060405250810190610b7c9190611921565b905080600003610b9157600092505050610782565b600081610b9e8488611a66565b610ba89190611a7d565b90506000612710600754612710610bbf9190611ab5565b610bc99084611a66565b610bd39190611a7d565b90506000866001600160a01b031663313ce5676040518163ffffffff1660e01b8152600401602060405180830381865afa158015610c15573d6000803e3d6000fd5b505050506040513d601f19601f82011682018060405250810190610c39919061193a565b5090979650505050505050565b610c4e611732565b610c58600061175f565b565b610c626117af565b6001600160a01b03811660009081526003602052604090205460ff16610c9a5760405162461bcd60e51b81526004016105a390611ade565b6000610ca683836109d3565b905060006103e86005600260009054906101000a90046001600160a01b03166001600160a01b03166318160ddd6040518163ffffffff1660e01b8152600401602060405180830381865afa158015610d02573d6000803e3d6000fd5b505050506040513d601f19601f82011682018060405250810190610d269190611921565b610d309190611a66565b610d3a9190611a7d565b6002546040516370a0823160e01b8152336004820152919250829184916001600160a01b0316906370a0823190602401602060405180830381865afa158015610d87573d6000803e3d6000fd5b505050506040513d601f19601f82011682018060405250810190610dab9190611921565b610db59190611b15565b1115610e125760405162461bcd60e51b815260206004820152602660248201527f54726561737572793a205075726368617365206578636565647320686f6c646960448201526506e67206361760d41b60648201526084016105a3565b6040516323b872dd60e01b8152336004820152306024820152604481018590526001600160a01b038416906323b872dd906064016020604051808303816000875af1158015610e65573d6000803e3d6000fd5b505050506040513d601f19601f82011682018060405250810190610e899190611b28565b5060025460405163a9059cbb60e01b8152336004820152602481018490526001600160a01b039091169063a9059cbb906044016020604051808303816000875af1158015610edb573d6000803e3d6000fd5b505050506040513d601f19601f82011682018060405250810190610eff9190611b28565b506000610f0a61162a565b6002546040516370a0823160e01b81523060048201529192506000916001600160a01b03909116906370a0823190602401602060405180830381865afa158015610f58573d6000803e3d6000fd5b505050506040513d601f19601f82011682018060405250810190610f7c9190611921565b604080518881526020810187905290810184905260608101829052600160808201529091506001600160a01b0386169033907f2e590d112dad4aaf19559922b6d9e0562a5dfb6ef2ac97c201e889743530405c9060a00160405180910390a3505050506109cf60018055565b610ff0611732565b6001600160a01b03821660009081526003602052604090205460ff166110285760405162461bcd60e51b81526004016105a390611ade565b6001600160a01b03811661107e5760405162461bcd60e51b815260206004820152601e60248201527f54726561737572793a20496e76616c696420666565642061646472657373000060448201526064016105a3565b6001600160a01b0382811660008181526005602052604080822080546001600160a01b0319169486169485179055517fd2d8394cf7549a5ddbc2ba3dd7b2de8d53c891472d1f2907008ed6a10045fdae9190a35050565b6002546001600160a01b038381169116148061110957506001600160a01b03821660009081526003602052604090205460ff165b61116b5760405162461bcd60e51b815260206004820152602d60248201527f54726561737572793a2043616e206f6e6c79207265636569766520776869746560448201526c6c697374656420746f6b656e7360981b60648201526084016105a3565b6040516323b872dd60e01b8152336004820152306024820152604481018290526001600160a01b038316906323b872dd906064016020604051808303816000875af11580156111be573d6000803e3d6000fd5b505050506040513d601f19601f820116820180604052508101906111e29190611b28565b50816001600160a01b03167f549340764ea97c24d00be84b5402a70f793c845a1578490632afba2b65e5b137826040516109c691815260200190565b6112266117af565b6001600160a01b03811660009081526003602052604090205460ff1661125e5760405162461bcd60e51b81526004016105a390611ade565b6000612710600954846112719190611a66565b61127b9190611a7d565b905060006112898285611ab5565b905060006112978585610aff565b6040516370a0823160e01b815230600482015290915081906001600160a01b038616906370a0823190602401602060405180830381865afa1580156112e0573d6000803e3d6000fd5b505050506040513d601f19601f820116820180604052508101906113049190611921565b101561136e5760405162461bcd60e51b815260206004820152603360248201527f54726561737572793a20496e73756666696369656e7420726573657276657320604482015272199bdc881d1a1a5cc818dbdb1b185d195c985b606a1b60648201526084016105a3565b6002546040516323b872dd60e01b8152336004820152306024820152604481018790526001600160a01b03909116906323b872dd906064016020604051808303816000875af11580156113c5573d6000803e3d6000fd5b505050506040513d601f19601f820116820180604052508101906113e99190611b28565b50600254604051630852cd8d60e31b8152600481018590526001600160a01b03909116906342966c6890602401600060405180830381600087803b15801561143057600080fd5b505af1158015611444573d6000803e3d6000fd5b505060405163a9059cbb60e01b8152336004820152602481018490526001600160a01b038716925063a9059cbb91506044016020604051808303816000875af1158015611495573d6000803e3d6000fd5b505050506040513d601f19601f820116820180604052508101906114b99190611b28565b5060006114c461162a565b6002546040516370a0823160e01b81523060048201529192506000916001600160a01b03909116906370a0823190602401602060405180830381865afa158015611512573d6000803e3d6000fd5b505050506040513d601f19601f820116820180604052508101906115369190611921565b60408051858152602081018a905290810184905260608101829052600060808201529091506001600160a01b0387169033907f2e590d112dad4aaf19559922b6d9e0562a5dfb6ef2ac97c201e889743530405c9060a00160405180910390a350505050506109cf60018055565b6115ab611732565b6001600160a01b03821660009081526003602052604090205460ff166115e35760405162461bcd60e51b81526004016105a390611ade565b6001600160a01b038216600081815260066020526040808220849055518392917f7be46b5a1a89af40bc828b3ef14146891d36d93b67f082389d5fd24f031d31fa91a35050565b600080805b6004548110156116ee5760006004828154811061164e5761164e611a9f565b60009182526020822001546040516370a0823160e01b81523060048201526001600160a01b03909116925082906370a0823190602401602060405180830381865afa1580156116a1573d6000803e3d6000fd5b505050506040513d601f19601f820116820180604052508101906116c59190611921565b905080156116e4576116d7818361052e565b6116e19085611b15565b93505b505060010161162f565b50919050565b6116fc611732565b6001600160a01b03811661172657604051631e4fbdf760e01b8152600060048201526024016105a3565b61172f8161175f565b50565b6000546001600160a01b03163314610c585760405163118cdaa760e01b81523360048201526024016105a3565b600080546001600160a01b038381166001600160a01b0319831681178455604051919092169283917f8be0079c531659141344cd1fd0a4f28419497f9722a3daafe3b4186f6b6457e09190a35050565b6002600154036117d257604051633ee5aeb560e01b815260040160405180910390fd5b6002600155565b80356001600160a01b03811681146117f057600080fd5b919050565b6000806040838503121561180857600080fd5b82359150611818602084016117d9565b90509250929050565b60006020828403121561183357600080fd5b61183c826117d9565b9392505050565b801515811461172f57600080fd5b6000806040838503121561186457600080fd5b61186d836117d9565b9150602083013561187d81611843565b809150509250929050565b60008060006060848603121561189d57600080fd5b505081359360208301359350604090920135919050565b6000602082840312156118c657600080fd5b5035919050565b600080604083850312156118e057600080fd5b6118e9836117d9565b9150611818602084016117d9565b6000806040838503121561190a57600080fd5b611913836117d9565b946020939093013593505050565b60006020828403121561193357600080fd5b5051919050565b60006020828403121561194c57600080fd5b815160ff8116811461183c57600080fd5b634e487b7160e01b600052601160045260246000fd5b600181815b808511156119ae5781600019048211156119945761199461195d565b808516156119a157918102915b93841c9390800290611978565b509250929050565b6000826119c557506001610782565b816119d257506000610782565b81600181146119e857600281146119f257611a0e565b6001915050610782565b60ff841115611a0357611a0361195d565b50506001821b610782565b5060208310610133831016604e8410600b8410161715611a31575081810a610782565b611a3b8383611973565b8060001904821115611a4f57611a4f61195d565b029392505050565b600061183c60ff8416836119b6565b80820281158282048414176107825761078261195d565b600082611a9a57634e487b7160e01b600052601260045260246000fd5b500490565b634e487b7160e01b600052603260045260246000fd5b818103818111156107825761078261195d565b634e487b7160e01b600052603160045260246000fd5b6020808252601f908201527f54726561737572793a20546f6b656e206e6f742077686974656c697374656400604082015260600190565b808201808211156107825761078261195d565b600060208284031215611b3a57600080fd5b815161183c8161184356fea2646970667358221220052ce33a2e029e4dc6f8f8021b56d197db0705700b159aa3f3ea9d1aaa5a430f64736f6c63430008160033",
  "linkReferences": {},
  "deployedLinkReferences": {}
}