{
  "_format": "hh-sol-artifact-1",
  "contractName": "Treasury",
  "sourceName": "contracts/Treasury.sol",
  "abi": [
    {
      "inputs": [],
      "stateMutability": "nonpayable",
      "type": "constructor"
    },
    {
      "inputs": [
        {
          "internalType": "address",
          "name": "owner",
          "type": "address"
        }
      ],
      "name": "OwnableInvalidOwner",
      "type": "error"
    },
    {
      "inputs": [
        {
          "internalType": "address",
          "name": "account",
          "type": "address"
        }
      ],
      "name": "OwnableUnauthorizedAccount",
      "type": "error"
    },
    {
      "inputs": [],
      "name": "ReentrancyGuardReentrantCall",
      "type": "error"
    },
    {
      "inputs": [
        {
          "internalType": "address",
          "name": "token",
          "type": "address"
        }
      ],
      "name": "SafeERC20FailedOperation",
      "type": "error"
    },
    {
      "anonymous": false,
      "inputs": [
        {
          "indexed": true,
          "internalType": "address",
          "name": "token",
          "type": "address"
        },
        {
          "indexed": false,
          "internalType": "bool",
          "name": "isWhitelisted",
          "type": "bool"
        }
      ],
      "name": "CollateralWhitelisted",
      "type": "event"
    },
    {
      "anonymous": false,
      "inputs": [
        {
          "indexed": true,
          "internalType": "address",
          "name": "token",
          "type": "address"
        },
        {
          "indexed": false,
          "internalType": "uint256",
          "name": "amount",
          "type": "uint256"
        }
      ],
      "name": "CommerceFeeReceived",
      "type": "event"
    },
    {
      "anonymous": false,
      "inputs": [
        {
          "indexed": false,
          "internalType": "uint256",
          "name": "sellPremium",
          "type": "uint256"
        },
        {
          "indexed": false,
          "internalType": "uint256",
          "name": "buyDiscount",
          "type": "uint256"
        },
        {
          "indexed": false,
          "internalType": "uint256",
          "name": "burnRate",
          "type": "uint256"
        }
      ],
      "name": "FeeRateSet",
      "type": "event"
    },
    {
      "anonymous": false,
      "inputs": [
        {
          "indexed": true,
          "internalType": "address",
          "name": "sender",
          "type": "address"
        },
        {
          "indexed": true,
          "internalType": "address",
          "name": "collateralToken",
          "type": "address"
        },
        {
          "indexed": false,
          "internalType": "uint256",
          "name": "collateralAmount",
          "type": "uint256"
        },
        {
          "indexed": false,
          "internalType": "uint256",
          "name": "lmktAmount",
          "type": "uint256"
        },
        {
          "indexed": false,
          "internalType": "uint256",
          "name": "totalCollateral",
          "type": "uint256"
        },
        {
          "indexed": false,
          "internalType": "uint256",
          "name": "circulatingSupply",
          "type": "uint256"
        },
        {
          "indexed": false,
          "internalType": "bool",
          "name": "isBuy",
          "type": "bool"
        }
      ],
      "name": "MKTSwap",
      "type": "event"
    },
    {
      "anonymous": false,
      "inputs": [
        {
          "indexed": true,
          "internalType": "address",
          "name": "previousOwner",
          "type": "address"
        },
        {
          "indexed": true,
          "internalType": "address",
          "name": "newOwner",
          "type": "address"
        }
      ],
      "name": "OwnershipTransferred",
      "type": "event"
    },
    {
      "anonymous": false,
      "inputs": [
        {
          "indexed": true,
          "internalType": "address",
          "name": "token",
          "type": "address"
        },
        {
          "indexed": true,
          "internalType": "address",
          "name": "feed",
          "type": "address"
        }
      ],
      "name": "PriceFeedSet",
      "type": "event"
    },
    {
      "anonymous": false,
      "inputs": [
        {
          "indexed": true,
          "internalType": "address",
          "name": "token",
          "type": "address"
        },
        {
          "indexed": true,
          "internalType": "bytes32",
          "name": "queryId",
          "type": "bytes32"
        }
      ],
      "name": "TokenQueryIdSet",
      "type": "event"
    },
    {
      "inputs": [],
      "name": "BURN_RATE",
      "outputs": [
        {
          "internalType": "uint256",
          "name": "",
          "type": "uint256"
        }
      ],
      "stateMutability": "view",
      "type": "function"
    },
    {
      "inputs": [],
      "name": "BUY_DISCOUNT",
      "outputs": [
        {
          "internalType": "uint256",
          "name": "",
          "type": "uint256"
        }
      ],
      "stateMutability": "view",
      "type": "function"
    },
    {
      "inputs": [],
      "name": "LMKT_PRICE_DECIMALS",
      "outputs": [
        {
          "internalType": "uint8",
          "name": "",
          "type": "uint8"
        }
      ],
      "stateMutability": "view",
      "type": "function"
    },
    {
      "inputs": [],
      "name": "ORACLE_PRICE_DECIMALS",
      "outputs": [
        {
          "internalType": "uint8",
          "name": "",
          "type": "uint8"
        }
      ],
      "stateMutability": "view",
      "type": "function"
    },
    {
      "inputs": [],
      "name": "SELL_PREMIUM",
      "outputs": [
        {
          "internalType": "uint256",
          "name": "",
          "type": "uint256"
        }
      ],
      "stateMutability": "view",
      "type": "function"
    },
    {
      "inputs": [],
      "name": "SPREAD_BASE",
      "outputs": [
        {
          "internalType": "uint256",
          "name": "",
          "type": "uint256"
        }
      ],
      "stateMutability": "view",
      "type": "function"
    },
    {
      "inputs": [
        {
          "internalType": "uint256",
          "name": "collateralAmount",
          "type": "uint256"
        },
        {
          "internalType": "address",
          "name": "collateralToken",
          "type": "address"
        },
        {
          "internalType": "uint256",
          "name": "minLmktOut",
          "type": "uint256"
        }
      ],
      "name": "buyMkt",
      "outputs": [],
      "stateMutability": "nonpayable",
      "type": "function"
    },
    {
      "inputs": [
        {
          "internalType": "address",
          "name": "token",
          "type": "address"
        },
        {
          "internalType": "uint256",
          "name": "amount",
          "type": "uint256"
        }
      ],
      "name": "depositCommerceFee",
      "outputs": [],
      "stateMutability": "nonpayable",
      "type": "function"
    },
    {
      "inputs": [
        {
          "internalType": "uint256",
          "name": "lmktAmount",
          "type": "uint256"
        },
        {
          "internalType": "address",
          "name": "collateralToken",
          "type": "address"
        }
      ],
      "name": "getCollateralAmountForLmkt",
      "outputs": [
        {
          "internalType": "uint256",
          "name": "",
          "type": "uint256"
        }
      ],
      "stateMutability": "view",
      "type": "function"
    },
    {
      "inputs": [
        {
          "internalType": "uint256",
          "name": "amount",
          "type": "uint256"
        },
        {
          "internalType": "address",
          "name": "token",
          "type": "address"
        }
      ],
      "name": "getCollateralTokenValue",
      "outputs": [
        {
          "internalType": "uint256",
          "name": "",
          "type": "uint256"
        }
      ],
      "stateMutability": "view",
      "type": "function"
    },
    {
      "inputs": [
        {
          "internalType": "uint256",
          "name": "collateralAmount",
          "type": "uint256"
        },
        {
          "internalType": "address",
          "name": "collateralToken",
          "type": "address"
        }
      ],
      "name": "getLmktAmountForCollateral",
      "outputs": [
        {
          "internalType": "uint256",
          "name": "",
          "type": "uint256"
        }
      ],
      "stateMutability": "view",
      "type": "function"
    },
    {
      "inputs": [],
      "name": "getLmktPriceInUsd",
      "outputs": [
        {
          "internalType": "uint256",
          "name": "",
          "type": "uint256"
        }
      ],
      "stateMutability": "view",
      "type": "function"
    },
    {
      "inputs": [],
      "name": "getTotalCollateralValue",
      "outputs": [
        {
          "internalType": "uint256",
          "name": "",
          "type": "uint256"
        }
      ],
      "stateMutability": "view",
      "type": "function"
    },
    {
      "inputs": [
        {
          "internalType": "address",
          "name": "",
          "type": "address"
        }
      ],
      "name": "isWhitelistedCollateral",
      "outputs": [
        {
          "internalType": "bool",
          "name": "",
          "type": "bool"
        }
      ],
      "stateMutability": "view",
      "type": "function"
    },
    {
      "inputs": [],
      "name": "lmktToken",
      "outputs": [
        {
          "internalType": "contract ILMKT",
          "name": "",
          "type": "address"
        }
      ],
      "stateMutability": "view",
      "type": "function"
    },
    {
      "inputs": [],
      "name": "owner",
      "outputs": [
        {
          "internalType": "address",
          "name": "",
          "type": "address"
        }
      ],
      "stateMutability": "view",
      "type": "function"
    },
    {
      "inputs": [],
      "name": "renounceOwnership",
      "outputs": [],
      "stateMutability": "nonpayable",
      "type": "function"
    },
    {
      "inputs": [
        {
          "internalType": "uint256",
          "name": "lmktAmount",
          "type": "uint256"
        },
        {
          "internalType": "address",
          "name": "collateralToken",
          "type": "address"
        },
        {
          "internalType": "uint256",
          "name": "minCollateralOut",
          "type": "uint256"
        }
      ],
      "name": "sellMkt",
      "outputs": [],
      "stateMutability": "nonpayable",
      "type": "function"
    },
    {
      "inputs": [
        {
          "internalType": "uint256",
          "name": "_sellPremium",
          "type": "uint256"
        },
        {
          "internalType": "uint256",
          "name": "_buyDiscount",
          "type": "uint256"
        },
        {
          "internalType": "uint256",
          "name": "_burnRate",
          "type": "uint256"
        }
      ],
      "name": "setFeeRate",
      "outputs": [],
      "stateMutability": "nonpayable",
      "type": "function"
    },
    {
      "inputs": [
        {
          "internalType": "address",
          "name": "_lmktTokenAddress",
          "type": "address"
        }
      ],
      "name": "setLmktAddress",
      "outputs": [],
      "stateMutability": "nonpayable",
      "type": "function"
    },
    {
      "inputs": [
        {
          "internalType": "address",
          "name": "_token",
          "type": "address"
        },
        {
          "internalType": "address",
          "name": "_feedAddress",
          "type": "address"
        }
      ],
      "name": "setPriceFeed",
      "outputs": [],
      "stateMutability": "nonpayable",
      "type": "function"
    },
    {
      "inputs": [
        {
          "internalType": "address",
          "name": "_token",
          "type": "address"
        },
        {
          "internalType": "bytes32",
          "name": "_queryId",
          "type": "bytes32"
        }
      ],
      "name": "setTokenQueryId",
      "outputs": [],
      "stateMutability": "nonpayable",
      "type": "function"
    },
    {
      "inputs": [
        {
          "internalType": "address",
          "name": "token",
          "type": "address"
        },
        {
          "internalType": "bool",
          "name": "isWhitelisted",
          "type": "bool"
        }
      ],
      "name": "setWhitelistedCollateral",
      "outputs": [],
      "stateMutability": "nonpayable",
      "type": "function"
    },
    {
      "inputs": [
        {
          "internalType": "address",
          "name": "",
          "type": "address"
        }
      ],
      "name": "tokenPriceFeeds",
      "outputs": [
        {
          "internalType": "contract IPriceOracle",
          "name": "",
          "type": "address"
        }
      ],
      "stateMutability": "view",
      "type": "function"
    },
    {
      "inputs": [
        {
          "internalType": "address",
          "name": "",
          "type": "address"
        }
      ],
      "name": "tokenQueryIds",
      "outputs": [
        {
          "internalType": "bytes32",
          "name": "",
          "type": "bytes32"
        }
      ],
      "stateMutability": "view",
      "type": "function"
    },
    {
      "inputs": [
        {
          "internalType": "address",
          "name": "newOwner",
          "type": "address"
        }
      ],
      "name": "transferOwnership",
      "outputs": [],
      "stateMutability": "nonpayable",
      "type": "function"
    },
    {
      "inputs": [
        {
          "internalType": "uint256",
          "name": "",
          "type": "uint256"
        }
      ],
      "name": "whitelistedCollateralTokens",
      "outputs": [
        {
          "internalType": "address",
          "name": "",
          "type": "address"
        }
      ],
      "stateMutability": "view",
      "type": "function"
    }
  ],
  "bytecode": "0x608060405260646007556064600855606460095534801561001f57600080fd5b50338061004657604051631e4fbdf760e01b81526000600482015260240160405180910390fd5b61004f81610059565b50600180556100a9565b600080546001600160a01b038381166001600160a01b0319831681178455604051919092169283917f8be0079c531659141344cd1fd0a4f28419497f9722a3daafe3b4186f6b6457e09190a35050565b611ab4806100b86000396000f3fe608060405234801561001057600080fd5b50600436106101a95760003560e01c8063715018a6116100f9578063bd9c47e311610097578063f2fde38b11610071578063f2fde38b14610366578063f846a88514610379578063f9839d8914610382578063fcff6a7e146103b557600080fd5b8063bd9c47e314610322578063e3889a3f1461034b578063ed6493af1461035e57600080fd5b80638da5cb5b116100d35780638da5cb5b146102f55780639d568da314610306578063a7e014f61461030f578063b0f2b04b146101f457600080fd5b8063715018a6146102d257806376e11286146102da57806377ab491d146102ed57600080fd5b806333fc0750116101665780634850b217116101405780634850b217146102785780635014c45c146102a357806360192281146102b65780636fb4bb4c146102c957600080fd5b806333fc0750146102495780633e7565a71461025c5780633f38cb101461026557600080fd5b8063094fcbfe146101ae5780630cca7bf5146101d45780631a070739146101f45780631c9b9f031461020e578063253bcadc146102235780632ae6a26414610236575b600080fd5b6101c16101bc3660046116c1565b6103c8565b6040519081526020015b60405180910390f35b6101c16101e23660046116ed565b60066020526000908152604090205481565b6101fc600881565b60405160ff90911681526020016101cb565b61022161021c3660046116ed565b61060e565b005b61022161023136600461170f565b610638565b61022161024436600461174b565b610858565b6101c16102573660046116c1565b610a28565b6101c160085481565b610221610273366004611780565b610b10565b61028b6102863660046117ac565b610b6d565b6040516001600160a01b0390911681526020016101cb565b60025461028b906001600160a01b031681565b6101c16102c43660046116c1565b610b97565b6101c160075481565b610221610eb8565b6102216102e83660046117c5565b610ecc565b6101c1610f63565b6000546001600160a01b031661028b565b6101c161271081565b61022161031d3660046117ef565b611024565b61028b6103303660046116ed565b6005602052600090815260409020546001600160a01b031681565b6102216103593660046117ef565b6110f4565b6101c161117b565b6102216103743660046116ed565b611245565b6101c160095481565b6103a56103903660046116ed565b60036020526000908152604090205460ff1681565b60405190151581526020016101cb565b6102216103c336600461174b565b611283565b6001600160a01b03808216600090815260056020526040812054909116806104375760405162461bcd60e51b815260206004820152601c60248201527f54726561737572793a2050726963652066656564206e6f74207365740000000060448201526064015b60405180910390fd5b6001600160a01b0383166000908152600660205260409020548061049d5760405162461bcd60e51b815260206004820152601a60248201527f54726561737572793a205175657279204944206e6f7420736574000000000000604482015260640161042e565b6040516331d98b3f60e01b8152600481018290526000906001600160a01b038416906331d98b3f90602401602060405180830381865afa1580156104e5573d6000803e3d6000fd5b505050506040513d601f19601f820116820180604052508101906105099190611819565b90506000811161055b5760405162461bcd60e51b815260206004820152601e60248201527f54726561737572793a204f7261636c65207072696365206973207a65726f0000604482015260640161042e565b6000856001600160a01b031663313ce5676040518163ffffffff1660e01b8152600401602060405180830381865afa15801561059b573d6000803e3d6000fd5b505050506040513d601f19601f820116820180604052508101906105bf9190611832565b90506105cc81600a61194f565b6105d86008601261195e565b6105e390600a61194f565b6105ed848a611977565b6105f79190611977565b610601919061198e565b9450505050505b92915050565b6106166114ef565b600280546001600160a01b0319166001600160a01b0392909216919091179055565b6106406114ef565b6001600160a01b0382166000908152600360205260409020805460ff1916821580159190911790915561070f5760005b6004548110156106be57826001600160a01b031660048281548110610697576106976119b0565b6000918252602090912001546001600160a01b0316036106b657505050565b600101610670565b50600480546001810182556000919091527f8a35acfbc15ff81a39ae7d344fd709f28e8600b4aa8c65c6b64bfe7fe36bd19b0180546001600160a01b0319166001600160a01b03841617905561080f565b60005b60045481101561080d57826001600160a01b031660048281548110610739576107396119b0565b6000918252602090912001546001600160a01b0316036108055760048054610763906001906119c6565b81548110610773576107736119b0565b600091825260209091200154600480546001600160a01b03909216918390811061079f5761079f6119b0565b9060005260206000200160006101000a8154816001600160a01b0302191690836001600160a01b0316021790555060048054806107de576107de6119d9565b600082815260209020810160001990810180546001600160a01b031916905501905561080d565b600101610712565b505b816001600160a01b03167f3cd44c9ffcc58ef85c0b1cb3e60f01382feb190f42795e92a10ceb2d757a938c8260405161084c911515815260200190565b60405180910390a25050565b61086061151c565b600083116108b05760405162461bcd60e51b815260206004820152601c60248201527f54726561737572793a20416d6f756e74206d757374206265203e203000000000604482015260640161042e565b6001600160a01b03821660009081526003602052604090205460ff166108e85760405162461bcd60e51b815260040161042e906119ef565b6108fd6001600160a01b038316333086611546565b60006109098484610a28565b90508181101561092b5760405162461bcd60e51b815260040161042e90611a26565b600254610942906001600160a01b031633836115b3565b6001600160a01b038316337f2e590d112dad4aaf19559922b6d9e0562a5dfb6ef2ac97c201e889743530405c868461097861117b565b600260009054906101000a90046001600160a01b03166001600160a01b03166318160ddd6040518163ffffffff1660e01b8152600401602060405180830381865afa1580156109cb573d6000803e3d6000fd5b505050506040513d601f19601f820116820180604052508101906109ef9190611819565b6040805194855260208501939093529183015260608201526001608082015260a00160405180910390a350610a2360018055565b505050565b600080610a3584846103c8565b90506000610a4161117b565b90506000600260009054906101000a90046001600160a01b03166001600160a01b03166318160ddd6040518163ffffffff1660e01b8152600401602060405180830381865afa158015610a98573d6000803e3d6000fd5b505050506040513d601f19601f82011682018060405250810190610abc9190611819565b9050811580610ac9575080155b15610ada5760009350505050610608565b600082610ae78386611977565b610af1919061198e565b9050612710600854612710610b0691906119c6565b6105f79083611977565b610b186114ef565b60078390556008829055600981905560408051848152602081018490529081018290527f314b3a229d281dfc37ce48bb834382581c80b48de4cea4d8c6031ed2205bfb799060600160405180910390a1505050565b60048181548110610b7d57600080fd5b6000918252602090912001546001600160a01b0316905081565b600080610ba261117b565b90506000600260009054906101000a90046001600160a01b03166001600160a01b03166318160ddd6040518163ffffffff1660e01b8152600401602060405180830381865afa158015610bf9573d6000803e3d6000fd5b505050506040513d601f19601f82011682018060405250810190610c1d9190611819565b905080600003610c3257600092505050610608565b600081610c3f8488611977565b610c49919061198e565b90506000612710600754612710610c6091906119c6565b610c6a9084611977565b610c74919061198e565b6001600160a01b038088166000908152600560205260409020549192501680610cdf5760405162461bcd60e51b815260206004820152601c60248201527f54726561737572793a2050726963652066656564206e6f742073657400000000604482015260640161042e565b6001600160a01b03871660009081526006602052604090205480610d455760405162461bcd60e51b815260206004820152601a60248201527f54726561737572793a205175657279204944206e6f7420736574000000000000604482015260640161042e565b6040516331d98b3f60e01b8152600481018290526000906001600160a01b038416906331d98b3f90602401602060405180830381865afa158015610d8d573d6000803e3d6000fd5b505050506040513d601f19601f82011682018060405250810190610db19190611819565b905060008111610e035760405162461bcd60e51b815260206004820152601e60248201527f54726561737572793a204f7261636c65207072696365206973207a65726f0000604482015260640161042e565b6000896001600160a01b031663313ce5676040518163ffffffff1660e01b8152600401602060405180830381865afa158015610e43573d6000803e3d6000fd5b505050506040513d601f19601f82011682018060405250810190610e679190611832565b9050610e756008601261195e565b610e8090600a61194f565b610e8a9083611977565b610e9582600a61194f565b610e9f9087611977565b610ea9919061198e565b9b9a5050505050505050505050565b610ec06114ef565b610eca60006115e4565b565b610ed46114ef565b6001600160a01b03821660009081526003602052604090205460ff16610f0c5760405162461bcd60e51b815260040161042e906119ef565b6001600160a01b0382811660008181526005602052604080822080546001600160a01b0319169486169485179055517fd2d8394cf7549a5ddbc2ba3dd7b2de8d53c891472d1f2907008ed6a10045fdae9190a35050565b600080610f6e61117b565b90506000600260009054906101000a90046001600160a01b03166001600160a01b03166318160ddd6040518163ffffffff1660e01b8152600401602060405180830381865afa158015610fc5573d6000803e3d6000fd5b505050506040513d601f19601f82011682018060405250810190610fe99190611819565b905080600003610ffc5760009250505090565b806110096008600a61194f565b6110139084611977565b61101d919061198e565b9250505090565b6002546001600160a01b038381169116148061105857506001600160a01b03821660009081526003602052604090205460ff165b6110a45760405162461bcd60e51b815260206004820152601760248201527f54726561737572793a20496e76616c696420746f6b656e000000000000000000604482015260640161042e565b6110b96001600160a01b038316333084611546565b816001600160a01b03167f549340764ea97c24d00be84b5402a70f793c845a1578490632afba2b65e5b1378260405161084c91815260200190565b6110fc6114ef565b6001600160a01b03821660009081526003602052604090205460ff166111345760405162461bcd60e51b815260040161042e906119ef565b6001600160a01b038216600081815260066020526040808220849055518392917f7be46b5a1a89af40bc828b3ef14146891d36d93b67f082389d5fd24f031d31fa91a35050565b600080805b60045481101561123f5760006004828154811061119f5761119f6119b0565b60009182526020822001546040516370a0823160e01b81523060048201526001600160a01b03909116925082906370a0823190602401602060405180830381865afa1580156111f2573d6000803e3d6000fd5b505050506040513d601f19601f820116820180604052508101906112169190611819565b905080156112355761122881836103c8565b6112329085611a6b565b93505b5050600101611180565b50919050565b61124d6114ef565b6001600160a01b03811661127757604051631e4fbdf760e01b81526000600482015260240161042e565b611280816115e4565b50565b61128b61151c565b600083116112db5760405162461bcd60e51b815260206004820152601c60248201527f54726561737572793a20416d6f756e74206d757374206265203e203000000000604482015260640161042e565b6001600160a01b03821660009081526003602052604090205460ff166113135760405162461bcd60e51b815260040161042e906119ef565b60025461132b906001600160a01b0316333086611546565b60006127106009548561133e9190611977565b611348919061198e565b905080156113af57600254604051630852cd8d60e31b8152600481018390526001600160a01b03909116906342966c6890602401600060405180830381600087803b15801561139657600080fd5b505af11580156113aa573d6000803e3d6000fd5b505050505b60006113bb82866119c6565b9050600081156113d2576113cf8286610b97565b90505b838110156113f25760405162461bcd60e51b815260040161042e90611a26565b801561140c5761140c6001600160a01b03861633836115b3565b6001600160a01b038516337f2e590d112dad4aaf19559922b6d9e0562a5dfb6ef2ac97c201e889743530405c838961144261117b565b600260009054906101000a90046001600160a01b03166001600160a01b03166318160ddd6040518163ffffffff1660e01b8152600401602060405180830381865afa158015611495573d6000803e3d6000fd5b505050506040513d601f19601f820116820180604052508101906114b99190611819565b6040805194855260208501939093529183015260608201526000608082015260a00160405180910390a3505050610a2360018055565b6000546001600160a01b03163314610eca5760405163118cdaa760e01b815233600482015260240161042e565b60026001540361153f57604051633ee5aeb560e01b815260040160405180910390fd5b6002600155565b6040516001600160a01b0384811660248301528381166044830152606482018390526115ad9186918216906323b872dd906084015b604051602081830303815290604052915060e01b6020820180516001600160e01b038381831617835250505050611634565b50505050565b6040516001600160a01b03838116602483015260448201839052610a2391859182169063a9059cbb9060640161157b565b600080546001600160a01b038381166001600160a01b0319831681178455604051919092169283917f8be0079c531659141344cd1fd0a4f28419497f9722a3daafe3b4186f6b6457e09190a35050565b600080602060008451602086016000885af180611657576040513d6000823e3d81fd5b50506000513d9150811561166f57806001141561167c565b6001600160a01b0384163b155b156115ad57604051635274afe760e01b81526001600160a01b038516600482015260240161042e565b80356001600160a01b03811681146116bc57600080fd5b919050565b600080604083850312156116d457600080fd5b823591506116e4602084016116a5565b90509250929050565b6000602082840312156116ff57600080fd5b611708826116a5565b9392505050565b6000806040838503121561172257600080fd5b61172b836116a5565b91506020830135801515811461174057600080fd5b809150509250929050565b60008060006060848603121561176057600080fd5b83359250611770602085016116a5565b9150604084013590509250925092565b60008060006060848603121561179557600080fd5b505081359360208301359350604090920135919050565b6000602082840312156117be57600080fd5b5035919050565b600080604083850312156117d857600080fd5b6117e1836116a5565b91506116e4602084016116a5565b6000806040838503121561180257600080fd5b61180b836116a5565b946020939093013593505050565b60006020828403121561182b57600080fd5b5051919050565b60006020828403121561184457600080fd5b815160ff8116811461170857600080fd5b634e487b7160e01b600052601160045260246000fd5b600181815b808511156118a657816000190482111561188c5761188c611855565b8085161561189957918102915b93841c9390800290611870565b509250929050565b6000826118bd57506001610608565b816118ca57506000610608565b81600181146118e057600281146118ea57611906565b6001915050610608565b60ff8411156118fb576118fb611855565b50506001821b610608565b5060208310610133831016604e8410600b8410161715611929575081810a610608565b611933838361186b565b806000190482111561194757611947611855565b029392505050565b600061170860ff8416836118ae565b60ff828116828216039081111561060857610608611855565b808202811582820484141761060857610608611855565b6000826119ab57634e487b7160e01b600052601260045260246000fd5b500490565b634e487b7160e01b600052603260045260246000fd5b8181038181111561060857610608611855565b634e487b7160e01b600052603160045260246000fd5b6020808252601f908201527f54726561737572793a20546f6b656e206e6f742077686974656c697374656400604082015260600190565b60208082526025908201527f54726561737572793a20536c69707061676520746f6c6572616e636520657863604082015264195959195960da1b606082015260800190565b808201808211156106085761060861185556fea264697066735822122030f2b368039d717c85c54a11bc4c3631bcf11076a045531efc47d26fee8cbe1164736f6c63430008160033",
  "linkReferences": {},
  "deployedLinkReferences": {}
}