{
  "_format": "hh-sol-artifact-1",
  "contractName": "Treasury",
  "sourceName": "contracts/Treasury.sol",
  "abi": [
    {
      "inputs": [],
      "stateMutability": "nonpayable",
      "type": "constructor"
    },
    {
      "inputs": [
        {
          "internalType": "address",
          "name": "owner",
          "type": "address"
        }
      ],
      "name": "OwnableInvalidOwner",
      "type": "error"
    },
    {
      "inputs": [
        {
          "internalType": "address",
          "name": "account",
          "type": "address"
        }
      ],
      "name": "OwnableUnauthorizedAccount",
      "type": "error"
    },
    {
      "inputs": [],
      "name": "ReentrancyGuardReentrantCall",
      "type": "error"
    },
    {
      "inputs": [
        {
          "internalType": "address",
          "name": "token",
          "type": "address"
        }
      ],
      "name": "SafeERC20FailedOperation",
      "type": "error"
    },
    {
      "anonymous": false,
      "inputs": [
        {
          "indexed": true,
          "internalType": "address",
          "name": "token",
          "type": "address"
        },
        {
          "indexed": false,
          "internalType": "bool",
          "name": "isWhitelisted",
          "type": "bool"
        }
      ],
      "name": "CollateralWhitelisted",
      "type": "event"
    },
    {
      "anonymous": false,
      "inputs": [
        {
          "indexed": true,
          "internalType": "address",
          "name": "token",
          "type": "address"
        },
        {
          "indexed": false,
          "internalType": "uint256",
          "name": "amount",
          "type": "uint256"
        }
      ],
      "name": "CommerceFeeReceived",
      "type": "event"
    },
    {
      "anonymous": false,
      "inputs": [
        {
          "indexed": false,
          "internalType": "uint256",
          "name": "sellPremium",
          "type": "uint256"
        },
        {
          "indexed": false,
          "internalType": "uint256",
          "name": "buyDiscount",
          "type": "uint256"
        }
      ],
      "name": "FeeRateSet",
      "type": "event"
    },
    {
      "anonymous": false,
      "inputs": [
        {
          "indexed": true,
          "internalType": "address",
          "name": "sender",
          "type": "address"
        },
        {
          "indexed": true,
          "internalType": "address",
          "name": "collateralToken",
          "type": "address"
        },
        {
          "indexed": false,
          "internalType": "uint256",
          "name": "collateralAmount",
          "type": "uint256"
        },
        {
          "indexed": false,
          "internalType": "uint256",
          "name": "lmktAmount",
          "type": "uint256"
        },
        {
          "indexed": false,
          "internalType": "uint256",
          "name": "totalCollateral",
          "type": "uint256"
        },
        {
          "indexed": false,
          "internalType": "uint256",
          "name": "circulatingSupply",
          "type": "uint256"
        },
        {
          "indexed": false,
          "internalType": "bool",
          "name": "isBuy",
          "type": "bool"
        }
      ],
      "name": "MKTSwap",
      "type": "event"
    },
    {
      "anonymous": false,
      "inputs": [
        {
          "indexed": true,
          "internalType": "address",
          "name": "previousOwner",
          "type": "address"
        },
        {
          "indexed": true,
          "internalType": "address",
          "name": "newOwner",
          "type": "address"
        }
      ],
      "name": "OwnershipTransferred",
      "type": "event"
    },
    {
      "anonymous": false,
      "inputs": [
        {
          "indexed": true,
          "internalType": "address",
          "name": "token",
          "type": "address"
        },
        {
          "indexed": true,
          "internalType": "address",
          "name": "feed",
          "type": "address"
        }
      ],
      "name": "PriceFeedSet",
      "type": "event"
    },
    {
      "anonymous": false,
      "inputs": [
        {
          "indexed": true,
          "internalType": "address",
          "name": "token",
          "type": "address"
        },
        {
          "indexed": true,
          "internalType": "bytes32",
          "name": "queryId",
          "type": "bytes32"
        }
      ],
      "name": "TokenQueryIdSet",
      "type": "event"
    },
    {
      "inputs": [],
      "name": "BUY_DISCOUNT",
      "outputs": [
        {
          "internalType": "uint256",
          "name": "",
          "type": "uint256"
        }
      ],
      "stateMutability": "view",
      "type": "function"
    },
    {
      "inputs": [],
      "name": "LMKT_PRICE_DECIMALS",
      "outputs": [
        {
          "internalType": "uint8",
          "name": "",
          "type": "uint8"
        }
      ],
      "stateMutability": "view",
      "type": "function"
    },
    {
      "inputs": [],
      "name": "ORACLE_PRICE_DECIMALS",
      "outputs": [
        {
          "internalType": "uint8",
          "name": "",
          "type": "uint8"
        }
      ],
      "stateMutability": "view",
      "type": "function"
    },
    {
      "inputs": [],
      "name": "SELL_PREMIUM",
      "outputs": [
        {
          "internalType": "uint256",
          "name": "",
          "type": "uint256"
        }
      ],
      "stateMutability": "view",
      "type": "function"
    },
    {
      "inputs": [],
      "name": "SPREAD_BASE",
      "outputs": [
        {
          "internalType": "uint256",
          "name": "",
          "type": "uint256"
        }
      ],
      "stateMutability": "view",
      "type": "function"
    },
    {
      "inputs": [
        {
          "internalType": "uint256",
          "name": "collateralAmount",
          "type": "uint256"
        },
        {
          "internalType": "address",
          "name": "collateralToken",
          "type": "address"
        },
        {
          "internalType": "uint256",
          "name": "minLmktOut",
          "type": "uint256"
        }
      ],
      "name": "buyMkt",
      "outputs": [],
      "stateMutability": "nonpayable",
      "type": "function"
    },
    {
      "inputs": [
        {
          "internalType": "address",
          "name": "token",
          "type": "address"
        },
        {
          "internalType": "uint256",
          "name": "amount",
          "type": "uint256"
        }
      ],
      "name": "depositCommerceFee",
      "outputs": [],
      "stateMutability": "nonpayable",
      "type": "function"
    },
    {
      "inputs": [
        {
          "internalType": "uint256",
          "name": "lmktAmount",
          "type": "uint256"
        },
        {
          "internalType": "address",
          "name": "collateralToken",
          "type": "address"
        }
      ],
      "name": "getCollateralAmountForLmkt",
      "outputs": [
        {
          "internalType": "uint256",
          "name": "",
          "type": "uint256"
        }
      ],
      "stateMutability": "view",
      "type": "function"
    },
    {
      "inputs": [
        {
          "internalType": "uint256",
          "name": "amount",
          "type": "uint256"
        },
        {
          "internalType": "address",
          "name": "token",
          "type": "address"
        }
      ],
      "name": "getCollateralTokenValue",
      "outputs": [
        {
          "internalType": "uint256",
          "name": "",
          "type": "uint256"
        }
      ],
      "stateMutability": "view",
      "type": "function"
    },
    {
      "inputs": [
        {
          "internalType": "uint256",
          "name": "collateralAmount",
          "type": "uint256"
        },
        {
          "internalType": "address",
          "name": "collateralToken",
          "type": "address"
        }
      ],
      "name": "getLmktAmountForCollateral",
      "outputs": [
        {
          "internalType": "uint256",
          "name": "",
          "type": "uint256"
        }
      ],
      "stateMutability": "view",
      "type": "function"
    },
    {
      "inputs": [],
      "name": "getLmktPriceInUsd",
      "outputs": [
        {
          "internalType": "uint256",
          "name": "",
          "type": "uint256"
        }
      ],
      "stateMutability": "view",
      "type": "function"
    },
    {
      "inputs": [],
      "name": "getTotalCollateralValue",
      "outputs": [
        {
          "internalType": "uint256",
          "name": "",
          "type": "uint256"
        }
      ],
      "stateMutability": "view",
      "type": "function"
    },
    {
      "inputs": [
        {
          "internalType": "address",
          "name": "",
          "type": "address"
        }
      ],
      "name": "isWhitelistedCollateral",
      "outputs": [
        {
          "internalType": "bool",
          "name": "",
          "type": "bool"
        }
      ],
      "stateMutability": "view",
      "type": "function"
    },
    {
      "inputs": [],
      "name": "lmktToken",
      "outputs": [
        {
          "internalType": "contract ILMKT",
          "name": "",
          "type": "address"
        }
      ],
      "stateMutability": "view",
      "type": "function"
    },
    {
      "inputs": [],
      "name": "owner",
      "outputs": [
        {
          "internalType": "address",
          "name": "",
          "type": "address"
        }
      ],
      "stateMutability": "view",
      "type": "function"
    },
    {
      "inputs": [],
      "name": "renounceOwnership",
      "outputs": [],
      "stateMutability": "nonpayable",
      "type": "function"
    },
    {
      "inputs": [
        {
          "internalType": "uint256",
          "name": "lmktAmount",
          "type": "uint256"
        },
        {
          "internalType": "address",
          "name": "collateralToken",
          "type": "address"
        },
        {
          "internalType": "uint256",
          "name": "minCollateralOut",
          "type": "uint256"
        }
      ],
      "name": "sellMkt",
      "outputs": [],
      "stateMutability": "nonpayable",
      "type": "function"
    },
    {
      "inputs": [
        {
          "internalType": "uint256",
          "name": "_sellPremium",
          "type": "uint256"
        },
        {
          "internalType": "uint256",
          "name": "_buyDiscount",
          "type": "uint256"
        }
      ],
      "name": "setFeeRate",
      "outputs": [],
      "stateMutability": "nonpayable",
      "type": "function"
    },
    {
      "inputs": [
        {
          "internalType": "address",
          "name": "_lmktTokenAddress",
          "type": "address"
        }
      ],
      "name": "setLmktAddress",
      "outputs": [],
      "stateMutability": "nonpayable",
      "type": "function"
    },
    {
      "inputs": [
        {
          "internalType": "address",
          "name": "_token",
          "type": "address"
        },
        {
          "internalType": "address",
          "name": "_feedAddress",
          "type": "address"
        }
      ],
      "name": "setPriceFeed",
      "outputs": [],
      "stateMutability": "nonpayable",
      "type": "function"
    },
    {
      "inputs": [
        {
          "internalType": "address",
          "name": "_token",
          "type": "address"
        },
        {
          "internalType": "bytes32",
          "name": "_queryId",
          "type": "bytes32"
        }
      ],
      "name": "setTokenQueryId",
      "outputs": [],
      "stateMutability": "nonpayable",
      "type": "function"
    },
    {
      "inputs": [
        {
          "internalType": "address",
          "name": "token",
          "type": "address"
        },
        {
          "internalType": "bool",
          "name": "isWhitelisted",
          "type": "bool"
        }
      ],
      "name": "setWhitelistedCollateral",
      "outputs": [],
      "stateMutability": "nonpayable",
      "type": "function"
    },
    {
      "inputs": [
        {
          "internalType": "address",
          "name": "",
          "type": "address"
        }
      ],
      "name": "tokenPriceFeeds",
      "outputs": [
        {
          "internalType": "address",
          "name": "",
          "type": "address"
        }
      ],
      "stateMutability": "view",
      "type": "function"
    },
    {
      "inputs": [
        {
          "internalType": "address",
          "name": "",
          "type": "address"
        }
      ],
      "name": "tokenQueryIds",
      "outputs": [
        {
          "internalType": "bytes32",
          "name": "",
          "type": "bytes32"
        }
      ],
      "stateMutability": "view",
      "type": "function"
    },
    {
      "inputs": [
        {
          "internalType": "address",
          "name": "newOwner",
          "type": "address"
        }
      ],
      "name": "transferOwnership",
      "outputs": [],
      "stateMutability": "nonpayable",
      "type": "function"
    },
    {
      "inputs": [
        {
          "internalType": "uint256",
          "name": "",
          "type": "uint256"
        }
      ],
      "name": "whitelistedCollateralTokens",
      "outputs": [
        {
          "internalType": "address",
          "name": "",
          "type": "address"
        }
      ],
      "stateMutability": "view",
      "type": "function"
    }
  ],
  "bytecode": "0x60806040526064600755606460085534801561001a57600080fd5b50338061004157604051631e4fbdf760e01b81526000600482015260240160405180910390fd5b61004a81610054565b50600180556100a4565b600080546001600160a01b038381166001600160a01b0319831681178455604051919092169283917f8be0079c531659141344cd1fd0a4f28419497f9722a3daafe3b4186f6b6457e09190a35050565b611aa9806100b36000396000f3fe608060405234801561001057600080fd5b506004361061018e5760003560e01c806376e11286116100de578063bd9c47e311610097578063f2d2a75111610071578063f2d2a75114610338578063f2fde38b1461034b578063f9839d891461035e578063fcff6a7e1461039157600080fd5b8063bd9c47e3146102f4578063e3889a3f1461031d578063ed6493af1461033057600080fd5b806376e11286146102ac57806377ab491d146102bf5780638da5cb5b146102c75780639d568da3146102d8578063a7e014f6146102e1578063b0f2b04b146101d957600080fd5b806333fc07501161014b5780635014c45c116101255780635014c45c1461027557806360192281146102885780636fb4bb4c1461029b578063715018a6146102a457600080fd5b806333fc07501461022e5780633e7565a7146102415780634850b2171461024a57600080fd5b8063094fcbfe146101935780630cca7bf5146101b95780631a070739146101d95780631c9b9f03146101f3578063253bcadc146102085780632ae6a2641461021b575b600080fd5b6101a66101a13660046116c0565b6103a4565b6040519081526020015b60405180910390f35b6101a66101c73660046116ec565b60066020526000908152604090205481565b6101e1600881565b60405160ff90911681526020016101b0565b6102066102013660046116ec565b6105ed565b005b61020661021636600461170e565b610617565b61020661022936600461174a565b610837565b6101a661023c3660046116c0565b610a5e565b6101a660085481565b61025d61025836600461177f565b610b5b565b6040516001600160a01b0390911681526020016101b0565b60025461025d906001600160a01b031681565b6101a66102963660046116c0565b610b85565b6101a660075481565b610206610ea9565b6102066102ba366004611798565b610ebd565b6101a6610f54565b6000546001600160a01b031661025d565b6101a661271081565b6102066102ef3660046117c2565b611015565b61025d6103023660046116ec565b6005602052600090815260409020546001600160a01b031681565b61020661032b3660046117c2565b6110e5565b6101a661116c565b6102066103463660046117ec565b611236565b6102066103593660046116ec565b611285565b61038161036c3660046116ec565b60036020526000908152604090205460ff1681565b60405190151581526020016101b0565b61020661039f36600461174a565b6112c3565b6001600160a01b03808216600090815260056020526040812054909116806104135760405162461bcd60e51b815260206004820152601c60248201527f54726561737572793a2050726963652066656564206e6f74207365740000000060448201526064015b60405180910390fd5b6001600160a01b03831660009081526006602052604090205481908061047b5760405162461bcd60e51b815260206004820152601a60248201527f54726561737572793a205175657279204944206e6f7420736574000000000000604482015260640161040a565b6040516331d98b3f60e01b8152600481018290526000906001600160a01b038416906331d98b3f90602401602060405180830381865afa1580156104c3573d6000803e3d6000fd5b505050506040513d601f19601f820116820180604052508101906104e7919061180e565b9050600081116105395760405162461bcd60e51b815260206004820152601e60248201527f54726561737572793a204f7261636c65207072696365206973207a65726f0000604482015260640161040a565b6000866001600160a01b031663313ce5676040518163ffffffff1660e01b8152600401602060405180830381865afa158015610579573d6000803e3d6000fd5b505050506040513d601f19601f8201168201806040525081019061059d9190611827565b90506105aa81600a611944565b6105b660086012611953565b6105c190600a611944565b6105cb848b61196c565b6105d5919061196c565b6105df9190611983565b955050505050505b92915050565b6105f56114ee565b600280546001600160a01b0319166001600160a01b0392909216919091179055565b61061f6114ee565b6001600160a01b0382166000908152600360205260409020805460ff191682158015919091179091556106ee5760005b60045481101561069d57826001600160a01b031660048281548110610676576106766119a5565b6000918252602090912001546001600160a01b03160361069557505050565b60010161064f565b50600480546001810182556000919091527f8a35acfbc15ff81a39ae7d344fd709f28e8600b4aa8c65c6b64bfe7fe36bd19b0180546001600160a01b0319166001600160a01b0384161790556107ee565b60005b6004548110156107ec57826001600160a01b031660048281548110610718576107186119a5565b6000918252602090912001546001600160a01b0316036107e45760048054610742906001906119bb565b81548110610752576107526119a5565b600091825260209091200154600480546001600160a01b03909216918390811061077e5761077e6119a5565b9060005260206000200160006101000a8154816001600160a01b0302191690836001600160a01b0316021790555060048054806107bd576107bd6119ce565b600082815260209020810160001990810180546001600160a01b03191690550190556107ec565b6001016106f1565b505b816001600160a01b03167f3cd44c9ffcc58ef85c0b1cb3e60f01382feb190f42795e92a10ceb2d757a938c8260405161082b911515815260200190565b60405180910390a25050565b61083f61151b565b6000831161088f5760405162461bcd60e51b815260206004820152601c60248201527f54726561737572793a20416d6f756e74206d757374206265203e203000000000604482015260640161040a565b6001600160a01b03821660009081526003602052604090205460ff166108c75760405162461bcd60e51b815260040161040a906119e4565b60006108d38484610a5e565b9050818110156108f55760405162461bcd60e51b815260040161040a90611a1b565b61090a6001600160a01b038416333087611545565b6002546040516340c10f1960e01b8152336004820152602481018390526001600160a01b03909116906340c10f1990604401600060405180830381600087803b15801561095657600080fd5b505af115801561096a573d6000803e3d6000fd5b50505050826001600160a01b0316336001600160a01b03167f2e590d112dad4aaf19559922b6d9e0562a5dfb6ef2ac97c201e889743530405c86846109ad61116c565b600260009054906101000a90046001600160a01b03166001600160a01b03166318160ddd6040518163ffffffff1660e01b8152600401602060405180830381865afa158015610a00573d6000803e3d6000fd5b505050506040513d601f19601f82011682018060405250810190610a24919061180e565b6040805194855260208501939093529183015260608201526001608082015260a0015b60405180910390a350610a5960018055565b505050565b600080610a6b84846103a4565b90506000610a7761116c565b90506000600260009054906101000a90046001600160a01b03166001600160a01b03166318160ddd6040518163ffffffff1660e01b8152600401602060405180830381865afa158015610ace573d6000803e3d6000fd5b505050506040513d601f19601f82011682018060405250810190610af2919061180e565b9050811580610aff575080155b15610b1057600093505050506105e7565b600082610b1d838661196c565b610b279190611983565b9050612710600854612710610b3c91906119bb565b610b46908361196c565b610b509190611983565b979650505050505050565b60048181548110610b6b57600080fd5b6000918252602090912001546001600160a01b0316905081565b600080610b9061116c565b90506000600260009054906101000a90046001600160a01b03166001600160a01b03166318160ddd6040518163ffffffff1660e01b8152600401602060405180830381865afa158015610be7573d6000803e3d6000fd5b505050506040513d601f19601f82011682018060405250810190610c0b919061180e565b905080600003610c20576000925050506105e7565b600081610c2d848861196c565b610c379190611983565b90506000612710600754612710610c4e91906119bb565b610c58908461196c565b610c629190611983565b6001600160a01b038088166000908152600560205260409020549192501680610ccd5760405162461bcd60e51b815260206004820152601c60248201527f54726561737572793a2050726963652066656564206e6f742073657400000000604482015260640161040a565b6001600160a01b038716600090815260066020526040902054819080610d355760405162461bcd60e51b815260206004820152601a60248201527f54726561737572793a205175657279204944206e6f7420736574000000000000604482015260640161040a565b6040516331d98b3f60e01b8152600481018290526000906001600160a01b038416906331d98b3f90602401602060405180830381865afa158015610d7d573d6000803e3d6000fd5b505050506040513d601f19601f82011682018060405250810190610da1919061180e565b905060008111610df35760405162461bcd60e51b815260206004820152601e60248201527f54726561737572793a204f7261636c65207072696365206973207a65726f0000604482015260640161040a565b60008a6001600160a01b031663313ce5676040518163ffffffff1660e01b8152600401602060405180830381865afa158015610e33573d6000803e3d6000fd5b505050506040513d601f19601f82011682018060405250810190610e579190611827565b9050610e6560086012611953565b610e7090600a611944565b610e7a908361196c565b610e8582600a611944565b610e8f908861196c565b610e999190611983565b9c9b505050505050505050505050565b610eb16114ee565b610ebb60006115b2565b565b610ec56114ee565b6001600160a01b03821660009081526003602052604090205460ff16610efd5760405162461bcd60e51b815260040161040a906119e4565b6001600160a01b0382811660008181526005602052604080822080546001600160a01b0319169486169485179055517fd2d8394cf7549a5ddbc2ba3dd7b2de8d53c891472d1f2907008ed6a10045fdae9190a35050565b600080610f5f61116c565b90506000600260009054906101000a90046001600160a01b03166001600160a01b03166318160ddd6040518163ffffffff1660e01b8152600401602060405180830381865afa158015610fb6573d6000803e3d6000fd5b505050506040513d601f19601f82011682018060405250810190610fda919061180e565b905080600003610fed5760009250505090565b80610ffa6008600a611944565b611004908461196c565b61100e9190611983565b9250505090565b6002546001600160a01b038381169116148061104957506001600160a01b03821660009081526003602052604090205460ff165b6110955760405162461bcd60e51b815260206004820152601760248201527f54726561737572793a20496e76616c696420746f6b656e000000000000000000604482015260640161040a565b6110aa6001600160a01b038316333084611545565b816001600160a01b03167f549340764ea97c24d00be84b5402a70f793c845a1578490632afba2b65e5b1378260405161082b91815260200190565b6110ed6114ee565b6001600160a01b03821660009081526003602052604090205460ff166111255760405162461bcd60e51b815260040161040a906119e4565b6001600160a01b038216600081815260066020526040808220849055518392917f7be46b5a1a89af40bc828b3ef14146891d36d93b67f082389d5fd24f031d31fa91a35050565b600080805b60045481101561123057600060048281548110611190576111906119a5565b60009182526020822001546040516370a0823160e01b81523060048201526001600160a01b03909116925082906370a0823190602401602060405180830381865afa1580156111e3573d6000803e3d6000fd5b505050506040513d601f19601f82011682018060405250810190611207919061180e565b905080156112265761121981836103a4565b6112239085611a60565b93505b5050600101611171565b50919050565b61123e6114ee565b6007829055600881905560408051838152602081018390527f959ec4191db1bd972bfbc60dc7d735d4cfb897ca3fd297f4ebd6ee918feb84d4910160405180910390a15050565b61128d6114ee565b6001600160a01b0381166112b757604051631e4fbdf760e01b81526000600482015260240161040a565b6112c0816115b2565b50565b6112cb61151b565b6000831161131b5760405162461bcd60e51b815260206004820152601c60248201527f54726561737572793a20416d6f756e74206d757374206265203e203000000000604482015260640161040a565b6001600160a01b03821660009081526003602052604090205460ff166113535760405162461bcd60e51b815260040161040a906119e4565b60025461136b906001600160a01b0316333086611545565b60006113778484610b85565b9050818110156113995760405162461bcd60e51b815260040161040a90611a1b565b80156113b3576113b36001600160a01b0384163383611602565b600254604051630852cd8d60e31b8152600481018690526001600160a01b03909116906342966c6890602401600060405180830381600087803b1580156113f957600080fd5b505af115801561140d573d6000803e3d6000fd5b50505050826001600160a01b0316336001600160a01b03167f2e590d112dad4aaf19559922b6d9e0562a5dfb6ef2ac97c201e889743530405c838761145061116c565b600260009054906101000a90046001600160a01b03166001600160a01b03166318160ddd6040518163ffffffff1660e01b8152600401602060405180830381865afa1580156114a3573d6000803e3d6000fd5b505050506040513d601f19601f820116820180604052508101906114c7919061180e565b6040805194855260208501939093529183015260608201526000608082015260a001610a47565b6000546001600160a01b03163314610ebb5760405163118cdaa760e01b815233600482015260240161040a565b60026001540361153e57604051633ee5aeb560e01b815260040160405180910390fd5b6002600155565b6040516001600160a01b0384811660248301528381166044830152606482018390526115ac9186918216906323b872dd906084015b604051602081830303815290604052915060e01b6020820180516001600160e01b038381831617835250505050611633565b50505050565b600080546001600160a01b038381166001600160a01b0319831681178455604051919092169283917f8be0079c531659141344cd1fd0a4f28419497f9722a3daafe3b4186f6b6457e09190a35050565b6040516001600160a01b03838116602483015260448201839052610a5991859182169063a9059cbb9060640161157a565b600080602060008451602086016000885af180611656576040513d6000823e3d81fd5b50506000513d9150811561166e57806001141561167b565b6001600160a01b0384163b155b156115ac57604051635274afe760e01b81526001600160a01b038516600482015260240161040a565b80356001600160a01b03811681146116bb57600080fd5b919050565b600080604083850312156116d357600080fd5b823591506116e3602084016116a4565b90509250929050565b6000602082840312156116fe57600080fd5b611707826116a4565b9392505050565b6000806040838503121561172157600080fd5b61172a836116a4565b91506020830135801515811461173f57600080fd5b809150509250929050565b60008060006060848603121561175f57600080fd5b8335925061176f602085016116a4565b9150604084013590509250925092565b60006020828403121561179157600080fd5b5035919050565b600080604083850312156117ab57600080fd5b6117b4836116a4565b91506116e3602084016116a4565b600080604083850312156117d557600080fd5b6117de836116a4565b946020939093013593505050565b600080604083850312156117ff57600080fd5b50508035926020909101359150565b60006020828403121561182057600080fd5b5051919050565b60006020828403121561183957600080fd5b815160ff8116811461170757600080fd5b634e487b7160e01b600052601160045260246000fd5b600181815b8085111561189b5781600019048211156118815761188161184a565b8085161561188e57918102915b93841c9390800290611865565b509250929050565b6000826118b2575060016105e7565b816118bf575060006105e7565b81600181146118d557600281146118df576118fb565b60019150506105e7565b60ff8411156118f0576118f061184a565b50506001821b6105e7565b5060208310610133831016604e8410600b841016171561191e575081810a6105e7565b6119288383611860565b806000190482111561193c5761193c61184a565b029392505050565b600061170760ff8416836118a3565b60ff82811682821603908111156105e7576105e761184a565b80820281158282048414176105e7576105e761184a565b6000826119a057634e487b7160e01b600052601260045260246000fd5b500490565b634e487b7160e01b600052603260045260246000fd5b818103818111156105e7576105e761184a565b634e487b7160e01b600052603160045260246000fd5b6020808252601f908201527f54726561737572793a20546f6b656e206e6f742077686974656c697374656400604082015260600190565b60208082526025908201527f54726561737572793a20536c69707061676520746f6c6572616e636520657863604082015264195959195960da1b606082015260800190565b808201808211156105e7576105e761184a56fea264697066735822122075b89bc7793fe3985faa6c0ffbebf4cb607eb510f53292afbba698351413b0ef64736f6c63430008160033",
  "linkReferences": {},
  "deployedLinkReferences": {}
}