{
  "_format": "hh-sol-artifact-1",
  "contractName": "Treasury",
  "sourceName": "contracts/Treasury.sol",
  "abi": [
    {
      "inputs": [],
      "stateMutability": "nonpayable",
      "type": "constructor"
    },
    {
      "inputs": [
        {
          "internalType": "address",
          "name": "owner",
          "type": "address"
        }
      ],
      "name": "OwnableInvalidOwner",
      "type": "error"
    },
    {
      "inputs": [
        {
          "internalType": "address",
          "name": "account",
          "type": "address"
        }
      ],
      "name": "OwnableUnauthorizedAccount",
      "type": "error"
    },
    {
      "inputs": [],
      "name": "ReentrancyGuardReentrantCall",
      "type": "error"
    },
    {
      "anonymous": false,
      "inputs": [
        {
          "indexed": true,
          "internalType": "address",
          "name": "token",
          "type": "address"
        },
        {
          "indexed": false,
          "internalType": "bool",
          "name": "isWhitelisted",
          "type": "bool"
        }
      ],
      "name": "CollateralWhitelisted",
      "type": "event"
    },
    {
      "anonymous": false,
      "inputs": [
        {
          "indexed": true,
          "internalType": "address",
          "name": "token",
          "type": "address"
        },
        {
          "indexed": false,
          "internalType": "uint256",
          "name": "amount",
          "type": "uint256"
        }
      ],
      "name": "CommerceFeeReceived",
      "type": "event"
    },
    {
      "anonymous": false,
      "inputs": [
        {
          "indexed": true,
          "internalType": "address",
          "name": "sender",
          "type": "address"
        },
        {
          "indexed": true,
          "internalType": "address",
          "name": "collateralToken",
          "type": "address"
        },
        {
          "indexed": false,
          "internalType": "uint256",
          "name": "collateralAmount",
          "type": "uint256"
        },
        {
          "indexed": false,
          "internalType": "uint256",
          "name": "lmktAmount",
          "type": "uint256"
        },
        {
          "indexed": false,
          "internalType": "uint256",
          "name": "totalCollateral",
          "type": "uint256"
        },
        {
          "indexed": false,
          "internalType": "uint256",
          "name": "totalLmktValue",
          "type": "uint256"
        },
        {
          "indexed": false,
          "internalType": "bool",
          "name": "isBuy",
          "type": "bool"
        }
      ],
      "name": "MKTSwap",
      "type": "event"
    },
    {
      "anonymous": false,
      "inputs": [
        {
          "indexed": true,
          "internalType": "address",
          "name": "previousOwner",
          "type": "address"
        },
        {
          "indexed": true,
          "internalType": "address",
          "name": "newOwner",
          "type": "address"
        }
      ],
      "name": "OwnershipTransferred",
      "type": "event"
    },
    {
      "anonymous": false,
      "inputs": [
        {
          "indexed": true,
          "internalType": "address",
          "name": "token",
          "type": "address"
        },
        {
          "indexed": true,
          "internalType": "address",
          "name": "feed",
          "type": "address"
        }
      ],
      "name": "PriceFeedSet",
      "type": "event"
    },
    {
      "anonymous": false,
      "inputs": [
        {
          "indexed": true,
          "internalType": "address",
          "name": "token",
          "type": "address"
        },
        {
          "indexed": true,
          "internalType": "bytes32",
          "name": "queryId",
          "type": "bytes32"
        }
      ],
      "name": "TokenQueryIdSet",
      "type": "event"
    },
    {
      "inputs": [],
      "name": "BURN_RATE",
      "outputs": [
        {
          "internalType": "uint256",
          "name": "",
          "type": "uint256"
        }
      ],
      "stateMutability": "view",
      "type": "function"
    },
    {
      "inputs": [],
      "name": "BUY_DISCOUNT",
      "outputs": [
        {
          "internalType": "uint256",
          "name": "",
          "type": "uint256"
        }
      ],
      "stateMutability": "view",
      "type": "function"
    },
    {
      "inputs": [],
      "name": "HOLDING_CAP_BASE",
      "outputs": [
        {
          "internalType": "uint256",
          "name": "",
          "type": "uint256"
        }
      ],
      "stateMutability": "view",
      "type": "function"
    },
    {
      "inputs": [],
      "name": "HOLDING_CAP_PERCENT",
      "outputs": [
        {
          "internalType": "uint256",
          "name": "",
          "type": "uint256"
        }
      ],
      "stateMutability": "view",
      "type": "function"
    },
    {
      "inputs": [],
      "name": "ORACLE_PRICE_DECIMALS",
      "outputs": [
        {
          "internalType": "uint8",
          "name": "",
          "type": "uint8"
        }
      ],
      "stateMutability": "view",
      "type": "function"
    },
    {
      "inputs": [],
      "name": "SELL_PREMIUM",
      "outputs": [
        {
          "internalType": "uint256",
          "name": "",
          "type": "uint256"
        }
      ],
      "stateMutability": "view",
      "type": "function"
    },
    {
      "inputs": [],
      "name": "SPREAD_BASE",
      "outputs": [
        {
          "internalType": "uint256",
          "name": "",
          "type": "uint256"
        }
      ],
      "stateMutability": "view",
      "type": "function"
    },
    {
      "inputs": [
        {
          "internalType": "uint256",
          "name": "collateralAmount",
          "type": "uint256"
        },
        {
          "internalType": "address",
          "name": "collateralToken",
          "type": "address"
        }
      ],
      "name": "buyMkt",
      "outputs": [],
      "stateMutability": "nonpayable",
      "type": "function"
    },
    {
      "inputs": [
        {
          "internalType": "address",
          "name": "token",
          "type": "address"
        },
        {
          "internalType": "uint256",
          "name": "amount",
          "type": "uint256"
        }
      ],
      "name": "depositCommerceFee",
      "outputs": [],
      "stateMutability": "nonpayable",
      "type": "function"
    },
    {
      "inputs": [
        {
          "internalType": "address",
          "name": "token",
          "type": "address"
        },
        {
          "internalType": "uint256",
          "name": "amount",
          "type": "uint256"
        }
      ],
      "name": "depositTreasury",
      "outputs": [],
      "stateMutability": "nonpayable",
      "type": "function"
    },
    {
      "inputs": [
        {
          "internalType": "uint256",
          "name": "lmktAmount",
          "type": "uint256"
        },
        {
          "internalType": "address",
          "name": "collateralToken",
          "type": "address"
        }
      ],
      "name": "getCollateralAmountForLmkt",
      "outputs": [
        {
          "internalType": "uint256",
          "name": "",
          "type": "uint256"
        }
      ],
      "stateMutability": "view",
      "type": "function"
    },
    {
      "inputs": [
        {
          "internalType": "uint256",
          "name": "amount",
          "type": "uint256"
        },
        {
          "internalType": "address",
          "name": "token",
          "type": "address"
        }
      ],
      "name": "getCollateralTokenValue",
      "outputs": [
        {
          "internalType": "uint256",
          "name": "",
          "type": "uint256"
        }
      ],
      "stateMutability": "view",
      "type": "function"
    },
    {
      "inputs": [],
      "name": "getLMKTPrice",
      "outputs": [
        {
          "internalType": "uint256",
          "name": "",
          "type": "uint256"
        }
      ],
      "stateMutability": "view",
      "type": "function"
    },
    {
      "inputs": [
        {
          "internalType": "uint256",
          "name": "collateralAmount",
          "type": "uint256"
        },
        {
          "internalType": "address",
          "name": "collateralToken",
          "type": "address"
        }
      ],
      "name": "getLmktAmountForCollateral",
      "outputs": [
        {
          "internalType": "uint256",
          "name": "",
          "type": "uint256"
        }
      ],
      "stateMutability": "view",
      "type": "function"
    },
    {
      "inputs": [],
      "name": "getLmktReserves",
      "outputs": [
        {
          "internalType": "uint256",
          "name": "",
          "type": "uint256"
        }
      ],
      "stateMutability": "view",
      "type": "function"
    },
    {
      "inputs": [],
      "name": "getTotalCollateralValue",
      "outputs": [
        {
          "internalType": "uint256",
          "name": "",
          "type": "uint256"
        }
      ],
      "stateMutability": "view",
      "type": "function"
    },
    {
      "inputs": [
        {
          "internalType": "address",
          "name": "",
          "type": "address"
        }
      ],
      "name": "isWhitelistedCollateral",
      "outputs": [
        {
          "internalType": "bool",
          "name": "",
          "type": "bool"
        }
      ],
      "stateMutability": "view",
      "type": "function"
    },
    {
      "inputs": [],
      "name": "lmktToken",
      "outputs": [
        {
          "internalType": "contract ILMKT",
          "name": "",
          "type": "address"
        }
      ],
      "stateMutability": "view",
      "type": "function"
    },
    {
      "inputs": [],
      "name": "owner",
      "outputs": [
        {
          "internalType": "address",
          "name": "",
          "type": "address"
        }
      ],
      "stateMutability": "view",
      "type": "function"
    },
    {
      "inputs": [],
      "name": "renounceOwnership",
      "outputs": [],
      "stateMutability": "nonpayable",
      "type": "function"
    },
    {
      "inputs": [
        {
          "internalType": "uint256",
          "name": "lmktAmount",
          "type": "uint256"
        },
        {
          "internalType": "address",
          "name": "collateralToken",
          "type": "address"
        }
      ],
      "name": "sellMkt",
      "outputs": [],
      "stateMutability": "nonpayable",
      "type": "function"
    },
    {
      "inputs": [
        {
          "internalType": "uint256",
          "name": "_sellFee",
          "type": "uint256"
        },
        {
          "internalType": "uint256",
          "name": "_buyFee",
          "type": "uint256"
        },
        {
          "internalType": "uint256",
          "name": "_burnFee",
          "type": "uint256"
        }
      ],
      "name": "setFeeRate",
      "outputs": [],
      "stateMutability": "nonpayable",
      "type": "function"
    },
    {
      "inputs": [
        {
          "internalType": "address",
          "name": "_lmktTokenAddress",
          "type": "address"
        }
      ],
      "name": "setLmktAddress",
      "outputs": [],
      "stateMutability": "nonpayable",
      "type": "function"
    },
    {
      "inputs": [
        {
          "internalType": "address",
          "name": "_token",
          "type": "address"
        },
        {
          "internalType": "address",
          "name": "_feedAddress",
          "type": "address"
        }
      ],
      "name": "setPriceFeed",
      "outputs": [],
      "stateMutability": "nonpayable",
      "type": "function"
    },
    {
      "inputs": [
        {
          "internalType": "address",
          "name": "_token",
          "type": "address"
        },
        {
          "internalType": "bytes32",
          "name": "_queryId",
          "type": "bytes32"
        }
      ],
      "name": "setTokenQueryId",
      "outputs": [],
      "stateMutability": "nonpayable",
      "type": "function"
    },
    {
      "inputs": [
        {
          "internalType": "address",
          "name": "token",
          "type": "address"
        },
        {
          "internalType": "bool",
          "name": "isWhitelisted",
          "type": "bool"
        }
      ],
      "name": "setWhitelistedCollateral",
      "outputs": [],
      "stateMutability": "nonpayable",
      "type": "function"
    },
    {
      "inputs": [
        {
          "internalType": "address",
          "name": "",
          "type": "address"
        }
      ],
      "name": "tokenPriceFeeds",
      "outputs": [
        {
          "internalType": "address",
          "name": "",
          "type": "address"
        }
      ],
      "stateMutability": "view",
      "type": "function"
    },
    {
      "inputs": [
        {
          "internalType": "address",
          "name": "",
          "type": "address"
        }
      ],
      "name": "tokenQueryIds",
      "outputs": [
        {
          "internalType": "bytes32",
          "name": "",
          "type": "bytes32"
        }
      ],
      "stateMutability": "view",
      "type": "function"
    },
    {
      "inputs": [
        {
          "internalType": "address",
          "name": "newOwner",
          "type": "address"
        }
      ],
      "name": "transferOwnership",
      "outputs": [],
      "stateMutability": "nonpayable",
      "type": "function"
    },
    {
      "inputs": [
        {
          "internalType": "uint256",
          "name": "",
          "type": "uint256"
        }
      ],
      "name": "whitelistedCollateralTokens",
      "outputs": [
        {
          "internalType": "address",
          "name": "",
          "type": "address"
        }
      ],
      "stateMutability": "view",
      "type": "function"
    },
    {
      "stateMutability": "payable",
      "type": "receive"
    }
  ],
  "bytecode": "0x60806040526064600755606460085561271060095534801561002057600080fd5b50338061004757604051631e4fbdf760e01b81526000600482015260240160405180910390fd5b6100508161005a565b50600180556100aa565b600080546001600160a01b038381166001600160a01b0319831681178455604051919092169283917f8be0079c531659141344cd1fd0a4f28419497f9722a3daafe3b4186f6b6457e09190a35050565b611a8a806100b96000396000f3fe6080604052600436106101d15760003560e01c806374c5d7c2116100f7578063d53aadfc11610095578063f2dc739711610064578063f2dc7397146104fe578063f2fde38b14610513578063f846a88514610533578063f9839d891461054957600080fd5b8063d53aadfc146104b4578063d7e6f3171461043e578063e3889a3f146104c9578063ed6493af146104e957600080fd5b80639d568da3116100d15780639d568da314610428578063a7e014f61461043e578063bd9c47e31461045e578063cf56e5aa1461049457600080fd5b806374c5d7c2146103ca57806376e11286146103ea5780638da5cb5b1461040a57600080fd5b80633e7565a71161016f5780635886418f1161013e5780635886418f14610369578063601922811461037f5780636fb4bb4c1461039f578063715018a6146103b557600080fd5b80633e7565a7146102db5780633f38cb10146102f15780634850b217146103115780635014c45c1461034957600080fd5b80631a070739116101ab5780631a070739146102525780631c9b9f0314610279578063253bcadc1461029b57806333fc0750146102bb57600080fd5b806301991534146101dd578063094fcbfe146102055780630cca7bf51461022557600080fd5b366101d857005b600080fd5b3480156101e957600080fd5b506101f2610589565b6040519081526020015b60405180910390f35b34801561021157600080fd5b506101f2610220366004611704565b6105d3565b34801561023157600080fd5b506101f2610240366004611730565b60066020526000908152604090205481565b34801561025e57600080fd5b50610267600881565b60405160ff90911681526020016101fc565b34801561028557600080fd5b50610299610294366004611730565b61082d565b005b3480156102a757600080fd5b506102996102b6366004611760565b610857565b3480156102c757600080fd5b506101f26102d6366004611704565b610a78565b3480156102e757600080fd5b506101f260085481565b3480156102fd57600080fd5b5061029961030c366004611797565b610afe565b34801561031d57600080fd5b5061033161032c3660046117c3565b610b14565b6040516001600160a01b0390911681526020016101fc565b34801561035557600080fd5b50600254610331906001600160a01b031681565b34801561037557600080fd5b506101f26103e881565b34801561038b57600080fd5b506101f261039a366004611704565b610b3e565b3480156103ab57600080fd5b506101f260075481565b3480156103c157600080fd5b50610299610c1f565b3480156103d657600080fd5b506102996103e5366004611704565b610c33565b3480156103f657600080fd5b506102996104053660046117dc565b610df1565b34801561041657600080fd5b506000546001600160a01b0316610331565b34801561043457600080fd5b506101f261271081565b34801561044a57600080fd5b50610299610459366004611806565b610ede565b34801561046a57600080fd5b50610331610479366004611730565b6005602052600090815260409020546001600160a01b031681565b3480156104a057600080fd5b506102996104af366004611704565b61109c565b3480156104c057600080fd5b506101f26113ba565b3480156104d557600080fd5b506102996104e4366004611806565b6114b2565b3480156104f557600080fd5b506101f2611539565b34801561050a57600080fd5b506101f2600581565b34801561051f57600080fd5b5061029961052e366004611730565b611603565b34801561053f57600080fd5b506101f260095481565b34801561055557600080fd5b50610579610564366004611730565b60036020526000908152604090205460ff1681565b60405190151581526020016101fc565b600080610594611539565b905060006105a06113ba565b9050806000036105b35760009250505090565b806105c2836305f5e100611846565b6105cc919061185d565b9250505090565b6001600160a01b03808216600090815260056020526040812054909116806106515760405162461bcd60e51b815260206004820152602660248201527f54726561737572793a2050726963652066656564206e6f742073657420666f72604482015265103a37b5b2b760d11b60648201526084015b60405180910390fd5b6001600160a01b038316600090815260066020526040902054806106c35760405162461bcd60e51b8152602060048201526024808201527f54726561737572793a205175657279204944206e6f742073657420666f72207460448201526337b5b2b760e11b6064820152608401610648565b6040516331d98b3f60e01b81526004810182905282906000906001600160a01b038316906331d98b3f90602401602060405180830381865afa15801561070d573d6000803e3d6000fd5b505050506040513d601f19601f82011682018060405250810190610731919061187f565b9050600081116107995760405162461bcd60e51b815260206004820152602d60248201527f54726561737572793a204f7261636c65207072696365206973207a65726f206f60448201526c1c881b9bdd081d5c19185d1959609a1b6064820152608401610648565b6000866001600160a01b031663313ce5676040518163ffffffff1660e01b8152600401602060405180830381865afa1580156107d9573d6000803e3d6000fd5b505050506040513d601f19601f820116820180604052508101906107fd9190611898565b905061080b6008600a61199f565b610815838a611846565b61081f919061185d565b955050505050505b92915050565b610835611641565b600280546001600160a01b0319166001600160a01b0392909216919091179055565b61085f611641565b6001600160a01b0382166000908152600360205260409020805460ff1916821580159190911790915561092e5760005b6004548110156108dd57826001600160a01b0316600482815481106108b6576108b66119ae565b6000918252602090912001546001600160a01b0316036108d557505050565b60010161088f565b50600480546001810182556000919091527f8a35acfbc15ff81a39ae7d344fd709f28e8600b4aa8c65c6b64bfe7fe36bd19b0180546001600160a01b0319166001600160a01b038416179055610a2e565b60005b600454811015610a2c57826001600160a01b031660048281548110610958576109586119ae565b6000918252602090912001546001600160a01b031603610a245760048054610982906001906119c4565b81548110610992576109926119ae565b600091825260209091200154600480546001600160a01b0390921691839081106109be576109be6119ae565b9060005260206000200160006101000a8154816001600160a01b0302191690836001600160a01b0316021790555060048054806109fd576109fd6119d7565b600082815260209020810160001990810180546001600160a01b0319169055019055610a2c565b600101610931565b505b816001600160a01b03167f3cd44c9ffcc58ef85c0b1cb3e60f01382feb190f42795e92a10ceb2d757a938c82604051610a6b911515815260200190565b60405180910390a25b5050565b600080610a8584846105d3565b90506000610a91611539565b90506000610a9d6113ba565b905081600003610ab35760009350505050610827565b600082610ac08386611846565b610aca919061185d565b9050612710600854612710610adf91906119c4565b610ae99083611846565b610af3919061185d565b979650505050505050565b610b06611641565b600792909255600855600955565b60048181548110610b2457600080fd5b6000918252602090912001546001600160a01b0316905081565b600080610b49611539565b90506000610b556113ba565b905080600003610b6a57600092505050610827565b600081610b778488611846565b610b81919061185d565b90506000612710600754612710610b9891906119c4565b610ba29084611846565b610bac919061185d565b90506000866001600160a01b031663313ce5676040518163ffffffff1660e01b8152600401602060405180830381865afa158015610bee573d6000803e3d6000fd5b505050506040513d601f19601f82011682018060405250810190610c129190611898565b5090979650505050505050565b610c27611641565b610c31600061166e565b565b610c3b6116be565b6001600160a01b03811660009081526003602052604090205460ff16610c735760405162461bcd60e51b8152600401610648906119ed565b6000610c7f8383610a78565b6040516323b872dd60e01b8152336004820152306024820152604481018590529091506001600160a01b038316906323b872dd906064016020604051808303816000875af1158015610cd5573d6000803e3d6000fd5b505050506040513d601f19601f82011682018060405250810190610cf99190611a24565b5060025460405163a9059cbb60e01b8152336004820152602481018390526001600160a01b039091169063a9059cbb906044016020604051808303816000875af1158015610d4b573d6000803e3d6000fd5b505050506040513d601f19601f82011682018060405250810190610d6f9190611a24565b506000610d7a611539565b90506000610d866113ba565b604080518781526020810186905290810184905260608101829052600160808201529091506001600160a01b0385169033907f2e590d112dad4aaf19559922b6d9e0562a5dfb6ef2ac97c201e889743530405c9060a00160405180910390a3505050610a7460018055565b610df9611641565b6001600160a01b03821660009081526003602052604090205460ff16610e315760405162461bcd60e51b8152600401610648906119ed565b6001600160a01b038116610e875760405162461bcd60e51b815260206004820152601e60248201527f54726561737572793a20496e76616c69642066656564206164647265737300006044820152606401610648565b6001600160a01b0382811660008181526005602052604080822080546001600160a01b0319169486169485179055517fd2d8394cf7549a5ddbc2ba3dd7b2de8d53c891472d1f2907008ed6a10045fdae9190a35050565b6002546001600160a01b0383811691161480610f1257506001600160a01b03821660009081526003602052604090205460ff165b610f745760405162461bcd60e51b815260206004820152602d60248201527f54726561737572793a2043616e206f6e6c79207265636569766520776869746560448201526c6c697374656420746f6b656e7360981b6064820152608401610648565b6040516323b872dd60e01b8152336004820152306024820152604481018290526001600160a01b038316906323b872dd906064016020604051808303816000875af1158015610fc7573d6000803e3d6000fd5b505050506040513d601f19601f82011682018060405250810190610feb9190611a24565b506002546001600160a01b039081169083160361106157600254604051630852cd8d60e31b8152600481018390526001600160a01b03909116906342966c6890602401600060405180830381600087803b15801561104857600080fd5b505af115801561105c573d6000803e3d6000fd5b505050505b816001600160a01b03167f549340764ea97c24d00be84b5402a70f793c845a1578490632afba2b65e5b13782604051610a6b91815260200190565b6110a46116be565b6001600160a01b03811660009081526003602052604090205460ff166110dc5760405162461bcd60e51b8152600401610648906119ed565b6000612710600954846110ef9190611846565b6110f9919061185d565b9050600061110782856119c4565b6002546040516323b872dd60e01b8152336004820152306024820152604481018790529192506001600160a01b0316906323b872dd906064016020604051808303816000875af115801561115f573d6000803e3d6000fd5b505050506040513d601f19601f820116820180604052508101906111839190611a24565b50600254604051630852cd8d60e31b8152600481018490526001600160a01b03909116906342966c6890602401600060405180830381600087803b1580156111ca57600080fd5b505af11580156111de573d6000803e3d6000fd5b5050505060006111ee8585610b3e565b6040516370a0823160e01b815230600482015290915081906001600160a01b038616906370a0823190602401602060405180830381865afa158015611237573d6000803e3d6000fd5b505050506040513d601f19601f8201168201806040525081019061125b919061187f565b10156112c55760405162461bcd60e51b815260206004820152603360248201527f54726561737572793a20496e73756666696369656e7420726573657276657320604482015272199bdc881d1a1a5cc818dbdb1b185d195c985b606a1b6064820152608401610648565b60405163a9059cbb60e01b8152336004820152602481018290526001600160a01b0385169063a9059cbb906044016020604051808303816000875af1158015611312573d6000803e3d6000fd5b505050506040513d601f19601f820116820180604052508101906113369190611a24565b506000611341611539565b9050600061134d6113ba565b60408051858152602081018a905290810184905260608101829052600060808201529091506001600160a01b0387169033907f2e590d112dad4aaf19559922b6d9e0562a5dfb6ef2ac97c201e889743530405c9060a00160405180910390a35050505050610a7460018055565b600080600260009054906101000a90046001600160a01b03166001600160a01b03166318160ddd6040518163ffffffff1660e01b8152600401602060405180830381865afa158015611410573d6000803e3d6000fd5b505050506040513d601f19601f82011682018060405250810190611434919061187f565b6002546040516370a0823160e01b81526000600482018190529293506001600160a01b03909116906370a0823190602401602060405180830381865afa158015611482573d6000803e3d6000fd5b505050506040513d601f19601f820116820180604052508101906114a6919061187f565b90506105cc81836119c4565b6114ba611641565b6001600160a01b03821660009081526003602052604090205460ff166114f25760405162461bcd60e51b8152600401610648906119ed565b6001600160a01b038216600081815260066020526040808220849055518392917f7be46b5a1a89af40bc828b3ef14146891d36d93b67f082389d5fd24f031d31fa91a35050565b600080805b6004548110156115fd5760006004828154811061155d5761155d6119ae565b60009182526020822001546040516370a0823160e01b81523060048201526001600160a01b03909116925082906370a0823190602401602060405180830381865afa1580156115b0573d6000803e3d6000fd5b505050506040513d601f19601f820116820180604052508101906115d4919061187f565b905080156115f3576115e681836105d3565b6115f09085611a41565b93505b505060010161153e565b50919050565b61160b611641565b6001600160a01b03811661163557604051631e4fbdf760e01b815260006004820152602401610648565b61163e8161166e565b50565b6000546001600160a01b03163314610c315760405163118cdaa760e01b8152336004820152602401610648565b600080546001600160a01b038381166001600160a01b0319831681178455604051919092169283917f8be0079c531659141344cd1fd0a4f28419497f9722a3daafe3b4186f6b6457e09190a35050565b6002600154036116e157604051633ee5aeb560e01b815260040160405180910390fd5b6002600155565b80356001600160a01b03811681146116ff57600080fd5b919050565b6000806040838503121561171757600080fd5b82359150611727602084016116e8565b90509250929050565b60006020828403121561174257600080fd5b61174b826116e8565b9392505050565b801515811461163e57600080fd5b6000806040838503121561177357600080fd5b61177c836116e8565b9150602083013561178c81611752565b809150509250929050565b6000806000606084860312156117ac57600080fd5b505081359360208301359350604090920135919050565b6000602082840312156117d557600080fd5b5035919050565b600080604083850312156117ef57600080fd5b6117f8836116e8565b9150611727602084016116e8565b6000806040838503121561181957600080fd5b611822836116e8565b946020939093013593505050565b634e487b7160e01b600052601160045260246000fd5b808202811582820484141761082757610827611830565b60008261187a57634e487b7160e01b600052601260045260246000fd5b500490565b60006020828403121561189157600080fd5b5051919050565b6000602082840312156118aa57600080fd5b815160ff8116811461174b57600080fd5b600181815b808511156118f65781600019048211156118dc576118dc611830565b808516156118e957918102915b93841c93908002906118c0565b509250929050565b60008261190d57506001610827565b8161191a57506000610827565b8160018114611930576002811461193a57611956565b6001915050610827565b60ff84111561194b5761194b611830565b50506001821b610827565b5060208310610133831016604e8410600b8410161715611979575081810a610827565b61198383836118bb565b806000190482111561199757611997611830565b029392505050565b600061174b60ff8416836118fe565b634e487b7160e01b600052603260045260246000fd5b8181038181111561082757610827611830565b634e487b7160e01b600052603160045260246000fd5b6020808252601f908201527f54726561737572793a20546f6b656e206e6f742077686974656c697374656400604082015260600190565b600060208284031215611a3657600080fd5b815161174b81611752565b808201808211156108275761082761183056fea2646970667358221220b656cc716dd466eea7da37f404d4d6c220070ea1ca0aad8b88d6d1e7f439834a64736f6c63430008160033",
  "linkReferences": {},
  "deployedLinkReferences": {}
}