{
  "_format": "hh-sol-artifact-1",
  "contractName": "Treasury",
  "sourceName": "contracts/Treasury.sol",
  "abi": [
    {
      "inputs": [],
      "stateMutability": "nonpayable",
      "type": "constructor"
    },
    {
      "inputs": [
        {
          "internalType": "address",
          "name": "owner",
          "type": "address"
        }
      ],
      "name": "OwnableInvalidOwner",
      "type": "error"
    },
    {
      "inputs": [
        {
          "internalType": "address",
          "name": "account",
          "type": "address"
        }
      ],
      "name": "OwnableUnauthorizedAccount",
      "type": "error"
    },
    {
      "inputs": [],
      "name": "ReentrancyGuardReentrantCall",
      "type": "error"
    },
    {
      "anonymous": false,
      "inputs": [
        {
          "indexed": true,
          "internalType": "address",
          "name": "token",
          "type": "address"
        },
        {
          "indexed": false,
          "internalType": "bool",
          "name": "isWhitelisted",
          "type": "bool"
        }
      ],
      "name": "CollateralWhitelisted",
      "type": "event"
    },
    {
      "anonymous": false,
      "inputs": [
        {
          "indexed": true,
          "internalType": "address",
          "name": "token",
          "type": "address"
        },
        {
          "indexed": false,
          "internalType": "uint256",
          "name": "amount",
          "type": "uint256"
        }
      ],
      "name": "CommerceFeeReceived",
      "type": "event"
    },
    {
      "anonymous": false,
      "inputs": [
        {
          "indexed": true,
          "internalType": "address",
          "name": "sender",
          "type": "address"
        },
        {
          "indexed": true,
          "internalType": "address",
          "name": "collateralToken",
          "type": "address"
        },
        {
          "indexed": false,
          "internalType": "uint256",
          "name": "collateralAmount",
          "type": "uint256"
        },
        {
          "indexed": false,
          "internalType": "uint256",
          "name": "lmktAmount",
          "type": "uint256"
        },
        {
          "indexed": false,
          "internalType": "uint256",
          "name": "totalCollateral",
          "type": "uint256"
        },
        {
          "indexed": false,
          "internalType": "uint256",
          "name": "totalLmktValue",
          "type": "uint256"
        },
        {
          "indexed": false,
          "internalType": "bool",
          "name": "isBuy",
          "type": "bool"
        }
      ],
      "name": "MKTSwap",
      "type": "event"
    },
    {
      "anonymous": false,
      "inputs": [
        {
          "indexed": true,
          "internalType": "address",
          "name": "previousOwner",
          "type": "address"
        },
        {
          "indexed": true,
          "internalType": "address",
          "name": "newOwner",
          "type": "address"
        }
      ],
      "name": "OwnershipTransferred",
      "type": "event"
    },
    {
      "anonymous": false,
      "inputs": [
        {
          "indexed": true,
          "internalType": "address",
          "name": "token",
          "type": "address"
        },
        {
          "indexed": true,
          "internalType": "address",
          "name": "feed",
          "type": "address"
        }
      ],
      "name": "PriceFeedSet",
      "type": "event"
    },
    {
      "anonymous": false,
      "inputs": [
        {
          "indexed": true,
          "internalType": "address",
          "name": "token",
          "type": "address"
        },
        {
          "indexed": true,
          "internalType": "bytes32",
          "name": "queryId",
          "type": "bytes32"
        }
      ],
      "name": "TokenQueryIdSet",
      "type": "event"
    },
    {
      "inputs": [],
      "name": "BURN_RATE",
      "outputs": [
        {
          "internalType": "uint256",
          "name": "",
          "type": "uint256"
        }
      ],
      "stateMutability": "view",
      "type": "function"
    },
    {
      "inputs": [],
      "name": "BUY_DISCOUNT",
      "outputs": [
        {
          "internalType": "uint256",
          "name": "",
          "type": "uint256"
        }
      ],
      "stateMutability": "view",
      "type": "function"
    },
    {
      "inputs": [],
      "name": "HOLDING_CAP_BASE",
      "outputs": [
        {
          "internalType": "uint256",
          "name": "",
          "type": "uint256"
        }
      ],
      "stateMutability": "view",
      "type": "function"
    },
    {
      "inputs": [],
      "name": "HOLDING_CAP_PERCENT",
      "outputs": [
        {
          "internalType": "uint256",
          "name": "",
          "type": "uint256"
        }
      ],
      "stateMutability": "view",
      "type": "function"
    },
    {
      "inputs": [],
      "name": "ORACLE_PRICE_DECIMALS",
      "outputs": [
        {
          "internalType": "uint8",
          "name": "",
          "type": "uint8"
        }
      ],
      "stateMutability": "view",
      "type": "function"
    },
    {
      "inputs": [],
      "name": "SELL_PREMIUM",
      "outputs": [
        {
          "internalType": "uint256",
          "name": "",
          "type": "uint256"
        }
      ],
      "stateMutability": "view",
      "type": "function"
    },
    {
      "inputs": [],
      "name": "SPREAD_BASE",
      "outputs": [
        {
          "internalType": "uint256",
          "name": "",
          "type": "uint256"
        }
      ],
      "stateMutability": "view",
      "type": "function"
    },
    {
      "inputs": [
        {
          "internalType": "uint256",
          "name": "collateralAmount",
          "type": "uint256"
        },
        {
          "internalType": "address",
          "name": "collateralToken",
          "type": "address"
        }
      ],
      "name": "buyMkt",
      "outputs": [],
      "stateMutability": "nonpayable",
      "type": "function"
    },
    {
      "inputs": [
        {
          "internalType": "address",
          "name": "token",
          "type": "address"
        },
        {
          "internalType": "uint256",
          "name": "amount",
          "type": "uint256"
        }
      ],
      "name": "depositCommerceFee",
      "outputs": [],
      "stateMutability": "nonpayable",
      "type": "function"
    },
    {
      "inputs": [
        {
          "internalType": "uint256",
          "name": "lmktAmount",
          "type": "uint256"
        },
        {
          "internalType": "address",
          "name": "collateralToken",
          "type": "address"
        }
      ],
      "name": "getCollateralAmountForLmkt",
      "outputs": [
        {
          "internalType": "uint256",
          "name": "",
          "type": "uint256"
        }
      ],
      "stateMutability": "view",
      "type": "function"
    },
    {
      "inputs": [
        {
          "internalType": "uint256",
          "name": "amount",
          "type": "uint256"
        },
        {
          "internalType": "address",
          "name": "token",
          "type": "address"
        }
      ],
      "name": "getCollateralTokenValue",
      "outputs": [
        {
          "internalType": "uint256",
          "name": "",
          "type": "uint256"
        }
      ],
      "stateMutability": "view",
      "type": "function"
    },
    {
      "inputs": [
        {
          "internalType": "uint256",
          "name": "collateralAmount",
          "type": "uint256"
        },
        {
          "internalType": "address",
          "name": "collateralToken",
          "type": "address"
        }
      ],
      "name": "getLmktAmountForCollateral",
      "outputs": [
        {
          "internalType": "uint256",
          "name": "",
          "type": "uint256"
        }
      ],
      "stateMutability": "view",
      "type": "function"
    },
    {
      "inputs": [],
      "name": "getLmktReserves",
      "outputs": [
        {
          "internalType": "uint256",
          "name": "",
          "type": "uint256"
        }
      ],
      "stateMutability": "view",
      "type": "function"
    },
    {
      "inputs": [],
      "name": "getTotalCollateralValue",
      "outputs": [
        {
          "internalType": "uint256",
          "name": "",
          "type": "uint256"
        }
      ],
      "stateMutability": "view",
      "type": "function"
    },
    {
      "inputs": [
        {
          "internalType": "address",
          "name": "",
          "type": "address"
        }
      ],
      "name": "isWhitelistedCollateral",
      "outputs": [
        {
          "internalType": "bool",
          "name": "",
          "type": "bool"
        }
      ],
      "stateMutability": "view",
      "type": "function"
    },
    {
      "inputs": [],
      "name": "lmktToken",
      "outputs": [
        {
          "internalType": "contract ILMKT",
          "name": "",
          "type": "address"
        }
      ],
      "stateMutability": "view",
      "type": "function"
    },
    {
      "inputs": [],
      "name": "owner",
      "outputs": [
        {
          "internalType": "address",
          "name": "",
          "type": "address"
        }
      ],
      "stateMutability": "view",
      "type": "function"
    },
    {
      "inputs": [],
      "name": "renounceOwnership",
      "outputs": [],
      "stateMutability": "nonpayable",
      "type": "function"
    },
    {
      "inputs": [
        {
          "internalType": "uint256",
          "name": "lmktAmount",
          "type": "uint256"
        },
        {
          "internalType": "address",
          "name": "collateralToken",
          "type": "address"
        }
      ],
      "name": "sellMkt",
      "outputs": [],
      "stateMutability": "nonpayable",
      "type": "function"
    },
    {
      "inputs": [
        {
          "internalType": "uint256",
          "name": "_sellFee",
          "type": "uint256"
        },
        {
          "internalType": "uint256",
          "name": "_buyFee",
          "type": "uint256"
        },
        {
          "internalType": "uint256",
          "name": "_burnFee",
          "type": "uint256"
        }
      ],
      "name": "setFeeRate",
      "outputs": [],
      "stateMutability": "nonpayable",
      "type": "function"
    },
    {
      "inputs": [
        {
          "internalType": "address",
          "name": "_lmktTokenAddress",
          "type": "address"
        }
      ],
      "name": "setLmktAddress",
      "outputs": [],
      "stateMutability": "nonpayable",
      "type": "function"
    },
    {
      "inputs": [
        {
          "internalType": "address",
          "name": "_token",
          "type": "address"
        },
        {
          "internalType": "address",
          "name": "_feedAddress",
          "type": "address"
        }
      ],
      "name": "setPriceFeed",
      "outputs": [],
      "stateMutability": "nonpayable",
      "type": "function"
    },
    {
      "inputs": [
        {
          "internalType": "address",
          "name": "_token",
          "type": "address"
        },
        {
          "internalType": "bytes32",
          "name": "_queryId",
          "type": "bytes32"
        }
      ],
      "name": "setTokenQueryId",
      "outputs": [],
      "stateMutability": "nonpayable",
      "type": "function"
    },
    {
      "inputs": [
        {
          "internalType": "address",
          "name": "token",
          "type": "address"
        },
        {
          "internalType": "bool",
          "name": "isWhitelisted",
          "type": "bool"
        }
      ],
      "name": "setWhitelistedCollateral",
      "outputs": [],
      "stateMutability": "nonpayable",
      "type": "function"
    },
    {
      "inputs": [
        {
          "internalType": "address",
          "name": "",
          "type": "address"
        }
      ],
      "name": "tokenPriceFeeds",
      "outputs": [
        {
          "internalType": "address",
          "name": "",
          "type": "address"
        }
      ],
      "stateMutability": "view",
      "type": "function"
    },
    {
      "inputs": [
        {
          "internalType": "address",
          "name": "",
          "type": "address"
        }
      ],
      "name": "tokenQueryIds",
      "outputs": [
        {
          "internalType": "bytes32",
          "name": "",
          "type": "bytes32"
        }
      ],
      "stateMutability": "view",
      "type": "function"
    },
    {
      "inputs": [
        {
          "internalType": "address",
          "name": "newOwner",
          "type": "address"
        }
      ],
      "name": "transferOwnership",
      "outputs": [],
      "stateMutability": "nonpayable",
      "type": "function"
    },
    {
      "inputs": [
        {
          "internalType": "uint256",
          "name": "",
          "type": "uint256"
        }
      ],
      "name": "whitelistedCollateralTokens",
      "outputs": [
        {
          "internalType": "address",
          "name": "",
          "type": "address"
        }
      ],
      "stateMutability": "view",
      "type": "function"
    },
    {
      "stateMutability": "payable",
      "type": "receive"
    }
  ],
  "bytecode": "0x60806040526064600755606460085561271060095534801561002057600080fd5b50338061004757604051631e4fbdf760e01b81526000600482015260240160405180910390fd5b6100508161005a565b50600180556100aa565b600080546001600160a01b038381166001600160a01b0319831681178455604051919092169283917f8be0079c531659141344cd1fd0a4f28419497f9722a3daafe3b4186f6b6457e09190a35050565b611a1c806100b96000396000f3fe6080604052600436106101bb5760003560e01c806374c5d7c2116100ec578063d53aadfc1161008a578063f2dc739711610064578063f2dc7397146104d3578063f2fde38b146104e8578063f846a88514610508578063f9839d891461051e57600080fd5b8063d53aadfc14610489578063e3889a3f1461049e578063ed6493af146104be57600080fd5b80639d568da3116100c65780639d568da3146103fd578063a7e014f614610413578063bd9c47e314610433578063cf56e5aa1461046957600080fd5b806374c5d7c21461039f57806376e11286146103bf5780638da5cb5b146103df57600080fd5b80633f38cb10116101595780635886418f116101335780635886418f1461033e57806360192281146103545780636fb4bb4c14610374578063715018a61461038a57600080fd5b80633f38cb10146102c65780634850b217146102e65780635014c45c1461031e57600080fd5b80631c9b9f03116101955780631c9b9f031461024e578063253bcadc1461027057806333fc0750146102905780633e7565a7146102b057600080fd5b8063094fcbfe146101c75780630cca7bf5146101fa5780631a0707391461022757600080fd5b366101c257005b600080fd5b3480156101d357600080fd5b506101e76101e2366004611696565b61055e565b6040519081526020015b60405180910390f35b34801561020657600080fd5b506101e76102153660046116c2565b60066020526000908152604090205481565b34801561023357600080fd5b5061023c600881565b60405160ff90911681526020016101f1565b34801561025a57600080fd5b5061026e6102693660046116c2565b6107b8565b005b34801561027c57600080fd5b5061026e61028b3660046116f2565b6107e2565b34801561029c57600080fd5b506101e76102ab366004611696565b610a03565b3480156102bc57600080fd5b506101e760085481565b3480156102d257600080fd5b5061026e6102e1366004611729565b610a89565b3480156102f257600080fd5b50610306610301366004611755565b610a9f565b6040516001600160a01b0390911681526020016101f1565b34801561032a57600080fd5b50600254610306906001600160a01b031681565b34801561034a57600080fd5b506101e76103e881565b34801561036057600080fd5b506101e761036f366004611696565b610ac9565b34801561038057600080fd5b506101e760075481565b34801561039657600080fd5b5061026e610baa565b3480156103ab57600080fd5b5061026e6103ba366004611696565b610bbe565b3480156103cb57600080fd5b5061026e6103da36600461176e565b610d7c565b3480156103eb57600080fd5b506000546001600160a01b0316610306565b34801561040957600080fd5b506101e761271081565b34801561041f57600080fd5b5061026e61042e366004611798565b610e69565b34801561043f57600080fd5b5061030661044e3660046116c2565b6005602052600090815260409020546001600160a01b031681565b34801561047557600080fd5b5061026e610484366004611696565b611027565b34801561049557600080fd5b506101e7611345565b3480156104aa57600080fd5b5061026e6104b9366004611798565b611444565b3480156104ca57600080fd5b506101e76114cb565b3480156104df57600080fd5b506101e7600581565b3480156104f457600080fd5b5061026e6105033660046116c2565b611595565b34801561051457600080fd5b506101e760095481565b34801561052a57600080fd5b5061054e6105393660046116c2565b60036020526000908152604090205460ff1681565b60405190151581526020016101f1565b6001600160a01b03808216600090815260056020526040812054909116806105dc5760405162461bcd60e51b815260206004820152602660248201527f54726561737572793a2050726963652066656564206e6f742073657420666f72604482015265103a37b5b2b760d11b60648201526084015b60405180910390fd5b6001600160a01b0383166000908152600660205260409020548061064e5760405162461bcd60e51b8152602060048201526024808201527f54726561737572793a205175657279204944206e6f742073657420666f72207460448201526337b5b2b760e11b60648201526084016105d3565b6040516331d98b3f60e01b81526004810182905282906000906001600160a01b038316906331d98b3f90602401602060405180830381865afa158015610698573d6000803e3d6000fd5b505050506040513d601f19601f820116820180604052508101906106bc91906117c2565b9050600081116107245760405162461bcd60e51b815260206004820152602d60248201527f54726561737572793a204f7261636c65207072696365206973207a65726f206f60448201526c1c881b9bdd081d5c19185d1959609a1b60648201526084016105d3565b6000866001600160a01b031663313ce5676040518163ffffffff1660e01b8152600401602060405180830381865afa158015610764573d6000803e3d6000fd5b505050506040513d601f19601f8201168201806040525081019061078891906117db565b90506107966008600a6118f8565b6107a0838a611907565b6107aa919061191e565b955050505050505b92915050565b6107c06115d3565b600280546001600160a01b0319166001600160a01b0392909216919091179055565b6107ea6115d3565b6001600160a01b0382166000908152600360205260409020805460ff191682158015919091179091556108b95760005b60045481101561086857826001600160a01b03166004828154811061084157610841611940565b6000918252602090912001546001600160a01b03160361086057505050565b60010161081a565b50600480546001810182556000919091527f8a35acfbc15ff81a39ae7d344fd709f28e8600b4aa8c65c6b64bfe7fe36bd19b0180546001600160a01b0319166001600160a01b0384161790556109b9565b60005b6004548110156109b757826001600160a01b0316600482815481106108e3576108e3611940565b6000918252602090912001546001600160a01b0316036109af576004805461090d90600190611956565b8154811061091d5761091d611940565b600091825260209091200154600480546001600160a01b03909216918390811061094957610949611940565b9060005260206000200160006101000a8154816001600160a01b0302191690836001600160a01b03160217905550600480548061098857610988611969565b600082815260209020810160001990810180546001600160a01b03191690550190556109b7565b6001016108bc565b505b816001600160a01b03167f3cd44c9ffcc58ef85c0b1cb3e60f01382feb190f42795e92a10ceb2d757a938c826040516109f6911515815260200190565b60405180910390a25b5050565b600080610a10848461055e565b90506000610a1c6114cb565b90506000610a28611345565b905081600003610a3e57600093505050506107b2565b600082610a4b8386611907565b610a55919061191e565b9050612710600854612710610a6a9190611956565b610a749083611907565b610a7e919061191e565b979650505050505050565b610a916115d3565b600792909255600855600955565b60048181548110610aaf57600080fd5b6000918252602090912001546001600160a01b0316905081565b600080610ad46114cb565b90506000610ae0611345565b905080600003610af5576000925050506107b2565b600081610b028488611907565b610b0c919061191e565b90506000612710600754612710610b239190611956565b610b2d9084611907565b610b37919061191e565b90506000866001600160a01b031663313ce5676040518163ffffffff1660e01b8152600401602060405180830381865afa158015610b79573d6000803e3d6000fd5b505050506040513d601f19601f82011682018060405250810190610b9d91906117db565b5090979650505050505050565b610bb26115d3565b610bbc6000611600565b565b610bc6611650565b6001600160a01b03811660009081526003602052604090205460ff16610bfe5760405162461bcd60e51b81526004016105d39061197f565b6000610c0a8383610a03565b6040516323b872dd60e01b8152336004820152306024820152604481018590529091506001600160a01b038316906323b872dd906064016020604051808303816000875af1158015610c60573d6000803e3d6000fd5b505050506040513d601f19601f82011682018060405250810190610c8491906119b6565b5060025460405163a9059cbb60e01b8152336004820152602481018390526001600160a01b039091169063a9059cbb906044016020604051808303816000875af1158015610cd6573d6000803e3d6000fd5b505050506040513d601f19601f82011682018060405250810190610cfa91906119b6565b506000610d056114cb565b90506000610d11611345565b604080518781526020810186905290810184905260608101829052600160808201529091506001600160a01b0385169033907f2e590d112dad4aaf19559922b6d9e0562a5dfb6ef2ac97c201e889743530405c9060a00160405180910390a35050506109ff60018055565b610d846115d3565b6001600160a01b03821660009081526003602052604090205460ff16610dbc5760405162461bcd60e51b81526004016105d39061197f565b6001600160a01b038116610e125760405162461bcd60e51b815260206004820152601e60248201527f54726561737572793a20496e76616c696420666565642061646472657373000060448201526064016105d3565b6001600160a01b0382811660008181526005602052604080822080546001600160a01b0319169486169485179055517fd2d8394cf7549a5ddbc2ba3dd7b2de8d53c891472d1f2907008ed6a10045fdae9190a35050565b6002546001600160a01b0383811691161480610e9d57506001600160a01b03821660009081526003602052604090205460ff165b610eff5760405162461bcd60e51b815260206004820152602d60248201527f54726561737572793a2043616e206f6e6c79207265636569766520776869746560448201526c6c697374656420746f6b656e7360981b60648201526084016105d3565b6040516323b872dd60e01b8152336004820152306024820152604481018290526001600160a01b038316906323b872dd906064016020604051808303816000875af1158015610f52573d6000803e3d6000fd5b505050506040513d601f19601f82011682018060405250810190610f7691906119b6565b506002546001600160a01b0390811690831603610fec57600254604051630852cd8d60e31b8152600481018390526001600160a01b03909116906342966c6890602401600060405180830381600087803b158015610fd357600080fd5b505af1158015610fe7573d6000803e3d6000fd5b505050505b816001600160a01b03167f549340764ea97c24d00be84b5402a70f793c845a1578490632afba2b65e5b137826040516109f691815260200190565b61102f611650565b6001600160a01b03811660009081526003602052604090205460ff166110675760405162461bcd60e51b81526004016105d39061197f565b60006127106009548461107a9190611907565b611084919061191e565b905060006110928285611956565b6002546040516323b872dd60e01b8152336004820152306024820152604481018790529192506001600160a01b0316906323b872dd906064016020604051808303816000875af11580156110ea573d6000803e3d6000fd5b505050506040513d601f19601f8201168201806040525081019061110e91906119b6565b50600254604051630852cd8d60e31b8152600481018490526001600160a01b03909116906342966c6890602401600060405180830381600087803b15801561115557600080fd5b505af1158015611169573d6000803e3d6000fd5b5050505060006111798585610ac9565b6040516370a0823160e01b815230600482015290915081906001600160a01b038616906370a0823190602401602060405180830381865afa1580156111c2573d6000803e3d6000fd5b505050506040513d601f19601f820116820180604052508101906111e691906117c2565b10156112505760405162461bcd60e51b815260206004820152603360248201527f54726561737572793a20496e73756666696369656e7420726573657276657320604482015272199bdc881d1a1a5cc818dbdb1b185d195c985b606a1b60648201526084016105d3565b60405163a9059cbb60e01b8152336004820152602481018290526001600160a01b0385169063a9059cbb906044016020604051808303816000875af115801561129d573d6000803e3d6000fd5b505050506040513d601f19601f820116820180604052508101906112c191906119b6565b5060006112cc6114cb565b905060006112d8611345565b60408051858152602081018a905290810184905260608101829052600060808201529091506001600160a01b0387169033907f2e590d112dad4aaf19559922b6d9e0562a5dfb6ef2ac97c201e889743530405c9060a00160405180910390a350505050506109ff60018055565b600080600260009054906101000a90046001600160a01b03166001600160a01b03166318160ddd6040518163ffffffff1660e01b8152600401602060405180830381865afa15801561139b573d6000803e3d6000fd5b505050506040513d601f19601f820116820180604052508101906113bf91906117c2565b6002546040516370a0823160e01b81526000600482018190529293506001600160a01b03909116906370a0823190602401602060405180830381865afa15801561140d573d6000803e3d6000fd5b505050506040513d601f19601f8201168201806040525081019061143191906117c2565b905061143d8183611956565b9250505090565b61144c6115d3565b6001600160a01b03821660009081526003602052604090205460ff166114845760405162461bcd60e51b81526004016105d39061197f565b6001600160a01b038216600081815260066020526040808220849055518392917f7be46b5a1a89af40bc828b3ef14146891d36d93b67f082389d5fd24f031d31fa91a35050565b600080805b60045481101561158f576000600482815481106114ef576114ef611940565b60009182526020822001546040516370a0823160e01b81523060048201526001600160a01b03909116925082906370a0823190602401602060405180830381865afa158015611542573d6000803e3d6000fd5b505050506040513d601f19601f8201168201806040525081019061156691906117c2565b9050801561158557611578818361055e565b61158290856119d3565b93505b50506001016114d0565b50919050565b61159d6115d3565b6001600160a01b0381166115c757604051631e4fbdf760e01b8152600060048201526024016105d3565b6115d081611600565b50565b6000546001600160a01b03163314610bbc5760405163118cdaa760e01b81523360048201526024016105d3565b600080546001600160a01b038381166001600160a01b0319831681178455604051919092169283917f8be0079c531659141344cd1fd0a4f28419497f9722a3daafe3b4186f6b6457e09190a35050565b60026001540361167357604051633ee5aeb560e01b815260040160405180910390fd5b6002600155565b80356001600160a01b038116811461169157600080fd5b919050565b600080604083850312156116a957600080fd5b823591506116b96020840161167a565b90509250929050565b6000602082840312156116d457600080fd5b6116dd8261167a565b9392505050565b80151581146115d057600080fd5b6000806040838503121561170557600080fd5b61170e8361167a565b9150602083013561171e816116e4565b809150509250929050565b60008060006060848603121561173e57600080fd5b505081359360208301359350604090920135919050565b60006020828403121561176757600080fd5b5035919050565b6000806040838503121561178157600080fd5b61178a8361167a565b91506116b96020840161167a565b600080604083850312156117ab57600080fd5b6117b48361167a565b946020939093013593505050565b6000602082840312156117d457600080fd5b5051919050565b6000602082840312156117ed57600080fd5b815160ff811681146116dd57600080fd5b634e487b7160e01b600052601160045260246000fd5b600181815b8085111561184f578160001904821115611835576118356117fe565b8085161561184257918102915b93841c9390800290611819565b509250929050565b600082611866575060016107b2565b81611873575060006107b2565b81600181146118895760028114611893576118af565b60019150506107b2565b60ff8411156118a4576118a46117fe565b50506001821b6107b2565b5060208310610133831016604e8410600b84101617156118d2575081810a6107b2565b6118dc8383611814565b80600019048211156118f0576118f06117fe565b029392505050565b60006116dd60ff841683611857565b80820281158282048414176107b2576107b26117fe565b60008261193b57634e487b7160e01b600052601260045260246000fd5b500490565b634e487b7160e01b600052603260045260246000fd5b818103818111156107b2576107b26117fe565b634e487b7160e01b600052603160045260246000fd5b6020808252601f908201527f54726561737572793a20546f6b656e206e6f742077686974656c697374656400604082015260600190565b6000602082840312156119c857600080fd5b81516116dd816116e4565b808201808211156107b2576107b26117fe56fea26469706673582212205d84894d406ee02593ae8ea33a72c311a4b2aa042dfebb58ff8b5dd64e15385064736f6c63430008160033",
  "linkReferences": {},
  "deployedLinkReferences": {}
}