{
  "_format": "hh-sol-artifact-1",
  "contractName": "Treasury",
  "sourceName": "contracts/Treasury.sol",
  "abi": [
    {
      "inputs": [],
      "stateMutability": "nonpayable",
      "type": "constructor"
    },
    {
      "inputs": [
        {
          "internalType": "address",
          "name": "owner",
          "type": "address"
        }
      ],
      "name": "OwnableInvalidOwner",
      "type": "error"
    },
    {
      "inputs": [
        {
          "internalType": "address",
          "name": "account",
          "type": "address"
        }
      ],
      "name": "OwnableUnauthorizedAccount",
      "type": "error"
    },
    {
      "inputs": [],
      "name": "ReentrancyGuardReentrantCall",
      "type": "error"
    },
    {
      "anonymous": false,
      "inputs": [
        {
          "indexed": true,
          "internalType": "address",
          "name": "token",
          "type": "address"
        },
        {
          "indexed": false,
          "internalType": "bool",
          "name": "isWhitelisted",
          "type": "bool"
        }
      ],
      "name": "CollateralWhitelisted",
      "type": "event"
    },
    {
      "anonymous": false,
      "inputs": [
        {
          "indexed": true,
          "internalType": "address",
          "name": "token",
          "type": "address"
        },
        {
          "indexed": false,
          "internalType": "uint256",
          "name": "amount",
          "type": "uint256"
        }
      ],
      "name": "CommerceFeeReceived",
      "type": "event"
    },
    {
      "anonymous": false,
      "inputs": [
        {
          "indexed": true,
          "internalType": "address",
          "name": "sender",
          "type": "address"
        },
        {
          "indexed": true,
          "internalType": "address",
          "name": "collateralToken",
          "type": "address"
        },
        {
          "indexed": false,
          "internalType": "uint256",
          "name": "collateralAmount",
          "type": "uint256"
        },
        {
          "indexed": false,
          "internalType": "uint256",
          "name": "lmktAmount",
          "type": "uint256"
        },
        {
          "indexed": false,
          "internalType": "uint256",
          "name": "totalCollateral",
          "type": "uint256"
        },
        {
          "indexed": false,
          "internalType": "uint256",
          "name": "totalLmktValue",
          "type": "uint256"
        },
        {
          "indexed": false,
          "internalType": "bool",
          "name": "isBuy",
          "type": "bool"
        }
      ],
      "name": "MKTSwap",
      "type": "event"
    },
    {
      "anonymous": false,
      "inputs": [
        {
          "indexed": true,
          "internalType": "address",
          "name": "previousOwner",
          "type": "address"
        },
        {
          "indexed": true,
          "internalType": "address",
          "name": "newOwner",
          "type": "address"
        }
      ],
      "name": "OwnershipTransferred",
      "type": "event"
    },
    {
      "anonymous": false,
      "inputs": [
        {
          "indexed": true,
          "internalType": "address",
          "name": "token",
          "type": "address"
        },
        {
          "indexed": true,
          "internalType": "address",
          "name": "feed",
          "type": "address"
        }
      ],
      "name": "PriceFeedSet",
      "type": "event"
    },
    {
      "anonymous": false,
      "inputs": [
        {
          "indexed": true,
          "internalType": "address",
          "name": "token",
          "type": "address"
        },
        {
          "indexed": true,
          "internalType": "bytes32",
          "name": "queryId",
          "type": "bytes32"
        }
      ],
      "name": "TokenQueryIdSet",
      "type": "event"
    },
    {
      "inputs": [],
      "name": "BURN_RATE",
      "outputs": [
        {
          "internalType": "uint256",
          "name": "",
          "type": "uint256"
        }
      ],
      "stateMutability": "view",
      "type": "function"
    },
    {
      "inputs": [],
      "name": "BUY_DISCOUNT",
      "outputs": [
        {
          "internalType": "uint256",
          "name": "",
          "type": "uint256"
        }
      ],
      "stateMutability": "view",
      "type": "function"
    },
    {
      "inputs": [],
      "name": "HOLDING_CAP_BASE",
      "outputs": [
        {
          "internalType": "uint256",
          "name": "",
          "type": "uint256"
        }
      ],
      "stateMutability": "view",
      "type": "function"
    },
    {
      "inputs": [],
      "name": "HOLDING_CAP_PERCENT",
      "outputs": [
        {
          "internalType": "uint256",
          "name": "",
          "type": "uint256"
        }
      ],
      "stateMutability": "view",
      "type": "function"
    },
    {
      "inputs": [],
      "name": "ORACLE_PRICE_DECIMALS",
      "outputs": [
        {
          "internalType": "uint8",
          "name": "",
          "type": "uint8"
        }
      ],
      "stateMutability": "view",
      "type": "function"
    },
    {
      "inputs": [],
      "name": "SELL_PREMIUM",
      "outputs": [
        {
          "internalType": "uint256",
          "name": "",
          "type": "uint256"
        }
      ],
      "stateMutability": "view",
      "type": "function"
    },
    {
      "inputs": [],
      "name": "SPREAD_BASE",
      "outputs": [
        {
          "internalType": "uint256",
          "name": "",
          "type": "uint256"
        }
      ],
      "stateMutability": "view",
      "type": "function"
    },
    {
      "inputs": [
        {
          "internalType": "uint256",
          "name": "collateralAmount",
          "type": "uint256"
        },
        {
          "internalType": "address",
          "name": "collateralToken",
          "type": "address"
        }
      ],
      "name": "buyMkt",
      "outputs": [],
      "stateMutability": "nonpayable",
      "type": "function"
    },
    {
      "inputs": [
        {
          "internalType": "address",
          "name": "token",
          "type": "address"
        },
        {
          "internalType": "uint256",
          "name": "amount",
          "type": "uint256"
        }
      ],
      "name": "depositCommerceFee",
      "outputs": [],
      "stateMutability": "nonpayable",
      "type": "function"
    },
    {
      "inputs": [
        {
          "internalType": "uint256",
          "name": "lmktAmount",
          "type": "uint256"
        },
        {
          "internalType": "address",
          "name": "collateralToken",
          "type": "address"
        }
      ],
      "name": "getCollateralAmountForLmkt",
      "outputs": [
        {
          "internalType": "uint256",
          "name": "",
          "type": "uint256"
        }
      ],
      "stateMutability": "view",
      "type": "function"
    },
    {
      "inputs": [
        {
          "internalType": "uint256",
          "name": "amount",
          "type": "uint256"
        },
        {
          "internalType": "address",
          "name": "token",
          "type": "address"
        }
      ],
      "name": "getCollateralTokenValue",
      "outputs": [
        {
          "internalType": "uint256",
          "name": "",
          "type": "uint256"
        }
      ],
      "stateMutability": "view",
      "type": "function"
    },
    {
      "inputs": [],
      "name": "getLMKTPrice",
      "outputs": [
        {
          "internalType": "uint256",
          "name": "",
          "type": "uint256"
        }
      ],
      "stateMutability": "view",
      "type": "function"
    },
    {
      "inputs": [
        {
          "internalType": "uint256",
          "name": "collateralAmount",
          "type": "uint256"
        },
        {
          "internalType": "address",
          "name": "collateralToken",
          "type": "address"
        }
      ],
      "name": "getLmktAmountForCollateral",
      "outputs": [
        {
          "internalType": "uint256",
          "name": "",
          "type": "uint256"
        }
      ],
      "stateMutability": "view",
      "type": "function"
    },
    {
      "inputs": [],
      "name": "getLmktReserves",
      "outputs": [
        {
          "internalType": "uint256",
          "name": "",
          "type": "uint256"
        }
      ],
      "stateMutability": "view",
      "type": "function"
    },
    {
      "inputs": [],
      "name": "getTotalCollateralValue",
      "outputs": [
        {
          "internalType": "uint256",
          "name": "",
          "type": "uint256"
        }
      ],
      "stateMutability": "view",
      "type": "function"
    },
    {
      "inputs": [
        {
          "internalType": "address",
          "name": "",
          "type": "address"
        }
      ],
      "name": "isWhitelistedCollateral",
      "outputs": [
        {
          "internalType": "bool",
          "name": "",
          "type": "bool"
        }
      ],
      "stateMutability": "view",
      "type": "function"
    },
    {
      "inputs": [],
      "name": "lmktToken",
      "outputs": [
        {
          "internalType": "contract ILMKT",
          "name": "",
          "type": "address"
        }
      ],
      "stateMutability": "view",
      "type": "function"
    },
    {
      "inputs": [],
      "name": "owner",
      "outputs": [
        {
          "internalType": "address",
          "name": "",
          "type": "address"
        }
      ],
      "stateMutability": "view",
      "type": "function"
    },
    {
      "inputs": [],
      "name": "renounceOwnership",
      "outputs": [],
      "stateMutability": "nonpayable",
      "type": "function"
    },
    {
      "inputs": [
        {
          "internalType": "uint256",
          "name": "lmktAmount",
          "type": "uint256"
        },
        {
          "internalType": "address",
          "name": "collateralToken",
          "type": "address"
        }
      ],
      "name": "sellMkt",
      "outputs": [],
      "stateMutability": "nonpayable",
      "type": "function"
    },
    {
      "inputs": [
        {
          "internalType": "uint256",
          "name": "_sellFee",
          "type": "uint256"
        },
        {
          "internalType": "uint256",
          "name": "_buyFee",
          "type": "uint256"
        },
        {
          "internalType": "uint256",
          "name": "_burnFee",
          "type": "uint256"
        }
      ],
      "name": "setFeeRate",
      "outputs": [],
      "stateMutability": "nonpayable",
      "type": "function"
    },
    {
      "inputs": [
        {
          "internalType": "address",
          "name": "_lmktTokenAddress",
          "type": "address"
        }
      ],
      "name": "setLmktAddress",
      "outputs": [],
      "stateMutability": "nonpayable",
      "type": "function"
    },
    {
      "inputs": [
        {
          "internalType": "address",
          "name": "_token",
          "type": "address"
        },
        {
          "internalType": "address",
          "name": "_feedAddress",
          "type": "address"
        }
      ],
      "name": "setPriceFeed",
      "outputs": [],
      "stateMutability": "nonpayable",
      "type": "function"
    },
    {
      "inputs": [
        {
          "internalType": "address",
          "name": "_token",
          "type": "address"
        },
        {
          "internalType": "bytes32",
          "name": "_queryId",
          "type": "bytes32"
        }
      ],
      "name": "setTokenQueryId",
      "outputs": [],
      "stateMutability": "nonpayable",
      "type": "function"
    },
    {
      "inputs": [
        {
          "internalType": "address",
          "name": "token",
          "type": "address"
        },
        {
          "internalType": "bool",
          "name": "isWhitelisted",
          "type": "bool"
        }
      ],
      "name": "setWhitelistedCollateral",
      "outputs": [],
      "stateMutability": "nonpayable",
      "type": "function"
    },
    {
      "inputs": [
        {
          "internalType": "address",
          "name": "",
          "type": "address"
        }
      ],
      "name": "tokenPriceFeeds",
      "outputs": [
        {
          "internalType": "address",
          "name": "",
          "type": "address"
        }
      ],
      "stateMutability": "view",
      "type": "function"
    },
    {
      "inputs": [
        {
          "internalType": "address",
          "name": "",
          "type": "address"
        }
      ],
      "name": "tokenQueryIds",
      "outputs": [
        {
          "internalType": "bytes32",
          "name": "",
          "type": "bytes32"
        }
      ],
      "stateMutability": "view",
      "type": "function"
    },
    {
      "inputs": [
        {
          "internalType": "address",
          "name": "newOwner",
          "type": "address"
        }
      ],
      "name": "transferOwnership",
      "outputs": [],
      "stateMutability": "nonpayable",
      "type": "function"
    },
    {
      "inputs": [
        {
          "internalType": "uint256",
          "name": "",
          "type": "uint256"
        }
      ],
      "name": "whitelistedCollateralTokens",
      "outputs": [
        {
          "internalType": "address",
          "name": "",
          "type": "address"
        }
      ],
      "stateMutability": "view",
      "type": "function"
    },
    {
      "stateMutability": "payable",
      "type": "receive"
    }
  ],
  "bytecode": "0x60806040526064600755606460085561271060095534801561002057600080fd5b50338061004757604051631e4fbdf760e01b81526000600482015260240160405180910390fd5b6100508161005a565b50600180556100aa565b600080546001600160a01b038381166001600160a01b0319831681178455604051919092169283917f8be0079c531659141344cd1fd0a4f28419497f9722a3daafe3b4186f6b6457e09190a35050565b611a7f806100b96000396000f3fe6080604052600436106101c65760003560e01c8063715018a6116100f7578063cf56e5aa11610095578063f2dc739711610064578063f2dc7397146104f3578063f2fde38b14610508578063f846a88514610528578063f9839d891461053e57600080fd5b8063cf56e5aa14610489578063d53aadfc146104a9578063e3889a3f146104be578063ed6493af146104de57600080fd5b80638da5cb5b116100d15780638da5cb5b146103ff5780639d568da31461041d578063a7e014f614610433578063bd9c47e31461045357600080fd5b8063715018a6146103aa57806374c5d7c2146103bf57806376e11286146103df57600080fd5b80633e7565a7116101645780635014c45c1161013e5780635014c45c1461033e5780635886418f1461035e57806360192281146103745780636fb4bb4c1461039457600080fd5b80633e7565a7146102d05780633f38cb10146102e65780634850b2171461030657600080fd5b80631a070739116101a05780631a070739146102475780631c9b9f031461026e578063253bcadc1461029057806333fc0750146102b057600080fd5b806301991534146101d2578063094fcbfe146101fa5780630cca7bf51461021a57600080fd5b366101cd57005b600080fd5b3480156101de57600080fd5b506101e761057e565b6040519081526020015b60405180910390f35b34801561020657600080fd5b506101e76102153660046116f9565b6105c8565b34801561022657600080fd5b506101e7610235366004611725565b60066020526000908152604090205481565b34801561025357600080fd5b5061025c600881565b60405160ff90911681526020016101f1565b34801561027a57600080fd5b5061028e610289366004611725565b610822565b005b34801561029c57600080fd5b5061028e6102ab366004611755565b61084c565b3480156102bc57600080fd5b506101e76102cb3660046116f9565b610a6d565b3480156102dc57600080fd5b506101e760085481565b3480156102f257600080fd5b5061028e61030136600461178c565b610af3565b34801561031257600080fd5b506103266103213660046117b8565b610b09565b6040516001600160a01b0390911681526020016101f1565b34801561034a57600080fd5b50600254610326906001600160a01b031681565b34801561036a57600080fd5b506101e76103e881565b34801561038057600080fd5b506101e761038f3660046116f9565b610b33565b3480156103a057600080fd5b506101e760075481565b3480156103b657600080fd5b5061028e610c14565b3480156103cb57600080fd5b5061028e6103da3660046116f9565b610c28565b3480156103eb57600080fd5b5061028e6103fa3660046117d1565b610de6565b34801561040b57600080fd5b506000546001600160a01b0316610326565b34801561042957600080fd5b506101e761271081565b34801561043f57600080fd5b5061028e61044e3660046117fb565b610ed3565b34801561045f57600080fd5b5061032661046e366004611725565b6005602052600090815260409020546001600160a01b031681565b34801561049557600080fd5b5061028e6104a43660046116f9565b611091565b3480156104b557600080fd5b506101e76113af565b3480156104ca57600080fd5b5061028e6104d93660046117fb565b6114a7565b3480156104ea57600080fd5b506101e761152e565b3480156104ff57600080fd5b506101e7600581565b34801561051457600080fd5b5061028e610523366004611725565b6115f8565b34801561053457600080fd5b506101e760095481565b34801561054a57600080fd5b5061056e610559366004611725565b60036020526000908152604090205460ff1681565b60405190151581526020016101f1565b60008061058961152e565b905060006105956113af565b9050806000036105a85760009250505090565b806105b7836305f5e10061183b565b6105c19190611852565b9250505090565b6001600160a01b03808216600090815260056020526040812054909116806106465760405162461bcd60e51b815260206004820152602660248201527f54726561737572793a2050726963652066656564206e6f742073657420666f72604482015265103a37b5b2b760d11b60648201526084015b60405180910390fd5b6001600160a01b038316600090815260066020526040902054806106b85760405162461bcd60e51b8152602060048201526024808201527f54726561737572793a205175657279204944206e6f742073657420666f72207460448201526337b5b2b760e11b606482015260840161063d565b6040516331d98b3f60e01b81526004810182905282906000906001600160a01b038316906331d98b3f90602401602060405180830381865afa158015610702573d6000803e3d6000fd5b505050506040513d601f19601f820116820180604052508101906107269190611874565b90506000811161078e5760405162461bcd60e51b815260206004820152602d60248201527f54726561737572793a204f7261636c65207072696365206973207a65726f206f60448201526c1c881b9bdd081d5c19185d1959609a1b606482015260840161063d565b6000866001600160a01b031663313ce5676040518163ffffffff1660e01b8152600401602060405180830381865afa1580156107ce573d6000803e3d6000fd5b505050506040513d601f19601f820116820180604052508101906107f2919061188d565b90506108006008600a611994565b61080a838a61183b565b6108149190611852565b955050505050505b92915050565b61082a611636565b600280546001600160a01b0319166001600160a01b0392909216919091179055565b610854611636565b6001600160a01b0382166000908152600360205260409020805460ff191682158015919091179091556109235760005b6004548110156108d257826001600160a01b0316600482815481106108ab576108ab6119a3565b6000918252602090912001546001600160a01b0316036108ca57505050565b600101610884565b50600480546001810182556000919091527f8a35acfbc15ff81a39ae7d344fd709f28e8600b4aa8c65c6b64bfe7fe36bd19b0180546001600160a01b0319166001600160a01b038416179055610a23565b60005b600454811015610a2157826001600160a01b03166004828154811061094d5761094d6119a3565b6000918252602090912001546001600160a01b031603610a195760048054610977906001906119b9565b81548110610987576109876119a3565b600091825260209091200154600480546001600160a01b0390921691839081106109b3576109b36119a3565b9060005260206000200160006101000a8154816001600160a01b0302191690836001600160a01b0316021790555060048054806109f2576109f26119cc565b600082815260209020810160001990810180546001600160a01b0319169055019055610a21565b600101610926565b505b816001600160a01b03167f3cd44c9ffcc58ef85c0b1cb3e60f01382feb190f42795e92a10ceb2d757a938c82604051610a60911515815260200190565b60405180910390a25b5050565b600080610a7a84846105c8565b90506000610a8661152e565b90506000610a926113af565b905081600003610aa8576000935050505061081c565b600082610ab5838661183b565b610abf9190611852565b9050612710600854612710610ad491906119b9565b610ade908361183b565b610ae89190611852565b979650505050505050565b610afb611636565b600792909255600855600955565b60048181548110610b1957600080fd5b6000918252602090912001546001600160a01b0316905081565b600080610b3e61152e565b90506000610b4a6113af565b905080600003610b5f5760009250505061081c565b600081610b6c848861183b565b610b769190611852565b90506000612710600754612710610b8d91906119b9565b610b97908461183b565b610ba19190611852565b90506000866001600160a01b031663313ce5676040518163ffffffff1660e01b8152600401602060405180830381865afa158015610be3573d6000803e3d6000fd5b505050506040513d601f19601f82011682018060405250810190610c07919061188d565b5090979650505050505050565b610c1c611636565b610c266000611663565b565b610c306116b3565b6001600160a01b03811660009081526003602052604090205460ff16610c685760405162461bcd60e51b815260040161063d906119e2565b6000610c748383610a6d565b6040516323b872dd60e01b8152336004820152306024820152604481018590529091506001600160a01b038316906323b872dd906064016020604051808303816000875af1158015610cca573d6000803e3d6000fd5b505050506040513d601f19601f82011682018060405250810190610cee9190611a19565b5060025460405163a9059cbb60e01b8152336004820152602481018390526001600160a01b039091169063a9059cbb906044016020604051808303816000875af1158015610d40573d6000803e3d6000fd5b505050506040513d601f19601f82011682018060405250810190610d649190611a19565b506000610d6f61152e565b90506000610d7b6113af565b604080518781526020810186905290810184905260608101829052600160808201529091506001600160a01b0385169033907f2e590d112dad4aaf19559922b6d9e0562a5dfb6ef2ac97c201e889743530405c9060a00160405180910390a3505050610a6960018055565b610dee611636565b6001600160a01b03821660009081526003602052604090205460ff16610e265760405162461bcd60e51b815260040161063d906119e2565b6001600160a01b038116610e7c5760405162461bcd60e51b815260206004820152601e60248201527f54726561737572793a20496e76616c6964206665656420616464726573730000604482015260640161063d565b6001600160a01b0382811660008181526005602052604080822080546001600160a01b0319169486169485179055517fd2d8394cf7549a5ddbc2ba3dd7b2de8d53c891472d1f2907008ed6a10045fdae9190a35050565b6002546001600160a01b0383811691161480610f0757506001600160a01b03821660009081526003602052604090205460ff165b610f695760405162461bcd60e51b815260206004820152602d60248201527f54726561737572793a2043616e206f6e6c79207265636569766520776869746560448201526c6c697374656420746f6b656e7360981b606482015260840161063d565b6040516323b872dd60e01b8152336004820152306024820152604481018290526001600160a01b038316906323b872dd906064016020604051808303816000875af1158015610fbc573d6000803e3d6000fd5b505050506040513d601f19601f82011682018060405250810190610fe09190611a19565b506002546001600160a01b039081169083160361105657600254604051630852cd8d60e31b8152600481018390526001600160a01b03909116906342966c6890602401600060405180830381600087803b15801561103d57600080fd5b505af1158015611051573d6000803e3d6000fd5b505050505b816001600160a01b03167f549340764ea97c24d00be84b5402a70f793c845a1578490632afba2b65e5b13782604051610a6091815260200190565b6110996116b3565b6001600160a01b03811660009081526003602052604090205460ff166110d15760405162461bcd60e51b815260040161063d906119e2565b6000612710600954846110e4919061183b565b6110ee9190611852565b905060006110fc82856119b9565b6002546040516323b872dd60e01b8152336004820152306024820152604481018790529192506001600160a01b0316906323b872dd906064016020604051808303816000875af1158015611154573d6000803e3d6000fd5b505050506040513d601f19601f820116820180604052508101906111789190611a19565b50600254604051630852cd8d60e31b8152600481018490526001600160a01b03909116906342966c6890602401600060405180830381600087803b1580156111bf57600080fd5b505af11580156111d3573d6000803e3d6000fd5b5050505060006111e38585610b33565b6040516370a0823160e01b815230600482015290915081906001600160a01b038616906370a0823190602401602060405180830381865afa15801561122c573d6000803e3d6000fd5b505050506040513d601f19601f820116820180604052508101906112509190611874565b10156112ba5760405162461bcd60e51b815260206004820152603360248201527f54726561737572793a20496e73756666696369656e7420726573657276657320604482015272199bdc881d1a1a5cc818dbdb1b185d195c985b606a1b606482015260840161063d565b60405163a9059cbb60e01b8152336004820152602481018290526001600160a01b0385169063a9059cbb906044016020604051808303816000875af1158015611307573d6000803e3d6000fd5b505050506040513d601f19601f8201168201806040525081019061132b9190611a19565b50600061133661152e565b905060006113426113af565b60408051858152602081018a905290810184905260608101829052600060808201529091506001600160a01b0387169033907f2e590d112dad4aaf19559922b6d9e0562a5dfb6ef2ac97c201e889743530405c9060a00160405180910390a35050505050610a6960018055565b600080600260009054906101000a90046001600160a01b03166001600160a01b03166318160ddd6040518163ffffffff1660e01b8152600401602060405180830381865afa158015611405573d6000803e3d6000fd5b505050506040513d601f19601f820116820180604052508101906114299190611874565b6002546040516370a0823160e01b81526000600482018190529293506001600160a01b03909116906370a0823190602401602060405180830381865afa158015611477573d6000803e3d6000fd5b505050506040513d601f19601f8201168201806040525081019061149b9190611874565b90506105c181836119b9565b6114af611636565b6001600160a01b03821660009081526003602052604090205460ff166114e75760405162461bcd60e51b815260040161063d906119e2565b6001600160a01b038216600081815260066020526040808220849055518392917f7be46b5a1a89af40bc828b3ef14146891d36d93b67f082389d5fd24f031d31fa91a35050565b600080805b6004548110156115f257600060048281548110611552576115526119a3565b60009182526020822001546040516370a0823160e01b81523060048201526001600160a01b03909116925082906370a0823190602401602060405180830381865afa1580156115a5573d6000803e3d6000fd5b505050506040513d601f19601f820116820180604052508101906115c99190611874565b905080156115e8576115db81836105c8565b6115e59085611a36565b93505b5050600101611533565b50919050565b611600611636565b6001600160a01b03811661162a57604051631e4fbdf760e01b81526000600482015260240161063d565b61163381611663565b50565b6000546001600160a01b03163314610c265760405163118cdaa760e01b815233600482015260240161063d565b600080546001600160a01b038381166001600160a01b0319831681178455604051919092169283917f8be0079c531659141344cd1fd0a4f28419497f9722a3daafe3b4186f6b6457e09190a35050565b6002600154036116d657604051633ee5aeb560e01b815260040160405180910390fd5b6002600155565b80356001600160a01b03811681146116f457600080fd5b919050565b6000806040838503121561170c57600080fd5b8235915061171c602084016116dd565b90509250929050565b60006020828403121561173757600080fd5b611740826116dd565b9392505050565b801515811461163357600080fd5b6000806040838503121561176857600080fd5b611771836116dd565b9150602083013561178181611747565b809150509250929050565b6000806000606084860312156117a157600080fd5b505081359360208301359350604090920135919050565b6000602082840312156117ca57600080fd5b5035919050565b600080604083850312156117e457600080fd5b6117ed836116dd565b915061171c602084016116dd565b6000806040838503121561180e57600080fd5b611817836116dd565b946020939093013593505050565b634e487b7160e01b600052601160045260246000fd5b808202811582820484141761081c5761081c611825565b60008261186f57634e487b7160e01b600052601260045260246000fd5b500490565b60006020828403121561188657600080fd5b5051919050565b60006020828403121561189f57600080fd5b815160ff8116811461174057600080fd5b600181815b808511156118eb5781600019048211156118d1576118d1611825565b808516156118de57918102915b93841c93908002906118b5565b509250929050565b6000826119025750600161081c565b8161190f5750600061081c565b8160018114611925576002811461192f5761194b565b600191505061081c565b60ff84111561194057611940611825565b50506001821b61081c565b5060208310610133831016604e8410600b841016171561196e575081810a61081c565b61197883836118b0565b806000190482111561198c5761198c611825565b029392505050565b600061174060ff8416836118f3565b634e487b7160e01b600052603260045260246000fd5b8181038181111561081c5761081c611825565b634e487b7160e01b600052603160045260246000fd5b6020808252601f908201527f54726561737572793a20546f6b656e206e6f742077686974656c697374656400604082015260600190565b600060208284031215611a2b57600080fd5b815161174081611747565b8082018082111561081c5761081c61182556fea264697066735822122024f4c20d9ffd351fcda678febd47aee39a477fb3e307d19019546dc19086c35c64736f6c63430008160033",
  "linkReferences": {},
  "deployedLinkReferences": {}
}