{
  "_format": "hh-sol-artifact-1",
  "contractName": "Treasury",
  "sourceName": "contracts/Treasury.sol",
  "abi": [
    {
      "inputs": [],
      "stateMutability": "nonpayable",
      "type": "constructor"
    },
    {
      "inputs": [
        {
          "internalType": "address",
          "name": "owner",
          "type": "address"
        }
      ],
      "name": "OwnableInvalidOwner",
      "type": "error"
    },
    {
      "inputs": [
        {
          "internalType": "address",
          "name": "account",
          "type": "address"
        }
      ],
      "name": "OwnableUnauthorizedAccount",
      "type": "error"
    },
    {
      "anonymous": false,
      "inputs": [
        {
          "indexed": true,
          "internalType": "address",
          "name": "token",
          "type": "address"
        },
        {
          "indexed": false,
          "internalType": "bool",
          "name": "isWhitelisted",
          "type": "bool"
        }
      ],
      "name": "CollateralWhitelisted",
      "type": "event"
    },
    {
      "anonymous": false,
      "inputs": [
        {
          "indexed": true,
          "internalType": "address",
          "name": "token",
          "type": "address"
        },
        {
          "indexed": false,
          "internalType": "uint256",
          "name": "amount",
          "type": "uint256"
        }
      ],
      "name": "CommerceFeeReceived",
      "type": "event"
    },
    {
      "anonymous": false,
      "inputs": [
        {
          "indexed": true,
          "internalType": "address",
          "name": "buyer",
          "type": "address"
        },
        {
          "indexed": true,
          "internalType": "address",
          "name": "collateralToken",
          "type": "address"
        },
        {
          "indexed": false,
          "internalType": "uint256",
          "name": "collateralAmount",
          "type": "uint256"
        },
        {
          "indexed": false,
          "internalType": "uint256",
          "name": "lmktAmount",
          "type": "uint256"
        }
      ],
      "name": "MktPurchased",
      "type": "event"
    },
    {
      "anonymous": false,
      "inputs": [
        {
          "indexed": true,
          "internalType": "address",
          "name": "seller",
          "type": "address"
        },
        {
          "indexed": false,
          "internalType": "uint256",
          "name": "lmktAmount",
          "type": "uint256"
        },
        {
          "indexed": false,
          "internalType": "uint256",
          "name": "collateralAmount",
          "type": "uint256"
        },
        {
          "indexed": true,
          "internalType": "address",
          "name": "collateralToken",
          "type": "address"
        }
      ],
      "name": "MktSold",
      "type": "event"
    },
    {
      "anonymous": false,
      "inputs": [
        {
          "indexed": true,
          "internalType": "address",
          "name": "previousOwner",
          "type": "address"
        },
        {
          "indexed": true,
          "internalType": "address",
          "name": "newOwner",
          "type": "address"
        }
      ],
      "name": "OwnershipTransferred",
      "type": "event"
    },
    {
      "anonymous": false,
      "inputs": [
        {
          "indexed": true,
          "internalType": "address",
          "name": "token",
          "type": "address"
        },
        {
          "indexed": true,
          "internalType": "address",
          "name": "feed",
          "type": "address"
        }
      ],
      "name": "PriceFeedSet",
      "type": "event"
    },
    {
      "anonymous": false,
      "inputs": [
        {
          "indexed": true,
          "internalType": "address",
          "name": "token",
          "type": "address"
        },
        {
          "indexed": true,
          "internalType": "bytes32",
          "name": "queryId",
          "type": "bytes32"
        }
      ],
      "name": "TokenQueryIdSet",
      "type": "event"
    },
    {
      "inputs": [],
      "name": "BURN_RATE",
      "outputs": [
        {
          "internalType": "uint256",
          "name": "",
          "type": "uint256"
        }
      ],
      "stateMutability": "view",
      "type": "function"
    },
    {
      "inputs": [],
      "name": "BUY_DISCOUNT",
      "outputs": [
        {
          "internalType": "uint256",
          "name": "",
          "type": "uint256"
        }
      ],
      "stateMutability": "view",
      "type": "function"
    },
    {
      "inputs": [],
      "name": "HOLDING_CAP_BASE",
      "outputs": [
        {
          "internalType": "uint256",
          "name": "",
          "type": "uint256"
        }
      ],
      "stateMutability": "view",
      "type": "function"
    },
    {
      "inputs": [],
      "name": "HOLDING_CAP_PERCENT",
      "outputs": [
        {
          "internalType": "uint256",
          "name": "",
          "type": "uint256"
        }
      ],
      "stateMutability": "view",
      "type": "function"
    },
    {
      "inputs": [],
      "name": "ORACLE_PRICE_DECIMALS",
      "outputs": [
        {
          "internalType": "uint8",
          "name": "",
          "type": "uint8"
        }
      ],
      "stateMutability": "view",
      "type": "function"
    },
    {
      "inputs": [],
      "name": "SELL_PREMIUM",
      "outputs": [
        {
          "internalType": "uint256",
          "name": "",
          "type": "uint256"
        }
      ],
      "stateMutability": "view",
      "type": "function"
    },
    {
      "inputs": [],
      "name": "SPREAD_BASE",
      "outputs": [
        {
          "internalType": "uint256",
          "name": "",
          "type": "uint256"
        }
      ],
      "stateMutability": "view",
      "type": "function"
    },
    {
      "inputs": [
        {
          "internalType": "uint256",
          "name": "collateralAmount",
          "type": "uint256"
        },
        {
          "internalType": "address",
          "name": "collateralToken",
          "type": "address"
        }
      ],
      "name": "buyMkt",
      "outputs": [],
      "stateMutability": "nonpayable",
      "type": "function"
    },
    {
      "inputs": [
        {
          "internalType": "address",
          "name": "token",
          "type": "address"
        },
        {
          "internalType": "uint256",
          "name": "amount",
          "type": "uint256"
        }
      ],
      "name": "depositCommerceFee",
      "outputs": [],
      "stateMutability": "nonpayable",
      "type": "function"
    },
    {
      "inputs": [
        {
          "internalType": "uint256",
          "name": "lmktAmount",
          "type": "uint256"
        },
        {
          "internalType": "address",
          "name": "collateralToken",
          "type": "address"
        }
      ],
      "name": "getCollateralAmountForLmkt",
      "outputs": [
        {
          "internalType": "uint256",
          "name": "",
          "type": "uint256"
        }
      ],
      "stateMutability": "view",
      "type": "function"
    },
    {
      "inputs": [
        {
          "internalType": "uint256",
          "name": "amount",
          "type": "uint256"
        },
        {
          "internalType": "address",
          "name": "token",
          "type": "address"
        }
      ],
      "name": "getCollateralTokenValue",
      "outputs": [
        {
          "internalType": "uint256",
          "name": "",
          "type": "uint256"
        }
      ],
      "stateMutability": "view",
      "type": "function"
    },
    {
      "inputs": [
        {
          "internalType": "uint256",
          "name": "collateralAmount",
          "type": "uint256"
        },
        {
          "internalType": "address",
          "name": "collateralToken",
          "type": "address"
        }
      ],
      "name": "getLmktAmountForCollateral",
      "outputs": [
        {
          "internalType": "uint256",
          "name": "",
          "type": "uint256"
        }
      ],
      "stateMutability": "view",
      "type": "function"
    },
    {
      "inputs": [],
      "name": "getTotalCollateralValue",
      "outputs": [
        {
          "internalType": "uint256",
          "name": "",
          "type": "uint256"
        }
      ],
      "stateMutability": "view",
      "type": "function"
    },
    {
      "inputs": [
        {
          "internalType": "address",
          "name": "",
          "type": "address"
        }
      ],
      "name": "isWhitelistedCollateral",
      "outputs": [
        {
          "internalType": "bool",
          "name": "",
          "type": "bool"
        }
      ],
      "stateMutability": "view",
      "type": "function"
    },
    {
      "inputs": [],
      "name": "lmktToken",
      "outputs": [
        {
          "internalType": "contract ILMKT",
          "name": "",
          "type": "address"
        }
      ],
      "stateMutability": "view",
      "type": "function"
    },
    {
      "inputs": [],
      "name": "owner",
      "outputs": [
        {
          "internalType": "address",
          "name": "",
          "type": "address"
        }
      ],
      "stateMutability": "view",
      "type": "function"
    },
    {
      "inputs": [],
      "name": "renounceOwnership",
      "outputs": [],
      "stateMutability": "nonpayable",
      "type": "function"
    },
    {
      "inputs": [
        {
          "internalType": "uint256",
          "name": "lmktAmount",
          "type": "uint256"
        },
        {
          "internalType": "address",
          "name": "collateralToken",
          "type": "address"
        }
      ],
      "name": "sellMkt",
      "outputs": [],
      "stateMutability": "nonpayable",
      "type": "function"
    },
    {
      "inputs": [
        {
          "internalType": "address",
          "name": "_lmktTokenAddress",
          "type": "address"
        }
      ],
      "name": "setLmktAddress",
      "outputs": [],
      "stateMutability": "nonpayable",
      "type": "function"
    },
    {
      "inputs": [
        {
          "internalType": "address",
          "name": "_token",
          "type": "address"
        },
        {
          "internalType": "address",
          "name": "_feedAddress",
          "type": "address"
        }
      ],
      "name": "setPriceFeed",
      "outputs": [],
      "stateMutability": "nonpayable",
      "type": "function"
    },
    {
      "inputs": [
        {
          "internalType": "address",
          "name": "_token",
          "type": "address"
        },
        {
          "internalType": "bytes32",
          "name": "_queryId",
          "type": "bytes32"
        }
      ],
      "name": "setTokenQueryId",
      "outputs": [],
      "stateMutability": "nonpayable",
      "type": "function"
    },
    {
      "inputs": [
        {
          "internalType": "address",
          "name": "token",
          "type": "address"
        },
        {
          "internalType": "bool",
          "name": "isWhitelisted",
          "type": "bool"
        }
      ],
      "name": "setWhitelistedCollateral",
      "outputs": [],
      "stateMutability": "nonpayable",
      "type": "function"
    },
    {
      "inputs": [
        {
          "internalType": "address",
          "name": "",
          "type": "address"
        }
      ],
      "name": "tokenPriceFeeds",
      "outputs": [
        {
          "internalType": "address",
          "name": "",
          "type": "address"
        }
      ],
      "stateMutability": "view",
      "type": "function"
    },
    {
      "inputs": [
        {
          "internalType": "address",
          "name": "",
          "type": "address"
        }
      ],
      "name": "tokenQueryIds",
      "outputs": [
        {
          "internalType": "bytes32",
          "name": "",
          "type": "bytes32"
        }
      ],
      "stateMutability": "view",
      "type": "function"
    },
    {
      "inputs": [
        {
          "internalType": "address",
          "name": "newOwner",
          "type": "address"
        }
      ],
      "name": "transferOwnership",
      "outputs": [],
      "stateMutability": "nonpayable",
      "type": "function"
    },
    {
      "inputs": [
        {
          "internalType": "uint256",
          "name": "",
          "type": "uint256"
        }
      ],
      "name": "whitelistedCollateralTokens",
      "outputs": [
        {
          "internalType": "address",
          "name": "",
          "type": "address"
        }
      ],
      "stateMutability": "view",
      "type": "function"
    },
    {
      "stateMutability": "payable",
      "type": "receive"
    }
  ],
  "bytecode": "0x608060405234801561001057600080fd5b50338061003757604051631e4fbdf760e01b81526000600482015260240160405180910390fd5b6100408161004a565b506001805561009a565b600080546001600160a01b038381166001600160a01b0319831681178455604051919092169283917f8be0079c531659141344cd1fd0a4f28419497f9722a3daafe3b4186f6b6457e09190a35050565b611a9d806100a96000396000f3fe6080604052600436106101855760003560e01c806374c5d7c2116100d1578063cf56e5aa1161008a578063f2dc739711610064578063f2dc739714610451578063f2fde38b14610466578063f846a88514610451578063f9839d891461048657600080fd5b8063cf56e5aa146103fc578063e3889a3f1461041c578063ed6493af1461043c57600080fd5b806374c5d7c21461033257806376e11286146103525780638da5cb5b146103725780639d568da314610390578063a7e014f6146103a6578063bd9c47e3146103c657600080fd5b80633e7565a71161013e5780635886418f116101185780635886418f146102e757806360192281146102fd5780636fb4bb4c1461027a578063715018a61461031d57600080fd5b80633e7565a71461027a5780634850b2171461028f5780635014c45c146102c757600080fd5b8063094fcbfe146101915780630cca7bf5146101c45780631a070739146101f15780631c9b9f0314610218578063253bcadc1461023a57806333fc07501461025a57600080fd5b3661018c57005b600080fd5b34801561019d57600080fd5b506101b16101ac36600461171e565b6104c6565b6040519081526020015b60405180910390f35b3480156101d057600080fd5b506101b16101df36600461174a565b60066020526000908152604090205481565b3480156101fd57600080fd5b50610206600881565b60405160ff90911681526020016101bb565b34801561022457600080fd5b5061023861023336600461174a565b61071f565b005b34801561024657600080fd5b5061023861025536600461177a565b610749565b34801561026657600080fd5b506101b161027536600461171e565b61097d565b34801561028657600080fd5b506101b1606481565b34801561029b57600080fd5b506102af6102aa3660046117b1565b610a64565b6040516001600160a01b0390911681526020016101bb565b3480156102d357600080fd5b506002546102af906001600160a01b031681565b3480156102f357600080fd5b506101b16103e881565b34801561030957600080fd5b506101b161031836600461171e565b610a8e565b34801561032957600080fd5b50610238610c23565b34801561033e57600080fd5b5061023861034d36600461171e565b610c37565b34801561035e57600080fd5b5061023861036d3660046117ca565b610f7c565b34801561037e57600080fd5b506000546001600160a01b03166102af565b34801561039c57600080fd5b506101b161271081565b3480156103b257600080fd5b506102386103c13660046117f4565b611069565b3480156103d257600080fd5b506102af6103e136600461174a565b6005602052600090815260409020546001600160a01b031681565b34801561040857600080fd5b5061023861041736600461171e565b6111b2565b34801561042857600080fd5b506102386104373660046117f4565b6114eb565b34801561044857600080fd5b506101b1611572565b34801561045d57600080fd5b506101b1600581565b34801561047257600080fd5b5061023861048136600461174a565b611647565b34801561049257600080fd5b506104b66104a136600461174a565b60036020526000908152604090205460ff1681565b60405190151581526020016101bb565b6001600160a01b03808216600090815260056020526040812054909116806105445760405162461bcd60e51b815260206004820152602660248201527f54726561737572793a2050726963652066656564206e6f742073657420666f72604482015265103a37b5b2b760d11b60648201526084015b60405180910390fd5b6001600160a01b038316600090815260066020526040902054806105b65760405162461bcd60e51b8152602060048201526024808201527f54726561737572793a205175657279204944206e6f742073657420666f72207460448201526337b5b2b760e11b606482015260840161053b565b6040516331d98b3f60e01b81526004810182905282906000906001600160a01b038316906331d98b3f90602401602060405180830381865afa158015610600573d6000803e3d6000fd5b505050506040513d601f19601f82011682018060405250810190610624919061181e565b90506000811161068c5760405162461bcd60e51b815260206004820152602d60248201527f54726561737572793a204f7261636c65207072696365206973207a65726f206f60448201526c1c881b9bdd081d5c19185d1959609a1b606482015260840161053b565b6000866001600160a01b031663313ce5676040518163ffffffff1660e01b8152600401602060405180830381865afa1580156106cc573d6000803e3d6000fd5b505050506040513d601f19601f820116820180604052508101906106f09190611837565b90506106fd81600a611954565b610707838a611963565b610711919061197a565b955050505050505b92915050565b610727611685565b600280546001600160a01b0319166001600160a01b0392909216919091179055565b610751611685565b6001600160a01b0382166000908152600360205260409020805460ff1916821580159190911790915561082a5760005b6004548110156107d957826001600160a01b0316600482815481106107a8576107a861199c565b6000918252602090912001546001600160a01b0316036107c757505050565b806107d1816119b2565b915050610781565b50600480546001810182556000919091527f8a35acfbc15ff81a39ae7d344fd709f28e8600b4aa8c65c6b64bfe7fe36bd19b0180546001600160a01b0319166001600160a01b038416179055610934565b60005b60045481101561093257826001600160a01b0316600482815481106108545761085461199c565b6000918252602090912001546001600160a01b031603610920576004805461087e906001906119cb565b8154811061088e5761088e61199c565b600091825260209091200154600480546001600160a01b0390921691839081106108ba576108ba61199c565b9060005260206000200160006101000a8154816001600160a01b0302191690836001600160a01b0316021790555060048054806108f9576108f96119de565b600082815260209020810160001990810180546001600160a01b0319169055019055610932565b8061092a816119b2565b91505061082d565b505b816001600160a01b03167f3cd44c9ffcc58ef85c0b1cb3e60f01382feb190f42795e92a10ceb2d757a938c82604051610971911515815260200190565b60405180910390a25050565b60008061098a84846104c6565b90506000610996611572565b6002546040516370a0823160e01b81523060048201529192506000916001600160a01b03909116906370a0823190602401602060405180830381865afa1580156109e4573d6000803e3d6000fd5b505050506040513d601f19601f82011682018060405250810190610a08919061181e565b905081600003610a1e5760009350505050610719565b600082610a2b8386611963565b610a35919061197a565b9050612710610a456064826119cb565b610a4f9083611963565b610a59919061197a565b979650505050505050565b60048181548110610a7457600080fd5b6000918252602090912001546001600160a01b0316905081565b600080610a99611572565b6002546040516370a0823160e01b81523060048201529192506000916001600160a01b03909116906370a0823190602401602060405180830381865afa158015610ae7573d6000803e3d6000fd5b505050506040513d601f19601f82011682018060405250810190610b0b919061181e565b905080600003610b2057600092505050610719565b600081610b2d8488611963565b610b37919061197a565b90506000612710610b496064826119cb565b610b539084611963565b610b5d919061197a565b90506000866001600160a01b031663313ce5676040518163ffffffff1660e01b8152600401602060405180830381865afa158015610b9f573d6000803e3d6000fd5b505050506040513d601f19601f82011682018060405250810190610bc39190611837565b9050600860ff82161115610c0057610bdf600860ff83166119cb565b610bea90600a6119f4565b610bf49083611963565b95505050505050610719565b610c0e60ff821660086119cb565b610c1990600a6119f4565b610bf4908361197a565b610c2b611685565b610c3560006116b2565b565b600260015403610c895760405162461bcd60e51b815260206004820152601f60248201527f5265656e7472616e637947756172643a207265656e7472616e742063616c6c00604482015260640161053b565b60026001556001600160a01b03811660009081526003602052604090205460ff16610cc65760405162461bcd60e51b815260040161053b90611a00565b6000610cd2838361097d565b905060006103e86005600260009054906101000a90046001600160a01b03166001600160a01b03166318160ddd6040518163ffffffff1660e01b8152600401602060405180830381865afa158015610d2e573d6000803e3d6000fd5b505050506040513d601f19601f82011682018060405250810190610d52919061181e565b610d5c9190611963565b610d66919061197a565b6002546040516370a0823160e01b8152336004820152919250829184916001600160a01b0316906370a0823190602401602060405180830381865afa158015610db3573d6000803e3d6000fd5b505050506040513d601f19601f82011682018060405250810190610dd7919061181e565b610de19190611a37565b1115610e3e5760405162461bcd60e51b815260206004820152602660248201527f54726561737572793a205075726368617365206578636565647320686f6c646960448201526506e67206361760d41b606482015260840161053b565b6040516323b872dd60e01b8152336004820152306024820152604481018590526001600160a01b038416906323b872dd906064016020604051808303816000875af1158015610e91573d6000803e3d6000fd5b505050506040513d601f19601f82011682018060405250810190610eb59190611a4a565b5060025460405163a9059cbb60e01b8152336004820152602481018490526001600160a01b039091169063a9059cbb906044016020604051808303816000875af1158015610f07573d6000803e3d6000fd5b505050506040513d601f19601f82011682018060405250810190610f2b9190611a4a565b5060408051858152602081018490526001600160a01b0385169133917f37b5f51a361bef39ebb0de443aabf27ced718a6240798866b4ffc6c1ed1344ba910160405180910390a35050600180555050565b610f84611685565b6001600160a01b03821660009081526003602052604090205460ff16610fbc5760405162461bcd60e51b815260040161053b90611a00565b6001600160a01b0381166110125760405162461bcd60e51b815260206004820152601e60248201527f54726561737572793a20496e76616c6964206665656420616464726573730000604482015260640161053b565b6001600160a01b0382811660008181526005602052604080822080546001600160a01b0319169486169485179055517fd2d8394cf7549a5ddbc2ba3dd7b2de8d53c891472d1f2907008ed6a10045fdae9190a35050565b6002546001600160a01b038381169116148061109d57506001600160a01b03821660009081526003602052604090205460ff165b6110ff5760405162461bcd60e51b815260206004820152602d60248201527f54726561737572793a2043616e206f6e6c79207265636569766520776869746560448201526c6c697374656420746f6b656e7360981b606482015260840161053b565b6040516323b872dd60e01b8152336004820152306024820152604481018290526001600160a01b038316906323b872dd906064016020604051808303816000875af1158015611152573d6000803e3d6000fd5b505050506040513d601f19601f820116820180604052508101906111769190611a4a565b50816001600160a01b03167f549340764ea97c24d00be84b5402a70f793c845a1578490632afba2b65e5b1378260405161097191815260200190565b6002600154036112045760405162461bcd60e51b815260206004820152601f60248201527f5265656e7472616e637947756172643a207265656e7472616e742063616c6c00604482015260640161053b565b60026001556001600160a01b03811660009081526003602052604090205460ff166112415760405162461bcd60e51b815260040161053b90611a00565b6000612710611251600585611963565b61125b919061197a565b9050600061126982856119cb565b905060006112778285610a8e565b6040516370a0823160e01b815230600482015290915081906001600160a01b038616906370a0823190602401602060405180830381865afa1580156112c0573d6000803e3d6000fd5b505050506040513d601f19601f820116820180604052508101906112e4919061181e565b101561134e5760405162461bcd60e51b815260206004820152603360248201527f54726561737572793a20496e73756666696369656e7420726573657276657320604482015272199bdc881d1a1a5cc818dbdb1b185d195c985b606a1b606482015260840161053b565b6002546040516323b872dd60e01b8152336004820152306024820152604481018790526001600160a01b03909116906323b872dd906064016020604051808303816000875af11580156113a5573d6000803e3d6000fd5b505050506040513d601f19601f820116820180604052508101906113c99190611a4a565b50600254604051630852cd8d60e31b8152600481018590526001600160a01b03909116906342966c6890602401600060405180830381600087803b15801561141057600080fd5b505af1158015611424573d6000803e3d6000fd5b505060405163a9059cbb60e01b8152336004820152602481018490526001600160a01b038716925063a9059cbb91506044016020604051808303816000875af1158015611475573d6000803e3d6000fd5b505050506040513d601f19601f820116820180604052508101906114999190611a4a565b5060408051868152602081018390526001600160a01b0386169133917fffb30956da63e1ed1617182a525ae26848d4ab884c0cad04828ca872f6da3838910160405180910390a3505060018055505050565b6114f3611685565b6001600160a01b03821660009081526003602052604090205460ff1661152b5760405162461bcd60e51b815260040161053b90611a00565b6001600160a01b038216600081815260066020526040808220849055518392917f7be46b5a1a89af40bc828b3ef14146891d36d93b67f082389d5fd24f031d31fa91a35050565b600080805b600454811015611641576000600482815481106115965761159661199c565b60009182526020822001546040516370a0823160e01b81523060048201526001600160a01b03909116925082906370a0823190602401602060405180830381865afa1580156115e9573d6000803e3d6000fd5b505050506040513d601f19601f8201168201806040525081019061160d919061181e565b9050801561162c5761161f81836104c6565b6116299085611a37565b93505b50508080611639906119b2565b915050611577565b50919050565b61164f611685565b6001600160a01b03811661167957604051631e4fbdf760e01b81526000600482015260240161053b565b611682816116b2565b50565b6000546001600160a01b03163314610c355760405163118cdaa760e01b815233600482015260240161053b565b600080546001600160a01b038381166001600160a01b0319831681178455604051919092169283917f8be0079c531659141344cd1fd0a4f28419497f9722a3daafe3b4186f6b6457e09190a35050565b80356001600160a01b038116811461171957600080fd5b919050565b6000806040838503121561173157600080fd5b8235915061174160208401611702565b90509250929050565b60006020828403121561175c57600080fd5b61176582611702565b9392505050565b801515811461168257600080fd5b6000806040838503121561178d57600080fd5b61179683611702565b915060208301356117a68161176c565b809150509250929050565b6000602082840312156117c357600080fd5b5035919050565b600080604083850312156117dd57600080fd5b6117e683611702565b915061174160208401611702565b6000806040838503121561180757600080fd5b61181083611702565b946020939093013593505050565b60006020828403121561183057600080fd5b5051919050565b60006020828403121561184957600080fd5b815160ff8116811461176557600080fd5b634e487b7160e01b600052601160045260246000fd5b600181815b808511156118ab5781600019048211156118915761189161185a565b8085161561189e57918102915b93841c9390800290611875565b509250929050565b6000826118c257506001610719565b816118cf57506000610719565b81600181146118e557600281146118ef5761190b565b6001915050610719565b60ff8411156119005761190061185a565b50506001821b610719565b5060208310610133831016604e8410600b841016171561192e575081810a610719565b6119388383611870565b806000190482111561194c5761194c61185a565b029392505050565b600061176560ff8416836118b3565b80820281158282048414176107195761071961185a565b60008261199757634e487b7160e01b600052601260045260246000fd5b500490565b634e487b7160e01b600052603260045260246000fd5b6000600182016119c4576119c461185a565b5060010190565b818103818111156107195761071961185a565b634e487b7160e01b600052603160045260246000fd5b600061176583836118b3565b6020808252601f908201527f54726561737572793a20546f6b656e206e6f742077686974656c697374656400604082015260600190565b808201808211156107195761071961185a565b600060208284031215611a5c57600080fd5b81516117658161176c56fea2646970667358221220bfb442ada2f9910059b298cf083d6e983a7f8021c11cd43ed3b514b726c312d264736f6c63430008140033",
  "linkReferences": {},
  "deployedLinkReferences": {}
}