{
  "_format": "hh-sol-artifact-1",
  "contractName": "ListingManager",
  "sourceName": "contracts/ListingManager.sol",
  "abi": [
    {
      "inputs": [
        {
          "internalType": "address",
          "name": "_treasury",
          "type": "address"
        },
        {
          "internalType": "address",
          "name": "_paymentToken",
          "type": "address"
        },
        {
          "internalType": "address",
          "name": "_trustedSigner",
          "type": "address"
        }
      ],
      "stateMutability": "nonpayable",
      "type": "constructor"
    },
    {
      "inputs": [
        {
          "internalType": "address",
          "name": "owner",
          "type": "address"
        }
      ],
      "name": "OwnableInvalidOwner",
      "type": "error"
    },
    {
      "inputs": [
        {
          "internalType": "address",
          "name": "account",
          "type": "address"
        }
      ],
      "name": "OwnableUnauthorizedAccount",
      "type": "error"
    },
    {
      "anonymous": false,
      "inputs": [
        {
          "indexed": true,
          "internalType": "uint256",
          "name": "listingId",
          "type": "uint256"
        },
        {
          "indexed": true,
          "internalType": "address",
          "name": "owner",
          "type": "address"
        },
        {
          "indexed": false,
          "internalType": "enum ListingManager.ListingType",
          "name": "listingType",
          "type": "uint256"
        },
        {
          "indexed": false,
          "internalType": "uint256",
          "name": "feePaid",
          "type": "uint256"
        }
      ],
      "name": "ListingCreated",
      "type": "event"
    },
    {
      "anonymous": false,
      "inputs": [
        {
          "indexed": true,
          "internalType": "uint256",
          "name": "listingId",
          "type": "uint256"
        }
      ],
      "name": "ListingDeleted",
      "type": "event"
    },
    {
      "anonymous": false,
      "inputs": [
        {
          "indexed": true,
          "internalType": "address",
          "name": "previousOwner",
          "type": "address"
        },
        {
          "indexed": true,
          "internalType": "address",
          "name": "newOwner",
          "type": "address"
        }
      ],
      "name": "OwnershipTransferred",
      "type": "event"
    },
    {
      "inputs": [],
      "name": "LISTING_DURATION",
      "outputs": [
        {
          "internalType": "uint256",
          "name": "",
          "type": "uint256"
        }
      ],
      "stateMutability": "view",
      "type": "function"
    },
    {
      "inputs": [
        {
          "internalType": "enum ListingManager.ListingType",
          "name": "_type",
          "type": "uint256"
        },
        {
          "internalType": "string",
          "name": "_dataIdentifier",
          "type": "string"
        },
        {
          "internalType": "uint256",
          "name": "_feeInToken",
          "type": "uint256"
        },
        {
          "internalType": "uint256",
          "name": "_deadline",
          "type": "uint256"
        },
        {
          "internalType": "bytes",
          "name": "_signature",
          "type": "bytes"
        }
      ],
      "name": "createListing",
      "outputs": [],
      "stateMutability": "nonpayable",
      "type": "function"
    },
    {
      "inputs": [
        {
          "internalType": "uint256",
          "name": "_listingId",
          "type": "uint256"
        }
      ],
      "name": "deleteListing",
      "outputs": [],
      "stateMutability": "nonpayable",
      "type": "function"
    },
    {
      "inputs": [
        {
          "internalType": "uint256",
          "name": "",
          "type": "uint256"
        }
      ],
      "name": "listings",
      "outputs": [
        {
          "internalType": "address",
          "name": "owner",
          "type": "address"
        },
        {
          "internalType": "uint256",
          "name": "expiresAt",
          "type": "uint256"
        },
        {
          "internalType": "enum ListingManager.ListingType",
          "name": "listingType",
          "type": "uint256"
        },
        {
          "internalType": "string",
          "name": "dataIdentifier",
          "type": "string"
        }
      ],
      "stateMutability": "view",
      "type": "function"
    },
    {
      "inputs": [
        {
          "internalType": "address",
          "name": "",
          "type": "address"
        }
      ],
      "name": "nonces",
      "outputs": [
        {
          "internalType": "uint256",
          "name": "",
          "type": "uint256"
        }
      ],
      "stateMutability": "view",
      "type": "function"
    },
    {
      "inputs": [],
      "name": "owner",
      "outputs": [
        {
          "internalType": "address",
          "name": "",
          "type": "address"
        }
      ],
      "stateMutability": "view",
      "type": "function"
    },
    {
      "inputs": [],
      "name": "paymentToken",
      "outputs": [
        {
          "internalType": "contract IERC20",
          "name": "",
          "type": "address"
        }
      ],
      "stateMutability": "view",
      "type": "function"
    },
    {
      "inputs": [
        {
          "internalType": "bytes32",
          "name": "hash",
          "type": "bytes32"
        },
        {
          "internalType": "bytes",
          "name": "signature",
          "type": "bytes"
        }
      ],
      "name": "recover",
      "outputs": [
        {
          "internalType": "address",
          "name": "",
          "type": "address"
        }
      ],
      "stateMutability": "pure",
      "type": "function"
    },
    {
      "inputs": [],
      "name": "renounceOwnership",
      "outputs": [],
      "stateMutability": "nonpayable",
      "type": "function"
    },
    {
      "inputs": [
        {
          "internalType": "address",
          "name": "_newSigner",
          "type": "address"
        }
      ],
      "name": "setTrustedSigner",
      "outputs": [],
      "stateMutability": "nonpayable",
      "type": "function"
    },
    {
      "inputs": [
        {
          "internalType": "address",
          "name": "newOwner",
          "type": "address"
        }
      ],
      "name": "transferOwnership",
      "outputs": [],
      "stateMutability": "nonpayable",
      "type": "function"
    },
    {
      "inputs": [],
      "name": "treasury",
      "outputs": [
        {
          "internalType": "contract ITreasury",
          "name": "",
          "type": "address"
        }
      ],
      "stateMutability": "view",
      "type": "function"
    },
    {
      "inputs": [],
      "name": "trustedSigner",
      "outputs": [
        {
          "internalType": "address",
          "name": "",
          "type": "address"
        }
      ],
      "stateMutability": "view",
      "type": "function"
    }
  ],
  "bytecode": "0x608060405234801561001057600080fd5b50604051610f7c380380610f7c83398101604081905261002f9161010d565b338061005557604051631e4fbdf760e01b81526000600482015260240160405180910390fd5b61005e816100a1565b50600180546001600160a01b039485166001600160a01b031991821617909155600280549385169382169390931790925560038054919093169116179055610150565b600080546001600160a01b038381166001600160a01b0319831681178455604051919092169283917f8be0079c531659141344cd1fd0a4f28419497f9722a3daafe3b4186f6b6457e09190a35050565b80516001600160a01b038116811461010857600080fd5b919050565b60008060006060848603121561012257600080fd5b61012b846100f1565b9250610139602085016100f1565b9150610147604085016100f1565b90509250925092565b610e1d8061015f6000396000f3fe608060405234801561001057600080fd5b50600436106100cf5760003560e01c80637ecebe001161008c578063de74e57b11610066578063de74e57b146101a3578063e6282c6e146101c6578063f2fde38b146101d9578063f74d5480146101ec57600080fd5b80637ecebe001461015a5780638da5cb5b14610188578063c2135cbf1461019957600080fd5b806319045a25146100d45780633013ce2914610104578063315f413b1461011757806356a1c7011461012c57806361d027b31461013f578063715018a614610152575b600080fd5b6100e76100e23660046109c2565b6101ff565b6040516001600160a01b0390911681526020015b60405180910390f35b6002546100e7906001600160a01b031681565b61012a610125366004610a09565b610278565b005b61012a61013a366004610aae565b6104e6565b6001546100e7906001600160a01b031681565b61012a610510565b61017a610168366004610aae565b60066020526000908152604090205481565b6040519081526020016100fb565b6000546001600160a01b03166100e7565b61017a62278d0081565b6101b66101b1366004610ad7565b610524565b6040516100fb9493929190610b4c565b61012a6101d4366004610ad7565b6105e5565b61012a6101e7366004610aae565b61070d565b6003546100e7906001600160a01b031681565b6020818101516040808401516060808601518351600080825296810180865289905290861a9381018490529081018490526080810182905290919060019060a0016020604051602081039080840390855afa158015610262573d6000803e3d6000fd5b5050506020604051035193505050505b92915050565b428210156102d75760405162461bcd60e51b815260206004820152602160248201527f4c697374696e674d616e616765723a205369676e6174757265206578706972656044820152601960fa1b60648201526084015b60405180910390fd5b60006102e6868633878761074b565b90506102f281836107ce565b6103485760405162461bcd60e51b815260206004820152602160248201527f4c697374696e674d616e616765723a20496e76616c6964207369676e617475726044820152606560f81b60648201526084016102ce565b6002546001546040516323b872dd60e01b81523360048201526001600160a01b039182166024820152604481018790529116906323b872dd906064016020604051808303816000875af11580156103a3573d6000803e3d6000fd5b505050506040513d601f19601f820116820180604052508101906103c79190610ba5565b50600480549060006103d883610bdd565b90915550506004546040805160808101909152338152602081016103ff62278d0042610bf6565b815260200188600181111561041657610416610af0565b81526020908101889052600083815260058252604090819020835181546001600160a01b0319166001600160a01b0390911617815591830151600180840191909155908301516002830180549192909160ff191690838181111561047c5761047c610af0565b0217905550606082015160038201906104959082610c92565b50905050336001600160a01b0316817f699a5d005a1b3070978198b8ebdef4433bbd9a3009794d984de5817912e816a789886040516104d5929190610d52565b60405180910390a350505050505050565b6104ee610844565b600380546001600160a01b0319166001600160a01b0392909216919091179055565b610518610844565b6105226000610871565b565b60056020526000908152604090208054600182015460028301546003840180546001600160a01b0390941694929360ff909216929161056290610c09565b80601f016020809104026020016040519081016040528092919081815260200182805461058e90610c09565b80156105db5780601f106105b0576101008083540402835291602001916105db565b820191906000526020600020905b8154815290600101906020018083116105be57829003601f168201915b5050505050905084565b600081815260056020526040902080546001600160a01b0316331461064c5760405162461bcd60e51b815260206004820181905260248201527f4c697374696e674d616e616765723a204e6f7420796f7572206c697374696e6760448201526064016102ce565b4281600101541161069f5760405162461bcd60e51b815260206004820152601f60248201527f4c697374696e674d616e616765723a204c697374696e6720657870697265640060448201526064016102ce565b600082815260056020526040812080546001600160a01b03191681556001810182905560028101805460ff19169055906106dc60038301826108c1565b505060405182907f8b21015f510e5f42785fad11aa75334f0f622f97504d8c498540b869d36b630890600090a25050565b610715610844565b6001600160a01b03811661073f57604051631e4fbdf760e01b8152600060048201526024016102ce565b61074881610871565b50565b6001600160a01b0383166000908152600660209081526040808320549051839261077f928a928a928a928a928a9201610d6d565b60408051601f1981840301815291815281516020928301206001600160a01b03881660009081526006909352908220805491935090916107be83610bdd565b9091555090979650505050505050565b6040517f19457468657265756d205369676e6564204d6573736167653a0a3332000000006020820152603c81018390526000908190605c01604051602081830303815290604052805190602001209050600061082a82856101ff565b6003546001600160a01b0390811691161495945050505050565b6000546001600160a01b031633146105225760405163118cdaa760e01b81523360048201526024016102ce565b600080546001600160a01b038381166001600160a01b0319831681178455604051919092169283917f8be0079c531659141344cd1fd0a4f28419497f9722a3daafe3b4186f6b6457e09190a35050565b5080546108cd90610c09565b6000825580601f106108dd575050565b601f01602090049060005260206000209081019061074891905b8082111561090b57600081556001016108f7565b5090565b634e487b7160e01b600052604160045260246000fd5b600067ffffffffffffffff808411156109405761094061090f565b604051601f8501601f19908116603f011681019082821181831017156109685761096861090f565b8160405280935085815286868601111561098157600080fd5b858560208301376000602087830101525050509392505050565b600082601f8301126109ac57600080fd5b6109bb83833560208501610925565b9392505050565b600080604083850312156109d557600080fd5b82359150602083013567ffffffffffffffff8111156109f357600080fd5b6109ff8582860161099b565b9150509250929050565b600080600080600060a08688031215610a2157600080fd5b853560028110610a3057600080fd5b9450602086013567ffffffffffffffff80821115610a4d57600080fd5b818801915088601f830112610a6157600080fd5b610a7089833560208501610925565b955060408801359450606088013593506080880135915080821115610a9457600080fd5b50610aa18882890161099b565b9150509295509295909350565b600060208284031215610ac057600080fd5b81356001600160a01b03811681146109bb57600080fd5b600060208284031215610ae957600080fd5b5035919050565b634e487b7160e01b600052602160045260246000fd5b60028110610b2457634e487b7160e01b600052602160045260246000fd5b9052565b60005b83811015610b43578181015183820152602001610b2b565b50506000910152565b6001600160a01b038516815260208101849052610b6c6040820184610b06565b6080606082015260008251806080840152610b8e8160a0850160208701610b28565b601f01601f19169190910160a00195945050505050565b600060208284031215610bb757600080fd5b815180151581146109bb57600080fd5b634e487b7160e01b600052601160045260246000fd5b600060018201610bef57610bef610bc7565b5060010190565b8082018082111561027257610272610bc7565b600181811c90821680610c1d57607f821691505b602082108103610c3d57634e487b7160e01b600052602260045260246000fd5b50919050565b601f821115610c8d57600081815260208120601f850160051c81016020861015610c6a5750805b601f850160051c820191505b81811015610c8957828155600101610c76565b5050505b505050565b815167ffffffffffffffff811115610cac57610cac61090f565b610cc081610cba8454610c09565b84610c43565b602080601f831160018114610cf55760008415610cdd5750858301515b600019600386901b1c1916600185901b178555610c89565b600085815260208120601f198616915b82811015610d2457888601518255948401946001909101908401610d05565b5085821015610d425787850151600019600388901b60f8161c191681555b5050505050600190811b01905550565b60408101610d608285610b06565b8260208301529392505050565b600060028810610d8d57634e487b7160e01b600052602160045260246000fd5b8760f81b82528651610da6816001850160208b01610b28565b60609690961b6bffffffffffffffffffffffff191660019290960191820195909552601581019390935260358301919091526055820152607501939250505056fea264697066735822122084e29372f47e0397acc8aa141bce2d62fcf11e5d3b384f8383d3dceaff00914d64736f6c63430008140033",
  "linkReferences": {},
  "deployedLinkReferences": {}
}