{
  "_format": "hh-sol-artifact-1",
  "contractName": "Treasury",
  "sourceName": "contracts/Treasury.sol",
  "abi": [
    {
      "inputs": [],
      "stateMutability": "nonpayable",
      "type": "constructor"
    },
    {
      "inputs": [
        {
          "internalType": "address",
          "name": "owner",
          "type": "address"
        }
      ],
      "name": "OwnableInvalidOwner",
      "type": "error"
    },
    {
      "inputs": [
        {
          "internalType": "address",
          "name": "account",
          "type": "address"
        }
      ],
      "name": "OwnableUnauthorizedAccount",
      "type": "error"
    },
    {
      "anonymous": false,
      "inputs": [
        {
          "indexed": true,
          "internalType": "address",
          "name": "token",
          "type": "address"
        },
        {
          "indexed": false,
          "internalType": "bool",
          "name": "isWhitelisted",
          "type": "bool"
        }
      ],
      "name": "CollateralWhitelisted",
      "type": "event"
    },
    {
      "anonymous": false,
      "inputs": [
        {
          "indexed": true,
          "internalType": "address",
          "name": "token",
          "type": "address"
        },
        {
          "indexed": false,
          "internalType": "uint256",
          "name": "amount",
          "type": "uint256"
        }
      ],
      "name": "CommerceFeeReceived",
      "type": "event"
    },
    {
      "anonymous": false,
      "inputs": [
        {
          "indexed": true,
          "internalType": "address",
          "name": "buyer",
          "type": "address"
        },
        {
          "indexed": true,
          "internalType": "address",
          "name": "collateralToken",
          "type": "address"
        },
        {
          "indexed": false,
          "internalType": "uint256",
          "name": "collateralAmount",
          "type": "uint256"
        },
        {
          "indexed": false,
          "internalType": "uint256",
          "name": "lmktAmount",
          "type": "uint256"
        }
      ],
      "name": "MktPurchased",
      "type": "event"
    },
    {
      "anonymous": false,
      "inputs": [
        {
          "indexed": true,
          "internalType": "address",
          "name": "seller",
          "type": "address"
        },
        {
          "indexed": false,
          "internalType": "uint256",
          "name": "lmktAmount",
          "type": "uint256"
        },
        {
          "indexed": false,
          "internalType": "uint256",
          "name": "collateralAmount",
          "type": "uint256"
        },
        {
          "indexed": true,
          "internalType": "address",
          "name": "collateralToken",
          "type": "address"
        }
      ],
      "name": "MktSold",
      "type": "event"
    },
    {
      "anonymous": false,
      "inputs": [
        {
          "indexed": true,
          "internalType": "address",
          "name": "previousOwner",
          "type": "address"
        },
        {
          "indexed": true,
          "internalType": "address",
          "name": "newOwner",
          "type": "address"
        }
      ],
      "name": "OwnershipTransferred",
      "type": "event"
    },
    {
      "inputs": [],
      "name": "BURN_RATE",
      "outputs": [
        {
          "internalType": "uint256",
          "name": "",
          "type": "uint256"
        }
      ],
      "stateMutability": "view",
      "type": "function"
    },
    {
      "inputs": [],
      "name": "BUY_DISCOUNT",
      "outputs": [
        {
          "internalType": "uint256",
          "name": "",
          "type": "uint256"
        }
      ],
      "stateMutability": "view",
      "type": "function"
    },
    {
      "inputs": [],
      "name": "HOLDING_CAP_BASE",
      "outputs": [
        {
          "internalType": "uint256",
          "name": "",
          "type": "uint256"
        }
      ],
      "stateMutability": "view",
      "type": "function"
    },
    {
      "inputs": [],
      "name": "HOLDING_CAP_PERCENT",
      "outputs": [
        {
          "internalType": "uint256",
          "name": "",
          "type": "uint256"
        }
      ],
      "stateMutability": "view",
      "type": "function"
    },
    {
      "inputs": [],
      "name": "SELL_PREMIUM",
      "outputs": [
        {
          "internalType": "uint256",
          "name": "",
          "type": "uint256"
        }
      ],
      "stateMutability": "view",
      "type": "function"
    },
    {
      "inputs": [],
      "name": "SPREAD_BASE",
      "outputs": [
        {
          "internalType": "uint256",
          "name": "",
          "type": "uint256"
        }
      ],
      "stateMutability": "view",
      "type": "function"
    },
    {
      "inputs": [
        {
          "internalType": "uint256",
          "name": "collateralAmount",
          "type": "uint256"
        },
        {
          "internalType": "address",
          "name": "collateralToken",
          "type": "address"
        }
      ],
      "name": "buyMkt",
      "outputs": [],
      "stateMutability": "nonpayable",
      "type": "function"
    },
    {
      "inputs": [
        {
          "internalType": "address",
          "name": "token",
          "type": "address"
        },
        {
          "internalType": "uint256",
          "name": "amount",
          "type": "uint256"
        }
      ],
      "name": "depositCommerceFee",
      "outputs": [],
      "stateMutability": "nonpayable",
      "type": "function"
    },
    {
      "inputs": [
        {
          "internalType": "uint256",
          "name": "lmktAmount",
          "type": "uint256"
        },
        {
          "internalType": "address",
          "name": "collateralToken",
          "type": "address"
        }
      ],
      "name": "getCollateralAmountForLmkt",
      "outputs": [
        {
          "internalType": "uint256",
          "name": "",
          "type": "uint256"
        }
      ],
      "stateMutability": "view",
      "type": "function"
    },
    {
      "inputs": [
        {
          "internalType": "uint256",
          "name": "amount",
          "type": "uint256"
        },
        {
          "internalType": "address",
          "name": "token",
          "type": "address"
        }
      ],
      "name": "getCollateralTokenValue",
      "outputs": [
        {
          "internalType": "uint256",
          "name": "",
          "type": "uint256"
        }
      ],
      "stateMutability": "view",
      "type": "function"
    },
    {
      "inputs": [
        {
          "internalType": "uint256",
          "name": "collateralAmount",
          "type": "uint256"
        },
        {
          "internalType": "address",
          "name": "collateralToken",
          "type": "address"
        }
      ],
      "name": "getLmktAmountForCollateral",
      "outputs": [
        {
          "internalType": "uint256",
          "name": "",
          "type": "uint256"
        }
      ],
      "stateMutability": "view",
      "type": "function"
    },
    {
      "inputs": [],
      "name": "getTotalCollateralValue",
      "outputs": [
        {
          "internalType": "uint256",
          "name": "",
          "type": "uint256"
        }
      ],
      "stateMutability": "view",
      "type": "function"
    },
    {
      "inputs": [
        {
          "internalType": "address",
          "name": "",
          "type": "address"
        }
      ],
      "name": "isWhitelistedCollateral",
      "outputs": [
        {
          "internalType": "bool",
          "name": "",
          "type": "bool"
        }
      ],
      "stateMutability": "view",
      "type": "function"
    },
    {
      "inputs": [],
      "name": "lmktToken",
      "outputs": [
        {
          "internalType": "contract ILMKT",
          "name": "",
          "type": "address"
        }
      ],
      "stateMutability": "view",
      "type": "function"
    },
    {
      "inputs": [],
      "name": "owner",
      "outputs": [
        {
          "internalType": "address",
          "name": "",
          "type": "address"
        }
      ],
      "stateMutability": "view",
      "type": "function"
    },
    {
      "inputs": [],
      "name": "renounceOwnership",
      "outputs": [],
      "stateMutability": "nonpayable",
      "type": "function"
    },
    {
      "inputs": [
        {
          "internalType": "uint256",
          "name": "lmktAmount",
          "type": "uint256"
        },
        {
          "internalType": "address",
          "name": "collateralToken",
          "type": "address"
        }
      ],
      "name": "sellMkt",
      "outputs": [],
      "stateMutability": "nonpayable",
      "type": "function"
    },
    {
      "inputs": [
        {
          "internalType": "address",
          "name": "_lmktTokenAddress",
          "type": "address"
        }
      ],
      "name": "setLmktAddress",
      "outputs": [],
      "stateMutability": "nonpayable",
      "type": "function"
    },
    {
      "inputs": [
        {
          "internalType": "address",
          "name": "token",
          "type": "address"
        },
        {
          "internalType": "bool",
          "name": "isWhitelisted",
          "type": "bool"
        }
      ],
      "name": "setWhitelistedCollateral",
      "outputs": [],
      "stateMutability": "nonpayable",
      "type": "function"
    },
    {
      "inputs": [
        {
          "internalType": "address",
          "name": "newOwner",
          "type": "address"
        }
      ],
      "name": "transferOwnership",
      "outputs": [],
      "stateMutability": "nonpayable",
      "type": "function"
    },
    {
      "inputs": [
        {
          "internalType": "uint256",
          "name": "",
          "type": "uint256"
        }
      ],
      "name": "whitelistedCollateralTokens",
      "outputs": [
        {
          "internalType": "address",
          "name": "",
          "type": "address"
        }
      ],
      "stateMutability": "view",
      "type": "function"
    },
    {
      "stateMutability": "payable",
      "type": "receive"
    }
  ],
  "bytecode": "0x608060405234801561001057600080fd5b50338061003757604051631e4fbdf760e01b81526000600482015260240160405180910390fd5b6100408161004a565b506001805561009a565b600080546001600160a01b038381166001600160a01b0319831681178455604051919092169283917f8be0079c531659141344cd1fd0a4f28419497f9722a3daafe3b4186f6b6457e09190a35050565b611701806100a96000396000f3fe60806040526004361061012e5760003560e01c8063715018a6116100ab578063cf56e5aa1161006f578063cf56e5aa146102fb578063ed6493af1461031b578063f2dc739714610330578063f2fde38b14610345578063f846a88514610330578063f9839d891461036557600080fd5b8063715018a61461027257806374c5d7c2146102875780638da5cb5b146102a75780639d568da3146102c5578063a7e014f6146102db57600080fd5b80634850b217116100f25780634850b217146101e45780635014c45c1461021c5780635886418f1461023c57806360192281146102525780636fb4bb4c146101cf57600080fd5b8063094fcbfe1461013a5780631c9b9f031461016d578063253bcadc1461018f57806333fc0750146101af5780633e7565a7146101cf57600080fd5b3661013557005b600080fd5b34801561014657600080fd5b5061015a6101553660046113d6565b6103a5565b6040519081526020015b60405180910390f35b34801561017957600080fd5b5061018d610188366004611402565b610436565b005b34801561019b57600080fd5b5061018d6101aa366004611432565b6104c9565b3480156101bb57600080fd5b5061015a6101ca3660046113d6565b6106fd565b3480156101db57600080fd5b5061015a606481565b3480156101f057600080fd5b506102046101ff366004611469565b6107e4565b6040516001600160a01b039091168152602001610164565b34801561022857600080fd5b50600254610204906001600160a01b031681565b34801561024857600080fd5b5061015a6103e881565b34801561025e57600080fd5b5061015a61026d3660046113d6565b61080e565b34801561027e57600080fd5b5061018d610979565b34801561029357600080fd5b5061018d6102a23660046113d6565b61098d565b3480156102b357600080fd5b506000546001600160a01b0316610204565b3480156102d157600080fd5b5061015a61271081565b3480156102e757600080fd5b5061018d6102f6366004611482565b610d02565b34801561030757600080fd5b5061018d6103163660046113d6565b610e4b565b34801561032757600080fd5b5061015a6111b4565b34801561033c57600080fd5b5061015a600581565b34801561035157600080fd5b5061018d610360366004611402565b6112ff565b34801561037157600080fd5b50610395610380366004611402565b60036020526000908152604090205460ff1681565b6040519015158152602001610164565b600080826001600160a01b031663313ce5676040518163ffffffff1660e01b8152600401602060405180830381865afa1580156103e6573d6000803e3d6000fd5b505050506040513d601f19601f8201168201806040525081019061040a91906114ac565b90506104178160126114e5565b61042290600a6115e2565b61042c90856115f1565b9150505b92915050565b61043e61133d565b6002546001600160a01b0316156104a75760405162461bcd60e51b815260206004820152602260248201527f54726561737572793a204c4d4b54206164647265737320616c72656164792073604482015261195d60f21b60648201526084015b60405180910390fd5b600280546001600160a01b0319166001600160a01b0392909216919091179055565b6104d161133d565b6001600160a01b0382166000908152600360205260409020805460ff191682158015919091179091556105aa5760005b60045481101561055957826001600160a01b03166004828154811061052857610528611608565b6000918252602090912001546001600160a01b03160361054757505050565b806105518161161e565b915050610501565b50600480546001810182556000919091527f8a35acfbc15ff81a39ae7d344fd709f28e8600b4aa8c65c6b64bfe7fe36bd19b0180546001600160a01b0319166001600160a01b0384161790556106b4565b60005b6004548110156106b257826001600160a01b0316600482815481106105d4576105d4611608565b6000918252602090912001546001600160a01b0316036106a057600480546105fe90600190611637565b8154811061060e5761060e611608565b600091825260209091200154600480546001600160a01b03909216918390811061063a5761063a611608565b9060005260206000200160006101000a8154816001600160a01b0302191690836001600160a01b0316021790555060048054806106795761067961164a565b600082815260209020810160001990810180546001600160a01b03191690550190556106b2565b806106aa8161161e565b9150506105ad565b505b816001600160a01b03167f3cd44c9ffcc58ef85c0b1cb3e60f01382feb190f42795e92a10ceb2d757a938c826040516106f1911515815260200190565b60405180910390a25050565b60008061070a84846103a5565b905060006107166111b4565b6002546040516370a0823160e01b81523060048201529192506000916001600160a01b03909116906370a0823190602401602060405180830381865afa158015610764573d6000803e3d6000fd5b505050506040513d601f19601f820116820180604052508101906107889190611660565b90508160000361079e5760009350505050610430565b6000826107ab83866115f1565b6107b59190611679565b90506127106107c5606482611637565b6107cf90836115f1565b6107d99190611679565b979650505050505050565b600481815481106107f457600080fd5b6000918252602090912001546001600160a01b0316905081565b6000806108196111b4565b6002546040516370a0823160e01b81523060048201529192506000916001600160a01b03909116906370a0823190602401602060405180830381865afa158015610867573d6000803e3d6000fd5b505050506040513d601f19601f8201168201806040525081019061088b9190611660565b9050806000036108a057600092505050610430565b6000816108ad84886115f1565b6108b79190611679565b905060006127106108c9606482611637565b6108d390846115f1565b6108dd9190611679565b90506000866001600160a01b031663313ce5676040518163ffffffff1660e01b8152600401602060405180830381865afa15801561091f573d6000803e3d6000fd5b505050506040513d601f19601f8201168201806040525081019061094391906114ac565b9050670de0b6b3a764000061095982600a6115e2565b61096390846115f1565b61096d9190611679565b98975050505050505050565b61098161133d565b61098b600061136a565b565b6002600154036109df5760405162461bcd60e51b815260206004820152601f60248201527f5265656e7472616e637947756172643a207265656e7472616e742063616c6c00604482015260640161049e565b60026001556001600160a01b03811660009081526003602052604090205460ff16610a4c5760405162461bcd60e51b815260206004820152601f60248201527f54726561737572793a20546f6b656e206e6f742077686974656c697374656400604482015260640161049e565b6000610a5883836106fd565b905060006103e86005600260009054906101000a90046001600160a01b03166001600160a01b03166318160ddd6040518163ffffffff1660e01b8152600401602060405180830381865afa158015610ab4573d6000803e3d6000fd5b505050506040513d601f19601f82011682018060405250810190610ad89190611660565b610ae291906115f1565b610aec9190611679565b6002546040516370a0823160e01b8152336004820152919250829184916001600160a01b0316906370a0823190602401602060405180830381865afa158015610b39573d6000803e3d6000fd5b505050506040513d601f19601f82011682018060405250810190610b5d9190611660565b610b67919061169b565b1115610bc45760405162461bcd60e51b815260206004820152602660248201527f54726561737572793a205075726368617365206578636565647320686f6c646960448201526506e67206361760d41b606482015260840161049e565b6040516323b872dd60e01b8152336004820152306024820152604481018590526001600160a01b038416906323b872dd906064016020604051808303816000875af1158015610c17573d6000803e3d6000fd5b505050506040513d601f19601f82011682018060405250810190610c3b91906116ae565b5060025460405163a9059cbb60e01b8152336004820152602481018490526001600160a01b039091169063a9059cbb906044016020604051808303816000875af1158015610c8d573d6000803e3d6000fd5b505050506040513d601f19601f82011682018060405250810190610cb191906116ae565b5060408051858152602081018490526001600160a01b0385169133917f37b5f51a361bef39ebb0de443aabf27ced718a6240798866b4ffc6c1ed1344ba910160405180910390a35050600180555050565b6002546001600160a01b0383811691161480610d3657506001600160a01b03821660009081526003602052604090205460ff165b610d985760405162461bcd60e51b815260206004820152602d60248201527f54726561737572793a2043616e206f6e6c79207265636569766520776869746560448201526c6c697374656420746f6b656e7360981b606482015260840161049e565b6040516323b872dd60e01b8152336004820152306024820152604481018290526001600160a01b038316906323b872dd906064016020604051808303816000875af1158015610deb573d6000803e3d6000fd5b505050506040513d601f19601f82011682018060405250810190610e0f91906116ae565b50816001600160a01b03167f549340764ea97c24d00be84b5402a70f793c845a1578490632afba2b65e5b137826040516106f191815260200190565b600260015403610e9d5760405162461bcd60e51b815260206004820152601f60248201527f5265656e7472616e637947756172643a207265656e7472616e742063616c6c00604482015260640161049e565b60026001556001600160a01b03811660009081526003602052604090205460ff16610f0a5760405162461bcd60e51b815260206004820152601f60248201527f54726561737572793a20546f6b656e206e6f742077686974656c697374656400604482015260640161049e565b6000612710610f1a6005856115f1565b610f249190611679565b90506000610f328285611637565b90506000610f40828561080e565b6040516370a0823160e01b815230600482015290915081906001600160a01b038616906370a0823190602401602060405180830381865afa158015610f89573d6000803e3d6000fd5b505050506040513d601f19601f82011682018060405250810190610fad9190611660565b10156110175760405162461bcd60e51b815260206004820152603360248201527f54726561737572793a20496e73756666696369656e7420726573657276657320604482015272199bdc881d1a1a5cc818dbdb1b185d195c985b606a1b606482015260840161049e565b6002546040516323b872dd60e01b8152336004820152306024820152604481018790526001600160a01b03909116906323b872dd906064016020604051808303816000875af115801561106e573d6000803e3d6000fd5b505050506040513d601f19601f8201168201806040525081019061109291906116ae565b50600254604051630852cd8d60e31b8152600481018590526001600160a01b03909116906342966c6890602401600060405180830381600087803b1580156110d957600080fd5b505af11580156110ed573d6000803e3d6000fd5b505060405163a9059cbb60e01b8152336004820152602481018490526001600160a01b038716925063a9059cbb91506044016020604051808303816000875af115801561113e573d6000803e3d6000fd5b505050506040513d601f19601f8201168201806040525081019061116291906116ae565b5060408051868152602081018390526001600160a01b0386169133917fffb30956da63e1ed1617182a525ae26848d4ab884c0cad04828ca872f6da3838910160405180910390a3505060018055505050565b600080805b6004548110156112f9576000600482815481106111d8576111d8611608565b60009182526020822001546040516370a0823160e01b81523060048201526001600160a01b03909116925082906370a0823190602401602060405180830381865afa15801561122b573d6000803e3d6000fd5b505050506040513d601f19601f8201168201806040525081019061124f9190611660565b90506000826001600160a01b031663313ce5676040518163ffffffff1660e01b8152600401602060405180830381865afa158015611291573d6000803e3d6000fd5b505050506040513d601f19601f820116820180604052508101906112b591906114ac565b90506112c28160126114e5565b6112cd90600a6115e2565b6112d790836115f1565b6112e1908661169b565b945050505080806112f19061161e565b9150506111b9565b50919050565b61130761133d565b6001600160a01b03811661133157604051631e4fbdf760e01b81526000600482015260240161049e565b61133a8161136a565b50565b6000546001600160a01b0316331461098b5760405163118cdaa760e01b815233600482015260240161049e565b600080546001600160a01b038381166001600160a01b0319831681178455604051919092169283917f8be0079c531659141344cd1fd0a4f28419497f9722a3daafe3b4186f6b6457e09190a35050565b80356001600160a01b03811681146113d157600080fd5b919050565b600080604083850312156113e957600080fd5b823591506113f9602084016113ba565b90509250929050565b60006020828403121561141457600080fd5b61141d826113ba565b9392505050565b801515811461133a57600080fd5b6000806040838503121561144557600080fd5b61144e836113ba565b9150602083013561145e81611424565b809150509250929050565b60006020828403121561147b57600080fd5b5035919050565b6000806040838503121561149557600080fd5b61149e836113ba565b946020939093013593505050565b6000602082840312156114be57600080fd5b815160ff8116811461141d57600080fd5b634e487b7160e01b600052601160045260246000fd5b60ff8281168282160390811115610430576104306114cf565b600181815b8085111561153957816000190482111561151f5761151f6114cf565b8085161561152c57918102915b93841c9390800290611503565b509250929050565b60008261155057506001610430565b8161155d57506000610430565b8160018114611573576002811461157d57611599565b6001915050610430565b60ff84111561158e5761158e6114cf565b50506001821b610430565b5060208310610133831016604e8410600b84101617156115bc575081810a610430565b6115c683836114fe565b80600019048211156115da576115da6114cf565b029392505050565b600061141d60ff841683611541565b8082028115828204841417610430576104306114cf565b634e487b7160e01b600052603260045260246000fd5b600060018201611630576116306114cf565b5060010190565b81810381811115610430576104306114cf565b634e487b7160e01b600052603160045260246000fd5b60006020828403121561167257600080fd5b5051919050565b60008261169657634e487b7160e01b600052601260045260246000fd5b500490565b80820180821115610430576104306114cf565b6000602082840312156116c057600080fd5b815161141d8161142456fea264697066735822122026424a5dbc2da7800bab55172aa83243bea781775c2012c33ee0bd8423b193b064736f6c63430008140033",
  "linkReferences": {},
  "deployedLinkReferences": {}
}